:020000040002F8
:10200000287F00202DC7020035C7020037C7020015
:1020100039C702003BC702003DC7020000000000B4
:102020000000000000000000000000003FC70200A8
:1020300041C702000000000043C7020045C702007C
:10204000BF39020047C70200813F02001930020079
:1020500047C7020047C702007F4B020047C7020084
:1020600047C7020047C7020047C7020047C7020030
:1020700047C7020047C7020047C7020047C7020020
:1020800047C70200A353020047C7020047C7020028
:10209000B553020047C7020047C7020047C7020006
:1020A00047C7020047C7020047C7020047C70200F0
:1020B00047C7020047C70200000000000000000000
:1020C00047C7020047C7020047C7020047C70200D0
:1020D00047C7020047C7020047C7020047C70200C0
:1020E00047C7020047C7020047C7020047C70200B0
:1020F0000000000047C702000000000000000000D0
:1021000000000000000000000000000000000000CF
:1021100000000000000000000000000000000000BF
:1021200000000000000000000000000000000000AF
:10213000000000000000000000000000000000009F
:10214000000000000000000000000000000000008F
:10215000000000000000000000000000000000007F
:10216000000000000000000000000000000000006F
:10217000000000000000000000000000000000005F
:10218000000000000000000000000000000000004F
:10219000000000000000000000000000000000003F
:1021A000000000000000000000000000000000002F
:1021B000000000000000000000000000000000001F
:1021C000000000000000000000000000000000000F
:1021D00000000000000000000000000000000000FF
:1021E00000000000000000000000000000000000EF
:1021F00000000000000000000000000000000000DF
:10220000DFF80CD010F0B8F800480047D3230200E4
:10221000287F00200178022904D0012905D14068D7
:1022200003F086B9406803F083B9704700B58BB0FE
:1022300001F041FA1822FE4905A80FF0B5FCFD484F
:1022400001904FF480700290FB4803904FF480603F
:1022500004900723AFF2430201A905A803F0D2FAC4
:10226000002801D003F064F90BB000BD10B501F0F7
:10227000F0F808B103F05CF9BDE81040EFA11320BD
:1022800003F0CDBD10B501F0D2FA08B103F050F95A
:10229000BDE81040002001F00EBB704710B5E448C7
:1022A000EB4A0121083803F0A5F8002803D0BDE867
:1022B000104003F03DB910BDDE49012024390871FA
:1022C00070477047704708B502F0A2F908B103F0F3
:1022D0002FF9D74808384068009003208DF8010096
:1022E000DC4A6946282002F036FB08B103F020F9E9
:1022F0000121282002F0DAFB08BD2DE9F04F2DED79
:10230000048BA5B0002014901590169020210CA8E5
:102310000FF071FC17AA18A919A80AF03CF80028B8
:1023200052D017AA18A914A804F024FC00284BD0F6
:1023300019980FF01DFE9FEDC89B53EC192B0FF061
:1023400020FD41EC180B8DED0C8B1A980FF010FE50
:1023500053EC192B0FF015FDCDE90E01CDE922014B
:102360001B980FF005FE53EC192B0FF00AFD8B465E
:102370008246CDE910011C980FF0FAFD53EC192BA1
:102380000FF0FFFC89468046CDE9120116980FF048
:1023900040FE04460D4615980FF03BFE06460F46DC
:1023A00014980FF036FE06AACDE902ABCDE90489F8
:1023B000C3C2CDE90A45DDE92201CDE9000153ECB4
:1023C000182BA7A00FF0F8FF25B0BDEC048BBDE8DB
:1023D000F08F98B0FFF756FF02F0EDFF08B103F061
:1023E000A7F8FFF75BFF9248002208384FF434014A
:1023F000006803F014F808B103F09AF8FFF716FF2D
:10240000002003F0F6FC08B103F092F8FFF75BFF41
:10241000FFF72CFF12A807F09FFC20B19CA113200E
:1024200003F0FDFC03E0A2A1132003F0F8FC05F08B
:1024300027FD18B1A2A1132003F0F1FC0EF01AFD44
:102440000DF078FD0DF004FA0CF096FC0EF03CF85F
:102450000AF041F918B1A1A1132003F0E0FC05F046
:1024600043FD0446A54DA64E322C09D034B1A5A19A
:10247000132003F0D4FC284600F0B7F944B10BE078
:10248000A7A1132003F0CBFC284600F0AEF9F7E734
:10249000A8A1132003F0C3FC792006F09BFF78204D
:1024A00007F094FA142007F0A0FB0A2007F02BF89D
:1024B00016A807F083FF15A807F024FF17A807F058
:1024C0003EFF11A809F0C2FDBDF85800B6FBF0F0C0
:1024D00003F044FEBDF85800B6FBF0F003F04EFEEA
:1024E000984803F05DFE984805F07EFBBDF8541057
:1024F000C90303F02EFE944805F076FB9DF85C10AE
:10250000C90303F0BEFE9048093005F06DFBBDF82D
:102510004410C90303F0BAFE464C0720243C607007
:102520000025A570A56184F82150E56065612561ED
:1025300014A801F007F806F02FF8024609E083A17D
:10254000132003F070FC304600F04FF906F024F839
:102550000246002AF3D18CA1132003F060FC7A48D4
:1025600005F042FB06F020F88C4806F019FE8C4876
:1025700006F01AFE40F27310A08306F0FAFB142056
:1025800006F09BF9012009F019FA0120A070322011
:1025900006F093F944F62066304603F023FE3046F9
:1025A00003F0DCFD304603F0E9FD62B600F05FF9B0
:1025B00014A800F0C7FF207961780029F8D02179AC
:1025C0000029F5D00028F3D0207908B1207868BB25
:1025D000207958B3A07848B30AA80BA9CDE9001018
:1025E00010AB03AA0CA90EA806F015FD0028DFD138
:1025F0009DF8280000B92571BDF82C0010F0700F6F
:1026000003D00EA8109903F0DAFFBDF82C000007E4
:102610000DD5BDF930000790BDF932000890BDF925
:1026200034000990002107A8109ABBE0C5E0BBE088
:10263000104903009C2200209C2300200D0A5457BF
:10264000492073746172747321200D0A0000000028
:102650009B220200B9220200000000000000103E90
:1026600025372E35662C25372E35662C25372E3509
:10267000662C25372E35662C25372E35662C2537CA
:102680002E35662C25372E3566200D0A00000000F9
:10269000436F756C64206E6F7420696E6974696134
:1026A0006C697A6520746865206D70752E0D0A005E
:1026B0004D50552073746172747321200D0A00000F
:1026C000436F756C64206E6F7420696E6974696104
:1026D0006C697A65204D504C2E0D0A00656E616262
:1026E0006C655F654D504C5F6F75747075747320C9
:1026F0006661696C656421200D0A000000CA9A3B7E
:1027000040420F00436F756C64206E6F74207374C9
:1027100061727420746865204D504C2E0D0A0000C3
:102720004E6F7420617574686F72697A65642E0DDE
:102730000A0000004D504C207374617274732120A4
:102740000D0A0000A08601009C210020436F756CDB
:1027500064206E6F74206C6F616420444D5020497A
:102760006D6167652C204572726F7220436F6465DE
:102770003A2025642C20726574727920696E2031AC
:1027800020736563200D0A00444D5020646F776EFE
:102790006C6F6164656421200D0A0000C322020091
:1027A000C522020003F0DBFEBDF82C00C00504D5F5
:1027B000002103A8109A03F08CFF10A90EA809F0BD
:1027C000EFFB68B9BDF938000B90BDF93A000C90E9
:1027D000BDF93C000D9000210BA8109A03F034FFC6
:1027E00004F073F8FFF789FDE2E600283ED04E4A78
:1027F0004E49126800BF00BF00BF00BF00BF00BF4E
:1028000000BF00BF8A422FD000BF00BF00BF00BF83
:1028100000BF00BF00BF00BF00BF00BF00BF00BFC0
:1028200000BF00BF00BF00BF00BF00BF00BF00BFB0
:1028300000BF00BF00BF00BF00BF00BF00BF00BFA0
:1028400000BF00BF00BF00BF00BF00BF00BF00BF90
:1028500000BF00BF00BF00BF00BF00BF00BF00BF80
:1028600000BF00BF00BF00BF401EC3D1704710B5FE
:1028700088B0002202A905A809F0DBF80446072C5D
:1028800002D0E0073FD042E029A1132003F0C7FAAD
:1028900001A807F0C6FDBDF804000299414302916A
:1028A000039941430391049941430491032102A8F0
:1028B00003F094FD684607F092FD9DED050AF8EEE1
:1028C000C00A9DED000A60EE800AFDEEE00ACDED43
:1028D000050ADDED060AF8EEE00A60EE800AFDEE7C
:1028E000E00ACDED060ADDED070AF8EEE00A20EE7B
:1028F000800ABDEEC00A8DED070A032105A803F08A
:10290000D0FD08B010BD0FA1132003F088FAA00776
:1029100003D410A1132003F082FA6007F1D411A1AF
:10292000132003F07CFAECE7382200200024F400A6
:1029300053656C66205465737420506173736564CD
:10294000210D0A004779726F206661696C65642EFB
:102950000D0A0000416363656C206661696C656403
:102960002E0D0A00436F6D70617373206661696C90
:1029700065642E0D0A00000000283ED0F44AF54997
:10298000126800BF00BF00BF00BF00BF00BF00BF94
:1029900000BF8A422FD000BF00BF00BF00BF00BFF2
:1029A00000BF00BF00BF00BF00BF00BF00BF00BF2F
:1029B00000BF00BF00BF00BF00BF00BF00BF00BF1F
:1029C00000BF00BF00BF00BF00BF00BF00BF00BF0F
:1029D00000BF00BF00BF00BF00BF00BF00BF00BFFF
:1029E00000BF00BF00BF00BF00BF00BF00BF00BFEF
:1029F00000BF00BF00BF401EC3D170470146032087
:102A0000CA0701D04FF402408A0701D548F20120DD
:102A1000490701D548F20220704738B5044640F214
:102A20000C602168890001F1A041C1F800076168CC
:102A3000890001F1A041C1F80007206800F00DFBFA
:102A4000606800F00AFB216840F20D60890001F126
:102A5000A041C1F800076168890001F1A041C1F8F7
:102A600000070420FFF788FF002560680090684693
:102A700000F0E8FAD0F810050099C84000F0010015
:102A800010B1002D1AD00EE0206800F0F0FA0420FA
:102A9000FFF772FF206800F0E0FA0420FFF76CFFF8
:102AA0006D1C092DE1DB606800F0E1FA0420FFF7FE
:102AB00063FF6068BDE8384000F0CFBA38BD70B53C
:102AC00006460D463079A44900EB800001EBC004B6
:102AD00094F82200002801D0082070BD22606360B5
:102AE0000020A06084F8250084F82400A87B84F8E6
:102AF0002700687B10B12846FFF78FFF296840F256
:102B00000C60890001F1A041C1F8000769688900E3
:102B100001F1A041C1F800073068D5E9001200F5C5
:102B2000A16001604260A968C161206828B1306875
:102B3000000B40B2297B00F0ABFF012084F822009B
:102B4000002070BD0179844A01EB810102EBC101D3
:102B5000006800228A60531EC0F80833D0F80032A3
:102B6000C0F80022C0F80025012081F8220070473B
:102B700030B504467849207900EB800001EBC005B0
:102B8000286800280CD02068000B40B200F01F021B
:102B9000012191404009800000F1E020C0F880113F
:102BA0002046FFF7CFFF95F8270088B9216840F24B
:102BB0000230D1F80815890001F1A041C1F80007E1
:102BC0002168D1F80C15890001F1A041C1F8000776
:102BD000002085F8220030BD01795F4A01EB8101B8
:102BE00002EBC10100680622C0F80025022081F82E
:102BF000220070470079584900EB800001EBC000CB
:102C000090F8240070472DE9F84F06460C4615460B
:102C10001F46002000904FF0080A4FF48279686840
:102C200000F008FA60B14FF0FF30C4F8080396F8DE
:102C3000240038B1B068C4F804031120BDE8F88F4F
:102C40001020FBE7780703D4F80601D4012000E048
:102C5000002086F8240095E80700C6E90412F06019
:102C6000C7F3001086F825006878C4F888054FF48B
:102C70008271204600F0D3F94FF49271204600F0A3
:102C8000CEF9F8074FF0000B4FF0010802D0C4F85E
:102C9000508501E0C4F850B5B80702D5C4F84085A6
:102CA00001E0C4F840B52878F0B3012873D00228B9
:102CB00059D0032814D007200090380704D428786E
:102CC000032801D044F80A80306800287BD07807B8
:102CD00002D54FF40070B060B068C4F80403B1E0EE
:102CE000A86800F0A7F9D8B34FF48070C4F80002C8
:102CF000A9786868C4F84405C4F848154FF4A87169
:102D0000204600F08CF94FF4B071204600F087F9AE
:102D10004FF4A471204600F082F9C4F82080C4F872
:102D200008804FF4A87100E038E0204600F07DF9FB
:102D30000028F6D04FF4A871204600F070F9E97829
:102D4000A868C4F84405C4F848150448B060B4E75E
:102D5000382200200024F4009C27002000020400F8
:102D6000FFE710206AE7A9786868C4F84405C4F84A
:102D70004815A86800F05EF970B1E978A868C4F851
:102D80003405C4F838154FF48450C4F8000240F2FA
:102D90000220B06091E720E010204FE7A978686832
:102DA000C4F84405C4F84815B8060DD54FF4807032
:102DB000C4F80002B348B0604FF4A47949462046F5
:102DC00000F02DF906E01AE04FF40070C4F800029C
:102DD000801CB060C4F820806FE7A9786868C4F8E8
:102DE0003405C4F838154FF48050C4F8000240F29E
:102DF0000220B0604FF0000AC4F820805DE74FF475
:102E000082754FF492770DE03946204600F00DF9B7
:102E100040B13946204600F002F9C4F82080C4F8D9
:102E20001480A9464946204600F0FFF80028EBD060
:102E3000D4F8C404C4F8C40486F824B010B1FFF771
:102E4000DDFD00900098F9E630B40D4601798E4C16
:102E500001EB810104EBC104134601682A462046B8
:102E600030BCD0E63EB5069D0024009402948DF857
:102E700001108DF802300192002D01D0202200E0D7
:102E800000226946FFF7E0FF3EBD3EB57F4C256856
:102E9000A468009502948DF801108DF8023001921B
:102EA00000226946FFF7D0FF3EBD00207047026850
:102EB000012901D0082000E000201044704700687C
:102EC00000F5827070472DE9FF4705460C464FF428
:102ED00092794946284600F0A8F84FF002080127E9
:102EE0004FF4827640B14946284600F098F83146C2
:102EF000284600F09AF8D8B3B2465146284600F06A
:102F000094F84FF0FF39002698B35146284600F058
:102F100086F8D4E90412E06801AB07C394F82300F3
:102F200078B1207B012831D0D5F84C05C0B28DF89E
:102F30000600207B02282DD0D5F84C05C0B28DF8B4
:102F400007004FF4B071284600F069F84FF4AE71F5
:102F5000284600F064F894F8250010B194F8230096
:102F600088B30020C5F80002A660C5F8089339E0D0
:102F700000E013E0A068C5F80803C4F80880A06862
:102F8000C5F804032F626F61BDE8FF87D5F83C05E3
:102F9000C0B2CCE7D5F83C05C0B2D0E74FF4A4717D
:102FA000284600F03CF8207B70B14FF40070C5F863
:102FB0000002801CA060C5F80893A068C5F804034F
:102FC000AF602F62E0E70DE0D4E90412E06801ABE6
:102FD00007C394F8250028B90020C5F80002A660B0
:102FE000C5F80893D5F8C404C5F8C404810702D510
:102FF0008DF8007006E0400702D58DF8008001E0F2
:103000008DF8006094F8250008B984F82460D4E9AC
:10301000002168469047B7E71B491D4853E708B5AC
:10302000002242504058009008BD4058002800D06F
:10303000012070470121B1EB507F01D10120704781
:10304000002070470168202902D24FF0A04070474D
:1030500001F01F0101600F48704701B56846FFF796
:10306000F1FF009A01219140C0F8081508BD01B593
:103070006846FFF7E7FF009A01219140C0F80C1560
:1030800008BD0000000204009C270020284903001E
:103090000030004000030050017800290AD1007977
:1030A000CE4A012138B1012807D0022807D00328D1
:1030B00000D1117070471170704751707047517096
:1030C00070471FB5C648D0E90323816840698DE881
:1030D0000E0003900023C34A6946C148FFF7EFFC86
:1030E000002803D1BE48FFF777FD002004B010BDD3
:1030F00030B414461A4600F8011B214630BC0EF0CD
:1031000053BDFEB51646B84C0A4601463346B7488D
:10311000FFF7EEFF68208DF8010000258DF80050C4
:10312000761C8DF80260B148019000226946AC48D7
:10313000FFF78AFEA9490A780AB9641EFBD10CB1CF
:103140000D70FEBD0D20FEBD7CB5A74C8DF80400B2
:103150008DF805100025022301AA6821A0480095DA
:10316000FFF780FE002806D19C490A780AB9641E40
:10317000FBD10CB10D707CBD0D207CBD2DE9F7435A
:1031800082B089469046984C25460027012302AA22
:10319000682193480097FFF765FE002813D18F4EF2
:1031A000307808B96D1EFBD165B1377008F0FF03A8
:1031B0004A4668218A48FFF768FE002803D17178E3
:1031C00021B105E00D2005B0BDE8F083641EF6D105
:1031D0000CB17770F7E70D20F5E72DE9F74382B0E2
:1031E00089469046804C25460027012302AA0C21DF
:1031F0007B480097FFF736FE0028E4D1774E307801
:1032000008B96D1EFBD165B1377008F0FF034A465F
:103210000C217348FFF739FE0028D4D1717811B121
:1032200003E00D20CFE7641EF8D10CB17770CAE738
:103230000D20C8E77CB56C4C8DF804008DF80510A6
:103240000025022301AA0C2165480095FFF70AFE1C
:10325000002806D161490A780AB9641EFBD10CB175
:103260000D707CBD0D207CBD2DE9FF4782B08146ED
:1032700090469A465C4C25460027012303AA4946FE
:1032800057480097FFF7EEFD06463EB158A11320C0
:1032900002F0C5FD304606B0BDE8F0874F4E3078ED
:1032A00008B96D1EFBD185B1377008F0FF03524697
:1032B00049464B48FFF7E9FD0546280007D053A1D2
:1032C000132002F0ACFD2846E5E70D20E3E7707817
:1032D00008B9641EFBD114B177702846DBE70D20D6
:1032E000D9E77CB5404C8DF8041019788DF805109D
:1032F00000250146022301AA39480095FFF7B2FDD7
:10330000002806D135490A780AB9641EFBD10CB1F0
:103310000D707CBD0D207CBDA6E72DE9F8438046ED
:103320000F4615469946304C681C11F061FA064666
:1033300037702A464946701C0EF036FC00276D1C7B
:10334000EBB23246414626480097FFF78BFD054613
:1033500045B135A00FF030F8304611F021FA28467B
:10336000BDE8F8831D48017809B9641EFBD12CB172
:103370000770304611F014FA2846F1E7304611F094
:103380000FFA0D20ECE72DE9FC5F0F4690469946B9
:103390008346154D00240026DFF840A018E03819B8
:1033A0008DF8040019F804008DF80500022301AA25
:1033B00059460B480096FFF755FD00280AD19AF8A8
:1033C000001009B96D1EFAD135B18AF80060641C8D
:1033D0004445E4D3BDE8FC9F0D20FBE7AE2100206F
:1033E000344903009930020040420F00C4270020F6
:1033F0006572726F722072657475726E2066726F7C
:103400006D20747769207478200D0A006572726FE0
:10341000722072657475726E2066726F6D2074779B
:1034200069207278200A00007477695F74782065DB
:1034300072726F7200000000014604221920FFF72B
:1034400060BE01783720FFF77FBE01783820FFF794
:103450007BBE10B5FFF735FE0028FFD110BD1CB5AF
:103460000446062269463B20FFF788FE00280BD160
:1034700000216846C1F10502825C04F8012B491C59
:10348000C9B20629F6D300201CBD1CB5044606228D
:1034900069464320FFF772FE00280BD100216846E1
:1034A000C1F10502825C04F8012B491CC9B206294E
:1034B000F6D300201CBD38B50446022269464120DF
:1034C000FFF75CFE002808D19DF800109DF8010070
:1034D000090200FA81F02080002038BD0122014657
:1034E0003A20FFF74BBE38B5044601226946372023
:1034F000FFF744FE9DF8000040F00200009068468F
:10350000FFF79FFF002803D121780A20FFF792FEE2
:1035100038BD38B50C46014606220320FFF75DFE94
:1035200000280CD134B12146BDE8384001220920E1
:10353000FFF753BE012269460920FFF74EFE38BD52
:10354000FFF74BBE10B5044601F09CFF00EB4001B5
:10355000C1EBC0104FF4804101EBC000C00B2060F4
:1035600010BD0FB4F0B5C7B00446092C14D2DFE883
:1035700004F0050505050505051305004FAA46924B
:1035800006A84E990EF040FF0546002D06DC2846A1
:1035900047B0F0BC5DF814FB0020F9E7182168463D
:1035A0000EF029FB24208DF8000001208DF8010089
:1035B0008DF802400D208DF815000A208DF81600B8
:1035C000002418E0281B122800DB1220C6B26F4628
:1035D0001221F81C0EF00FFB06A801193246F81C48
:1035E0000EF0E2FA684602F019FC024604A103203C
:1035F00002F019FC1234AC42E4DB0020C8E7000002
:103600003A494E464F3A25730000000038B5012470
:10361000002908D00090684600F0ABF800998C4073
:10362000C0F8084538BD0090684600F0A2F800993F
:103630008C40C0F80C4538BD08B56049085C009066
:10364000684600F096F8D0F804050099C84000F0EC
:10365000010000B1012080F0010008BD5749085C5D
:103660000021D3E75549085C0121CFE710B50024BC
:103670002046FFF7F7FF641C042CF9D310BD10B5EA
:1036800000242046FFF7EAFF641C042CF9D310BD88
:1036900008B54A49085C0090684600F06AF800F2F4
:1036A00004500168009B01229A4022EA0103436012
:1036B0000A40826008BD7CB50024404E0025305D84
:1036C0000122009500231146019500F05DF8641C6D
:1036D000042CF4D3BDE87C40C8E73849085C704747
:1036E00010B501464FF0FF340020344A135C8B4282
:1036F00001D1044602E0401C0428F7D3204610BD47
:1037000008B52E49091D085C0090684600F031F8A4
:10371000D0F810050099C84000F0010000B1012068
:1037200080F0010008BD7CB50024244E0025361D24
:103730000323305D002200951146019500F024F826
:10374000641C042CF4D37CBD10B501464FF0FF344B
:1037500000201A4A121D135C8B4201D1044602E07C
:10376000401C0428F7D3204610BD1449091D085CED
:1037700070470168202902D24FF0A040704701F045
:103780001F0101600E4870472DE9FF410C46DDE93D
:103790000A7815461E466846FFF7EBFF44EA4501E6
:1037A000009A41EA860141EA072100EB820041EAE2
:1037B0000841C0F80017BDE8FF8100004C49030034
:1037C0000003005010B54FF4827000F022F902207F
:1037D000A7490860A7490120086010BDA54901203C
:1037E000091D0860A4480168C1F300410029FAD10D
:1037F000A24900208870704710B54FF4807000F027
:1038000008F901208107C1F80403086010BD10B554
:1038100098490120091F0860012000F009F90028DB
:10382000FAD19649487010BD94480078704770B539
:103830000025924C2078002801D0852515E0002134
:10384000A16061602161E1608D480068012610F08F
:10385000010F01D0012100E0002119B90021084623
:1038600000F016F9874806602670284670BD10B52E
:1038700000F00AF94FF0FF307D49091D0860FFF79D
:10388000ADFFFFF7C4FF7D490020087010BD02683E
:10389000134602E08A4206D01268002AFAD103B920
:1038A00000230B600160704701460868002801D0C2
:1038B00002680A60704770B50446704DA878002809
:1038C0000ED014B1616801208847002002F04EF844
:1038D000E868401CE860BDE87040002002F047B88E
:1038E000002002F043F824B1644821461030FFF76D
:1038F000CEFFE86808B9FFF765FFE868401CE8609C
:10390000BDE87040002002F032B810B5002002F08F
:103910002DF85A48C168491EC160C06808B9FFF750
:103920005DFFBDE81040002002F021B85248006859
:10393000C0F30040704770B50446504D68780028C9
:103940000ED014B1616800208847002002F00EF804
:103950006868401C6860BDE87040002002F007B84D
:10396000002002F003F824B1444821460830FFF754
:103970008EFF686808B9FFF73FFF6868401C686001
:10398000BDE87040002001F0F2BF10B5002001F04A
:10399000EDFF3A484168491E4160406808B9FFF7A9
:1039A00036FFBDE81040002001F0E1BF012000F02B
:1039B0003FB80F2070470F2070470F2070472DE948
:1039C000F0414FF48077384600F02BF801242B4E5D
:1039D000A50748B1384600F01CF80120C5F80803D7
:1039E0007470002000F031F84FF48277384600F010
:1039F00018F800280BD0384600F00BF80220C5F864
:103A00000803B470BDE8F041012000F01EB8BDE825
:103A1000F08108B500F1804000210160006800904D
:103A200008BD00F180400068002800D001207047E8
:103A300011490C39096840F4803001F001118142CC
:103A400001D1012070470020704770B50546002D58
:103A500002D00A4C103405E0084C083402E04168FA
:103A6000284688472046FFF71FFF0028F7D170BD82
:103A7000040300400800004018040040D427002040
:103A800000E100E0180500400F4901200860704780
:103A90004907090E002806DA00F00F0202F1E022C1
:103AA00082F8141D03E000F1E02282F8001400F017
:103AB0001F02012191404009800000F1E020C0F880
:103AC0008012C0F80011704780E100E02DE9F0415C
:103AD00005460E4617462879DFF8508408EB401457
:103AE000E07E002802D00820BDE8F081707F2077BA
:103AF0003146284600F080FA6760306920601FB1C7
:103B0000317F284600F0E3FA287908EB4010007F67
:103B100020B128680821C0F8001503E028680421B6
:103B2000C0F800150020E0752076A0750121E1762F
:103B3000A076D9E770B50446FC49207901EB401521
:103B400000262A7F2068002A02D0C0F8006501E024
:103B5000C0F800656868C0B1207901EB4010007FB3
:103B600048B1F3492068C0F80813206800F039FA1A
:103B700000F02CFA09E0EE4920688C39C0F80813EF
:103B8000206800F02EFA00F021FA204600F0DEFA5C
:103B9000EE766E6070BD0079E44901EB4010807DE7
:103BA000002800D0012070472DE9F04704460F4659
:103BB00090462079DD4E06EB4015287F002803D083
:103BC000384600F011FA30B12046FFF7E4FF20B18B
:103BD0001120BDE8F0871020FBE785F81680AF6064
:103BE0004FF00008A5F81480207906EB4015287FD7
:103BF00048B300264FF490794946206800F0DBF97D
:103C00004FF4AC7A5146206800F0D5F92068AA7DBF
:103C1000A968C0F84415C0F84825206801218160D2
:103C2000686870B94946206800F0CBF907465146EC
:103C3000206800F0C6F90743F4D000B10F2685F8DC
:103C400016803046C5E72046BDE8F04700F0CCBA04
:103C500070B505460C464FF48471E07D00280BD00A
:103C6000284600F097F9D5F81805627EE168885477
:103C7000607E401C607670BD284600F08BF9D5F858
:103C8000180570BD2DE9F04105460F46904628798C
:103C9000A64E06EB4014207F002803D0384600F0E3
:103CA000A3F978B1002360684FF404714FF40172F6
:103CB00068B1287906EB4010007F28B12868C0F869
:103CC000081304E010200FE72868C0F80823E07DFF
:103CD00090B1207E78B1606858B1287906EB401029
:103CE000007F18B12868C0F8041302E02868C0F803
:103CF00004231120F8E6012373B1276184F81880AA
:103D0000287906EB4010007F68B1424639462846C4
:103D1000BDE8F04100F00DBB84F81780E76000209B
:103D200060762076ECE7424639462846BDE8F04109
:103D300000F0ADBA01797D4A006802EB4111097FBC
:103D4000002903D04FF4887100F03BB94FF484711F
:103D500000F026B970B50446744D207905EB40118A
:103D6000087F00280AD1887E002807D1204600F06D
:103D70007EFA2179012005EB4111887670BD017929
:103D80006A4A02EB4111097F002907D1016801232A
:103D90004B600079002102EB40108176704710B52E
:103DA00004466249207901EB40104FF49271027F82
:103DB0002068002A07D000F0FEF82168D1F88004BE
:103DC000C1F8800410BD00F0E5F82168D1F8800446
:103DD000C1F8800410BD2DE9F0410546534829790A
:103DE00000EB41140126217F2868002910D04FF4F0
:103DF000AC77394600F0DFF82868C66060680028B4
:103E000005D13946286800F0DCF80028F9D06BE6C7
:103E1000C660606830B1A08AC1B22046BDE8F041FA
:103E200000F0EEBA4FF48070A0825DE601793F4A5F
:103E300002EB411101220B7F0168002B01D04A6087
:103E400070474FF40173C1F808330068426070474F
:103E50002DE9FF4705460C464FF40071284600F057
:103E6000A4F801274FF40178002618B34FF4927993
:103E70004946284600F094F8E0B14946284600F04B
:103E800089F8C5F80883A07E00B96F6002208DF81C
:103E90000000D5F88004C5F880040390E07D8DF81B
:103EA0000800E0680190E6752676D4E900126846BD
:103EB00090472AE00421284600F077F828B34FF411
:103EC0008471284600F06CF8F8B121462846FFF7C7
:103ED000BFFEE07D617E884217D1207E50B1E2684E
:103EE000617EE0752069E06026766676204600F007
:103EF0007CFA0AE0A07E00B96F60C5F80883E67519
:103F0000617EE268204600F070FA4FF48E784146F8
:103F1000284600F045F8B0B1A08AA17D884209D2B8
:103F20002146284600F04FF90DE00000E827002068
:103F3000100302004146284600F02CF8A17D11B183
:103F4000204600F05DFA4FF4A2784146284600F082
:103F500027F8002812D04146284600F01BF8A07E22
:103F600000B12F60E07D002808D0E675617EE26830
:103F700004B02046BDE8F04700F037BABDE8FF873F
:103F8000FE48017FFE48002902D0FC4900F045BAF6
:103F9000FA495DE708B5002242504058009008BD3C
:103FA0004058002800D001207047D0F80403084092
:103FB00000D00120704708B50022425040580090C0
:103FC00008BD4058002800D00120704700F01F02B3
:103FD000012191404009800000F1E020C0F88011EB
:103FE0007047000B40B270470121B1EB507F01D107
:103FF000012070470020704770B505460C462068C8
:10400000411C04D000F0A0FA206800F081FA60683A
:10401000411C02D0002100F085FA2879D74901EB34
:104020004010007F48B32868A169C0F82415607D5E
:10403000227D29681043C1F86C05D4E90012286874
:10404000C0F80C15C0F81425207D012814D1A068F3
:10405000411C02D0002100F065FAE068411C04D048
:1040600000F072FAE06800F053FAD4E902212868FF
:10407000C0F80815C0F8102570BD2868A169C0F8FF
:104080002415617D227D28681143C0F86C15D4E9A0
:1040900000122868C0F81425C0F80C15207D0128EE
:1040A000EAD1A068411C02D0002100F03BFAE06890
:1040B000411C04D000F048FAE06800F029FAD4E985
:1040C00002212868C0F80815C0F8102570BD70B529
:1040D00004460D462079A9494FF4A27601EB401021
:1040E000017F206800291DD04FF48871FFF763FF1E
:1040F0004FF490712068FFF75EFF4FF492712068D3
:10410000FFF759FF31462068FFF755FF9D492068AA
:10411000C0F804132068FFF764FF2946BDE870402B
:10412000FFF7B6BC4FF48E71FFF734FF31462068BD
:10413000FFF730FF94492068C0F804132068FFF7A8
:1041400050FF2946BDE87040FFF7A2BC70B502469B
:104150008A4910794FF0FF3301EB40101168007F5E
:1041600000280DD001F5A1614868CC680D688E6803
:104170004B60CB601168C1F80835C1F810350CE010
:1041800001F5A1614868CC680D688E68CB604B6012
:104190001168C1F80835C1F81035411C01D000F094
:1041A000CAF9601C02D0204600F0C5F9701C02D08C
:1041B000304600F0C0F9681C04D02846BDE87040C5
:1041C00000F0B9B970BD70B505460C464FF48E715C
:1041D0002846FFF7DFFEA18AA068415CA28A521C34
:1041E000A282C5F81C1570BD2DE9F047054663494C
:1041F000287901EB40144FF000084FF48E773946D0
:104200002868FFF7C7FE28684FF00109C0F808903A
:1042100021462868FFF7D7FF606830BB4FF48076EF
:104220000EE039462868FFF7BBFE10B9A08AB042FD
:10423000F7D1A08AB04203D021462868FFF7C3FF18
:10424000A08AA17D8842ECD3A08AB04202D14FF06F
:104250000F0808E039462868FFF7A2FE0028F9D0C9
:104260002868C0F80C900020A0754046B1E410B555
:1042700004464FF492712068FFF78CFE4FF484716E
:104280002068FFF787FE20680121016010BD2DE93D
:10429000F05F04463949207901EB4015A87E0028DB
:1042A00003D113B92046FFF7E2FF686838B12068F0
:1042B0004FF40171C0F804130020BDE8F09F4FF4E3
:1042C000A27949462068FFF765FE4FF4927A4FF4D1
:1042D000847B51462068FFF763FE074659462068F5
:1042E000FFF75EFE804649462068FFF759FE064606
:1042F00048EA060858EA0708EBD057EA060007D153
:1043000029462068FFF7A4FCE87D697E8842E0D852
:104310000020E8750FB10320CFE70EB10F20CCE7E6
:10432000A87E012110B120680160C5E720684160C6
:10433000C2E72DE9F05F04460E4617469846002571
:104340004FF4887949462068FFF735FE4FF4A27A8A
:1043500051462068FFF72FFE2068C0F83465C0F88A
:104360003875B8F1000F1ED02068D0F8001241F067
:104370002001C0F80012207908E00000E8270020A2
:10438000002000401003020080000200DFF81482C9
:1043900008EB4010406850B120684FF40471C0F839
:1043A0000413284689E7206801210160E3E74FF400
:1043B000927B49462068FFF704FE07465146206875
:1043C000FFF7FFFD064659462068FFF7FAFD374321
:1043D0000743EED02279002108EB4212D17500B1DB
:1043E0000325002EDDD00F25DBE71FB501238DF857
:1043F00000308DF80810019206C8684690471FBD2E
:104400001FB500228DF800208DF8081081680191F9
:10441000827506C8684690471FBD2DE9FF410546D5
:104420000C464FF4927739462846FFF7CAFD00261E
:10443000C0B139462846FFF7BEFD02208DF80000C6
:10444000D5F88004C5F880040390D5F83C058DF8B4
:104450000800E0680190E6752676D4E90012684607
:10446000904727E04FF4887739462846FFF7A9FDA3
:1044700000B339462846FFF79EFDD5F83C05C1B28A
:10448000E07D884216D1207E78B1E268D5F800023E
:1044900020F02000C5F80002207EE0752069E06071
:1044A00026762046FFF7A1FF04E0E6752046E26885
:1044B000FFF79BFF4FF4A27739462846FFF781FDAF
:1044C00068B139462846FFF776FDE07D38B1E675DC
:1044D000D5F83C05E268C1B22046FFF786FF4FF4ED
:1044E000907631462846FFF76CFD00280ED0314605
:1044F0002846FFF760FDA07D002807D0D5F84C05C1
:1045000004B0C1B22046BDE8F04179E7BDE8FF81C3
:104510001CB5002100910B4601220191114600F0CB
:1045200028F81CBD1CB500220B46009211460192D2
:1045300000F01FF81CBD1CB5002100910B460122A4
:10454000019100F016F81CBD01B5684600F006F8B0
:10455000009A01219140C0F8081508BD0168202982
:1045600002D24FF0A040704701F01F0101600E48D9
:1045700070472DE9FF410C46DDE90A7815461E46D5
:104580006846FFF7EBFF44EA4501009A41EA8601DD
:1045900041EA072100EB820041EA0841C0F8001718
:1045A000B4E70000E827002000030050F0B50746FC
:1045B0004FF0FF30002A02D04FF0000301E04FF02F
:1045C000080302D04FF0080501E04FF00905F74C51
:1045D00004E054F82360761C03D05B1CAB42F8D394
:1045E000F0BDE51958B285F8240044F82310002ADC
:1045F000F6D1E11881F84C70F0BDEC494FF0FF3274
:1046000041F82020082802D3084480F84C20704745
:1046100070B5E64D95F8550000280BD008242046CB
:1046200001F0ECF90346E24AE2A1022001F002FCAB
:10463000204670BD0020411E2A1882F82410401C1C
:10464000C0B23028F8D300242046FFF7D6FF641C00
:10465000E4B2092CF8D307210620FFF719FA4FF42A
:10466000BE7000F071FB4FF00040DE490860012091
:1046700085F855000024204601F0C0F90346CC4AD5
:10468000D9A1032001F0D6FB204670BDC74890F8A1
:104690005500002800D00120704710B50446204680
:1046A00000F0EDFB28B12046BDE81040002100F0ED
:1046B00080BB204600F0D9FB00280FD0204600F038
:1046C000E8FBD44A02EB8001D1F8103523F0010356
:1046D000C1F8103501218140C2F8081310BD10B592
:1046E00004462046FFF7D9FF204600F0BEFB40B14C
:1046F000204600F0CEFBC74A002102EB8000C0F844
:104700001015204600F04CFB204600F0C2FBC0B262
:10471000FFF773FFA549FF20214481F8240010BD55
:1047200010B50446204600F0A0FB70B1204600F012
:10473000B0FBC0B2FFF761FF204600F0AAFBB54A0C
:10474000002102EB8000C0F810159849FF20214499
:1047500081F824002046BDE8104000F021BB70B570
:104760000024924D281990F92400811C05D00021C5
:1047700029B12046FFF7D4FF07E00121F8E7C01771
:10478000401C10B12046FFF7AAFF641C302CE9D36F
:10479000002085F85500BDE870409FA1032001F07E
:1047A0003EBB2DE9FC4106460C4600257F483044BF
:1047B00090F92410491C00D0012109B108253AE0E4
:1047C000A17829B3012200213046FFF7EFFE411CFA
:1047D0001CD02178627883008E48184400F5A260CE
:1047E0000368954F3B40036003684FF47C5707EA2A
:1047F00006273B434FF4403707EA01414FF4801747
:1048000007EA025211430B43036004E0042502E06F
:10481000FE2180F8241075B96078012818D0304640
:1048200000F0E9FA3046002100910B460122019187
:10483000114600F09CFA284601F0E0F85C4A034675
:10484000143269A1032001F0F5FA2846BDE8FC8185
:10485000304600F0C6FAE5E700F0C3BA00F0CBBA84
:1048600008B50090684600F077FA00F2045001683D
:10487000009B01229A4022EA010343600A408260C1
:1048800008BD4A49084490F9240081006148084461
:10489000D0F8101541F00301C0F8101570474349D6
:1048A000084490F9240081005A480844D0F81015B3
:1048B00021F00301C0F81015704710B500F0E9FAB7
:1048C0008006000E5349084410BD10B500F0E1FA0F
:1048D000302101EB8000C0B24E49084410BD10B534
:1048E00000F0D7FA602101EB8000C0B249490844CA
:1048F00010BD002901D0012100E000212B4A104405
:1049000090F92400820043481044D0F8102561F348
:104910001452C0F81025704710B500F0BAFA80069E
:10492000000E3C4A0121815010BD10B500F0B1FAD3
:10493000302101EB8000C0B2364A0121815010BD08
:1049400010B500F0A6FA602101EB8000C0B2314A38
:104950000121815010BD2DE9FC410C460546114650
:104960000027DFF8488008EB050090F92400C01705
:10497000401C002801D008278CE0E2782846FFF789
:1049800015FE0646701C7AD0A07868B1019501A882
:1049900000F0E2F9019900EB8100D0F8001721F056
:1049A0000201C0F8001751E048E00000082800208C
:1049B0005C4903004750494F54453A5741524E49CC
:1049C0004E473A46756E6374696F6E3A2025732CB4
:1049D000206572726F7220636F64653A2025732EB2
:1049E0000D0A0000046300404750494F54453A49BE
:1049F0004E464F3A46756E6374696F6E3A20257362
:104A00002C206572726F7220636F64653A20257383
:104A10002E0D0A00006000404750494F54453A4966
:104A20004E464F3A556E696E697469616C697A6574
:104A3000642E0D0A00000000FFC0ECFF63782846DA
:104A4000002100910A46019100F091F9E078B8B197
:104A50002178F84800EB860000F5A2600268F64B6A
:104A60001A4002604FF47C524FF4403302EA0522B0
:104A700003EA01410A4301680A4302600AE008E0D0
:104A800008EB0600227810F84C1F41EA82110170F1
:104A900000E00427384600F0B1FFE84A0346AFF2D1
:104AA000B801032001F0C6F93846CFE62DE9F04100
:104AB00005468846284600F0E2F9E14FD0B1284685
:104AC00000F0E7F9384490F84C008009032807D03B
:104AD00001280DD003212846BDE8F04100F069B956
:104AE000284600F092F908B10321F4E70221F2E729
:104AF0000221F0E7284600F0B8F9002823D0284624
:104B000000F0C7F904464FF4807000EB840082B2D5
:104B10002046C84E06EB8000D0F8101541F0010188
:104B2000C0F81015104600F00FF9B8F1000F0AD0C8
:104B3000284600F0AEF957F82000002803D00120E5
:104B4000A040C6F80403BDE8F08110B500F05DF99F
:104B5000002800D0012010BD70B505464FF4BE748A
:104B6000284600F082F938B1284600F092F94FF457
:104B7000807101EB800084B2AE48204470BD2DE905
:104B8000F04F89B00025A846CDF81C80CDF82080D4
:104B90004FF4807901240026A64F484600F0CDF856
:104BA00038B1D7F80403204018B1484600F0CCF8DB
:104BB0002543640009F104091FFA89F9761C082EBF
:104BC000EBD34FF4BE74204600F0B7F848B120464E
:104BD00000F0BAF845F0004507AA0221002000F0D5
:104BE0001FF9DFF85C9215F0FF0F15D001260024A5
:104BF0002E420DD007EB8401D1F81005C0F305203B
:104C0000D1F81015C1F3014159F8242002B19047A1
:104C10007600641C082CEBD3002D73DACDF81480D9
:104C2000CDF818800020411E0DF10C0848F8201026
:104C3000401C0228FAD30024002509EB050010F8D7
:104C4000546F26F0C00B90F90000401C45D003A91A
:104C5000584600F002F9E8B3B609584600F019F9D1
:104C600059F820700FB9032E37D1032E0CD105A8A7
:104C70004FEADB010BF00702435C4FF0010C0CFA2A
:104C800002FC43EA0C034354CDF808B002A800F03C
:104C900063F8029900EB8100D0F80007C0F3014AE5
:104CA00007A9584600F0D9F810B1BAF1020F03D0A5
:104CB00080B9BAF1030F10D1032E08D1BAF1020F57
:104CC00021D00221584600F074F8641CE4B20FB100
:104CD000314600E001E05846B8476D1C002DACD0CD
:104CE00034B3012501AA0221002000F099F8002028
:104CF00007A901AA51F8206052F82030B34204D02D
:104D0000002505E016E00321DCE7401C0228F1D372
:104D10000DB100240CE0002005AB52F8205041F802
:104D2000205053F8205048F82050401C0228F4D35B
:104D3000002C80D109B0BDE8F08F3E4908440068DE
:104D4000012800D00020704708B53A4908440021E6
:104D500001600068009008BD0168202902D24FF070
:104D6000A040704701F01F010160364870472DE9EF
:104D7000FF410C46DDE90A7815461E466846FFF7F6
:104D8000EBFF44EA4501009A41EA860141EA072126
:104D900000EB820041EA0841C0F80017BDE8FF813E
:104DA0001CB5002100910B4601220191FFF7DFFFA6
:104DB0001CBD13B50C466846FFF7CEFF009900EB0B
:104DC0008102D2F8001721F44031C2F8001700998F
:104DD00000EB8100D0F8001741EA0441C0F8001749
:104DE0001CBD01B56846FFF7B7FF009A012191404D
:104DF000C0F8081508BD01B56846FFF7ADFF009A79
:104E000001219140C0F80C1508BD01B56846FFF7B7
:104E1000A3FFD0F810050099C84000F0010008BDBC
:104E20001CB5064B343B18CBCDE900346B46441817
:104E300010E0000000600040FFC0FCFF8849030054
:104E4000082800200003005053F82010D1F8101556
:104E500002C2401C8442F7D81CBDC20800F0070300
:104E60000120895C9840084070470C49084490F93B
:104E70002400082801D2012070470020704707490C
:104E8000084490F92400082801DB01207047002025
:104E900070470249084490F9240070470828002010
:104EA00000283ED0F74AF849126800BF00BF00BF93
:104EB00000BF00BF00BF00BF00BF8A422FD000BFAD
:104EC00000BF00BF00BF00BF00BF00BF00BF00BFEA
:104ED00000BF00BF00BF00BF00BF00BF00BF00BFDA
:104EE00000BF00BF00BF00BF00BF00BF00BF00BFCA
:104EF00000BF00BF00BF00BF00BF00BF00BF00BFBA
:104F000000BF00BF00BF00BF00BF00BF00BF00BFA9
:104F100000BF00BF00BF00BF00BF00BF00BF401EFA
:104F2000C3D17047D94908600721112000F0DABACF
:104F300070B5D74C4FF48030C4F84403C4F8040370
:104F4000112000F0C4FA112000F0ABFA0125256011
:104F50002F20FFF7A5FFCF48857070BD70B50126E3
:104F6000CD49700400250860C94C4010C4F84803BE
:104F7000C4F8080366602F20FFF792FFA660C54CB7
:104F8000A5602F20FFF78CFFA57070BD10B5C14C38
:104F90006168002908D002680B689A4206D89A1AFC
:104FA0000A60C161606010BD606010BD0C4602E027
:104FB000D21A0C46C96911B10B689342F8D311B1EA
:104FC0000B689B1A0B600260C161E06110BD2DE9A6
:104FD000F041B04E77683D462F463C4603E08442A0
:104FE00003D02546E469002CF9D12CB1A5420FD19C
:104FF000F869706018B10BE00020BDE8F081A449A9
:10500000012088600021B160F0702F20FFF748FF79
:105010002168E069E86110B10268114401607068BC
:10502000874201D00120E8E70020E6E7112000F0E8
:1050300043BA142000F040BAD0E9052108461047D1
:105040002DE9F041DFF84C82D8F80440002CD4D090
:1050500000268E48001F0068D8F80810401A20F07B
:105060007F4500270BE02068A8420AD82D1A064485
:105070002046E469017C11B10774FFF7DDFF002CC5
:10508000F1D198F8001098F80100814207D1401C36
:10509000C0B288F80100022801D188F801707D486B
:1050A00098F801100C3040F82160BDE8F041C0E7ED
:1050B000A3E710B5774A002311785478A14212D0A3
:1050C000491CC9B21170022900D1137071491378BB
:1050D0000C3151F8231001609068084420F07F40A3
:1050E0009060012010BD0360002010BDF0B50024C9
:1050F000684F19E01D68854203D91968081A1860BD
:10510000F0BD401B2C4400261E601E46DD697D60FC
:10511000DD684DB101EB040C2CF07F4CC3F804C0EA
:105120009D601568DD6116607B68002BE2D1F0BDE3
:105130002DE9F04705464FF00008564FD7F804A078
:105140000026DFF8589156E015B12C46E56934E0A9
:1051500099F8001001EB410009EBC000001D491C4B
:10516000C9B289F8001099F80220914201D189F85A
:10517000006044680178012912D0022902D0032975
:1051800039D10AE02046FFF722FF08B14FF00108AD
:10519000267430E00674C0697860786858B3F9E71F
:1051A000217C41BB81686160C168A1600169E160E7
:1051B0004069A061F87800B166606068B968384BF2
:1051C000421A22F07F429A4203D2A0681044206023
:1051D00009E0081A20F07F40A168814202D9081A2C
:1051E000206000E026606660A66001202074E66111
:1051F0002046FFF7CBFE002DA6D199F8000099F8C4
:1052000001108842A0D1B8F1000F02D17868504552
:1052100002D00120BDE8F0870020FBE72DE9F04136
:105220001C49486800283DD00768DFF86080A8F175
:105230000408D8F800408E68A01B20F07F45ED1CC4
:10524000887808B9FFF774FEBD4200D23D46A81920
:1052500020F07F400D4A38321060D8F80010091B4A
:1052600021F07F41C91C001B20F07F4081421CD9E6
:10527000D8F8000010602F20FFF712FEBDE8F041C3
:10528000D4E60000382200200024F4000815014074
:1052900000100140B021002080E100E060280020E3
:1052A000FFFF7F00BDE8F04158E6A6E62DE9FC418E
:1052B000002601960024934DAF68D5F80480684617
:1052C000FFF7F7FE28B101AA39460098FFF70EFF55
:1052D00001240198FFF72CFF00B1012414B14046CE
:1052E000FFF79CFFEE70BDE8FC818749487070476E
:1052F000854A5178491CC9B293788B4200D100216C
:1053000013788B4201D1002070470170507800EB78
:10531000400002EBC000001D70472DE9F843054630
:105320000E46174698460024002000F01FFB6846F2
:10533000FFF7DEFF90B101210170456073490968F4
:105340008160C6600761C0F814809DF80000FFF717
:10535000CCFF002000F00BFB14B103E00424F8E7BD
:10536000FFF767FE2046BDE8F883F8B506460D4610
:105370000024002000F0FAFA6846FFF7B9FF50B1A8
:10538000057046609DF80000FFF7AFFF002000F0B9
:10539000EEFA14B103E00424F8E7FFF74AFE2046D2
:1053A000F8BD5B480021016441648164C16401600F
:1053B000416045E67AE710B5FFF7D0FD524900207D
:1053C000087048700B228A704E4C606020706070CC
:1053D000142000F07CF80721142000F083F814203A
:1053E00000F05FF80020FFF79DFD48480068A060CE
:1053F000002010BD444B9B78002B06D03AB140B141
:105400000068037C3BB108207047082070470720E4
:10541000704707207047417442610020704713466F
:10542000394A9278002A05D0020005D0052905D214
:10543000072070470820704708207047426922B152
:10544000427C012A03D0002267E7082070470A4601
:10545000FAE72D498978002907D0010007D0416972
:1054600029B10021017402217FE70820704708203C
:10547000704725488078002802D00321002074E777
:1054800008207047214800687047401A20F07F408C
:10549000704720490120486070471E49012008607C
:1054A000704700F01F02012191404009800000F187
:1054B000E020C0F80011704700F01F020121914068
:1054C0004009800000F1E020C0F80012704700F0B1
:1054D0001F02012191404009800000F1E020C0F846
:1054E000801270474907090E002806DA00F00F0005
:1054F00000F1E02080F8141D704700F1E02080F8F2
:1055000000147047B02100206028002004150140DD
:1055100000110140001001400EB5ADF800100192DD
:1055200002906A46002144F2010000F03FF80EBDEF
:105530000EB500210091019102906A4644F20100EB
:1055400000F034F80EBD08B5012300939DF800303B
:10555000154B186059609A606FF48041401809D06B
:10556000012811D1DA60D86800889861D86840684D
:10557000D86109E01A611869806858611869008863
:10558000986118694068D861186858689868D86840
:10559000186958699869D86972B69DF800000028A2
:1055A000FBD162B608BD00006C2900200AA10120D1
:1055B00000F035FC0CA1032000F031FCBFF34F8F4D
:1055C00010480168104A01F4E06111430160BFF323
:1055D0004F8F00BFFDE700003A4552524F523A4606
:1055E0006174616C0D0A00003A494E464F3A4869B1
:1055F00074207765616B2068616E646C65720D0A5A
:10560000000000000CED00E00400FA05002905D0C0
:1056100012B1531E134203D0092070470E20704769
:105620000160838000218160C1600020704710B557
:105630008268C3689A1A83889A4203D800F07DF87A
:10564000002010BD042010BD10B58268C3689A1AEE
:10565000002A03D000F07AF8002010BD052010BD0C
:1056600010B58368C468E31A8B4208D9836819446B
:10567000838800681940405C1070002010BD052030
:1056800010BDC1688160002070472DE9F0410746D8
:1056900088461646002F0ED086B1B868F968091AF8
:1056A000356800248D4200D30D46316041B1B8F118
:1056B000000F07D00FE00E20BDE8F0810E20FBE7C1
:1056C0000520F9E70020F7E7204600EB0801641CFD
:1056D000384600F03BF8AC42F6D335600020EBE7EB
:1056E0002DE9F041064688461746002E11D097B1A5
:1056F000B068F168081AB188091A491C3D6800248D
:105700008D4200D30D46396039B1B8F1000F06D093
:105710000EE00E20D0E70E20CEE70420CCE70020DC
:10572000CAE72046641C18F80010304600F005F85F
:10573000AC42F6D33D600020BEE7C26883881A40C1
:1057400003689954C168491CC160704782688388A6
:105750001A4003689A5C0A708168491C816070472E
:105760007CB50178764C002938D001290ED0022969
:105770000BD18DF80010C0680190611C0122C81D7A
:10578000FEF780FA6168684688477CBD406801780A
:105790006C48FFF74CFF6B4D012630B18DF800606F
:1057A000019061686846884709E0A868E968081AB6
:1057B00028B100208DF80000616868468847A86815
:1057C000E968081AA988884206D85D490122491C5F
:1057D000C81DFEF757FA7CBDA6707CBD59485849D4
:1057E0001030FFF731FF30B103208DF80000616801
:1057F000684688477CBD5249012201F10800FEF746
:10580000D3F97CBDF0B589B004460D461F464C4E19
:105810007260002D1BD0A888296882B24948FFF722
:10582000F5FE002814D1A889A96882B24548103035
:10583000FFF7ECFE00280BD12022434901A80CF011
:10584000B3F960690790207C20B1012003E00720B4
:1058500009B0F0BD00208DF818008DF82070607C34
:1058600008B10E2000E000208DF81900E0680390D8
:10587000A068049020680290606801903048334A24
:1058800001A90830FEF722F90028E1D1B0702068A4
:10589000401C0DD09DF8210018B929480830FEF7AA
:1058A00059FA27490122491CC81DFEF7EBF9CFE739
:1058B0000020CDE710B52348FFF7E3FE002805D10F
:1058C00020481030FFF7DDFE0028FFD110BD70B575
:1058D0001B4EB47801461B48FFF7B6FE05464CB197
:1058E0000020B070711C0122C81DFEF7CBF908B171
:1058F000FFF71EFE284670BD10B501461148103056
:10590000FFF795FE04468CB90D480830FEF743F9C1
:1059100060B90C480A491030FFF796FE30B90849C3
:10592000012201F10800FEF73FF90446204610BDB0
:1059300010B503480830FEF7FDF8002010BD000048
:10594000C42100208C290020A049030061570200D7
:1059500072B61C480168491C016070471949086803
:10596000401E0860002800D162B67047F0E7F5E7F6
:10597000EFF30580C0F30800002801D00120704734
:10598000EFF3148040F30000401C7047EFF30580F4
:10599000C0F30800002812D0103840B2002807DAFF
:1059A00000F00F0000F1E02090F8140D400904E031
:1059B00000F1E02090F800044009C0B270470F20C9
:1059C00070470000D421002010B5104A02F1F00306
:1059D0000EE0991AC91001EBD171491002EBC10117
:1059E0000C68844201D90B4602E005D201F108029D
:1059F0009A42EED3002010BD486810BD00B5FFF7F5
:105A0000E3FF002801D10148143800BDD449030048
:105A100008B56846FFF75BFF0528FAD09DF800003F
:105A200008BD10B50446E0B2FFF766FF204610BD82
:105A30000078012801D1E4498870704730B589B0F9
:105A40000446E14D2878002805D06878844202D1C8
:105A5000002009B030BD2022DC4901A80CF0A4F8D8
:105A600000208DF8180006200190082002900520E3
:105A70000490072003904FF0EB700790D248001D70
:105A8000FEF758F80CB1002200E0D14ACE4801A937
:105A9000001DFEF71BF80028DBD1012028706C7078
:105AA0000020D6E7C848001DFEF775B870B50D4652
:105AB000012401462A46C7480CF076F8C248EAB2EB
:105AC000C449001DFEF770F800B10024204670BDE7
:105AD00038B5BD4C6078002805D001226946201DEC
:105AE000FEF7D0F80AE00020A070B748012269460E
:105AF000001DFEF7C7F8A0780028FCD09DF8000034
:105B000038BD002901DA00207047026811440160A5
:105B10000120704770B5034615460120002B0BD0BD
:105B200008461B68ACA24FF480710CF055FC01468E
:105B30002846BDE87040E4E70021296070BD2DE9EA
:105B4000F043C7B08946DDF8388117461C4600256A
:105B500000200690FFF7A6FF18B1002047B0BDE86F
:105B6000F083069807AE311806AA4846FFF7D2FF21
:105B700040B1B8F1070F6ED2DFE808F006141E2A14
:105B800038485A000020E9E738460CF03FF805464F
:105B900006982918FF295ED830442A4639460CF069
:105BA00003F858E006982368C0F5807130443A46FF
:105BB0000CF012FC05464EE06068009006982368E1
:105BC000C0F5807130443A460CF006FC054642E0D0
:105BD000D4E90101CDE9000106982368C0F5807180
:105BE00030443A460CF0F8FB054634E0D4E9022193
:105BF0006068CDE90121009006982368C0F58071A6
:105C000030443A460CF0E8FB054624E0D4E9012391
:105C1000D4E90310CDE90210CDE9002306982368EA
:105C2000C0F5807130443A460CF0D6FB054612E0D0
:105C3000D4E90223D4E90410CDE90123CDE903100E
:105C40006068009006982368C0F5807130443A4639
:105C50000CF0C2FB0546294606A8FFF752FF06993D
:105C600030B1B1F5807F03D807A8FFF71FFF75E7B4
:105C7000002073E710B5044602220CE0930024FADA
:105C800003F000F00F03092B01D9373300E0303364
:105C9000C2F101000B54521E501CEFD110BD2DE972
:105CA000F04FC1B00C46DDF82CA14D9817461E46AA
:105CB000002100910AEB000B002C02D04FF00A09E2
:105CC00001E04FF00009FFF7EDFE18B1304641B09A
:105CD000BDE8F08F300001AD19D100986A4629184F
:105CE0002046FFF717FF30B138460BF08FFFC22870
:105CF00003D9C22402E03046E9E704460098224670
:105D0000284439460BF050FF00982044009000983A
:105D100000EB0901313101AA141855180020202187
:105D200002E004F8011B401C4845FAD34FF000087C
:105D30005E4507D3202020706070A070E41C05F839
:105D4000010B1AE0564502D24A98875D03E04C9851
:105D5000A6EB0A01475C21463846FFF78BFF20205F
:105D6000A070E41C0BF01CFF0068C05D10F03E0F3B
:105D700000D12E2705F8017B761C08F10108B8F147
:105D8000100FD5D30D2028700A20687020202070B5
:105D9000009800EB09014331009101A8FFF786FE4E
:105DA00020B1FFF77FFE18B1304690E730468EE70E
:105DB000002000905E45AAD3304688E70848704727
:105DC0000848704784E60000DC210020C44A030034
:105DD000315A0200AC2900205B253038645D000098
:105DE0003F5B02009F5C0200A14A506191617047D5
:105DF000FAE770B506460120FFF720FE044644B9D5
:105E0000FFF7DEFF0546FFF7D9FF32462946FFF7C9
:105E1000EFFF204670BD0120FFF710BE7047002342
:105E20001A4600F01AB908B5009201236A4600F03C
:105E300014F908BD1CB50092019302236A4600F0D4
:105E40000CF91CBD3EB5069C0092019302940323FD
:105E50006A4600F002F93EBD7FB5DDE908450092D3
:105E600001930294039504236A4600F0F6F87FBD7F
:105E700070B586B00AAC70CC01920293039404957D
:105E80000596052301AA00F0E8F806B070BDF0B54C
:105E900087B0DDE90E57DDE90C46019202930394C9
:105EA000049605950697062301AA00F0D6F807B0D8
:105EB000F0BD2DE9FF478246894617461C46002360
:105EC000DFF8AC810026CDE9014600970396D8F8AB
:105ED00018504A4600215046A8470346A342F2D331
:105EE000BDE8FF87624803C8814201D101207047A5
:105EF000002070472DE9F04F89B0FFF7F3FF18B18C
:105F0000002009B0BDE8F08FDFF864A1DAF8048062
:105F1000DAF8086008F1010408EA06000AEB8000DC
:105F2000C06808900DE0C5F3891000EB955000EBB8
:105F3000040808EA06000AEB800008F10104C068C2
:105F40000890089DA807EED00021894605F00300BF
:105F5000022806D002A8089B9A0AC3F383170023DD
:105F600065E02046641C30400AEB8000C268AF0D3B
:105F7000C5F3891304EA0600A6EB000C0CF1010C32
:105F80004FEA8C0C674528D9DFF8E4B0BCF1000F6C
:105F90000BF10C0B04D00AEB800000F10C0000E0C8
:105FA000584601D0E64600E0BE460EF0FF0E01D195
:105FB0004FF0000B02D0A7EB0C0C01E04FF0000CEF
:105FC0000CF0FF0CCDE901EBCDF80CC00090DAF835
:105FD00018C0C5F3C200E0470CE00021CDE9017113
:105FE0000AEB80000C3003910090DAF818C0C5F37A
:105FF000C200E047B84205D1FF1C04EB97044FF004
:1060000001091EE060F38F15089508EA06080AEBFF
:106010008800C56015E0A4460CEA060C0AEB8C0C5F
:10602000641CDCF80CC0C0F800C0001D5B1CBB4247
:10603000F1D3C5F3C2000097DAF8145002ABA847B9
:106040008146B9F1000F01D0CAF80440FFF74AFFBA
:1060500080F0010055E7FFF7B5BEF8B50D461646CE
:106060000021034A0093334654692A46A047F8BDED
:10607000AC2A002010B501464822FE480BF094FDE2
:10608000FC483C3000F1100102684A6342688A67AC
:106090008068C1F8BC00032802D1012002F093F807
:1060A000002010BD10B54822F2490BF07DFD002004
:1060B00010BDF04900204C31C1F89001704710B577
:1060C00000209FEDED0AEB4C4C3404EB800181ED98
:1060D0005B0A401C0928F8DB2421E8480BF08BFD03
:1060E0000020B7EE000A4FF0804204EB001181ED72
:1060F0005B0AC1F84821401C0328F6DBBDE81040CC
:10610000D7E710B5DB484FF4A071F4380BF073FDFE
:10611000D8484FF4CC714C300BF06DFDFFF7CFFF3A
:10612000BDE810404DF293034822D549D54802F00E
:106130005DB9D0484C30406A7047CE484C30806ED4
:106140007047CC484C30D0F8AC00704742620160D8
:1061500070470A460146C7484C30F7E7C5494C31FD
:1061600088624FF47A7290FBF2F2CA620A6C002ADB
:1061700003D1C54A92FBF0F008647047BD494C3129
:10618000C8664FF47A7290FBF2F20A67D1F8842065
:10619000002A04D1BC4A92FBF0F0C1F88400704799
:1061A000B649983908604FF47A7290FBF2F24A606F
:1061B0008A69B039002A04D1B34A92FBF0F0C1F8E1
:1061C000C8007047AB494C31C96A01607047A949A2
:1061D0004C31096F01607047A6494C31D1F8B410B9
:1061E00001607047A3494C31C1F828014FF47A721D
:1061F00090FBF2F0C1F82C0170479E494C310864C5
:1062000070479C494C31C1F88400704799494C3122
:10621000C1F8C800704797484C30B0F8B800C0F3D8
:106220000020704793484C30008EC0F30020704728
:1062300090484C30B0F87400C0F300207047002044
:106240008C4A4C32B2F87410C90500D5D06F118E4B
:10625000C90503D5916B814200D90846B2F8B81040
:10626000C90504D5D2F8C010814200D90846B2F859
:10627000FC10C90504D5D2F80411814200D90846A2
:1062800070470A4601467B4890305FE70A46014660
:106290007A48C0385AE72DE9F04104460D461646C3
:1062A0002968206800F067FF07466968606800F0A9
:1062B00062FF0744A968A06800F05DFF38443060C1
:1062C0002968E06800F057FF07466968206900F018
:1062D00052FF0744A968606900F04DFF38447060C0
:1062E0002968A06900F047FF07466968E06900F087
:1062F00042FF0744A968206A00F03DFF3844B060BF
:10630000BDE8F0813EB504460D46B4F90400C00373
:106310000090B4F90600C0030190B4F90800C0036E
:106320000290606A04F10C03410020886A4680B242
:1063300001F0B2FC00982968A0EB61000090019880
:106340006968A0EB610001900298A968A0EB610068
:106350000290606A04F11803410020886A4680B206
:1063600001F09AFC206B40F0200020633EBD002825
:1063700007D040497439D1E91D23C96FC0E9002312
:106380008160704770B504460D463A480C2221469C
:1063900006460BF042FC40B136480ECC74387430DF
:1063A0000EC03146C830FFF7ADFF32484C30C0F860
:1063B000BC50A0F5A070C0F83851BDE87040002274
:1063C0000821084600F09EBE2A49F439C1F83C0174
:1063D00070472848F438D0F83C01704770B504463F
:1063E0000D46002C10D023480C22203021460646B2
:1063F0000BF013FC40B11F480ECC0C3014300EC013
:1064000031466430FFF77EFF1A484C308567A0F5AF
:10641000A070C0F83451BDE8704000221021084639
:1064200000F070BE13494C318867A1F5A071C1F826
:10643000340100221021084600F064BE70B50D46FC
:106440000C4CF43C002814D0D10702D00168C4F8E9
:106450001411910702D54168C4F81811510702D5EB
:106460008068C4F81C010349203101F17000FFF776
:1064700049FF0BE0BC2B002000000000502D002045
:10648000A56002007560020040420F00FE4885676B
:10649000C4F83451BDE8704000221021084600F0D5
:1064A00031BE70B504460D46002C0FD0F6480C22C4
:1064B0004038214606460BF0B0FB38B1F2480ECC0E
:1064C00040380EC031463430FFF71CFFEE484563BC
:1064D000A0F5A074C4F83051D0F8E40010B1C4F8AD
:1064E0000C0103E04FF4D810C4F80C010421002281
:1064F000084600F007FE0120C4F8100170BDE34912
:10650000D1F81001012804D000200022C1F8102188
:1065100070470120F9E710B5002807D0DA4A403A61
:10652000D2E900349268C0E900348260002903D0C7
:10653000D648D0F80C01086010BD10B5002807D06F
:10654000D14A403AD2E90534D269C0E900348260C8
:10655000002903D0CD48D0F82001086010BD70B5E7
:106560001646C94C03688A06656F10D424F8483F64
:10657000818861800089A08045F08000E062483C0D
:10658000C1492C3901F17000FFF7BCFE0DE0E36555
:10659000426822668068606645F02000606701F00E
:1065A0000300A067B949C1F83401606F40F4A070DE
:1065B0006067E06FC4F88000E667002070BD10B52A
:1065C000B14A0368403A53648088A2F84800AE4854
:1065D000026B42F4E0720263826BC2638163A0F1DA
:1065E0004001FFF78FFE002010BD0021A64A02EBFC
:1065F0008103D3F83C3140F82130491C0329F6DBF4
:10660000704730B40022A04950F8223001EB8204D8
:10661000C4F83031521C032AF6DBD1F89021012A4C
:106620000BD0002201EB820450F82230C4F83C3138
:10663000521C032AF6DB30BC7047954A014630BC39
:1066400002F10C0001F0F2BB3EB515468E4C8A06F5
:1066500017D4FFF7D6FF6846FFF7C7FF009824F866
:106660008C0F019860800298A08087494C3901F115
:10667000D400FFF747FEE06A40F08000E0628C3C07
:1066800011E0026844F8A02F426862608068A06050
:10669000A06940F02000A06101F00300E061A03C8F
:1066A0007A49C1F83801B834A068E060A560206874
:1066B00040F4A070206000203EBD754A583A10603A
:1066C000906940F4E0709061106A5062116200209D
:1066D000704770B56E4B90E870007C3BC068C3E9B2
:1066E00015561C65D86503F160004260026842F4EB
:1066F000E07201F400710A430260002070BD62493B
:1067000000204867704760490020C1F8B800704712
:106710005D490020C1F8200170475B4900200863F3
:10672000704759490020C1F8FC0070472DE9F04737
:1067300000270023DFF854C1DCF800400DE003EB34
:1067400043050CEB85056E68864202D0AD688D422C
:1067500002D10520BDE8F0875B1C9C42EFDC132CC6
:106760002EDC00230CB91EE05B1C9C4206DD03EB13
:1067700043050CEB8505AD688D42F5DB9C4210D1DD
:1067800011E0661E06EB46060CEB860604EB44059C
:10679000D6E901890CEB8505F668C5E90189EE604B
:1067A000641E9C42EDDC03EB43030CEB8303586057
:1067B0009960DA60DCF80000401CCCF8000005E0CD
:1067C000344A35A10620FCF7CCFE06273846C1E73F
:1067D00030B500212D4B1A6821E001EB410403EB99
:1067E00084046468844219D1491C0FE001EB410222
:1067F00003EB8202481ED2E9015400EB400003EB98
:106800008000D268C0E90154C260491C18688842FF
:10681000ECDC1868401E1860002030BD491C8A421C
:10682000DBDC002030BD002017490A6B530603D57E
:1068300042F010000863886B4A6F530606D542F099
:1068400010024A67CA6F824200D31046D1F8B820BE
:10685000530605D542F01002C1F8B820D1F8C02087
:10686000D1F8FC20530603D542F01002C1F8FC20F9
:10687000D1F82021530603D542F01002C1F820219F
:10688000A43151F8740C09E0082C0020C82A00201B
:10689000442D0020E46203004D504C0020F04000E5
:1068A00041F8740C51F8300C20F0400041F8300CE5
:1068B000486920F040004861886D20F040008865FC
:1068C000C86F20F04000C86770472DE9F0410024F0
:1068D000904890F83010490600D5022490F87410C2
:1068E000490601D544F0010490F8B810490601D5D5
:1068F00044F0040490F8FC10490601D544F0080463
:1069000090F82001400601D544F01004002600252F
:10691000814F0DE005EB450007EB8000C168214287
:1069200005D041687B48884708B106B906466D1C0A
:106930003868A842EEDCFFF776FF3046E0E430B579
:10694000002807D0734B4033D3E907455B6AC0E9A1
:10695000004583606F480AB1C36F1360002902D0FD
:1069600090F87800087030BD30B56A4B403BD3E9F1
:1069700016451B6EC0E9004583606648002A01D0B9
:10698000836B1360002902D090F83400087030BD8A
:1069900030B5604B403BD3E913455B6DC0E9004522
:1069A00083605C48002A01D0836B1360002902D009
:1069B00090F83400087030BD56494039D1E91623AB
:1069C000096EC0E900238160704730B5514B4033F8
:1069D000D3E918459B6EC0E9004583604D48002A05
:1069E00002D0D0F8C0301360002905D04A4AD2F84E
:1069F0003C2112B10020087030BD90F8BC00087036
:106A000030BD10B5434BD3F8E4400460002A02D0F7
:106A1000D3F804011060002902D0D3F80001086007
:106A200010BD3C48406B70473B48D0F83C01002803
:106A300001D0002070473748D0F8BC007047354877
:106A4000806F704733490968016000207047314901
:106A5000496C01600020704700212E4A02EB81033F
:106A6000D3F8483140F82130491C0929F6DB70473A
:106A700010B50021274CDFED290A04EB810250F804
:106A80002130C2F8483150F8213000EE103AB8EE0B
:106A9000C00A20EE200A82ED5B0A491C0929ECDBC2
:106AA00010BD00211B4A02EB810393ED5B0A00EB52
:106AB000810383ED000A491C0929F4DB704710B5F6
:106AC0000021144C9FED160A00EB810304EB8102B8
:106AD000D3ED000AC2ED5B0AD3ED000A60EE800A36
:106AE000FDEEE00AC2ED520A491C0929ECDB10BD9B
:106AF0000021084A02EB8103D3F8303140F82130FD
:106B0000491C0329F6DB704702490120C1F89001B6
:106B100070470000082C0020C82A002000008030A8
:106B20000000804E3EB504466846FFF708FF9DED25
:106B3000000AF8EEC00A9FEDFE0A60EE800AC4ED7E
:106B4000000ADDED010AF8EEE00A60EE800AC4ED0D
:106B5000010ADDED020AF8EEE00A20EE800A84ED7B
:106B6000020AF44890F82800400601D501203EBDF5
:106B700000203EBD10B586B004466846FFF7DFFE34
:106B800003A801F062FA03990098A0EBA1300090ED
:106B900004990198A0EBA130019005990298A0EB0F
:106BA000A13002909DED000AF8EEC00A9FEDE00AC8
:106BB00060EE800AC4ED000ADDED010AF8EEE00A9D
:106BC00060EE800AC4ED010ADDED020AF8EEE00A8B
:106BD00020EE800A84ED020A06B0012010BD3EB509
:106BE0000446D44803790B7080681060684601F051
:106BF0002CFA0098801300EE100AF8EEC00A9FED00
:106C0000CC0A60EE800AC4ED000A0198801300EE01
:106C1000900AF8EEE00A60EE800AC4ED010A0298DC
:106C2000801300EE900AF8EEE00A20EE800A84ED70
:106C3000020A01203EBD3EB504466846FFF794FEB9
:106C40009DED000AF8EEC00A9FEDBB0A60EE800AD7
:106C5000C4ED000ADDED010AF8EEE00A60EE800AFC
:106C6000C4ED010ADDED020AF8EEE00A20EE800A2A
:106C700084ED020AAF4890F82400400601D50120B7
:106C80003EBD00203EBD3EB504466846FFF780FE8F
:106C90009DED000AF8EEC00A9FEDA70A60EE800A9B
:106CA000C4ED000ADDED010AF8EEE00A60EE800AAC
:106CB000C4ED010ADDED020AF8EEE00A20EE800ADA
:106CC00084ED020A9B4890F82400400601D501207B
:106CD0003EBD00203EBD70B50446964D2879087033
:106CE000A86810609FED950A6869002820DBD5ED43
:106CF000060AF8EEE00A60EE800AC4ED000AD5ED5F
:106D0000070AF8EEE00A60EE800AC4ED010AD5ED4C
:106D1000080AF8EEE00A60EE800AC4ED020AD5ED3A
:106D2000050AF8EEE00A20EE800A84ED030A27E067
:106D3000A869404200EE900AF8EEE00A60EE800A90
:106D4000C4ED000AE869404200EE900AF8EEE00A5D
:106D500060EE800AC4ED010A286A404200EE900A03
:106D6000F8EEE00A60EE800AC4ED020A686940426B
:106D700000EE900AF8EEE00A20EE800A84ED030AA5
:106D800001F0A9FA84ED040A286B70BD10B5694BB7
:106D90001C6914601A780A70002103EB810292EDDD
:106DA0002E0A00EB810282ED000A491C0329F4DB64
:106DB00093F82C00400601D5012000E000200021BE
:106DC000D96210BD10B504462DED028B8AB09FED3F
:106DD0005B8A584801A9143000F0E3FC9DED010ADC
:106DE000B8EEC00A20EE080A84ED000A9DED020A02
:106DF000B8EEC00A20EE080A84ED010A9DED030AF0
:106E0000B8EEC00A20EE080A84ED020A9DED040ADD
:106E1000B8EEC00A20EE080A84ED030A9DED050ACB
:106E2000B8EEC00A20EE080A84ED040A9DED060AB9
:106E3000B8EEC00A20EE080A84ED050A9DED070AA7
:106E4000B8EEC00A20EE080A84ED060A9DED080A95
:106E5000B8EEC00A20EE080A84ED070A9DED090A83
:106E6000B8EEC00A20EE080A84ED080A0AB0BDECAC
:106E7000028B10BD10B504462DED028B8AB09FED3C
:106E8000308A01A8FFF79EFF9DED040ADDED010A9F
:106E9000B1EE400A0BF0C6FD20EE080A84ED000AB0
:106EA0009DED080ADDED090AB1EE400A0BF0BAFDCE
:106EB00020EE080A84ED010A9DED070A0BF01CFD87
:106EC00020EE080A84ED020A94ED000AB5EEC00A2D
:106ED000F1EE10FACAD2DFED1B0A30EE200A84ED83
:106EE000000AC3E710B5134C23790B70A168116039
:106EF000FFF7C0FF206B10BDF0B505462DED028BEE
:106F000085B000264FF47A740A4A0A4F0832391DB8
:106F100002F10C0001F0FFF8286B7862686FB8622C
:106F2000D5F8B800F8622A6BD00500D5EC6A0BE002
:106F30000AE81C39A02D002035FA8E34000080307C
:106F4000E12E65420000B443686FC10504D5296F86
:106F5000A14201DA0C460126D5F8B810CB0505D5BB
:106F6000D5F8B430A34201DA1C460226D5F8203108
:106F70005FEAC35C04D5D5F82CC1A44500DA03262A
:106F8000DC054FF0FF3C05D500EA0104E40507D419
:106F9000664605E002EA00040C40E40500D46646BB
:106FA000D6B1012E1ED0022E22D0032E27D00020D3
:106FB0003863514A01A902A8FFF707FD9DF90400B3
:106FC0003860002402AE9FED4D8A95F8B80000F0BD
:106FD000500040281AD028E0C2F380103863A86B14
:106FE000B860E6E7C0F380103863E86FB860E0E7A8
:106FF000C1F380103863D5F8C000B860D9E7C3F397
:1070000080103863D5F82401B860D2E756F8240020
:1070100000EE100A04EB440000EBC40007EB800014
:10702000B8EEC00A343000F08FFED5F8B800C0F3D7
:107030008111032915D040060BD556F8240000EE27
:10704000100A07EB8400B8EEC00A20EE080A80EDB3
:107050002E0A641C032CB8DB05B00020BDEC028BAB
:10706000F0BD56F8240000EE100A04EB440000EBDB
:10707000C40007EB8000B8EEC00A343000F079FE9F
:1070800020EE080A07EB840080ED2E0AE1E7AFF25C
:107090009710FFF79DBB07224FF46171AFF2A71065
:1070A000FFF744BB70B51448C42110380AF0A3FDA3
:1070B0000024114D103D04EB440000EBC40005EB2F
:1070C000800034300E4900F02CFE641C032CF2DBEF
:1070D000002070BD10B5FFF7E5FFAFF24500BDE839
:1070E000104001F057B910B5FFF7D1FFAFF25900CA
:1070F000BDE8104001F02BB9B02D00200000803712
:10710000E8210020002A04D1064B1A688A43024372
:107110001A6070470146034A1068002901D0002117
:1071200011607047FC210020DFEDFE0A20EE200AEE
:10713000DFEDFD0A80EE201ABCEEC10A10EE100A47
:10714000C0B2FA4901EB800090ED000A7047DFED14
:10715000F50A20EE200ADFEDF40A80EE201ABCEEDC
:10716000C10A10EE100A4030C0B2F04901EB8000B5
:1071700090ED000A704780FB0101800F40EA81001A
:10718000704730B503460C4618682168FFF7F3FFD7
:10719000054661685868FFF7EEFF2D1AA1689868E8
:1071A000FFF7E9FF2D1AE168D868FFF7E4FF281A16
:1071B000106061681868FFF7DEFF054621685868AF
:1071C000FFF7D9FF0544E1689868FFF7D4FF05444D
:1071D000A168D868FFF7CFFF281A5060A168186827
:1071E000FFF7C9FF0546E1685868FFF7C4FF2D1A8D
:1071F00021689868FFF7BFFF05446168D868FFF70A
:10720000BAFF28449060E1681868FFF7B4FF0546AC
:10721000A1685868FFF7AFFF054461689868FFF7F9
:10722000AAFF2D1A2168D868FFF7A5FF2844D0606F
:1072300030BD02680A60426852424A608268524227
:107240008A60C0684042C860704730B591B003465C
:107250000C46154600200D90A1685868FFF78BFF7B
:10726000024661689868FFF786FF101A0E90216841
:107270009868FFF780FF0246A1681868FFF77BFF58
:10728000101A0F9061681868FFF775FF02462168B1
:107290005868FFF770FF101A109009AA0DA9284628
:1072A000FFF76FFF01A92846FFF7C3FF05AA01A951
:1072B00009A8FFF766FF079808B9069898B19DEDF1
:1072C000060AB8EEC00A9FED9A1A60EE010A9DED1B
:1072D000070AB8EEC00A20EE010A0BF0A3FBB1EEDC
:1072E000400A11B030BD9FED930AFAE70346002033
:1072F000002153F82120521302FB0200491C0329EC
:10730000F7DB704780FB0101400F40EAC100704786
:1073100010B50A46C117890741EA90018007D317C3
:107320000AF0ECFB10BD10B580FB01010AF026FC51
:1073300010BD10B503680C682344136043684C68A3
:107340002344536083688C6823449360C068C96891
:107350000844D06010BD70B504462DED068B0E4676
:107360009FED75ABB0EE4A8AF0EE6A8A002518E010
:1073700054F8250000F073FDB0EE409AF0EE609AEC
:1073800054F8250000F06BFD53EC192B51EC100B59
:107390000AF0F7FC53EC182B0AF04CFC41EC180BEC
:1073A0006D1CB542E4DB53EC1A2B51EC180B0AF0C0
:1073B0005BFE23D2B0EE480AF0EE680A0CF01EF82D
:1073C00053EC102B9FED5E0B51EC100B0AF04BFDB4
:1073D00041EC180B00250CE054F825000AF0C8FD1C
:1073E00053EC182B0AF0CDFC0AF0F4FD44F825000C
:1073F0006D1CB542F0DBBDEC068B70BD4FF08040DC
:1074000020600120002102E044F82010401CB0421E
:10741000FADBF0E704219EE710B52DED068B9FED1A
:10742000489B9FED49AB00680AF0A2FD9FED481B09
:1074300053EC112B0AF0A5FC41EC180B53EC192B63
:1074400051EC180B0AF010FE04D2B0EE498AF0EEAF
:10745000698A0AE053EC1A2B51EC180B0AF0ECFD88
:1074600003D2B0EE4A8AF0EE6A8AB0EE480AF0EE35
:10747000680A0BF009F89FED381B51EC100B53EC28
:10748000112B0AF07EFC9FED361B53EC112B0AF0FA
:1074900078FC9FED351B53EC112B0AF0E4FCBDEC9E
:1074A000068B41EC100B10BD70B590B0064614462B
:1074B00000230493D1E900358968CDE905350791AA
:1074C0000CAA04A93046FFF75CFE08A93046FFF776
:1074D000B0FE6A4608A90CA8FFF753FE01A807C82A
:1074E00007C410B070BD90ED000AD1ED000A91ED17
:1074F000011A20EE200AD0ED010A00EEC10AD0EDFB
:10750000020A91ED021A00EEC10AD0ED030A91EDD4
:10751000031A00EEC10A82ED000A90ED000AD1EDD7
:10752000010A25E000000043D00F4940E44A03006F
:10753000000080300000000000000000000000009B
:10754000000000000000F03F000000000000F0BF5D
:10755000000000000000103E00000000000000409D
:107560000000000000806640112D4454FB210940BA
:1075700020EE200AD0ED010A91ED001A00EE810AFA
:10758000D0ED020A91ED031A00EE810AD0ED030A54
:1075900091ED021A00EEC10A82ED010A90ED000A97
:1075A000D1ED020A91ED031A20EE200AD0ED010A76
:1075B00000EEC10AD0ED020A91ED001A00EE810A38
:1075C000D0ED030A91ED011A00EE810A82ED020A64
:1075D00090ED000AD1ED030A91ED021A20EE200A87
:1075E000D0ED010A00EE810AD0ED020A91ED011AF8
:1075F00000EEC10AD0ED030A91ED001A00EE810AF7
:1076000082ED030A704790ED000AD1ED000A30EEDA
:10761000200A82ED000A90ED010AD1ED010A30EE58
:10762000200A82ED010A90ED020AD1ED020A30EE45
:10763000200A82ED020A90ED030AD1ED030A30EE32
:10764000200A82ED030A70475FED460A90ED001AAA
:10765000D0ED011A90ED022A21EE010AD0ED032AA5
:1076600001EEA10A02EE020A02EEA20A10EE101AC0
:10767000B1F1804F34DAF6EE000A60EE200AB7EE80
:10768000083AF0EE433A20EE804A44EE403A23EEC8
:10769000800AF0EE433A20EE804A44EE403A23EE70
:1076A000800AF0EE433A20EE804A44EE403A23EE60
:1076B000800A60EE800A00EEC03A23EE000A61EE16
:1076C000000AC0ED000A61EE800AC0ED010A62EE18
:1076D000000AC0ED020A22EE800A80ED030A70471C
:1076E000B7EE000A80ED000AC0ED010AC0ED020A03
:1076F000C0ED030A704710B5044694ED000AD4EDBE
:10770000010A20EE000A00EEA00AD4ED020A00EE03
:10771000A00AD4ED030A00EEA00A0BF0ACFEB5EE11
:10772000C00AF1EE10FA18D0D4ED000A80EE801AEB
:1077300084ED001AD4ED010A80EE801A84ED011A5E
:10774000D4ED020A80EE801A84ED021AD4ED030A09
:1077500080EE801A84ED031A10BDB7EE000A84EDA6
:10776000000A1FED8C0A84ED010A84ED020A84ED03
:10777000030A10BD90ED000A81ED000A90ED010AA8
:10778000B1EE400A81ED010A90ED020AB1EE400A25
:1077900081ED020A90ED030AB1EE400A81ED030A81
:1077A000704710B502460B4650680146FFF7AAFD28
:1077B000044610680146FFF7A5FD2044A0F1804073
:1077C0001860D2E90101FFF79DFD04461168D068F9
:1077D000FFF798FD201A5860D1685068FFF792FDB6
:1077E000044611689068FFF78DFD20449860D2E947
:1077F0000101FFF787FD04461168D068FFF782FD9D
:107800002044D86090680146FFF77CFD044610686C
:107810000146FFF777FD2044A0F180401861D2E9CE
:107820000201FFF76FFD0446D2E90010FFF76AFD81
:10783000201A5861D1685068FFF764FD044611684A
:107840009068FFF75FFD201A9861D2E90201FFF707
:1078500059FD0446D2E90010FFF754FD2044D861D9
:10786000D0680146FFF74EFD044610680146FFF759
:1078700049FD2044A0F18040186210BD10B5446855
:107880000C6082684A60C3688B600068002805DA73
:1078900060420860504248605842886010BD02460D
:1078A0000846110E0170110C4170110A8170C270EE
:1078B0007047C178027841EA026142788078120408
:1078C00042EA00200143084670474178007841EAC7
:1078D000002000B270470178407841EA002000B2F1
:1078E000704702460846110A0170427070472DE940
:1078F000F043DDF81C800025002720E0002400264E
:1079000007EB470C01EBCC0C13E09D4200D16D1C42
:10791000444500D1641C05EB450900EBC90909EB9E
:10792000840999ED000A0CEB860989ED000A641CB4
:10793000761CD2F80090A145E7DC6D1C7F1C146812
:10794000AC42DBDC1068401E1060BDE8F0832DE91E
:10795000F043DDF81C800025002720E000240026ED
:1079600007EB470C01EB0C1C13E09D4200D16D1C92
:10797000444500D1641C05EB450900EB091909EBEE
:10798000C40999ED000B0CEBC60989ED000B641CD2
:10799000761CD2F80090A145E7DC6D1C7F1C1468B2
:1079A000AC42DBDC1068401E1060CEE72DE9F04FE2
:1079B00006462DED028BA5B089469FEDFE8AD9F8CB
:1079C0000070022F09D04FF00008002408EB480097
:1079D00006EBC00A4FF0FF3B31E096ED000AD6ED12
:1079E000070A96ED061A20EE200AD6ED010A00EEEF
:1079F000C10A25B0BDEC028BBDE8F08FC9F800705C
:107A000043464A4601A930460094FFF770FF4946B5
:107A100001A8FFF7CBFF0AEB840090ED001A08EBFA
:107A20000400C00701D05D4600E0012500EE905A39
:107A3000F8EEE00A61EE200A00EE808A641CBC4287
:107A4000DCDBB0EE480AD4E72DE9F04105462DED28
:107A5000048BCAB088469FEDD88BD8F80060022E00
:107A600002D00027002455E095ED0C0B95ED021B8C
:107A700053EC102B51EC110B0AF083F995ED0E0B22
:107A800095ED001B41EC180B53EC102B51EC110B36
:107A90000AF077F953EC182B0AF06DF941EC100B52
:107AA0004AB0BDEC048BBDE8F081C8F800603B46ED
:107AB000424602A928460094FFF749FF414602A822
:107AC000FFF7C2FF3819B0EE409AF0EE609AC00797
:107AD00002D04FF0FF3000E001200AF049FA41ECFB
