:020000040000FA
:1000000058320020150200001D0200001F020000EF
:100010002102000023020000250200000000000071
:1000200000000000000000000000000027020000A7
:1000300029020000000000002B0200002D02000039
:10004000991F00002F02000071220000752000009F
:100050002F0200002F0200002F0200002F020000DC
:100060002F0200002F0200002F0200002F020000CC
:100070002F0200002F0200002F0200002F020000BC
:100080002F020000512000002F0200002F0200006C
:10009000852000002F0200002F0200002F02000028
:1000A0002F0200002F0200002F0200002F0200008C
:1000B0002F0200002F0200000000000000000000DE
:1000C0002F0200002F0200002F0200002F0200006C
:1000D0002F0200002F0200002F0200002F0200005C
:1000E0002F0200002F0200002F0200002F0200004C
:1000F000000000002F0200000000000000000000CF
:1001000000000000000000000000000000000000EF
:1001100000000000000000000000000000000000DF
:1001200000000000000000000000000000000000CF
:1001300000000000000000000000000000000000BF
:1001400000000000000000000000000000000000AF
:10015000000000000000000000000000000000009F
:10016000000000000000000000000000000000008F
:10017000000000000000000000000000000000007F
:10018000000000000000000000000000000000006F
:10019000000000000000000000000000000000005F
:1001A000000000000000000000000000000000004F
:1001B000000000000000000000000000000000003F
:1001C000000000000000000000000000000000002F
:1001D000000000000000000000000000000000001F
:1001E000000000000000000000000000000000000F
:1001F00000000000000000000000000000000000FF
:10020000DFF80CD001F084FE00480047854B000069
:10021000583200200648804706480047FEE7FEE7C0
:10022000FEE7FEE7FEE7FEE7FEE7FEE7FEE7FEE7A6
:100230008920000001020000F0B516462DED028B6A
:1002400085B01F460C4605463C22FE49A1F10C0034
:1002500001F006FBFB4950224C31A1F1100001F0E6
:10026000FFFAF84996E80D000C3901F13C0C8CE8D6
:100270000D005CCC01F1980080E85C009FEDF28AF3
:10028000D1F82401401CC1F82401062802DD062013
:10029000C1F82401C0F106060C46A0351AE004EBB3
:1002A00006116A463846483103F0D2FF06EB460095
:1002B00004EB80016A46284603F058FCF0EEC00AC1
:1002C000B0EEC81AF4EEC10AF1EE10FA01D2B0EEA7
:1002D000408A761C062EE2DB05B0B0EE480ABDEC83
:1002E000028BF0BD70B514462DED048B0E46B0EEBA
:1002F000408A00259FEDD59A416BF0EE498A00298E
:1003000004DBD0F8BC00032800D10125CD4924220C
:10031000B431081F01F0A4FACA480C38002380ED5C
:10032000388A00EB83015B1C91ED2F0A0A2B70EEDB
:10033000288AF6DBB2EE040AC822C8EE800AC0EDB5
:10034000390A9FEDC31A322E1DDB9FEDC20AC0F899
:100350001C21B6F57A7FC8EE001A00EE104AB8EEFE
:10036000C00A61EE801A81EE810A2FDB9FEDBA0A86
:10037000C8EE001A00EE104AB8EEC00A61EE801A0C
:1003800081EE810A22E041F2883194FBF1F1494289
:10039000D0F81C3101EB8101C918C0F81C1102D53D
:1003A0000021C0F81C119FEDAD0AC8EE001A00EE46
:1003B000104AB8EEC00A61EE801A81EE810A29B9AE
:1003C000D0F82811012901D1B0EE490AD0F8201146
:1003D00009B1B0EE480AA2498C4201D1B0EE480AF8
:1003E000B5EEC00AF1EE10FA01D0C0ED3A0A90ED78
:1003F0003A1A9C4B71EE600AF0EEE00A10EE901A89
:10040000994227DDD0ED2E0AF5EEC00AF1EE10FA82
:1004100020D1002D1ED0C0F81C21204601F0EEFB9B
:1004200041EC190B18EE100A01F018FC9FED8E1B21
:1004300053EC112B01F073FB53EC192B01F0FDFA77
:100440009FED8B1B53EC112B01F069FB01F032FC8B
:1004500000EE100ABDEC048B70BD2DE9F04F044690
:100460002DED048BA9B09FED799A4FF0000A754EDF
:10047000CDF810A00C3ECDF814A0CDF818A0D6F8F9
:100480002011022003297DD000209FED7B8A20AD22
:1004900006EB800191ED2A0A05EB8001401CB8EEC5
:1004A000C00A042820EE080A81ED000AF0DB0FA83C
:1004B00003F094FC24A803F0D7FC624B24AA9C33DD
:1004C0000FA920462793FFF7B7FEF0EE408A04F10C
:1004D000180003F01BFD81096148D6F830218242E3
:1004E00000DB0246B0EE680A2046FFF7FBFED6EDC1
:1004F0003B0AB3460BA820EE200A86ED2E0A03F035
:100500006DFC13A90BA804F01EF84E480FAAF0309A
:100510000BA9064603F09CFE31460BA803F075FEBE
:1005200000210DF13C080DF14C090DF1100E0022D7
:100530001346104601EB410C0CEB000759F82760FD
:1005400008EB8007401C7F680328C6FB0723F3DB0A
:10055000900F40EA83004EF82100491C0329E6DB96
:10056000DBF820015E4600286AD05046CDF818A07E
:10057000404200EE100AB8EEC00A20EE080A02F06F
:10058000C1F800E0A2E08DED000A8DED019A8DED3D
:10059000029A0698404200EE100AB8EEC00A20EE19
:1005A000080A02F057F98DED030A9DED060ADFED0A
:1005B000330AD6F83001B8EEC00A41F2883190FB18
:1005C000F1F080EE201A00EE100AF8EEC01A81EE6B
:1005D000210AB0EE001AC0EE011ABDEEE10A10EEDB
:1005E000101A490000EE101A0691B8EEC00A60EE2B
:1005F000200A00EE100AB8EEC00A20EE800ABDEE16
:10060000C00A8DED060AB8EEC00A20EE080A02F014
:1006100079F88DED070A8DED089A8DED099A9DED1B
:10062000060AB8EEC00A20EE080A02F013F98DEDB2
:100630000A0A1CAA694620A803F062FE6A461FE067
:100640004BE000000410002000247449000000006A
:1006500000409C4500004843000048420000C84359
:1006600040420F000E2DB23D000000000000794016
:10067000000000000088B34000008030E1023747EE
:1006800007A91CA803F03CFE6F46DFED958AD4F85D
:10069000BC00002813DD002007EB800191ED000A6B
:1006A00005EB800181ED000A20EE280A06EB8001AF
:1006B000401C0428BDEEC00A81ED2A0AECDBD4F808
:1006C000BC00F6EE009A03280CD108E0C6F8200121
:1006D00029B0BDEC048BBDE8F08F069848E701F027
:1006E000A5F8E0B396ED2A0AB8EEC00A20EE080A93
:1006F0008DED1C0A96ED2B0AB8EEC00A20EE080A12
:100700008DED1D0A96ED2C0AB8EEC00A20EE080AFF
:100710008DED1E0A96ED2D0AB8EEC00A20EE080AED
:100720008DED1F0AD6F820010028D1D096ED2E0AB3
:1007300020EE290A01F0E6FF20EE280ABDEEC00AED
:1007400086ED2A0AC6F8ACA0C6F8B0A096ED2E0A2F
:1007500020EE290A02F07EF820EE280A00E004E0EC
:10076000BDEEC00A86ED2D0A2BE096ED2E0A20EE96
:10077000290A01F0C7FF8DED070A8DED089A8DED6E
:10078000099A96ED2E0A20EE290A02F063F88DED03
:100790000A0A6A4607A920A803F0B2FD684603F0DA
:1007A0005BFE002007EB800191ED000A06EB800163
:1007B000401C20EE280A0428BDEEC00A81ED2A0A5A
:1007C000F0DBD4F8C010279803F0F2FFD6F8200130
:1007D0000028AAD0401E79E770B590F8B810414AB9
:1007E000CC064FF000034FF0030101D4C2E94813D7
:1007F000B0F82041E40509D4048EE40503D5B0F82F
:100800007440E40502D4C2E948131AE0D2F8341166
:1008100039B1D0E93013C91A4FF47A73B1FBF3F14F
:1008200005E0D0F8B01044F62064A14202DBC2F823
:1008300030110AE0D2F82C512944C2F82C11A142FF
:1008400001DA002070BDC2E94B31FFF706FEF8E780
:1008500010B54FF49C71234801F029F8214C4FF05A
:1008600080400021C4F8FC0044F8A80F1D48A830BF
:1008700003F09EFF4FF47A70B7EE000A606784EDD4
:10088000110A10BD174880ED3B0A0020704715493A
:10089000C1F82801002070471249C1F83401002036
:1008A000704704224FF41671AFF2D30003F0B8BEC4
:1008B000AFF2DB0003F0DCBF10B5FFF7C9FF094959
:1008C0000020C1F82801C1F83401AFF22900BDE8C9
:1008D000104003F02DBFAFF2350003F0EFBF000072
:1008E0000000804EF80F0020F0B51D462DED028B64
:1008F00099B090ED000AD0ED010A1746B8EEC00A93
:10090000B8EEE01AF8EEE00A0E4620EE000A0446C1
:1009100001EE200AD0ED020AB8EEE01AF8EEE00A85
:1009200001EE200A02F05EF8F0EEC00A10EE900A26
:10093000B0F18D4F7EDDD6ED000AB8EEE01ADFEDA6
:10094000FE0A21EE201A8DED041A96ED011AB8EE7A
:10095000C11A21EE201A8DED051A96ED021AB8EE95
:10096000C11A21EE201A8DED061A96ED031AB8EE83
:10097000C11A61EE200ACDED070A9FEDF08A10AA98
:100980008DED0C8AD4ED000A0CA904A8F8EEE00A5B
:1009900080EE801A8DED0D1AD4ED010AF8EEE00A12
:1009A00080EE801A8DED0E1AD4ED020AF8EEE00A00
:1009B00080EE801A8DED0F1A03F0A2FC14A904A892
:1009C00003F02FFC6A4614A910A803F099FC9DEDD2
:1009D000021ADDED010ADA4921EE010A00EEA00A51
:1009E00010EE100A884202DA9FEDD60A11E010EEEE
:1009F000100AD549884202DA9FEDD40A09E010EEC8
:100A0000100AD349884202DAB5EE000A01E09FEDF0
:100A1000D10A01EE907AB8EEE12ADFEDCF2A8DED12
:100A2000088AC2EE221A21EE800A21EE001A8DED0C
:100A3000091A00E038E020EEC00A6A4604A98DEDEC
:100A40000A0A8DED0B8A08A803F05AFC6A4604A92D
:100A5000104603F0B9FB684603F0BCFCDDED000A6C
:100A60009FEDBE0A60EE800AFDEEE00AC5ED000AC9
:100A7000DDED010A60EE800AFDEEE00AC5ED010A37
:100A8000DDED020A60EE800AFDEEE00AC5ED020A25
:100A9000DDED030A20EE800ABDEEC00A85ED030AF3
:100AA00019B0BDEC028BF0BD96E80F0085E80F0091
:100AB000F6E72DE9F0410C462DED068B054690ED4D
:100AC000000AD0ED010AB8EEC00AB8EEE01AF8EE5E
:100AD000E00A20EE000A01EE200AD0ED020AB8EE8C
:100AE000E01AF8EEE00A01EE200A01F07BFF10EEBA
:100AF000100A4FF07E5800264FF0804740453FDDFA
:100B0000D5ED020AB7EE009AF8EEE00AC0EE808A50
:100B100039EE680A9FED89AAB5EEC00AF1EE10FA27
:100B200001DCB0EE4A0AF6EE009A20EE290A01F046
:100B300059FFB0EE408A38EE890AB5EEC00AF1EEF0
:100B400010FA01DCB0EE4A0A20EE290A01F04AFF51
:100B5000F0EE408A95ED000AB8EEC00A60EE000A99
:100B600095ED010AB8EEC01AB8EEC00A41EE000ACF
:100B7000B0EE600A01F036FF10EE100A404503DCCB
:100B8000C4E90076A66025E0DFED740A28EEA01A1D
:100B9000BDEEC11A84ED001A95ED011AF8EEC11AE6
:100BA00081EE801A21EE081A61EE200AFDEEE00ABD
:100BB000C4ED010AD5ED000AF8EEE00A80EE801AD5
:100BC00021EE080ADFED660A20EE200ABDEEC00A1B
:100BD00084ED020AE660BDEC068BBDE8F08170B5DD
:100BE00090ED000AD0ED010A0546B8EEC00AB8EE55
:100BF000E01AF8EEE00A0C4620EE000A01EE200AA8
:100C0000D0ED020AB8EEE01AF8EEE00A01EE200A92
:100C1000D0ED030AB8EEE01AF8EEE00A01EE200A81
:100C2000B5EEC00AF1EE10FA07D84FF08040206010
:100C300000206060A060C86070BD01F0D3FEB7EE18
:100C4000001AC1EE000A9FED450A20EE800AD5ED9C
:100C5000000AF8EEE00A60EE800AFDEEE00AC4ED5C
:100C6000000AD5ED010AF8EEE00A60EE800AFDEE1A
:100C7000E00AC4ED010AD5ED020AF8EEE00A60EEE2
:100C8000800AFDEEE00AC4ED020AD5ED030AF8EE93
:100C9000E00A20EE800ABDEEC00A84ED030A70BDB2
:100CA00070B5044690F8300088B040067ED5A06943
:100CB000002801DB014600E041424FF4803200266B
:100CC000284D91420BDAE169002900DA494291424C
:100CD00005DA216A002900DA4942914267DB0028DF
:100CE00000DA40424FF4C80188420BDCE06900287A
:100CF00000DA4042884205DC206A002800DA4042DF
:100D0000884201DD032000E00220A863696BA06A2D
:100D1000814242D0686394ED0A0A9FED131AF8EEFF
:100D2000C00A80EE810ADFED110A20EE200A10EEE3
:100D3000100A00F093FF1BE000008030000000006C
:100D400017B75139A69BC43B0AD7233C8FC2753DC8
:100D5000CDCC4C3ECDCCCC3E0014CD470000804ED7
:100D6000000080CE30110020002474490000004EA5
:100D70009FEDFA1B53EC112B00F05FFE9FEDF91B6A
:100D800053EC112B00F059FE9FEDF81B53EC112B87
:100D900000F0C5FE00F043FF28630496296BA069AC
:100DA00003F0FAF90590296BE06901E022E023E005
:100DB00003F0F2F90690296B206A03F0EDF9079031
:100DC0006A4604A9EB4803F043FA0098E94A800117
:100DD000009001986946800101900298800102907C
:100DE000039880010390104603F0DCF9E1490846BE
:100DF000FFF7F5FE08B070BDAE63FBE770B50446C3
:100E00002DED048B8EB0D0F82001410676D5D94D5A
:100E1000D4F81011D84B2A68891AD4F82C215A43D7
:100E20008A4201DA032100E00221A963800504F56A
:100E3000887602D5CF493046B5E0002107A803F0F7
:100E40004BF8CC490C223C3107A800F042FD20B9F8
:100E5000D4F82801A96D88427ED020886B4680B2E4
:100E600007AA616A02F0D8FE9DED000ADDED010AD5
:100E7000B8EEC00AB8EEE01AF8EEE00A20EE000A7A
:100E800001EE200ADDED020AB8EEE01AF8EEE00A03
:100E900001EE200A01F0A6FDB0EE408A9FEDB70AF0
:100EA00068EE000A9FEDB61A80EE810ADFEDB50A02
:100EB00020EE200AD4ED4A0AF8EEE00A60EE800A3D
:100EC0001FED571A80EE810AF6EE000A20EE209AF6
:100ED000B0EE490A01F016FCF0EE408AB0EE490A85
:100EE00001F0B8FC18EE100A4FF08041884206DA93
:100EF0000020C5E912102865686532E055E05FED15
:100F0000690A68EEA00AFDEEE00AC5ED120A5FED7F
:100F10006C0A20EE200ADDED000AF8EEE00A60EE31
:100F2000200A80EE881AFDEEC10AC5ED130ADDED38
:100F3000010AF8EEE00A60EE200A80EE881AFDEE63
:100F4000C10AC5ED140ADDED020AF8EEE00A20EE52
:100F5000200AC0EE080A00E00DE0BDEEE00A85EDD3
:100F6000150A07AB93E8070005F13C0383E8070087
:100F7000D4F82801A8657F4903AA4831304603F018
:100F800067F97C480AAA5C3003A9044603F060F9BB
:100F90002146304603F039F903AA0AA9754803F03F
:100FA00057F9744903A8FFF71AFE0EB0BDEC048B85
:100FB00070BD1FB5044669466E4803F026F96D4AB8
:100FC00069462032204603F043F96A491DCC1031AE
:100FD00081E81D001FBD2DE9F0470446654E90F8DD
:100FE000740006F15C0A06F12008012500F05001AA
:100FF000103692B004F5887904F15C07402906D0D8
:1010000094F8200100F0500040280DD01DE031463A
:101010003846FFF74EFDB4F82001C0050CD5514607
:10102000484603F0F2F807E05146484603F0EDF871
:10103000B4F87400C00508D569464E4803F0E5F8D9
:1010400042466946304603F003F9B4F82001C00572
:10105000204602D5FFF7D2FE01E0FFF721FE32461F
:101060004449404603F0F4F894F8740040066FD504
:10107000208EB4F820110843C0056DD50FAA39465B
:10108000304603F041FAD4E9172080FB0001C2FB8F
:101090000201626E374FC2FB02014FF08042801A9C
:1010A00071F1020014DB04A802F062FFDDE9042004
:1010B00080FB0001C2FB0201069AC2FB02014FF055
:1010C0008042801A71F1020002DB0420B8630BE059
:1010D000B86B042808D041F28832022806D00328D1
:1010E00004D0012852D009E0002507E0E16E91FB11
:1010F000F2F5012D00DA0125032800D0AD002248C9
:1011000000244543109807948002294603F044F8D0
:1011100008900F9829464042800203F03DF8CDE93F
:1011200009040BAA314607A803F092F832460BA92E
:10113000104603F037F831460846FFF750FD694680
:101140000C4803F062F842466946304603F080F8E6
:1011500012B00020BDE8F08720E00000112D4454BB
:10116000FB2109400000000000007040000000006A
:10117000008066403011002071981C00DB0F494050
:101180000000344300008037A69BC400E06E90FB53
:10119000F2F0012800DA01204500AFE73346194696
:1011A0003846E26EFFF7A0FBC9E770B50446008E33
:1011B000C105D4F8200107D4B4F87410C90503D4CC
:1011C000C10501D4002070BDC0F30120032807D061
:1011D0002046FFF700FF2348A16B03F039FBF1E73E
:1011E00004F588711F482EC980E82E00F3E71E48D9
:1011F00003F03EBB1B4810B56C21103800F057FBC4
:1012000018484FF080411038016101600162C163EC
:10121000C165002010BD184810B5082213A1006850
:1012200000F057FB08B1322010BD1322BDE810407A
:10123000C8210D4803F0F4B910B5FFF7DBFF002813
:1012400005D1AFF22D00BDE8104003F071BA10BD1A
:1012500010B5054803F00CFBAFF24500BDE81040A7
:1012600003F02CBB40110020AB110000654D504C29
:1012700020352E310000000000000020002803DD92
:10128000FE490122C1E920020020704710B5B821B3
:10129000FA4800F00CFB9FEDFA0AF84880ED030ACB
:1012A0009FEDF80A80ED020A9FEDF70A4FF08041AA
:1012B00080ED000AB3EE0E0A80ED010A41664FF49C
:1012C000FA619FEDF20AC16780ED270A002010BD88
:1012D00070B5EA4C002594ED001AB4EEC01AF1EE98
:1012E00010FA17D394ED011AB4EEC01AF1EE10FA09
:1012F00010DC2069012817D194ED030AB4EEE00A4E
:10130000F1EE10FA06D394ED020AB4EEE00AF1EE23
:1013100010FA09DD606F20B9D848A16D183003F0CC
:1013200047FA0120C4E91D05D4E91E01884204DB07
:10133000606F012800D1E565656770BD10B5044692
:101340002DED028BB0EE408A02F052FDCB49002217
:1013500020B918EE100ACE4B984202DD0A614A61AC
:1013600002E00869002808D1486920444861B0F5C6
:10137000FA7F02DD0120C1E90402BDEC028B10BD41
:10138000F0B58DB00D4614460646694603F0DBF80D
:1013900009AA3146284602F05BFF2946304602F092
:1013A00034FF0021EC460DF1240E00231A461846A6
:1013B00001EB41073D180EEB80065CF8255076687E
:1013C000401CC5FB06320328F4DB980F40EA82007C
:1013D00044F82100491C0329E7DB0DB0F0BDA74903
:1013E0000020C1F88C00704710B590ED000AD0EDD8
:1013F000010AB8EEC00AB8EEE01AF8EEE00A20EEF4
:10140000000A01EE200AD0ED020AB8EEE01AF8EE6A
:10141000E00A01EE200A01F0E5FADFED9E0A20EE77
:10142000200A10BD00229549012330B1012810D0B7
:10143000C1F8983041F88C2F31E081ED280A81ED18
:10144000290A9FED950A81ED2A0AE1E924328A6092
:101450007047D1ED280A91ED271A70EE600AF0EE80
:10146000E00AF4EEC10AF1EE10FA16D2D1F89400B7
:10147000401CC1F89400D1ED290A312830EE800AD1
:1014800081ED290AE4DD0220DFED840AC1F8900035
:1014900080EE201A81ED2A1A704741F8902F4A6099
:1014A00070472DE9F04798462DED088B8AB0174616
:1014B0008A4604469FED788A0025704E0395049570
:1014C0000595D6F8880000287DD002F017FD10B1F0
:1014D00003A802F0F3FCD6F880004FF001090028C1
:1014E00017DDC6F8849002F009FD48B103A802F0A8
:1014F0000DFD8009B0F5C87F02D2D6F8800004E067
:10150000D6F88000001BC6F88000002801DCC6F871
:10151000845002F0A5FD002855D000209FED5D9A73
:1015200057F8201000EE101A58F82010401CB8EEA2
:10153000C00A032860EE090A00EE101AB8EEC00ACD
:1015400020EE800A00EE098AEADB3846FFF74CFFFE
:10155000F0EE408A4FF07E5788EE280AF7EE00AA98
:1015600010EE100AB84201DDB0EE6A0A10EE100A61
:10157000DFF82C81BFEE00BA404501D9B0EE4B0A2E
:1015800000F00CFFD6F88C00B0EE40AA98B196EDB2
:10159000000AB4EEE80AF1EE10FA0CDD96ED010A4D
:1015A000B4EEE80AF1EE10FA05D2B0EE4A0AD6F827
:1015B0009000FFF737FF684602F0F8FC2F490C2235
:1015C000AC31684600E0E2E000F083F918B9D6F8E3
:1015D000980001286BD129489DE80E00AC3080E8C6
:1015E0000E00009818B9019808B90298F0B368463F
:1015F000FFF7FAFEB0EE408AB5EEC08AF1EE10FABF
:1016000055D0F2EE049A38EE690A20EE000A01F095
:10161000E9F986ED010A38EE290A20EE000A01F008
:10162000E1F986ED000A9DED020AB8EEC00A60EE0F
:10163000090AB0EE480A80EE808A18EE100AB84215
:1016400001DDB0EE6A8A18EE100A404501D9B0EE0D
:101650004B8AB0EE480A00F0A1FED6ED270A30EE24
:10166000600A86ED020AB0EE480A00E024E000F0CD
:1016700095FED6ED270A30EE200A14E09C110020DA
:101680000000B4420000B4C2000070427B142E3E41
:1016900000401C4600008037000000000000484267
:1016A000000080BF03E086ED030AC6F88C50DFF827
:1016B0008481F16D21B32FE01FED0D0A86ED000A44
:1016C000B3EE0E0A86ED010AD6F89800012808D07C
:1016D0001FED140A86ED020A1FED170A86ED030AB4
:1016E000E5E796ED2A0A96ED271A70EE410A30EEEC
:1016F000010AC6ED020A86ED030AC6F89850D6E73D
:101700000027C6F85C9006EB07104146183002F03F
:1017100097FB7F1C042FF6DB464906AA0C310F46C7
:101720005046FFF72DFE3946504602F06EFD03A8E5
:1017300002F0ECFB00EE100ADFED3F0A2046B8EEA7
:10174000400A20EE200AFFF7F9FDF0EE4A0AB0EE5B
:10175000680AFFF7BDFDD6E91E01884201DA204480
:10176000B067706F90B9306E20443066B0F57A7F04
:101770000CDD304930223039A1F11000356600F01F
:101780006FF82C484146103802F05AFB706F0AB0CF
:10179000BDEC088BBDE8F08770B588B0044604A89E
:1017A00002F062FBD4E93001451A684602F016FBEC
:1017B000064604AB04F1A00269462846FFF771FE15
:1017C00003F006F808B0304670BD04224FF496715D
:1017D000AFF23B0002F024BFAFF2430003F048B881
:1017E00010B5FFF753FD00280DD1124800215838DD
:1017F000C0F88C100121C0F88810AFF23100BDE8AC
:10180000104002F095BF10BD10B5AFF2730003F0A9
:101810002FF8AFF27B00BDE8104003F029B805496E
:1018200001205839C1F88C00002070470148583811
:10183000406F7047F41100200000803C202A06DB36
:10184000CB17203A41FA02F043EAE07306E041FA8E
:1018500002F3D040C2F1200291400843194670477C
:1018600010B5431A934209D28318881803E010F880
:10187000011D03F8011D521EF9D210BD40EA0103FB
:101880009B0703D009E008C9121F08C0042AFAD236
:1018900003E011F8013B00F8013B521EF9D210BDE4
:1018A000D2B201E000F8012B491EFBD270470022A2
:1018B000F6E710B513460A4604461946FFF7F0FF4F
:1018C000204610BD421C10F8011B0029FBD1801AD4
:1018D000704730B504460020034600E05B1C93428D
:1018E00003D2E05CCD5C401BF8D030BD2DE9FE4F4B
:1018F000804681EA0300C00F0C46009021F00041B1
:1019000023F00045B8EB0200A94105D2404621462C
:1019100090461C460B46024623F00040104347D039
:10192000270DC7F30A00C3F30A510290401A019031
:1019300040286BDAC3F3130040F4801B00989246F2
:1019400020B10023D2EB030A63EB0B0B019859463D
:10195000C0F14002504600F010FA06460D465046CF
:101960005946019AFFF76AFF10EB08006141002415
:1019700087EA115284EAE7731A4340D0009A62B3AF
:10198000019A012A4FEA075215DC001B61EB0201A4
:101990004FF0004202EA0752CDE90042001C41F537
:1019A000801132462B4600F04DFA03B0BDE8F08FAF
:1019B00040462146F9E7001B61EB0201001C41F59E
:1019C000801300185B412018A2F5001747EB0301B4
:1019D00040EAD570B6196D4111E06D084FEA360640
:1019E00045EAC0754FEA0752001B61EB0201001C7B
:1019F00041F5801149084FEA300000195141324643
:101A00002B4603B0BDE8F04F00F00DBA009801225C
:101A100040000023D0EB020263EBE0730098214604
:101A20004FEAE074B8EB000061EB0401E9E783F0F2
:101A300000435BE781F0004158E72DE9FE4F81EA62
:101A4000030404F0004421F0004100944FF0000B27
:101A500023F0004350EA01045ED052EA03045BD055
:101A6000C3F30A54C1F30A552C44A4F2F33401948D
:101A7000A0FB0254C1F3130141F48011C3F313031B
:101A800043F4801301FB024400FB034E840A970ACF
:101A900044EA815447EA8357A4FB076802958D0AFC
:101AA00005FB07854FEA932C04FB0C542705029D88
:101AB0004FEA065847EA1637B5EB08056EEB070CF8
:101AC000870E920E47EA811742EA8312A7FB0201B2
:101AD000B6EB0B0164EB00042B0D43EA0C335E18EC
:101AE00044EB1C50DA465146E7FB0201C5F31304F0
:101AF0004FEA0B3343EA14534FEA0432019C43EAA2
:101B00000603A4F10C040294009CCDE900B400F09B
:101B100099F903B0BDE8F08F00200146F9E72DE9FF
:101B2000F04D81EA030404F0004B21F00045144617
:101B30004FF0000A23F0004150EA050220D054EA99
:101B400001021DD0C5F30A570246C5F31303C1F3C2
:101B50001300C1F30A5640F4801543F48013A7EB39
:101B60000608101BD64608F2FD3873EB050002D3B9
:101B700008F1010801E092185B41B8F1000F03DAA7
:101B800000200146BDE8F08D00204FF4801106468C
:101B900084460EE0171B73EB050705D3121B63EB9E
:101BA000050306434CEA010C49084FEA300092183D
:101BB0005B4150EA0107EDD152EA030012D082EAFC
:101BC000040083EA0501084305D0101BAB4106D28F
:101BD0000122002306E000224FF0004302E06FF0F4
:101BE000010253101AEB06004CEB085110EB0A00EF
:101BF00041EB0B01BDE8F04D00F015B90EB5C10F7A
:101C000080EAE0700844CA07002140F233438DE8BF
:101C10000E000A460B4600F015F903B000BD70B582
:101C2000C1F30A5201F000450024C1F3130140F250
:101C3000FF3341F480119A4201DA002070BD40F276
:101C400033439A42A2F2334203DC524200F0A4F83A
:101C500000E090402C43F1D0404270BD00F00042C3
:101C600030F000400AD0C10D01F56071C0F31600DC
:101C700042EA0151C2084007114370470020014663
:101C80007047000030B5041E71F1000404DB4FF012
:101C90000044404264EB0101141E73F1000405DBB3
:101CA0001C464FF00043524263EB0403994208BFC5
:101CB000904230BD01F0004330B421F0004150EAC1
:101CC000010206D00A0DA2F56072C1F31301002AC9
:101CD00002DC30BC00207047440F44EAC104C1005C
:101CE000E01830BC00EBC25000F066B830B50B46CF
:101CF000014600202022012409E021FA02F59D423C
:101D000005D303FA02F5491B04FA02F52844151E0F
:101D1000A2F10102F1DC30BD2DE9F05F05460020A3
:101D200092469B4688460646814640241BE028464C
:101D300041464746224600F02FF853465A46C01AFD
:101D4000914110D311461846224600F016F82D1A7C
:101D500067EB01084F4622460120002100F00DF8F4
:101D600017EB00094E41201EA4F10104DFDC4846B8
:101D700031462A464346BDE8F09F202A04DB203A3C
:101D800000FA02F1002070479140C2F1200320FACE
:101D900003F3194390407047202A04DB203A21FACC
:101DA00002F00021704721FA02F3D040C2F1200274
:101DB00091400843194670470029A8BF7047401C4E
:101DC000490008BF20F00100704710B4B0FA80FC51
:101DD00000FA0CF050EA010404BF10BC704749B18E
:101DE000CCF1200421FA04F411FA0CF118BF0121FE
:101DF00021430843A3EB0C01CB1D4FEA00614FEADE
:101E0000102042BF002010BC704700EBC3501044AC
:101E10000029A4BF10BC7047401C490008BF20F037
:101E2000010010BC704710B5141E73F1000408DAED
:101E3000401C41F1000192185B411A4301D120F08E
:101E4000010010BD2DE9F04D92469B4611B1B1FA4B
:101E500081F202E0B0FA80F220329046FFF78DFF67
:101E600004460F4640EA0A0041EA0B0153465A462F
:101E7000084313D0114653EA010019D0C8F14002BB
:101E80005046FFF789FF05460E46504659464246E2
:101E9000FFF773FF084305D0012004E020463946D0
:101EA000BDE8F08D0020054346EAE0762C43374339
:101EB0000A986305E40AA0EB08000022FD0A44EA40
:101EC00047540A3002D500200146E9E70105101900
:101ED0006941DDE9084500196941BDE8F04DA2E717
:101EE000C1F30A52C1F3130140F2FF3341F48011F0
:101EF0009A4202DA00200146704740F233439A4288
:101F0000A2F2334202DC5242FFF746BFFFF735BF71
:101F1000064C074D06E0E06840F0010394E8070036
:101F200098471034AC42F6D3FEF76EF9D46900003E
:101F3000F469000000F01F02012191404009800077
:101F400000F1E020C0F88012704700F01F0201216C
:101F500091404009800000F1E020C0F80011704776
:101F600000F01F02012191404009800000F1E020B3
:101F7000C0F8001270474907090E002806DA00F081
:101F80000F0000F1E02080F8141D704700F1E02000
:101F900080F80014704700002DE9F0414FF480777D
:101FA000384603F033F80126284CB50748B13846C7
:101FB00003F033F80120C5F808036670002001F033
:101FC000ABFC4FF48277384603F020F848B138462E
:101FD00003F023F80220C5F80803A670012001F0E1
:101FE0009BFC4FF48876304603F010F848B1304639
:101FF00003F013F81020C5F808031448143003F058
:1020000009F94FF48676304603F000F800281BD01B
:10201000304603F002F80820C5F8080303F0E6F89C
:1020200094F82000042809D00020002184F8201012
:10203000E169002908D018B1032002E00120F4E78B
:102040000220BDE8F0410847BDE8F081A40500206A
:1020500007480021C0F84011C0F84411C0F84811E9
:10206000C0F84C11C0F80011C0F8041104F090B889
:10207000001001400149024802F044BC6C050020F8
:102080000030004003F0F6BF30B54FF08050002222
:10209000D0F830110123082902D1D0F8344114B10D
:1020A000082909D00BE04FF08041C1F80C21C1F89C
:1020B000102161490A6005E0D0F8344114B10829C3
:1020C00057D059E05D4909685D4C21605B49091DA5
:1020D0000968241D2160594908310968241D2160BF
:1020E00056490C310968241D216054491031096892
:1020F000241D2160514914310968241D21604F4974
:10210000183109684E4C203421604C491C31096853
:10211000241D2160494920310968241D2160474957
:1021200024310968241D2160444928310968241D8F
:10213000216042492C310968241D21603F4930311A
:1021400009683F4C403421603C4934310968241D02
:1021500021603A4938310968241D216037493C31F2
:102160000968241D2160354940310968241D21601A
:1021700005E0D0F8344114B1082904D006E0324C0F
:102180003049216005E0D0F8344114B1082904D069
:1021900006E02E4CFB21216005E0D0F8344114B15B
:1021A000082908D00EE090F858422948016864F3E5
:1021B0000301016002E0D0F8340118B925494FF459
:1021C000007008602448016841F470010160BFF3A9
:1021D0004F8FBFF36F8F4FF01021D1F8000200280E
:1021E00003DBD1F80402002822DA1C4C23601C48CF
:1021F0000368002BFCD01223C1F800320568002DC3
:10220000FCD0C1F8043201680029FCD022600168CA
:102210000029FCD0BFF34F8F0F487C380168114A6A
:1022200001F4E06111430160BFF34F8F00BFFDE790
:102230000E490D48086030BD380500400404001008
:1022400020C50040488103008C56004018F500402E
:10225000E40E00404096024088ED00E004E50140B5
:1022600000E401400400FA050090D003440000207F
:102270000448017F04480029024901D004F06BBAE8
:1022800004F0DAB9C8050020002000400FB42DE9A1
:10229000F0410446CAB0092C3ED2DFE804F005053F
:1022A00005050505053D050053AA06A8529900F04D
:1022B0004FF8051E31DD18216846FFF7F8FA242093
:1022C0008DF8000001208DF801008DF802400D20EE
:1022D0008DF815000A208DF8160000240DF118085D
:1022E0006E4617E0281B122800DB1220C7B212210D
:1022F000F01CFFF7DCFA08EB04013A46F01CFFF78C
:10230000AFFA684603F0AEFD024606A1032003F0D3
:102310007DFD1234AC42E5DB00204AB0BDE8F0019F
:102320005DF814FB3A494E464F3A25730000000011
:102330000FB4054B10B503A9044A029800F020FD24
:1023400010BC5DF814FB0000C73A0000300000200C
:1023500037B514460846064B6A46214600F010FD84
:1023600004466946002001F0A2F820463EBD000068
:10237000AF3400004100080218BF04200A0E18BF45
:1023800040F001004FF07F4232EA010108BF40F007
:102390000200012808BF05207047000010B510EEAC
:1023A000104A4FF01A402DED028B00EB4400B0F1C3
:1023B000C85F4AD84FF0FC40B0EB440F22D2B0EED9
:1023C000C00AF7EE000A30EEC00AF6EE000A20EE70
:1023D000208A18EE100A03F02CFE00EE100A14F00A
:1023E000004F1DBF9FED281ADFED280AB1EE400A0D
:1023F0009FED271A08BFF0EE410AF8EE001A20EE12
:10240000210A05E020EE008A9FED221ADFED220A64
:10241000DFED221A9FED222A70EEC00A20EE080A94
:1024200008EE212ADFED1F1A48EE021A9FED1E2A40
:1024300008EE212ADFED1D1A48EE021ABDEC028BD0
:1024400040EE610A30EE810A10BD4FF0CC40B0EB97
:10245000440F82BF9FED160ABDEC028B10BD4FF0FA
:102460007F40B0EB440F05D2BDEC028BBDE81040BD
:1024700000F0D5BA012000F0BBFBBDEC028BBDE83B
:10248000104000F0D3BA00000000494022AA7D3A73
:10249000000000000000C93F22AAFD3924FE1C3DB7
:1024A000C78AD83C1E67383D1B93993DAFAA2A3E88
:1024B000DB0FC93F10EE100A10B510EE901A4FF066
:1024C000684202EB40032DED028BB3F1654F3CBF38
:1024D00002EB4102B2F1654F7CD200BFC0F3C7539B
:1024E000C1F3C7529A1A1B2A09DD10F0004F14BF1E
:1024F0009FED6E0A9FED6E0ABDEC028B10BD12F1CE
:102500001A0F1BDA11F0004F09D010F0004F0CBF6A
:102510009FED680A9FED680ABDEC028B10BD80EE4E
:10252000208A18EE100AFFF725FF042808BF00F0E4
:1025300085FAB0EE480ABDEC028B10BD4200B2EB4A
:10254000410F37D910F0004F19BFDFED5C1A9FED36
:102550005C1ADFED5C1A9FED5C1AB0EE602A0A4649
:10256000F1EE400A80F00041B0EE420A10460A1A2D
:102570005200B2F1807F34D2484010F0004FDFEDBE
:10258000532A9FED533A1DBFBEEE002A71EEE21AA8
:1025900031EE431AB6EE002A04BF71EEA21A31EEF4
:1025A000031AF0EE402A42EE602A40EE020A82EE62
:1025B000A02A18E011F0004F04BF9FED461AF0EE7C
:1025C000411AD4D010F0004F1CBFDFED431A9FED2D
:1025D000431A00E026E004BFDFED411A9FED411AE7
:1025E000C5E780EE202A22EE020ADFED3F0ADFED8A
:1025F0003F2ABDEC028B40EE202ADFED3D0A40EE83
:10260000220ADFED3C2A40EE202ADFED3B0A40EEB5
:10261000220A22EE000A00EE201A31EE020A30EE03
:10262000210A10BD4FF07F42B2EB400F28BFB2EB42
:10263000410F05D2BDEC028BBDE8104000F0F2B9AD
:1026400040EA01035B0008BF41F0FF410BD0B2EB51
:10265000400F08BFB2EB410F08D120F0804000EEE0
:10266000100A21F0804100EE901A37E7B2EB400FDC
:1026700012BF5FEA410240F0FF4001F000413FF429
:102680002DAF4A0092EA40033FF528AF002AACBFC5
:102690009FED1A1A9FED1A1A20EE010A60EE810AC8
:1026A00010EE100A10EE901A18E70000DB0FC9BFF9
:1026B000DB0FC93FDB0F4940DB0F49C00000C9BF3A
:1026C00022AAFDB90000C93F22AAFD390060ED3EF3
:1026D000C30ACE3700000000000049C022AA7DBA1C
:1026E0000000494022AA7D3A2DAD65BD8FB8D53D89
:1026F0000FB511BE61C84C3EA8AAAABE0000804F0B
:102700000000802F10EE101A08B5444A6846B2EB5C
:10271000410F28D94FF0E640B0EB410F94BF0020A5
:102720004FF0FF3000900098002861DB60EE000A57
:1027300010F0010F45D010F0020FDFED391A9FEDB8
:10274000391A00EEE11ADFED381A40EE811A21EE57
:10275000A01AF0EE400A40EE010A08BFF1EE600A4E
:10276000B0EE600A08BD314B21F0004293423CD9E3
:1027700011F0004FDFED2E0A20EE201ADFED2D0ABA
:1027800019BF31EE601A71EE200A31EE201A71EE97
:10279000600ABDEEE01A11EE100A9FED271A00F054
:1027A000030000EEC10A9FED251A009000EEC10A59
:1027B0009FED231A00EEC10A9FED221A00EEC10A16
:1027C000B1E79FED211A9FED210A10F0020F00EEF4
:1027D000810A9FED1F1A00EE801AB7EE000A00EE84
:1027E000810A18BFB1EE400A08BD00F02FF99AE740
:1027F00010EE100A4000B0F17F4F3CBFB7EE000A68
:1028000008BD07D14FF0010000F0F2F9BDE8084023
:1028100000F00CB9BDE8084000F001B9B61F927E87
:10282000336D4C39DA82083CA0AA2ABE490E4946CB
:1028300083F9223F0000004B0000C93F00A0FD3992
:102840000020A2331A61342CB93AB2BACA9F2A3D89
:10285000DDFFFFBE00B510EE101A2DED028B81B02A
:10286000524A6846B2EB410F2ED94FF0E640B0EB2A
:10287000410F94BF00204FF0FF3000900098B0EE61
:10288000408A00286ADB10F0010F4BD068EE080A7E
:102890009FED471A9FED470A00EE810A9FED461A09
:1028A00010F0020F00EE801AB7EE000A00EE810A67
:1028B00002BF01B0BDEC028B00BD00BF01B0B1EEA4
:1028C000400ABDEC028B00BD3C4B21F0004293421C
:1028D00041D911F0004FDFED3A0A20EE201ADFED6A
:1028E000390A19BF31EE601A71EE200A31EE201A52
:1028F00071EE600ABDEEE01A11EE100A9FED321A79
:1029000000F0030000EEC10A9FED301A009000EEC7
:10291000C10A9FED2F1A00EEC10A9FED2E1A00EE9C
:10292000C10AABE728EE080A9FED2B1ADFED2B0A50
:1029300010F0020F40EE410A9FED291A00EE201A16
:1029400061EE000AB0EE480A08EE200AB6D101B0E6
:10295000BDEC028B00BD00F079F88FE718EE100A8D
:102960004000B0F17F4F0DD218EE100AFFF702FDC4
:10297000042808BF00F062F8B0EE480A01B0BDECD0
:10298000028B00BD09D1012000F032F901B0BDEC8D
:10299000028B5DF804EB00F049B801B0B0EE480AD4
:1029A000BDEC028B5DF804EB00F039B8B61F927EE7
:1029B000B93AB2BACA9F2A3DDDFFFFBE490E494669
:1029C00083F9223F0000004B0000C93F00A0FD3901
:1029D0000020A2331A61342C336D4C39DA82083C62
:1029E000A0AA2ABE10B52DED028BB1EEC08A18EE5A
:1029F000100A20F00040C0F1FF40C00F0AD010EED6
:102A0000100A20F00040C0F1FF40C00F04BF0120B9
:102A100000F0EEF8B0EE480ABDEC028B10BD30EECF
:102A2000000A704730EE200A70470000DFED020A0E
:102A300080EEA00A70470000000000009FED020A2F
:102A400020EE000A70470000000000102DE9F001A0
:102A50004FF07F42B2EB410F9FBF4FF0FF3101605B
:102A6000BDE8F00170474FF0004242EA0123C1F394
:102A7000C752783A551112F01F0C434CCCF1200686
:102A80007C44C1F3C752A2F178024FEA621204EB10
:102A9000820254F8254008BFD2E9015612D0556889
:102AA00004FA0CF425FA06F73C43976805FA0CF58E
:102AB00027FA06F8D26807FA0CFCF24045EA080546
:102AC0004CEA0206A4FB034CA5FB0352A6FB0363DE
:102AD0001D449D4234BF012600261319334416B10C
:102AE000934202D903E0934201D2012200E0002286
:102AF000624402F1200C9206DC0C42EA443200EE01
:102B0000102A5B03DFED210AF8EEC01A00EE103A3E
:102B10004FEA9C1C11F0004FB8EE400AC0F800C00C
:102B200020EE201A00EE105ADFED190AB8EE400A26
:102B300020EE200A71EE810A70EE800A10EE902AD3
:102B400002F500626FF30B0200EE902A70EEE11ABC
:102B500031EEC11ADFED101A30EE411A9FED0D0A69
:102B600020EE800A01EE210A9FED0C1A00EE810A88
:102B700004BFBDE8F0017047CCF180510160BDE8B1
:102B8000F001B1EE400A7047D43E0000000000366C
:102B90000000802C22AAFD29DB0FC92F0000C92FBD
:102BA0000EB50092CDE901300B4603A200210620AC
:102BB000FFF76CFB0EBD000025737C25737C25643C
:102BC0002072657475726E696E672025640A000054
:102BD00002E008C8121F08C1002AFAD170477047E6
:102BE000002001E001C1121F002AFBD17047000044
:102BF0000149086070470000480000202DE9FF5F90
:102C000082B00021DDE90430020DDDF840B003435D
:102C100018D044F61050A2F2FF3242431514119816
:102C200001281FD0A5EB0B00401C5FEA000A4FF003
:102C300000064E4FDFF83891B046504615D5CAF120
:102C4000000413E0119801244AA3012801D16FEA7E
:102C50000B010298119AC0E90031C0E9024206B0A6
:102C6000BDE8F09FCBF10000DFE704460021404AB9
:102C7000491842EB0450CDE9001012E0E00707D0FC
:102C800032463B4640464946FEF7D7FE80468946D7
:102C900032463B4610461946FEF7CFFE06460F4623
:102CA0006410002CEAD1DDE90401DDE90023BAF16A
:102CB000000F06DAFEF7C1FE42464B46FEF7BDFEA8
:102CC00005E0FEF72CFF42464B46FEF728FF044680
:102CD0000E460022284BFEF7D5FF03D84FF0FF30F9
:102CE000014607E00022254B20463146FEF7FEFD57
:102CF000FFF7F6F8102409E0002C0ADB0A22002373
:102D0000FFF70AF8039B30321A55641E50EA01029D
:102D1000F2D1641C039AC4F111031444119A012ADC
:102D200003D0012208430DD10AE0084304D000205B
:102D30004FF0110B119072E7A3EB0B056D1E0DE028
:102D40005B4504DD4FF0000205F1010504E003DA04
:102D50004FF00002A5F10105002AECD0029811996C
:102D6000C0E90231C0E9004579E7000000001440E5
:102D70000000F03F300000000000F0430000E03FA2
:102D80002DE9FF4F95B09B468946064600250FE288
:102D9000252877D100242746F84A0121059400E030
:102DA000044316F8013F203B01FA03F01042F7D12B
:102DB00030782A2811D06FF02F033078A0F130023C
:102DC000092A16D8059A44F0020402EB820203EBAA
:102DD00042021044761C0590EFE759F8042B059247
:102DE000002A03DA504244F40054059044F00204EF
:102DF000761C30782E2816D116F8010F44F0040402
:102E00002A280DD06FF02F023078A0F13003092B63
:102E100009D807EB870302EB4303C718761CF3E7D7
:102E200059F8047B761C30786C280FD006DC4C28CF
:102E300017D068280DD06A2814D104E0742810D067
:102E40007A280FD10DE044F400140AE044F4801411
:102E500001E044F440147278824202D104F58014F7
:102E6000761C761C307866280BD013DC582877D077
:102E700009DC002875D04528F6D04628F4D047282C
:102E80001AD19DE118E0632835D0642879D06528EF
:102E900012D195E1702873D008DC6728F1D0692839
:102EA0006FD06E280DD06F2806D1B5E073282CD0D6
:102EB000752875D0782874D05A46179990476D1C9C
:102EC00075E1C4F30250022809D003280DD0D9F8C7
:102ED000001004280DD00D6009F1040967E1D9F84C
:102EE0000010EA17C1E90052F6E7D9F800100D808A
:102EF000F2E70D70F0E719F8041B8DF800100020C0
:102F00008DF80100EA46012003E059F804AB4FF0C8
:102F1000FF3061074FF0000102D40DE008F101011C
:102F20008846B9420FDA8045F8DB1AF80810002904
:102F3000F4D108E008F1010188468142FADB1AF871
:102F400008100029F6D105985B46A0EB080721463A
:102F50003846179A00F094FA284400EB080507E079
:102F60004DE029E10DE01AF8010B5A4617999047F8
:102F7000B8F10108F7D25B4621463846179A13E1AB
:102F800042E00A220092C4F302524FF0000A022AE1
:102F900008D059F804CB032A4FEAEC710AD00DE0AF
:102FA00029E02AE009F1070121F00702F2E802C155
:102FB000914609E00FFA8CFC4FEAEC71042A03D128
:102FC0004FFA8CFC4FEAEC71002907DA0A4600211F
:102FD000DCF1000C61EB02012D2202E0220504D598
:102FE0002B228DF80420012203E0E20701D02022E9
:102FF000F7E7904659E00A2102E010220DE0102187
:103000004FF0000A00910BE010224FF0000A44F04C
:1030100004040827009203E008224FF0000A0092FF
:10302000C4F30252022A05D059F804CB0021032A26
:1030300008D009E009F1070121F00702F2E802C116
:10304000914605E01FFA8CFC042A01D10CF0FF0C1C
:103050004FF00008220728D5702806D0009B83F087
:10306000100353EA0A0305D00EE040228DF8042035
:10307000012208E05CEA010206D030228DF804202B
:103080008DF8050002229046009B83F0080353EA66
:103090000A030AD15CEA010201D1620705D5302298
:1030A0008DF804204FF001087F1E582804D034A06A
:1030B00003900EA802900DE036A0F9E75346604653
:1030C000009AFEF729FE84460398825C0298401E0F
:1030D000029002705CEA0100F0D1029806A9081A79
:1030E00000F1200A600702D524F4803400E00127B3
:1030F000574502DDA7EB0A0000E0002000EB0A01C3
:10310000009005984144401A0590E00306D45B46C0
:103110002146179A059800F0B3F90544002706E008
:1031200001A85A46C05D179990476D1C7F1C474502
:10313000F6DBE0030CD55B462146179A059800F0B4
:103140009FF9054404E030205A46179990476D1CBA
:103150000099481E00900029F5DC08E002980299C9
:103160005A460078491C0291179990476D1CBAF194
:103170000001AAF1010AF1DC65E100000928010063
:1031800030313233343536373839616263646566DD
:10319000000000003031323334353637383941429F
:1031A000434445460000000000F058F90544761CF1
:1031B000307800287FF4ECAD19B02846BDE8F08FD8
:1031C000620700D4062709F1070222F0070CFCE889
:1031D0000223E14603F000485FEA080C02D00FF238
:1031E000702C0DE05FEA045C02D50FF2682C07E05A
:1031F0005FEAC47C02D00FF2602C01E0AFF2700CE9
:103200004FF0FF3823F00043CDF850C065280CD0B4
:1032100006DC452809D046281DD047283DD13DE091
:10322000662818D067287ED138E00021112F01DBF5
:10323000112000E0781CCDE9000106A90EA8FFF7D7
:10324000DDFCDDE90F010E9A03910021009207F1E8
:10325000010A04914DE04FF000400097CDE90110C4
:1032600006A90EA8FFF7CAFCDDE90F0203920E9B28
:1032700011990022DDF80CA00093049211B9791C79
:1032800000EB010AB7EB0A0004D4C0F1FF3007F1EC
:10329000010A0490AAEB0700019044E0012F00DA34
:1032A00001270021112F01DD112000E03846CDE972
:1032B000000106A90EA8FFF7A1FCDDE90F010E9A97
:1032C0000391002104910092BA4621070CD403997E
:1032D000514500DA8A46BAF1010F05DD009AAAF1DC
:1032E0000101515C302908D0B84202DA10F1040F14
:1032F00006DA0121CDE9011015E0AAF10101E9E7A3
:10330000002805DC049901440491AAEB000102E0C5
:10331000411C514500DD8A460499401A401C019029
:103320004FF000400290200704D40198504501DB83
:10333000CDF8048000208DF84F0002980DF14F0762
:10334000B0F1004F25D02B200E9002984FF00208CC
:1033500000280CDA404202902D200E9007E00A214E
:103360000298FEF7C3FC3031029007F8011DB8F156
:103370000001A8F10108F2DC02980028EFD1791EC3
:103380000E980870307800F0200040F0450007F8F3
:10339000020D12A8C01B00F107081498007800B1B4
:1033A000012000EB0A01019801EBE071059841440E
:1033B000401A401E0590E00306D45B462146179A4A
:1033C000059800F05DF805441498007818B15A4645
:1033D000179990476D1CE00324D55B462146179A48
:1033E000059800F04DF805441CE00498002807DB20
:1033F000DDE90301884203DD0098405C179901E094
:10340000179930205A469047049805F10105401C51
:1034100004900198401E019004D12E205A4617991D
:1034200090476D1CBAF10001AAF1010ADDDC05E04C
:1034300017F8010B5A46179990476D1CB8F1000117
:10344000A8F10108F4DC5B462146179A0598ABE623
:103450002D0000002B000000200000002DE9F041AD
:10346000044600251E461746880404D405E0394664
:103470002020B0476D1C641EF9D52846BDE8F081B8
:103480002DE9F041044600251E469046C80301D5AB
:10349000302700E02027880404D505E0414638465F
:1034A000B0476D1C641EF9D52846BDE8F0810A6856
:1034B000531C0B60107070470DA1012002F080FCBE
:1034C00002F0E2FB02F0E4FB0028FBD10CA1032098
:1034D00002F076FCBFF34F8F10480168104A01F4E8
:1034E000E06111430160BFF34F8F00BFFDE70000B3
:1034F0003A4552524F523A466174616C0D0A0000CF
:103500003A494E464F3A486974207765616B2068A6
:10351000616E646C65720D0A000000000CED00E045
:103520000400FA050EB500210091CDE901106A46AC
:1035300044F20100FFF7C0FF0EBD10B58268C368FA
:10354000934203D000F0ACFA002010BD052010BD5E
:1035500029B112B1531E134203D0092070470E2027
:1035600070470160838000218160C1600846704718
:1035700010B58268C3689A1A83889A4203D800F00B
:1035800099FA002010BD042010BD00000148006819
:103590007047000004150140074B9B7823B12AB106
:1035A00020B10068037C1BB10820704707207047DA
:1035B0004174426100207047E805002070B502F0B8
:1035C000E5FC104800240421047044700E4D817005
:1035D00014206C602C706C70FEF7ACFC0021142081
:1035E000FEF7C9FC1420FEF7B0FC08480460002177
:1035F0001120FEF7C0FC0548001F0068A8600020ED
:1036000070BD0000E80500200800002008150140FA
:103610002DE9F843DFF8709099F802305BB350B3AE
:10362000052902D20720BDE8F88343691BB3437C18
:10363000012B22D00027044600258846164628463E
:1036400000F09EF8684603F0FFF8C0B10121017058
:103650000E4944600968C0E90218C0E904769DF883
:10366000000089F80100002000F08CF81420FEF71B
:1036700077FC2846D7E70820D5E70F46DBE7042587
:10368000002000F07FF8F4E7E80500200415014071
:10369000F0B5284E89B01F460D00044672603BD03D
:1036A000A888296882B22448FFF752FF002834D145
:1036B000A889A96882B220481030FFF749FF002886
:1036C0002BD120221D496846FEF7CAF86069069092
:1036D000207C00B101208DF814008DF81C70607CF6
:1036E00000B10E208DF81500E0680290A0680390EC
:1036F00020680190606800900E48114A69460830C1
:1037000001F0D4FF002808D1B0702068401C04D01C
:103710009DF81D0018B106E0072009B0F0BD05486E
:10372000083002F04FF803490122491CC81D01F07E
:10373000F1FFF2E71C0000204C060020C4680000E6
:103740008965000010B501460B48FFF711FF040022
:1037500010D10A4802F080F960B9084906480839D2
:10376000FFF7EBFE30B9054901220839034802F0A2
:10377000EDF80446204610BD5C0600202400002021
:1037800000F002B800F008B872B602480168491C9F
:10379000016070472C00002003490868401E086043
:1037A00000D162B6704700002C00002070B50546BD
:1037B00008680C46411C04D002F010FA206802F0A0
:1037C000C5F96068411C02D0002102F0B6F92879E1
:1037D0001F4901EB40102968007F0028A069C1F84B
:1037E000240523D0607D227D29681043C1F86C0533
:1037F000D4E900122868C0F80C15C0F8142522E09E
:10380000A068411C02D0002102F097F9E068411C39
:1038100004D002F0E3F9E06802F098F9D4E902126A
:103820002868C0F80825C0F8101570BD607D217D9E
:103830002A680843C2F86C05D4E900122868C0F869
:103840001425C0F80C15207D0128D9D070BD0000CA
:10385000C80500200249085C012102F0C9B9000036
:10386000BC6800007CB50024084E25460122305D6E
:10387000009500231146019502F024F9641C042CE4
:10388000F4D3BDE87C4000F003B80000BC68000041
:1038900010B500242046FFF7DDFF641C042CF9D38B
:1038A00010BD000070B5461C0D4601240020FFF736
:1038B00067FF114A10682860D2E900109568081A5D
:1038C0002B1A701C5B1C98420FD963B10B480C4B30
:1038D000294000681B6802EB810163F39F20C860E8
:1038E0001068401C1060002401E08819106000205E
:1038F000FFF748FF204670BD6C06002004690000F9
:1039000040000020034803C8814201D101207047D4
:10391000002070476C06002070B5084C050009D0E7
:1039200010342168002907D00868206049682846BB
:103930008847F6E70834F4E770BD0000A4050020CE
:103940002DE9F05F26484168F1B3DFF898B00E68C2
:103950008146DBF8004087688078E11B21F07F45D5
:10396000ED1CB0B9DFF880804FF48030C8F8440314
:10397000C8F804031120FEF7DDFA1120FEF7E5FA7E
:103980004FF0010AC8F800A02F2001F0E9FB89F8E8
:1039900002A0B54200D23546124BE8193C3320F064
:1039A0007F401860DBF800105A46091B21F07F4168
:1039B000001B20F07F40C91C81420FD9106818609D
:1039C0002F2001F0CDFB00E004E0BDE8F05F112006
:1039D000FEF7C6BABDE8F05F02F0D8BABDE8F09FC6
:1039E0000800002004150140001001402DE9F041BD
:1039F0000025441C17460E462846FFF7C1FE17480F
:103A0000016839608368016801EA03029A1A521C4E
:103A1000944208D84A1C1A4021440160002100EB5E
:103A2000820531600AE047681F40A74207D90B1999
:103A3000511E1944521E0160084D32600C35D0E908
:103A400000128068891A401A401C00D1002500200D
:103A5000FFF798FE2846BDE8F08100006C060020C4
:103A60000E4910B50A784C780023A24212D0521C9D
:103A7000D2B20A70022A00D10B70084A0B780C32BD
:103A800052F8232002608868104420F07F4088604C
:103A9000012010BD0360002010BD000008000020C0
:103AA000826883881A4003689A5C0A708168491C9E
:103AB00081607047C26883881A4003689954C1685E
:103AC000491CC160704710B50446C0B2FFF73AFE0A
:103AD000204610BD054910B501200860012001F005
:103AE000A5FA0028FAD10249487010BD0400004030
:103AF000A405002070B50E460446007918494FF41D
:103B0000A27501EB4010017F2068A1B14FF48871CC
:103B100002F0F9F94FF49071206802F0F4F94FF4D3
:103B20009271206802F0EFF92946206802F0EBF963
:103B30000C49206809E04FF48E7102F0D3F9294650
:103B4000206802F0CFF908492068C0F80413206803
:103B500001F009FC3146BDE8704001F0E8BB00000F
:103B6000C8050020100302008000020030B591B0AB
:103B70000446002000900B4615468968606800F0F6
:103B80000BFB02465968A06800F006FB101A019072
:103B90001968A06800F000FB02469968206800F0F0
:103BA000FBFA101A02905968206800F0F5FA0246F4
:103BB0001968606800F0F0FA101A039008AA6946C4
:103BC000284600F045FB0CA9284600F01EFB04AA7D
:103BD0000CA908A800F03CFB069808B9059898B114
:103BE0009DED050A9FED0A1AB8EEC00A60EE010AC3
:103BF0009DED060AB8EEC00A20EE010AFEF75AFC57
:103C0000B1EE400A11B030BD9FED020AFAE70000A4
:103C1000000080300000000070B5044600F0030092
:103C20000E4652F8200061074FF0FF3501D52946B6
:103C300000E001214843314600F0AEFA1860C4F3B9
:103C4000C100A10652F8200001D5294600E001215B
:103C50004843314600F0A0FA5860C4F38110E105F2
:103C600052F8200000D401256843314600F094FA50
:103C7000986070BD10B5014648220C48FDF7F0FD74
:103C80000A49F43901F5A070D1F830214263D1F826
:103C900034218267D1F83811C0F8BC10032902D151
:103CA000012000F07FFD002010BD0000780B0020F7
:103CB00010B548220249FDF7D3FD002010BD0000D9
:103CC000780B002010B528210348FDF7F0FDBDE872
:103CD0001040024800F02CBDD00F0020DD4700004E
:103CE00010B500F025FA002804D1BDE810400248C4
:103CF00000F01EBD10BD00003948000070B5002561
:103D00002C46084E08E000BF06EB84004068804760
:103D100008B105B90546641C3068A042F4DC2846A9
:103D200070BD0000E40D00202DE9F041264A044654
:103D3000A2F114014FF47A75A1F1100000F066F9B8
:103D40002149206B2439C7054861636F8B61D4F822
:103D5000B820CA6101D5E56A0026DF0504D5276FC2
:103D6000AF4201DA3D460126D70505D5D4F8B47037
:103D7000AF4201DA3D460226D4F820715FEAC75C03
:103D800003D5D4F82CC1AC4518DB012E08D0022E87
:103D90000ED0032E12D0C0F380100862A06B03E097
:103DA000C3F380100862E06F48620020BDE8F08134
:103DB000C2F380100862D4F8C000F5E7C7F38010A2
:103DC0000862D4F82401EFE7F40F00200249C1F89B
:103DD00080000020704700005C0D002010B5034CEF
:103DE0001ECC80E81E00002010BD00006C0D0020DD
:103DF0000148006D704700005C0D00200148806F95
:103E000070470000C40B00200248B0F87400C0F3F3
:103E100000207047C40B002030B518B1074D38CDD5
:103E200080E8380005485C380AB1C36F1360002988
:103E300002D090F87800087030BD0000200C0020FF
:103E400070B5044A02F1400378CB80E87800106A2C
:103E5000086070BD5C0D00200248B0F8B800C0F3E7
:103E600000207047C40B002070B5134C0546E16874
:103E7000606800F08BF906462168A06800F086F9BA
:103E8000301A2860D4E9020100F080F90646D4E92E
:103E9000001000F07BF930446860E068014600F0F3
:103EA00075F906462068014600F070F93044A0F12B
:103EB0008040A860002070BD5C0D0020024B0ECB3E
:103EC00080E80E0070470000DC0B00200148406BCA
:103ED00070470000C40B002010B518B1054C1CCC75
:103EE00080E81C00002903D00348D0F80C010860CA
:103EF00010BD0000840B0020840A00200248008EC0
:103F0000C0F3002070470000C40B002003460020CF
:103F10004FEA000153F82120491C521302FB020012
:103F20000329F7DB7047000010490020B1F8742026
:103F3000D20500D5C86F0A8ED20503D58A6B82429E
:103F400000D91046B1F8B820D20504D5D1F8C02068
:103F5000824200D91046B1F8FC20D20504D5D1F830
:103F60000411814200D9084670470000C40B0020AC
:103F70003EB5040017D000221146FFF74DFF6846FA
:103F8000FFF772FF20680099A0EBA1302060606805
:103F90000199A0EBA1306060A0680299A0EBA1306C
:103FA000A06000203EBD05203EBD0000024B0ECBB0
:103FB00080E80E0070470000840D00200448D0F80F
:103FC0003C0108B1002070470248D0F8BC0070479F
:103FD000840A0020C40B002070B50B4C054694F8F1
:103FE0007C0080070AD0224602F1100101F1300066
:103FF00000F02EF9E06F20F00300E06794E80F0076
:1040000085E80F00002070BD5C0D002070B51546DE
:104010000C46FFF7E1FFFFF787FF2860FFF71CFF63
:1040200010B1FFF7CBFF04E0FFF768FF18B1FFF70F
:104030004DFF206070BDFFF7E7FE0028F9D0FFF7C5
:10404000DDFEF6E7F0B5054B93E8F00080E8F00000
:10405000187C0870586A1060186AF0BDD00F0020F4
:104060000148006F704700005C0D002010B54FF450
:10407000A0710948FDF71BFC4FF4CC710748FDF710
:1040800016FC00F065FBBDE810404DF2930348229A
:104090000349044800F016BB840A0020C40B00202A
:1040A000B13C0000753C000010B500F063F800F072
:1040B00057F850B100F054F82223134A13A1FEF729
:1040C0006FFDBDE8104000F04BB8FFF7CFFF50B1D7
:1040D000FFF7CCFF25230C4A0CA1FEF761FDBDE8DC
:1040E0001040FFF7C3BFFFF7FBFD00280AD0FFF722
:1040F000F7FD2723044A05A1FEF752FDBDE8104055
:10410000FFF7EEBD10BD00003C6900002E2E5C2EB6
:104110002E5C2E2E5C654D442D362E305C636F7206
:10412000655C6D6C6C6974655C6D706C2E63000011
:1041300010B588210848FDF7BAFB07484FF08041C9
:104140009FED060A41638163C163016401610160FF
:1041500080ED210A002010BD5C0D0020DB0F4940DE
:1041600010B554210248FDF7A2FB002010BD00004D
:10417000E40D002010B54FF4CC710348FDF797FB18
:1041800001490C20486010BD380E002080FB010161
:10419000400F40EAC100704780FB0101800F40EAF8
:1041A0008100704710B503680C68234413604368AE
:1041B0004C682344536083688C6823449360C068D0
:1041C000C9680844D06010BD90ED000AD1ED000A26
:1041D00030EE200A82ED000A90ED010AD1ED010ACD
:1041E00030EE200A82ED010A90ED020AD1ED020ABA
:1041F00030EE200A82ED020A90ED030AD1ED030AA7
:1042000030EE200A82ED030A704702680A604268B5
:1042100052424A60826852428A60C0684042C86026
:10422000704790ED000A81ED000A90ED010AB1EEB1
:10423000400A81ED010A90ED020AB1EE400A81EDDB
:10424000020A90ED030AB1EE400A81ED030A7047BD
:1042500030B50B46044609680068FFF79DFF054628
:1042600059686068FFF798FF2D1A9968A068FFF7F2
:1042700093FF2D1AD968E068FFF78EFF281A1060A7
:1042800059682068FFF788FF054619686068FFF7DE
:1042900083FF0544D968A068FFF77EFF054499684D
:1042A000E068FFF779FF281A506099682068FFF7E7
:1042B00073FF0546D9686068FFF76EFF2D1A19680D
:1042C000A068FFF769FF05445968E068FFF764FFDD
:1042D00028449060D9682068FFF75EFF054699681A
:1042E0006068FFF759FF05445968A068FFF754FF5D
:1042F0002D1A1968E068FFF74FFF2844D06030BDE1
:1043000090ED000AD1ED000A91ED011A20EE200A8D
:10431000D0ED010A00EEC10AD0ED020A91ED021AB9
:1043200000EEC10AD0ED030A91ED031A00EEC10AB6
:1043300082ED000A90ED000AD1ED010A91ED001A1C
:1043400020EE200AD0ED010A00EE810AD0ED020A2B
:1043500091ED031A00EE810AD0ED030A91ED021AE5
:1043600000EEC10A82ED010A90ED000AD1ED020AC9
:1043700091ED031A20EE200AD0ED010A00EEC10AE9
:10438000D0ED020A91ED001A00EE810AD0ED030A89
:1043900091ED011A00EE810A82ED020A90ED000A09
:1043A000D1ED030A91ED021A20EE200AD0ED010AA8
:1043B00000EE810AD0ED020A91ED011A00EEC10A69
:1043C000D0ED030A91ED001A00EE810A82ED030A96
:1043D0007047000010B590ED000AD0ED010A0446C8
:1043E00020EE000A00EEA00AD0ED020A00EEA00ABC
:1043F000D0ED030A00EEA00AFEF7F4FAB5EEC00A0B
:10440000F1EE10FA18D0D4ED000A80EE801A84ED97
:10441000001AD4ED010A80EE801A84ED011AD4ED61
:10442000020A80EE801A84ED021AD4ED030A80EEAF
:10443000801A84ED031A10BDB7EE000A84ED000A5D
:104440009FED040A84ED010A84ED020A84ED030A5B
:1044500010BD00000000000090ED003A90ED012A30
:10446000D0ED021A63EE030AD0ED032A9FED250A70
:1044700042EE020A41EEA10A42EEA20A10EE901AA2
:10448000B1F1804F32DAB6EE000A20EE801AB7EEB4
:10449000080AF0EE403A21EE204A44EE603A63EE1C
:1044A000A00AF0EE403A21EE204A44EE603A63EE74
:1044B000A00AF0EE403A21EE204A44EE603A63EE64
:1044C000A00A21EE201A01EE600A20EE200A63EE17
:1044D000000AC0ED000A62EE000AC0ED010A61EEBA
:1044E000800A22EE800AC0ED020A07E0F7EE000A19
:1044F000C0ED000A80ED010A80ED020A80ED030A9A
:10450000704700000000000030B590B00546002064
:104510001446009007C901AB83E8070008AA694662
:104520002846FFF795FE0CA92846FFF76EFE04AA61
:104530000CA908A8FFF78CFE05AB93E8070084E8F8
:10454000070010B030BD10B5024640680B4601466A
:10455000FFF71CFE044610680146FFF717FE2044D3
:10456000A0F180401860D2E90101FFF70FFE044678
:104570001168D068FFF70AFE201A5860D1685068A9
:10458000FFF704FE044611689068FFF7FFFD204422
:104590009860D2E90101FFF7F9FD04461168D0687F
:1045A000FFF7F4FD2044D86090680146FFF7EEFD68
:1045B000044610680146FFF7E9FD2044A0F1804061
:1045C0001861D2E90201FFF7E1FD0446D2E90010CB
:1045D000FFF7DCFD201A5861D1685068FFF7D6FD5F
:1045E000044611689068FFF7D1FD201A9861D2E95E
:1045F0000201FFF7CBFD0446D2E90010FFF7C6FD2C
:104600002044D861D0680146FFF7C0FD0446106819
:104610000146FFF7BBFD2044A0F18040186210BDA9
:104620002DE9F047244B05469146002002461C68C0
:104630000EE000BF02EB420603EB86067768AF424E
:1046400002D0B6688E4202D10520BDE8F087521C28
:104650009442EFDC132C27DC00220CB918E0521C2A
:10466000944206DD02EB420603EB8606B6688E42F4
:10467000F5DB94420AD10BE004EB440603EB86061B
:10468000083E641EB6E8801186E880119442F3DC8F
:1046900002EB420203EB8202C2F80C90C2E9015124
:1046A0001968491C1960D0E7044A05A10620FDF7E6
:1046B000EDFD0620C9E70000840A00209069000093
:1046C0004D504C00F0B5194C0025266809E000BF9C
:1046D00005EB450704EB8707D7F8B0709F4204D07D
:1046E0006D1CAE42F4DC142E01DB0520F0BD06EBA0
:1046F000460504EB8505C5F8B030236803EB43039A
:1047000004EB8303C3F8A82023680C3204EB830373
:104710009860206804EB80008165606810446060E8
:104720002068401C20600020F0BD0000380E0020F2
:1047300006490A68142A01DB0520704701EB820252
:1047400050600868401C086000207047E40D00209D
:1047500010B59FED110A114C002000BF04EB800141
:10476000401C81ED5B0A0928F8DB24210C48FDF789
:104770009EF80020B7EE000A4FF0804204EB0011D3
:10478000401C81ED5B0AC1F848210328F6DB0020BC
:10479000C4F8900110BD000000000000C40B002010
:1047A0000C0D002001490867704700005C0D0020D7
:1047B00030B5064A52F87C3F43F0010342F85C39B9
:1047C00039C842F8201B82E8390030BD5C0D00205A
:1047D0000149C1F83C017047840A002007224FF4C8
:1047E00061710148FFF71CBF293D000010B5FFF7BC
:1047F00085FA00280AD0FFF781FA4223044A05A16E
:10480000FEF7CEF9BDE81040FFF778BA10BD000002
:10481000496900002E2E5C2E2E5C2E2E5C654D44C8
:104820002D362E305C636F72655C6D6C6C697465DF
:104830005C6D706C2E63000010B507224FF4487158
:104840000248FFF7EDFE002010BD0000CD3D000046
:1048500030B5064A52F87C3F43F0020342F858391B
:1048600039C842F8141982E8390030BD5C0D0020C7
:1048700030B5114900220B681AE000BF02EB420478
:1048800001EB84046468844211D10868521C904290
:104890000ADD02EB420001EB8000001D90E83800C9
:1048A0000C3880E83800F0E7401E086002E0521C37
:1048B0009342E3DC002030BD840A002010B5104C88
:1048C0000021226818E000BF04EB81035B6883428B
:1048D00011D1501E884209D0501A820004EB810089
:1048E00000F10801001D121FFCF7BAFF2068401EEE
:1048F0002060002010BD491C8A42E5DC052010BD67
:10490000E40D00202DE9FF470D464FF49277044651
:10491000394601F0D7FA4FF002094FF001084FF481
:10492000827640B13946204601F0D1FA3146204620
:1049300001F0C8FAB0B3B2463146204601F0C2FADF
:104940004FF0FF36002770B35146204601F0BFFA02
:1049500005F10C0001AB07C883E8070095F82300B8
:1049600078B1287B01282DD0D4F84C05C0B28DF841
:104970000600287B022828D0D4F84C05C0B28DF858
:1049800007004FF4B071204601F0A1FA4FF4AE7168
:10499000204601F09CFA95F8250080B395F8230095
:1049A00068BB3CE000E013E0A868C4F80803C5F861
:1049B0000890A868C4F80403C4F82080C4F81480E0
:1049C000BDE8FF87D4F83C05D0E7D4F83C05D5E72F
:1049D0004FF4A471204601F07AFA287B80B14FF49D
:1049E0000070C4F80002801CA860C4F80863A868BE
:1049F000C4F80403C4F80880C4F82080E0E708E0A5
:104A000005F10C0001AB07C883E8070095F8250005
:104A100028B90020C4F80002AF60C4F80863D4F8D5
:104A2000C404C4F8C404810702D58DF8008006E0F0
:104A3000400702D58DF8009001E08DF8007095F8E0
:104A4000250008B985F82470D5E90021684690470B
:104A5000B6E70268134602E08A4204D01268002AD0
:104A6000FAD10B60016070472DE9F047394E0027FD
:104A700080463D46DFF8E090D6F804A057E003D02A
:104A80000446D0F81C8035E099F8002002EB420182
:104A9000521CD2B289F8002009EBC10199F802300A
:104AA000091D9A4201D189F8005048680A780446E5
:104AB000012A12D0022A02D0032A3BD108E001F0D9
:104AC00037FB00B10127257434E00574C06900E0AC
:104AD00070680028F9D170602CE0207C50BB886899
:104AE0006060C868A0600869E0604869A061F0780B
:104AF00000B165606268B168184B501A20F07F40C1
:104B0000984202D2A168084406E0881AA16820F001
:104B10007F40814202D9081A206000E0256065606C
:104B20000120A56020742046E56101F0E3FAB8F1A8
:104B30000000A4D199F8001099F801008142A3D196
:104B400017B97168514502D00120BDE8F0870020F7
:104B5000FBE7000008000020E8050020FFFF7F00C1
:104B600008B59DF8000020F00F0040F01000801DF7
:104B70008DF80000684600F071F9002801D0FEF7BA
:104B8000D1FC08BD8AB001F0CDFC00F0C5F9FFF7FB
:104B9000E7FF06AB01227521682000F001FA08B199
:104BA000FEF7C0FC9DF818104DA0FDF7C1FB00F00A
:104BB0005DFB08B1FEF7B6FC002000F07DFBFEF7C0
:104BC000FDFC08B1FEF7AEFC494A01214948FEF759
:104BD000E3FC08B1FEF7A6FC464800224FF434017E
:104BE0000068FEF715FD08B1FEF79CFCFFF75CFAC4
:104BF000FCF700FBFFF766F8FBF75EFEFCF71CFB1B
:104C0000FFF7F4FD3C4C322807D068B13BA0FDF71C
:104C10008FFB204600F018FA09E03FA0FDF788FB63
:104C2000204600F011FAF8E740A0FDF781FBFBF702
:104C300038FEFCF7F0FADFF804814FF0A0444FF49F
:104C40000055684600F022F908B1FEF76BFC02A897
:104C500000F034F908B1FEF765FC002104A800F06B
:104C600044F908B1FEF75EFC07A800F0CDF809AAE8
:104C700008A93046FFF7E6F90746BDF90030BDF94F
:104C80000220BDF904102EA0FDF752FBBDF908303B
:104C9000BDF90A20BDF90C1035A0FDF749FBBDF99F
:104CA0001430BDF91220BDF910103CA0FDF740FBF7
:104CB00045A00799FDF73CFB3A4649A03168FDF74E
:104CC00037FBD4F8040525EA0001C4F8081500F400
:104CD0000050C4F80C05404600F0B6F9B1E70000FA
:104CE0004465766963652049443A202564200A00BA
:104CF000716000007868000000CA9A3B436F756CD1
:104D000064206E6F742073746172742074686520FF
:104D10004D504C2E0A0000004E6F7420617574686F
:104D20006F72697A65642E0A000000004D504C20B5
:104D3000737461727473212E0A000000A086010052
:104D4000416363656C20446174613A20583A2025C0
:104D5000303664203B20593A2025303664203B20F1
:104D60005A3A2025303664203B200A2000000000FB
:104D70004779726F20446174613A20583A20253097
:104D80003664203B20593A2025303664203B205A97
:104D90003A2025303664203B200A20004D61676EA2
:104DA00020446174613A20583A2025303664203B13
:104DB00020593A2025303664203B205A3A202530AD
:104DC0003664203B200A200054696D657374616D60
:104DD000703A20543A20256C64203B20200A2000A1
:104DE000526177207175617420646174613A202585
:104DF0006C64203B20557064617465643F3A2025E3
:104E000064203B200A20000010B50446FEF7BEFBDC
:104E100000EB4001C1EBC0104FF4804101EBC0003A
:104E2000C00B206010BD01460422192000F068BBB1
:104E300010B500F0ABFA00280BD10721682000F074
:104E400089FB002805D10121BDE810406B2000F04E
:104E500081BB10BD0178372000F07CBB38B504461B
:104E600001226946372000F0E1FA9DF8000040F089
:104E700002008DF800006846FFF7ECFF002803D120
:104E800021780A2000F01CFB38BD00001CB5044648
:104E9000062269463B2000F0C9FA00280CD1002107
:104EA0004FEA0D00C1F10502491C825CC9B204F849
:104EB000012B0629F6D300201CBD00001CB50446BA
:104EC00006226946432000F0B1FA00280CD10021E7
:104ED0004FEA0D00C1F10502491C825CC9B204F819
:104EE000012B0629F6D300201CBD38B50C4601461F
:104EF0000622032000F064FA00280CD14FF00102D2
:104F00002CB12146BDE83840092000F059BA694665
:104F1000092000F055FA38BD38B514A0FDF708FA9D
:104F2000FFF786FF044617A0FDF702FA200001D024
:104F3000FEF7F8FA19484068009013208DF8000039
:104F40009DF8030040F018008DF803009DF8020062
:104F500020F0180010308DF802006846FFF763FF5C
:104F6000002801D0FEF7DEFA38BD00000D0A4D50D2
:104F7000552073657475702073746172742E2E2EB3
:104F8000200D0A000D0A4D505520696E697420638A
:104F90006F6D706C65746521200D0A0078680000E3
:104FA0002DE9FF4782B099461746824642F21074B7
:104FB0004FF0000801462646012303AA1148CDF808
:104FC000008000F04FFB002812D10F4D287890B1DF
:104FD000B6B185F80080FBB24A465146094800F058
:104FE0002FFB002804D1697841B14CB185F80180CC
:104FF00006B0BDE8F087761EE8D101E0641EF2D16C
:105000000D20F5E7A46800000400002000F18040B6
:105010000068002800D00120704708B500F18040EA
:10502000002101600068009008BD00000549096882
:1050300040F4803001F00111814201D1012070471C
:10504000002070470C04004000283ED01F49204A31
:10505000096800BF00BF00BF00BF00BF00BF00BFA6
:1050600000BF91422FD000BF00BF00BF00BF00BFF4
:1050700000BF00BF00BF00BF00BF00BF00BF00BF38
:1050800000BF00BF00BF00BF00BF00BF00BF00BF28
:1050900000BF00BF00BF00BF00BF00BF00BF00BF18
:1050A00000BF00BF00BF00BF00BF00BF00BF00BF08
:1050B00000BF00BF00BF00BF00BF00BF00BF00BFF8
:1050C00000BF00BF00BF401EC3D170474400002096
:1050D0000024F40000283ED01F49204A096800BF80
:1050E00000BF00BF00BF00BF00BF00BF00BF9142B4
:1050F0002FD000BF00BF00BF00BF00BF00BF00BF78
:1051000000BF00BF00BF00BF00BF00BF00BF00BFA7
:1051100000BF00BF00BF00BF00BF00BF00BF00BF97
:1051200000BF00BF00BF00BF00BF00BF00BF00BF87
:1051300000BF00BF00BF00BF00BF00BF00BF00BF77
:1051400000BF00BF00BF00BF00BF00BF00BF00BF67
:1051500000BF401EC3D17047440000200024F4006B
:1051600000283ED01F49204A096800BF00BF00BF89
:1051700000BF00BF00BF00BF00BF91422FD000BFE3
:1051800000BF00BF00BF00BF00BF00BF00BF00BF27
:1051900000BF00BF00BF00BF00BF00BF00BF00BF17
:1051A00000BF00BF00BF00BF00BF00BF00BF00BF07
:1051B00000BF00BF00BF00BF00BF00BF00BF00BFF7
:1051C00000BF00BF00BF00BF00BF00BF00BF00BFE7
:1051D00000BF00BF00BF00BF00BF00BF00BF401E38
:1051E000C3D17047440000200024F40010B5002013
:1051F000FEF7C6FA06484168491E4160406808B992
:10520000FEF768FCBDE810400020FEF7BBBA0000C6
:10521000A405002070B5144D0446687838B114B167
:105220006168002088470020FEF7AAFA13E00020FA
:10523000FEF7A6FA24B10C4821460830FFF709FC16
:10524000686840B94FF48070FFF7E7FE01208107DE
:10525000C1F8040308606868401C6860BDE87040DD
:105260000020FEF78FBA0000A40500202DE9F041D0
:105270000F4D0026287808B1852615E00024AC6083
:105280006C602C61EC604FF0E020D0F80001012749
:1052900010F0010F03D10021084600F048F805483E
:1052A000046085F820402F703046BDE8F081000092
:1052B000A40500201805004070B5154D0446A878D7
:1052C00038B114B16168012088470020FEF758FA10
:1052D00015E00020FEF754FA24B10D4821461030A5
:1052E000FFF7B7FBE86850B94FF48270FFF795FEFF
:1052F00002204107C1F80403064901200860E8685C
:10530000401CE860BDE870400020FEF73BBA00009A
:10531000A40500200800004000F01F020121914078
:105320004009800000F1E020C0F880117047490773
:10533000090E002806DA00F00F0202F1E02282F8DE
:10534000141D03E000F1E02282F8001400F01F02B7
:10535000012191404009800000F1E020C0F8801256
:10536000C0F800117047000B40B270470121B1EB4B
:10537000507F01D101207047002070470121B1EB1F
:10538000507F01D101207047002070471FB50A4BA4
:105390000FCB8DE80F0008480023084A69460838FB
:1053A00000F008F9002804D10348083800F0F2F8AA
:1053B000002004B010BD0000AC680000995400004B
:1053C0002DE9F74382B01746894642F210744FF038
:1053D00000082646012302AA0C211248CDF80080BD
:1053E00000F040F9002812D10F4D287890B1B6B1E5
:1053F00085F80080FBB24A460C210A4800F020F9EB
:10540000002804D1697841B14CB185F8018005B01C
:10541000BDE8F083761EE8D101E0641EF2D10D20D4
:10542000F5E70000A4680000040000202DE9F74320
:1054300082B01746894642F210744FF000082646A3
:10544000012302AA68211248CDF8008000F00AF971
:10545000002812D10F4D287890B1B6B185F80080A0
:10546000FBB24A4668210A4800F0EAF8002804D155
:10547000697841B14CB185F8018005B0BDE8F08391
:10548000761EE8D101E0641EF2D10D20F5E70000A0
:10549000A468000004000020017800290AD10279E4
:1054A000064901202AB1012A05D0022A03D0032A85
:1054B00000D1087070474870704700000400002059
:1054C0007CB500258DF804008DF8051042F21074AB
:1054D000022301AA0C210848009500F0C3F8002817
:1054E00004D106490A7812B11CB10D707CBD641E4E
:1054F000F8D10D207CBD0000A4680000040000204D
:10550000FEB503461048144642F2107500F8013B00
:10551000FCF7A6F968208DF8010000260A488DF8EE
:105520000060641C01908DF80240324669460748CD
:1055300000F0AAF806490A7812B11DB10E70FEBD3E
:105540006D1EF8D10D20FEBD94050020A46800005A
:10555000040000207CB500258DF804008DF80510AE
:1055600042F21074022301AA68210848009500F055
:1055700079F8002804D106490A7812B11CB10D70DF
:105580007CBD641EF8D10D207CBD0000A468000025
:10559000040000200179064A01EB8101006802EB5A
:1055A000C1010622C0F80025022081F822007047C0
:1055B0006C05002070B506460D4600791F4900EBCA
:1055C000800001EBC00494F8220008B1082070BDEF
:1055D0000020C4E90023A06084F8250084F824009A
:1055E000A87B84F82700687B10B1284600F00AFEEB
:1055F000296840F20C60890001F1A041C1F8000760
:105600006968890001F1A041C1F80007D5E90012DD
:105610003068C0F80815C0F80C25A968C0F8241532
:10562000206828B13068297B000B40B2FFF77FFE6D
:10563000012084F82200002070BD00006C050020CD
:105640003EB5074D2C68AD6800948DF801100192AD
:1056500002958DF802300022694600F015F83EBD33
:10566000986800003EB500250095069C8DF8011055
:1056700002958DF8023001920CB1202200E0002248
:10568000694600F001F83EBD30B40379064C03EBE7
:10569000830304EBC304006813460A460146204610
:1056A00030BC00F001BE00006C0500202DE9F04187
:1056B00005460079164F904607EB40140E46E07EF3
:1056C00010B10820BDE8F081707F20772846FEF7F2
:1056D0006DF85FEA080060603169216003D0317FB6
:1056E0002846FEF707FA287907EB4010007F0028CC
:1056F000286801D0082100E00421C0F8001500202E
:10570000E0752076A0750121E176A076DAE7000049
:10571000C80500202DE9F04105460079284E904645
:1057200006EB40140F46207F18B10846FFF726FE0F
:1057300080B1626800234FF404704FF4017172B1BC
:105740002A7906EB4212127F002A2A6805D0C2F895
:10575000080304E01020BDE8F081C2F80813E27DE0
:10576000B2B1227E7AB162685AB12A7906EB42124E
:10577000127F1AB12968C1F8040302E02868C0F852
:1057800004131120E7E72761012384F8188005E05E
:1057900084F817800020E7606076207628794246FA
:1057A00006EB40103946007F0028284603D0BDE8AC
:1057B000F04100F073B8BDE8F04100F01BB8000004
:1057C000C805002070B504460079094D05EB40106E
:1057D000017F00290AD1807E002807D1204600F0F1
:1057E00018FC2179012005EB4111887670BD00007D
:1057F000C80500202DE9F05F04460079264901EB39
:105800004015A87E184302D1204600F002FC6868CB
:105810000028206806D04FF40171C0F8041300205E
:10582000BDE8F09F4FF4A276314600F05BFBB14635
:105830004FF4927A4FF4847B5146206800F04DFB80
:1058400006465946206800F048FB804649462068D5
:1058500000F043FB074648EA07003043ECD056EA25
:10586000070007D12946206800F0AEFBE87D697E7D
:105870008842E1D80020E8750EB10320D0E70FB1CF
:105880000F20CDE7A97E01200029216801D0086002
:10589000C5E74860C3E70000C80500202DE9F05FB8
:1058A000894604464FF488759A469046002600685B
:1058B000294600F028FB4FF4A2773946206800F013
:1058C00022FB2068C0F83495C0F838852068BAF10A
:1058D000000F14D0D0F8001241F02001C0F80012DF
:1058E0002179DFF8648008EB4110406850B12068EE
:1058F0004FF40471C0F804133046BDE8F09F012155
:105900000160EDE7AA46B9464FF4927B5146206804
:1059100000F0F4FA07464946206800F0EFFA054621
:105920005946206800F0EAFA014647EA05000843B4
:10593000ECD02379002208EB4310C27501B1032695
:10594000002DD9D00F26D7E7C80500202DE9F04754
:10595000054600793F4E904606EB40140F46207FE7
:1059600018B10846FFF70AFD30B1284600F074F878
:1059700020B11120BDE8F0871020FBE784F81680E5
:10598000A7600027A78228794FF0010806EB401492
:105990003E46207F0028286825D04FF4907949465C
:1059A00000F0B1FA4FF4AC7A5146286800F0ABFA37
:1059B0002868A17DA268C0F84425C0F84815286869
:1059C000C0F808806068F0B94946286800F096FA87
:1059D00080465146286800F091FA58EA0001F3D059
:1059E00058BBA7750FE04FF48E7A514600F07AFA53
:1059F0002868C0F808802146286800F075FD6168B5
:105A00004FF4807089B13046B4E75146286800F001
:105A100064FA10B9A08A4845F7D1A08A484505D054
:105A20002146286800F060FD00E08146A08AA17D43
:105A30008842EAD3A08A484501D10F26D1E75146D2
:105A4000286800F04AFA0028F9D02868C0F80C80CD
:105A5000C7E70000C80500200079044901EB4010A9
:105A6000807D002800D0012070470000C80500207C
:105A700070B5044600791149002601EB40152068F5
:105A80002A7FC0F80065686888B1207901EB401072
:105A9000007F0028206801D0094901E008498C39BD
:105AA000C0F808132068FFF75EFCFFF735FC2046BE
:105AB00000F030FAEE766E6070BD0000C805002080
:105AC000100302002DE9FF411C46DDE90A78154666
:105AD0000E46684600F05CF846EA450141EA84015A
