:020000040000FA
:10000000D0550020150200001D0200001F02000054
:100010002102000023020000250200000000000071
:1000200000000000000000000000000027020000A7
:1000300029020000000000002B0200002D02000039
:10004000D92B00002F020000B12E0000B52C0000BB
:100050002F0200002F020000BD2900002F02000027
:100060002F0200002F0200002F0200002F020000CC
:100070002F0200002F0200002F0200002F020000BC
:100080002F020000912C00002F0200002F02000020
:10009000C52C00002F0200002F0200002F020000DC
:1000A0002F0200002F0200002F0200002F0200008C
:1000B0002F0200002F0200000000000000000000DE
:1000C0002F0200002F0200002F0200002F0200006C
:1000D0002F0200002F0200002F0200002F0200005C
:1000E0002F0200002F0200002F0200002F0200004C
:1000F000000000002F0200000000000000000000CF
:1001000000000000000000000000000000000000EF
:1001100000000000000000000000000000000000DF
:1001200000000000000000000000000000000000CF
:1001300000000000000000000000000000000000BF
:1001400000000000000000000000000000000000AF
:10015000000000000000000000000000000000009F
:10016000000000000000000000000000000000008F
:10017000000000000000000000000000000000007F
:10018000000000000000000000000000000000006F
:10019000000000000000000000000000000000005F
:1001A000000000000000000000000000000000004F
:1001B000000000000000000000000000000000003F
:1001C000000000000000000000000000000000002F
:1001D000000000000000000000000000000000001F
:1001E000000000000000000000000000000000000F
:1001F00000000000000000000000000000000000FF
:10020000DFF80CD002F0C8FB00480047496100004D
:10021000D05500200648804706480047FEE7FEE725
:10022000FEE7FEE7FEE7FEE7FEE7FEE7FEE7FEE7A6
:10023000C92C00000102000010B5FF49C4074FF0AF
:1002400040434FF0804205D08B66CB66C1E91C323B
:100250008A67CA67840709D5C1F80031C1F804313B
:10026000C1E94232C1F81021C1F81421400709D573
:10027000C1F89831C1F89C31C1E96832C1F8A821B0
:10028000C1F8AC2110BD2DE9F14F002082B08246AB
:1002900081460298806F00287ED000220020401CFA
:1002A0000428FCDB029800EBC203D3E90010A1FB99
:1002B0000167D3E9065400FB017701FB0077AB46E9
:1002C000AD1BCDE900670326A5FB06C8A64664EB77
:1002D000070404FB0684002705FB0745DDE90067EA
:1002E0001CEB06047D41A4FB016705FB017504FBC3
:1002F0000055D3E90C47341B65EB0705CDE90045F4
:100300005D46A5FB05670324A6FB04580EFB0B778F
:100310000BFB0E7707FB04844FF0000C06FB0C442C
:10032000D3E91263761B63EB04034C18A4FB017C36
:1003300040EB000505FB01C504FB0055A7FB014C84
:1003400005FB01C507FB0055A4FB017C05FB01C5AE
:1003500004FB0054F6196341DDE90045AD0045EAB0
:100360009475A400A4FB017C05FB01C104FB0014EF
:10037000F01B73EB040103D50023404263EB010142
:10038000BAEB000479EB010301DA82468946521C7C
:10039000032A83DB504600E016E0494602F049F9A3
:1003A00000EE900AA54890ED0E1A80EE810A10EE3C
:1003B000100A02F065F9A04AD2F80C2203B09200AC
:1003C000BDE8F04F01F055BF002003B00146BDE885
:1003D000F08F2DE9F14F0020009A0146926FE2B3B1
:1003E00000240022521C042AFCDB009A02EBC40504
:1003F000AA46D5E90029A2FB023CD5E906769E462D
:10040000FB1A0325A3FB057809FB02CC02FB09CBF1
:1004100066EB0B0606FB05854FF0000C03FB0C5644
:1004200017EB0E03A3FB027C46EB0B0606FB02C296
:1004300003FB0923DAE90C25BA1AAB4103D50025E1
:10044000524265EB0303851A71EB030501DA10468E
:100450001946641C032CC4DB00E015E002F0E9F847
:1004600000EE900A754890ED0E1A80EE810A10EEAB
:10047000100A02F005F9704AD2F80C22BDE8F84FD4
:1004800002EB420201F0F5BE00200146BDE8F88F04
:100490002DE9FE43684D80460024D5F810626F4672
:1004A00005EBC4013246D1E9020101F0D3FE05EBB0
:1004B0008401B1F884100904401847F8240004F1BD
:1004C0000104032CECDB5C489821083001F00AFFA2
:1004D0000120FFF7B1FE95F8E8010199042807D142
:1004E000D5F81802B0F5201F02DD052085F8E801D7
:1004F000524C0098636AC11A01D40E4600E01E1ADD
:100500000198A26A801A01D4074601E0019FD71B17
:10051000BE4206DD002901D4084606E00098181AFC
:1005200003E0002801D50198101A029AE16A521AD4
:1005300001D4134601E0029BCB1A834205DB002A5B
:1005400001D4104601E00298081AD8F8241005F0EA
:1005500084F8D5F81812814206DD0321684605F0BB
:10056000C1FB022005F0F6FB009860620198A062D2
:100570000298E062BDE8FE83304AC2E9020170479A
:100580002E4AC2E9060170472C4AC2E904017047AD
:10059000294AD2F8E0310360D2E97402C1E90002CD
:1005A0007047254AD2F8E0310360D2E97602C1E90A
:1005B000000270472DE9FE4781460020EA468A6F17
:1005C00022B901EB800339F91020DA6701EB8002D0
:1005D00039F91030D46F1D1B4AF82050136E9D421C
:1005E00000DD1566D36E9D4200DAD5660123002436
:1005F00022464FEAE578A3FB056704FB057403FB7D
:100600000844334602EB420601EBC60606EBC00C7B
:10061000DCE90076FF186641CCE90076521C042A1A
:10062000E9DB401C0328CADB886F401C8867012077
:10063000C1F89000BDE8FE87D010002030130020E4
:1006400030B5002302EB830550F823405B1CEC66B9
:10065000032BF7DBC2F88810916F79B1002102EB10
:10066000810450F82130E56F5B1B00D55B42256E9D
:100670009D4200DA2366491C0329F0DB906F401C81
:1006800090670120C2F8900030BD10B500210B46E4
:1006900000EB8102491CD46ED46713660329F7DB93
:1006A000D0F8881040F8783FC0E9051310BDD0E9B4
:1006B0002210081A70470146D1E91802824200DB75
:1006C0001046896E814200DB084670472DE9F047ED
:1006D0008046501E012686408946C2F120074046CA
:1006E00001F0C7FD04460D46404649463A4601F032
:1006F000B1FD3A4601F0BDFDB04203DD641C45F199
:10070000000505E07142884202DA641E45F1FF35BA
:1007100020462946BDE8F087F74900200862486274
:100720008862C862086448648864C864086348636F
:100730008863C863086548658865C865704730B5D3
:10074000EE4AD2F8483223B1D2E990542D1A8C41A6
:1007500001DAC2E990015B1CC2F8483230BD30B505
:10076000E64AD2F8583223B1D2E994542D1A8C417A
:1007700001DAC2E994015B1CC2F8583230BD30B5D1
:10078000DE4AD2F828322BB1D2E98845041B71EB3E
:10079000050401DAC2E988015B1CC2F8283230BDC9
:1007A00030B5D64AD2F838322BB1D2E98C45041B89
:1007B00071EB050401DAC2E98C015B1CC2F8383226
:1007C00030BD2DE9F0470246CC480125083080466F
:1007D000C36E016E046FC91A436E1B1B8B4200DB94
:1007E0001946836ED8F87400181A884200DB014657
:1007F000C14F6037F86B884204DA002400F010FA29
:10080000204687E7108E0124BC4EC0054FF0000142
:100810000ED5D6F880303068834209DBB2F87420F8
:10082000D20506D5D6F8B021824201DB052400E0CE
:100830000C4674B3600719D5AF48C8388146FFF736
:1008400022FD000D40EA01300915C6E97601D7E91D
:1008500004321B1A8A4102DA0025FFF7A1FF982112
:10086000484601F03FFD0420FFF7E6FCE0070ED00C
:100870004046FFF708FDC6E97C01D7E90634024689
:10088000181A8C4103DA00251046FFF778FF284636
:1008900040E7FFE702203DE71EB5044690F8300030
:1008A000C0F38110032804D19449201D0831FFF7BB
:1008B00081FE94F87400C0F38110032805D18E499D
:1008C00004F14800C839FFF775FED4F8B8008B4A28
:1008D000C0F38113A0326946032B0FD0C0F341103F
:1008E00003281AD1002004EB8003D3F8A0309B1317
:1008F00041F82030401C0328F5DB09E0002004EB20
:100900004003B3F98C3041F82030401C0328F6DB5B
:100910006846D4F8C010FFF793FE1EBD2DE9F047DE
:1009200005460020296BCA056AD501F0500140290F
:1009300000D1012095F8741001F05001402900D138
:10094000012095F8B8106D4C01F05001402900D0FD
:1009500030B100F065F90020C4F8E00184F8E80146
:10096000654ED4F80812E86A6036814228D0C4F88F
:1009700008020A28306B0CDA40002060716B00EE30
:10098000100A491CC4F80C12B8EEC00A02F04AFE64
:1009900005E02060706BC4F80C0296ED0E0A84ED41
:1009A000850AD4F80C02C0F11000C4F810024FF40C
:1009B0008040C4F8180296F8341019208840F0637B
:1009C0002846FFF769FF94F8E811DFF83091052712
:1009D0004FF0020809F1A009072911D2DFE801F060
:1009E000041127305E7E8500D4F8E001411CC4F874
:1009F000E0110A2804DB00F013F9012084F8E80173
:100A000086E0D4F89800012810D12846FFF7D9FED7
:100A100010B1012803D004E084F8E87101E084F803
:100A2000E8814846FFF731FEFFF776FE70E00320CD
:100A300084F8E8012846FFF72BFD00F0F1F867E0A5
:100A40002846FFF7BEFEE8B3012861D1B5F8B8002B
:100A50004FF00403C00515D54846FFF72CFE0146AC
:100A6000C017C4E97410D6E902C2BCEB010182418F
:100A700002DA84F8E87108E04846FFF718FE316AA8
:100A8000884202D384F8E83124E0F4E97601FFF7E4
:100A900066FED4E90601FFF752FE39E0B5F8B8006A
:100AA000C0050BD54846FFF706FE0146C017C4E94E
:100AB0007410D6E90232591A824108DB2846FFF742
:100AC00080FE00E003E010B1012803D020E084F8AC
:100AD000E8711DE02846FFF7DBFCD6E7062084F826
:100AE000E801012005F036F90DE02846FFF769FE20
:100AF000012805D038B10BE0D0120020D010002022
:100B000084F8E88104E000F08BF84846FFF7BDFD6B
:100B10000020FFE510B500214010002802D001F1AF
:100B20000101F9DC4FF0010001F1010100FA01F0CF
:100B3000434C00EE100AC4E90C01B8EEC00A02F002
:100B400071FD84ED0E0A94F8341019208840E0639A
:100B500010BD10B54FF418713A4801F0C3FB4021A5
:100B6000374801F0BFFB0720FFF766FB344840F22F
:100B7000DC510022C0E906121421C0E902124FF430
:100B80001671C0E9041230492E4C01620120C4F8EC
:100B9000E4011920FFF7BEFF0020C4F8080210BDD1
:100BA00010B54FF41871274801F09CFB0720FFF7A0
:100BB00043FB244801210022C0F8E41180F8E81129
:100BC0000321012005F0BCF807226421AFF2B32015
:100BD000BDE8104004F084BF10B5012005F0BAF85C
:100BE000AFF2C720BDE8104005F024B910B5FFF7FB
:100BF000B0FF002805D1AFF25700BDE8104004F067
:100C0000F7BF10BD10B5FFF7E7FFAFF26B00BDE80F
:100C1000104005F035B90B49D1E97C0170477047A8
:100C2000084810B59821083001F05CFB982107486E
:100C300001F058FBBDE810400520FFF7FDBA0000A9
:100C400030130020D01000200008AF2F0812002021
:100C5000F0B516462DED028B85B01F460C460546B5
:100C60003C22FE49A1F10C0001F015FBFB4950228A
:100C70004C31A1F1100001F00EFBF84996E80D008F
:100C80000C3901F13C0C8CE80D005CCC01F19800B2
:100C900080E85C009FEDF28AD1F82401401CC1F885
:100CA0002401062802DD0620C1F82401C0F1060651
:100CB0000C46A0351AE004EB06116A463846483166
:100CC00004F027FD06EB460004EB80016A46284647
:100CD00004F09CF9F0EEC00AB0EEC81AF4EEC10AB6
:100CE000F1EE10FA01D2B0EE408A761C062EE2DB5D
:100CF00005B0B0EE480ABDEC028BF0BD70B51446ED
:100D00002DED048B0E46B0EE408A00259FEDD59A5E
:100D1000416BF0EE498A002904DBD0F8BC000328BF
:100D200000D10125CD492422B431081F01F0B3FAC6
:100D3000CA480C38002380ED388A00EB83015B1C25
:100D400091ED2F0A0A2B70EE288AF6DBB2EE040A28
:100D5000C822C8EE800AC0ED390A9FEDC31A322EB0
:100D60001DDB9FEDC20AC0F81C21B6F57A7FC8EEE4
:100D7000001A00EE104AB8EEC00A61EE801A81EE49
:100D8000810A2FDB9FEDBA0AC8EE001A00EE104A66
:100D9000B8EEC00A61EE801A81EE810A22E041F2CB
:100DA000883194FBF1F14942D0F81C3101EB81010B
:100DB000C918C0F81C1102D50021C0F81C119FED04
:100DC000AD0AC8EE001A00EE104AB8EEC00A61EE95
:100DD000801A81EE810A29B9D0F82811012901D1A0
:100DE000B0EE490AD0F8201109B1B0EE480AA24984
:100DF0008C4201D1B0EE480AB5EEC00AF1EE10FA0D
:100E000001D0C0ED3A0A90ED3A1A9C4B71EE600A9F
:100E1000F0EEE00A10EE901A994227DDD0ED2E0A8E
:100E2000F5EEC00AF1EE10FA20D1002D1ED0C0F868
:100E30001C21204601F013FC41EC190B18EE100A9E
:100E400001F05EFC9FED8E1B53EC112B01F082FB39
:100E500053EC192B01F00CFB9FED8B1B53EC112B6A
:100E600001F078FB01F078FC00EE100ABDEC048B79
:100E700070BD2DE9F04F04462DED048BA9B09FED18
:100E8000799A4FF0000A754ECDF810A00C3ECDF8BF
:100E900014A0CDF818A0D6F82011022003297DD087
:100EA00000209FED7B8A20AD06EB800191ED2A0AA0
:100EB00005EB8001401CB8EEC00A042820EE080AA9
:100EC00081ED000AF0DB0FA804F0D8F924A804F0A3
:100ED0001BFA624B24AA9C330FA920462793FFF7E5
:100EE000B7FEF0EE408A04F1180004F05FFA8109C1
:100EF0006148D6F83021824200DB0246B0EE680A33
:100F00002046FFF7FBFED6ED3B0AB3460BA820EECA
:100F1000200A86ED2E0A04F0B1F913A90BA804F0FB
:100F200072FD4E480FAAF0300BA9064604F0F1FB03
:100F300031460BA804F0CAFB00210DF13C080DF16D
:100F40004C090DF1100E00221346104601EB410C26
:100F50000CEB000759F8276008EB8007401C7F68FE
:100F60000328C6FB0723F3DB900F40EA83004EF80B
:100F70002100491C0329E6DBDBF820015E4600283E
:100F80006AD05046CDF818A0404200EE100AB8EEE4
:100F9000C00A20EE080A02F0D5F900E0A2E08DEDCB
:100FA000000A8DED019A8DED029A0698404200EEFE
:100FB000100AB8EEC00A20EE080A02F06BFA8DEDB6
:100FC000030A9DED060ADFED330AD6F83001B8EECC
:100FD000C00A41F2883190FBF1F080EE201A00EE59
:100FE000100AF8EEC01A81EE210AB0EE001AC0EE27
:100FF000011ABDEEE10A10EE101A490000EE101AB7
:101000000691B8EEC00A60EE200A00EE100AB8EEB3
:10101000C00A20EE800ABDEEC00A8DED060AB8EEC9
:10102000C00A20EE080A02F08DF98DED070A8DED59
:10103000089A8DED099A9DED060AB8EEC00A20EED9
:10104000080A02F027FA8DED0A0A1CAA694620A8B0
:1010500004F0B7FB6A461FE04BE000007C13002061
:10106000002474490000000000409C4500004843F3
:10107000000048420000C84340420F000E2DB23D20
:101080000000000000007940000000000088B3402C
:1010900000008030E102374707A91CA804F091FB4B
:1010A0006F46DFED958AD4F8BC00002813DD0020E0
:1010B00007EB800191ED000A05EB800181ED000A4C
:1010C00020EE280A06EB8001401C0428BDEEC00A71
:1010D00081ED2A0AECDBD4F8BC00F6EE009A032876
:1010E0000CD108E0C6F8200129B0BDEC048BBDE8A6
:1010F000F08F069848E701F0A5F8E0B396ED2A0ACC
:10110000B8EEC00A20EE080A8DED1C0A96ED2B0AF7
:10111000B8EEC00A20EE080A8DED1D0A96ED2C0AE5
:10112000B8EEC00A20EE080A8DED1E0A96ED2D0AD3
:10113000B8EEC00A20EE080A8DED1F0AD6F820018D
:101140000028D1D096ED2E0A20EE290A02F0FAF8F6
:1011500020EE280ABDEEC00A86ED2A0AC6F8ACA029
:10116000C6F8B0A096ED2E0A20EE290A02F092F9F8
:1011700020EE280A00E004E0BDEEC00A86ED2D0A4C
:101180002BE096ED2E0A20EE290A02F0DBF88DED19
:10119000070A8DED089A8DED099A96ED2E0A20EE3C
:1011A000290A02F077F98DED0A0A6A4607A920A8F4
:1011B00004F007FB684604F0AFFB002007EB80015A
:1011C00091ED000A06EB8001401C20EE280A04285D
:1011D000BDEEC00A81ED2A0AF0DBD4F8C0102798D2
:1011E00004F06AFDD6F820010028AAD0401E79E755
:1011F00070B590F8B810414ACC064FF000034FF09C
:10120000030101D4C2E94813B0F82041E40509D430
:10121000048EE40503D5B0F87440E40502D4C2E9B5
:1012200048131AE0D2F8341139B1D0E93013C91A91
:101230004FF47A73B1FBF3F105E0D0F8B01044F647
:101240002064A14202DBC2F830110AE0D2F82C512E
:101250002944C2F82C11A14201DA002070BDC2E974
:101260004B31FFF706FEF8E710B54FF49C712348A9
:1012700001F038F8214C4FF080400021C4F8FC0008
:1012800044F8A80F1D48A83004F016FD4FF47A70FA
:10129000B7EE000A606784ED110A10BD174880EDB3
:1012A0003B0A002070471549C1F82801002070470B
:1012B0001249C1F834010020704704224FF416711E
:1012C000AFF2D30004F00CBCAFF2DB0004F0B2BD0F
:1012D00010B5FFF7C9FF09490020C1F82801C1F87E
:1012E0003401AFF22900BDE8104004F081BCAFF238
:1012F000350004F0C5BD00000000804E70130020D2
:10130000F0B51D462DED028B99B090ED000AD0EDA1
:10131000010A1746B8EEC00AB8EEE01AF8EEE00A85
:101320000E4620EE000A044601EE200AD0ED020A25
:10133000B8EEE01AF8EEE00A01EE200A02F072F9C7
:10134000F0EEC00A10EE900AB0F18D4F7EDDD6EDC2
:10135000000AB8EEE01ADFEDFE0A21EE201A8DED4C
:10136000041A96ED011AB8EEC11A21EE201A8DED7D
:10137000051A96ED021AB8EEC11A21EE201A8DED6B
:10138000061A96ED031AB8EEC11A61EE200ACDEDE9
:10139000070A9FEDF08A10AA8DED0C8AD4ED000AA1
:1013A0000CA904A8F8EEE00A80EE801A8DED0D1A63
:1013B000D4ED010AF8EEE00A80EE801A8DED0E1AE7
:1013C000D4ED020AF8EEE00A80EE801A8DED0F1AD5
:1013D00004F0F7F914A904A804F084F96A4614A9E2
:1013E00010A804F0EEF99DED021ADDED010ADA49CC
:1013F00021EE010A00EEA00A10EE100A884202DA7D
:101400009FEDD60A11E010EE100AD549884202DAA3
:101410009FEDD40A09E010EE100AD349884202DA9F
:10142000B5EE000A01E09FEDD10A01EE907AB8EE28
:10143000E12ADFEDCF2A8DED088AC2EE221A21EED5
:10144000800A21EE001A8DED091A00E038E020EE46
:10145000C00A6A4604A98DED0A0A8DED0B8A08A818
:1014600004F0AFF96A4604A9104604F00EF9684684
:1014700004F010FADDED000A9FEDBE0A60EE800A6E
:10148000FDEEE00AC5ED000ADDED010A60EE800A1E
:10149000FDEEE00AC5ED010ADDED020A60EE800A0C
:1014A000FDEEE00AC5ED020ADDED030A20EE800A3A
:1014B000BDEEC00A85ED030A19B0BDEC028BF0BD8C
:1014C00096E80F0085E80F00F6E72DE9F0410C469D
:1014D0002DED068B054690ED000AD0ED010AB8EE21
:1014E000C00AB8EEE01AF8EEE00A20EE000A01EEBB
:1014F000200AD0ED020AB8EEE01AF8EEE00A01EE9A
:10150000200A02F08FF810EE100A4FF07E580026E5
:101510004FF0804740453FDDD5ED020AB7EE009A17
:10152000F8EEE00AC0EE808A39EE680A9FED89AADB
:10153000B5EEC00AF1EE10FA01DCB0EE4A0AF6EEA2
:10154000009A20EE290A02F06DF8B0EE408A38EEDB
:10155000890AB5EEC00AF1EE10FA01DCB0EE4A0AD3
:1015600020EE290A02F05EF8F0EE408A95ED000ABE
:10157000B8EEC00A60EE000A95ED010AB8EEC01A96
:10158000B8EEC00A41EE000AB0EE600A02F04AF876
:1015900010EE100A404503DCC4E90076A66025E0A1
:1015A000DFED740A28EEA01ABDEEC11A84ED001A10
:1015B00095ED011AF8EEC11A81EE801A21EE081A93
:1015C00061EE200AFDEEE00AC4ED010AD5ED000A45
:1015D000F8EEE00A80EE801A21EE080ADFED660AD6
:1015E00020EE200ABDEEC00A84ED020AE660BDECE2
:1015F000068BBDE8F08170B590ED000AD0ED010AD0
:101600000546B8EEC00AB8EEE01AF8EEE00A0C465D
:1016100020EE000A01EE200AD0ED020AB8EEE01A30
:10162000F8EEE00A01EE200AD0ED030AB8EEE01A67
:10163000F8EEE00A01EE200AB5EEC00AF1EE10FA6B
:1016400007D84FF08040206000206060A060C86034
:1016500070BD01F0E7FFB7EE001AC1EE000A9FED82
:10166000450A20EE800AD5ED000AF8EEE00A60EEA9
:10167000800AFDEEE00AC4ED000AD5ED010AF8EE9D
:10168000E00A60EE800AFDEEE00AC4ED010AD5ED45
:10169000020AF8EEE00A60EE800AFDEEE00AC4ED10
:1016A000020AD5ED030AF8EEE00A20EE800ABDEE4C
:1016B000C00A84ED030A70BD70B5044690F830008E
:1016C00088B040067ED5A069002801DB014600E015
:1016D00041424FF480320026284D91420BDAE169F5
:1016E000002900DA4942914205DA216A002900DA2C
:1016F0004942914267DB002800DA40424FF4C801BA
:1017000088420BDCE069002800DA4042884205DCB0
:10171000206A002800DA4042884201DD032000E010
:101720000220A863696BA06A814242D0686394ED8D
:101730000A0A9FED131AF8EEC00A80EE810ADFED67
:10174000110A20EE200A10EE100A00F0D9FF1BE06B
:10175000000080300000000017B75139A69BC43B41
:101760000AD7233C8FC2753DCDCC4C3ECDCCCC3E70
:101770000014CD470000804E000080CEA814002049
:10178000002474490000004E9FEDFA1B53EC112B0E
:1017900000F06EFE9FEDF91B53EC112B00F068FE7C
:1017A0009FEDF81B53EC112B00F0D4FE00F089FFE5
:1017B00028630496296BA06903F04FFF0590296BFD
:1017C000E06901E022E023E003F047FF0690296B87
:1017D000206A03F042FF07906A4604A9EB4803F031
:1017E00098FF0098E94A80010090019869468001BD
:1017F00001900298800102900398800103901046A6
:1018000003F031FFE1490846FFF7F5FE08B070BD6F
:10181000AE63FBE770B504462DED048B8EB0D0F8B7
:101820002001410676D5D94DD4F81011D84B2A683D
:10183000891AD4F82C215A438A4201DA032100E0A4
:101840000221A963800504F5887602D5CF49304688
:10185000B5E0002107A803F08FFDCC490C223C31F4
:1018600007A800F051FD20B9D4F82801A96D8842DD
:101870007ED020886B4680B207AA616A03F01CFC08
:101880009DED000ADDED010AB8EEC00AB8EEE01ADF
:10189000F8EEE00A20EE000A01EE200ADDED020A71
:1018A000B8EEE01AF8EEE00A01EE200A01F0BAFE06
:1018B000B0EE408A9FEDB70A68EE000A9FEDB61AB7
:1018C00080EE810ADFEDB50A20EE200AD4ED4A0A47
:1018D000F8EEE00A60EE800A1FED571A80EE810AEA
:1018E000F6EE000A20EE209AB0EE490A01F02AFD39
:1018F000F0EE408AB0EE490A01F0CCFD18EE100A75
:101900004FF08041884206DA0020C5E912102865B0
:10191000686532E055E05FED690A68EEA00AFDEE09
:10192000E00AC5ED120A5FED6C0A20EE200ADDED3B
:10193000000AF8EEE00A60EE200A80EE881AFDEE5A
:10194000C10AC5ED130ADDED010AF8EEE00A60EE0A
:10195000200A80EE881AFDEEC10AC5ED140ADDEDFD
:10196000020AF8EEE00A20EE200AC0EE080A00E0C3
:101970000DE0BDEEE00A85ED150A07AB93E8070020
:1019800005F13C0383E80700D4F82801A8657F49E6
:1019900003AA4831304603F0BCFE7C480AAA5C30FA
:1019A00003A9044603F0B5FE2146304603F08EFE3F
:1019B00003AA0AA9754803F0ACFE744903A8FFF70F
:1019C0001AFE0EB0BDEC048B70BD1FB5044669460F
:1019D0006E4803F07BFE6D4A69462032204603F0D4
:1019E00098FE6A491DCC103181E81D001FBD2DE90C
:1019F000F0470446654E90F8740006F15C0A06F163
:101A00002008012500F05001103692B004F58879C5
:101A100004F15C07402906D094F8200100F0500042
:101A200040280DD01DE031463846FFF74EFDB4F892
:101A30002001C0050CD55146484603F047FE07E09B
:101A40005146484603F042FEB4F87400C00508D57C
:101A500069464E4803F03AFE42466946304603F076
:101A600058FEB4F82001C005204602D5FFF7D2FE8B
:101A700001E0FFF721FE32464449404603F049FEAB
:101A800094F8740040066FD5208EB4F820110843F6
:101A9000C0056DD50FAA3946304603F095FFD4E94D
:101AA000172080FB0001C2FB0201626E374FC2FBB0
:101AB00002014FF08042801A71F1020014DB04A889
:101AC00003F0A6FCDDE9042080FB0001C2FB02015B
:101AD000069AC2FB02014FF08042801A71F10200A7
:101AE00002DB0420B8630BE0B86B042808D041F295
:101AF0008832022806D0032804D0012852D009E0F9
:101B0000002507E0E16E91FBF2F5012D00DA0125D9
:101B1000032800D0AD0022480024454310980794C4
:101B20008002294603F099FD08900F98294640420B
:101B3000800203F092FDCDE909040BAA314607A803
:101B400003F0E7FD32460BA9104603F08CFD314649
:101B50000846FFF750FD69460C4803F0B7FD4246C2
:101B60006946304603F0D5FD12B00020BDE8F0878D
:101B700020E00000112D4454FB210940000000002A
:101B8000000070400000000000806640A8140020A3
:101B900071981C00DB0F494000003443000080377F
:101BA000A69BC400E06E90FBF2F0012800DA012051
:101BB0004500AFE7334619463846E26EFFF7A0FB13
:101BC000C9E770B50446008EC105D4F8200107D4DA
:101BD000B4F87410C90503D4C10501D4002070BD48
:101BE000C0F30120032807D02046FFF700FF234859
:101BF000A16B04F00FF9F1E704F588711F482EC9B5
:101C000080E82E00F3E71E4804F014B91B4810B515
:101C10006C21103800F066FB18484FF080411038F6
:101C2000016101600162C163C165002010BD1848F7
:101C300010B5082213A1006800F066FB08B132203D
:101C400010BD1322BDE81040C8210D4803F048BF65
:101C500010B5FFF7DBFF002805D1AFF22D00BDE87E
:101C6000104003F0C5BF10BD10B5054804F0E2F800
:101C7000AFF24500BDE8104004F002B9B8140020EE
:101C8000C31B0000654D504C20352E310000000074
:101C900000000020002803DDFE490122C1E92002E6
:101CA0000020704710B5B821FA4800F01BFB9FEDEB
:101CB000FA0AF84880ED030A9FEDF80A80ED020A5F
:101CC0009FEDF70A4FF0804180ED000AB3EE0E0A57
:101CD00080ED010A41664FF4FA619FEDF20AC16797
:101CE00080ED270A002010BD70B5EA4C002594ED68
:101CF000001AB4EEC01AF1EE10FA17D394ED011ADF
:101D0000B4EEC01AF1EE10FA10DC2069012817D1E8
:101D100094ED030AB4EEE00AF1EE10FA06D394ED66
:101D2000020AB4EEE00AF1EE10FA09DD606F20B9A4
:101D3000D848A16D183003F0BFFF0120C4E91D058C
:101D4000D4E91E01884204DB606F012800D1E565FB
:101D5000656770BD10B504462DED028BB0EE408A6C
:101D600003F096FACB49002220B918EE100ACE4BA8
:101D7000984202DD0A614A6102E00869002808D140
:101D8000486920444861B0F5FA7F02DD0120C1E9CD
:101D90000402BDEC028B10BDF0B58DB00D461446AB
:101DA0000646694603F02FFE09AA3146284603F08D
:101DB000B0FC2946304603F089FC0021EC460DF1C9
:101DC000240E00231A46184601EB41073D180EEB7E
:101DD00080065CF825507668401CC5FB0632032857
:101DE000F4DB980F40EA820044F82100491C0329E3
:101DF000E7DB0DB0F0BDA7490020C1F88C007047AB
:101E000010B590ED000AD0ED010AB8EEC00AB8EEA8
:101E1000E01AF8EEE00A20EE000A01EE200AD0ED0A
:101E2000020AB8EEE01AF8EEE00A01EE200A01F02C
:101E3000F9FBDFED9E0A20EE200A10BD0022954935
:101E4000012330B1012810D0C1F8983041F88C2F0F
:101E500031E081ED280A81ED290A9FED950A81ED97
:101E60002A0AE1E924328A607047D1ED280A91ED0F
:101E7000271A70EE600AF0EEE00AF4EEC10AF1EE05
:101E800010FA16D2D1F89400401CC1F89400D1ED9C
:101E9000290A312830EE800A81ED290AE4DD02208A
:101EA000DFED840AC1F8900080EE201A81ED2A1A35
:101EB000704741F8902F4A6070472DE9F0479846E7
:101EC0002DED088B8AB017468A4604469FED788A26
:101ED0000025704E039504950595D6F888000028D6
:101EE0007DD003F05BFA10B103A803F037FAD6F8FF
:101EF00080004FF00109002817DDC6F8849003F038
:101F00004DFA48B103A803F051FA8009B0F5C87F33
:101F100002D2D6F8800004E0D6F88000001BC6F894
:101F20008000002801DCC6F8845003F0E9FA00289C
:101F300055D000209FED5D9A57F8201000EE101A42
:101F400058F82010401CB8EEC00A032860EE090AB9
:101F500000EE101AB8EEC00A20EE800A00EE098AE0
:101F6000EADB3846FFF74CFFF0EE408A4FF07E5731
:101F700088EE280AF7EE00AA10EE100AB84201DD3A
:101F8000B0EE6A0A10EE100ADFF82C81BFEE00BA3C
:101F9000404501D9B0EE4B0A01F020F8D6F88C008C
:101FA000B0EE40AA98B196ED000AB4EEE80AF1EE60
:101FB00010FA0CDD96ED010AB4EEE80AF1EE10FA23
:101FC00005D2B0EE4A0AD6F89000FFF737FF684610
:101FD00003F03CFA2F490C22AC31684600E0E2E005
:101FE00000F092F918B9D6F8980001286BD1294869
:101FF0009DE80E00AC3080E80E00009818B90198FA
:1020000008B90298F0B36846FFF7FAFEB0EE408ACE
:10201000B5EEC08AF1EE10FA55D0F2EE049A38EE21
:10202000690A20EE000A01F0FDFA86ED010A38EE99
:10203000290A20EE000A01F0F5FA86ED000A9DED6E
:10204000020AB8EEC00A60EE090AB0EE480A80EE55
:10205000808A18EE100AB84201DDB0EE6A8A18EEE6
:10206000100A404501D9B0EE4B8AB0EE480A00F0A4
:10207000B5FFD6ED270A30EE600A86ED020AB0EE13
:10208000480A00E024E000F0A9FFD6ED270A30EE70
:10209000200A14E0141500200000B4420000B4C26D
:1020A000000070427B142E3E00401C46000080372A
:1020B0000000000000004842000080BF03E086ED01
:1020C000030AC6F88C50DFF88481F16D21B32FE04C
:1020D0001FED0D0A86ED000AB3EE0E0A86ED010A29
:1020E000D6F89800012808D01FED140A86ED020AE0
:1020F0001FED170A86ED030AE5E796ED2A0A96ED2D
:10210000271A70EE410A30EE010AC6ED020A86ED8A
:10211000030AC6F89850D6E70027C6F85C9006EB8D
:1021200007104146183003F0DBF87F1C042FF6DB64
:10213000464906AA0C310F465046FFF72DFE394698
:10214000504603F0C3FA03A803F030F900EE100A7A
:10215000DFED3F0A2046B8EE400A20EE200AFFF7E6
:10216000F9FDF0EE4A0AB0EE680AFFF7BDFDD6E9C8
:102170001E01884201DA2044B067706F90B9306E5A
:1021800020443066B0F57A7F0CDD3049302230399A
:10219000A1F11000356600F07EF82C484146103859
:1021A00003F09EF8706F0AB0BDEC088BBDE8F087B5
:1021B00070B588B0044604A803F0A6F8D4E930014D
:1021C000451A684603F05AF8064604AB04F1A0022B
:1021D00069462846FFF771FE03F07EFD08B03046E1
:1021E00070BD04224FF49671AFF23B0003F078BC4F
:1021F000AFF2430003F01EBE10B5FFF753FD0028F9
:102200000DD1124800215838C0F88C100121C0F8B7
:102210008810AFF23100BDE8104003F0E9BC10BDFA
:1022200010B5AFF2730003F005FEAFF27B00BDE81E
:10223000104003F0FFBD054901205839C1F88C005A
:102240000020704701485838406F70476C150020D7
:102250000000803C202A04DB203A00FA02F1002032
:1022600070479140C2F1200320FA03F319439040D4
:102270007047202A06DBCB17203A41FA02F043EAE6
:10228000E07306E041FA02F3D040C2F1200291402F
:1022900008431946704710B5431A934209D2831870
:1022A000881803E010F8011D03F8011D521EF9D231
:1022B00010BD40EA01039B0703D009E008C9121FC3
:1022C00008C0042AFAD203E011F8013B00F8013BF0
:1022D000521EF9D210BDD2B201E000F8012B491E06
:1022E000FBD270470022F6E710B513460A460446B3
:1022F0001946FFF7F0FF204610BD421C10F8011BE5
:102300000029FBD1801A704730B5044600200346EF
:1023100000E05B1C934203D2E05CCD5C401BF8D034
:1023200030BD2DE9FE4F804681EA0300C00F0C4608
:10233000009021F0004123F00045B8EB0200A941D4
:1023400005D24046214690461C460B46024623F0E5
:102350000040104347D0270DC7F30A00C3F30A51CA
:102360000290401A019040286BDAC3F3130040F446
:10237000801B0098924620B10023D2EB030A63EB46
:102380000B0B01985946C0F140025046FFF762FF1F
:1023900006460D4650465946019AFFF76AFF10EB74
:1023A00008006141002487EA115284EAE7731A4366
:1023B00040D0009A62B3019A012A4FEA075215DC15
:1023C000001B61EB02014FF0004202EA0752CDE927
:1023D0000042001C41F5801132462B4600F075FA90
:1023E00003B0BDE8F08F40462146F9E7001B61EBE2
:1023F0000201001C41F5801300185B412018A2F572
:10240000001747EB030140EAD570B6196D4111E0A2
:102410006D084FEA360645EAC0754FEA0752001BC1
:1024200061EB0201001C41F5801149084FEA3000C0
:102430000019514132462B4603B0BDE8F04F00F081
:1024400035BA0098012240000023D0EB020263EB72
:10245000E073009821464FEAE074B8EB000061EBAE
:102460000401E9E783F000435BE781F0004158E7AE
:102470002DE9FE4F81EA030404F0004421F00041FD
:1024800000944FF0000B23F0004350EA01045ED0AB
:1024900052EA03045BD0C3F30A54C1F30A552C4437
:1024A000A4F2F3340194A0FB0254C1F3130141F4EC
:1024B0008011C3F3130343F4801301FB024400FBB8
:1024C000034E840A970A44EA815447EA8357A4FBDF
:1024D000076802958D0A05FB07854FEA932C04FBDC
:1024E0000C542705029D4FEA065847EA1637B5EB0C
:1024F00008056EEB070C870E920E47EA811742EA39
:102500008312A7FB0201B6EB0B0164EB00042B0D59
:1025100043EA0C335E1844EB1C50DA465146E7FBA5
:102520000201C5F313044FEA0B3343EA14534FEA95
:102530000432019C43EA0603A4F10C040294009CBB
:10254000CDE900B400F0C1F903B0BDE8F08F002080
:102550000146F9E72DE9F04D81EA030404F0004B50
:1025600021F0004514464FF0000A23F0004150EAE4
:10257000050220D054EA01021DD0C5F30A570246D5
:10258000C5F31303C1F31300C1F30A5640F48015D9
:1025900043F48013A7EB0608101BD64608F2FD385B
:1025A00073EB050002D308F1010801E092185B41CA
:1025B000B8F1000F03DA00200146BDE8F08D0020DD
:1025C0004FF48011064684460EE0171B73EB050797
:1025D00005D3121B63EB050306434CEA010C4908C3
:1025E0004FEA300092185B4150EA0107EDD152EA00
:1025F000030012D082EA040083EA0501084305D0F3
:10260000101BAB4106D20122002306E000224FF04E
:10261000004302E06FF0010253101AEB06004CEB8E
:10262000085110EB0A0041EB0B01BDE8F04D00F042
:102630003DB9F0B4CA17CB0F50405140C61841F114
:1026400000054FEAC372314628004FF0960303D0CD
:10265000B623F0BC00F0FCB830460021F9E70EB517
:10266000C10F80EAE0700844CA07002140F23343FA
:102670008DE80E000A460B4600F027F903B000BDB6
:1026800010B500F0004420F00040C20DC0F3160069
:1026900040F400007F2A02DA0020014610BD00212C
:1026A000962A03DCC2F19602D04002E0963AFFF788
:1026B000D1FD002CF2D00023D0EB030063EB01012D
:1026C00010BD70B5C1F30A5201F000450024C1F3FA
:1026D000130140F2FF3341F480119A4201DA0020E5
:1026E00070BD40F233439A42A2F2334203DC5242BD
:1026F00000F095F800E090402C43F1D0404270BDCE
:1027000000F0004230F000400AD0C10D01F56071C8
:10271000C0F3160042EA0151C20840071143704756
:10272000002001467047000030B5041E71F100041E
:1027300004DB4FF00044404264EB0101141E73F1CE
:10274000000405DB1C464FF00043524263EB0403D8
:10275000994208BF904230BD01F0004330B421F0EF
:10276000004150EA010206D00A0DA2F56072C1F3E1
:102770001301002A02DC30BC00207047440F44EAF9
:10278000C104C100E01830BC00EBC25000F057B8E3
:1027900030B50B46014600202022012409E021FA31
:1027A00002F59D4205D303FA02F5491B04FA02F52E
:1027B0002844151EA2F10102F1DC30BD2DE9F05FC5
:1027C0000546002092469B468846064681464024A0
:1027D0001BE0284641464746224600F020F8534673
:1027E0005A46C01A914110D3114618462246FFF7A7
:1027F00031FD2D1A67EB01084F46224601200021CA
:10280000FFF728FD17EB00094E41201EA4F101043B
:10281000DFDC484631462A464346BDE8F09F202A81
:1028200004DB203A21FA02F00021704721FA02F37A
:10283000D040C2F120029140084319467047002958
:10284000A8BF7047401C490008BF20F00100704736
:1028500010B4B0FA80FC00FA0CF050EA010404BF96
:1028600010BC704749B1CCF1200421FA04F411FAEC
:102870000CF118BF012121430843A3EB0C01CB1D30
:102880004FEA00614FEA102042BF002010BC7047A1
:1028900000EBC35010440029A4BF10BC7047401C7B
:1028A000490008BF20F0010010BC704710B5141E8D
:1028B00073F1000408DA401C41F1000192185B41F9
:1028C0001A4301D120F0010010BD2DE9F04D9246D0
:1028D0009B4611B1B1FA81F202E0B0FA80F22032E7
:1028E0009046FFF7B7FC04460F4640EA0A0041EA6B
:1028F0000B0153465A46084313D0114653EA0100D0
:1029000019D0C8F140025046FFF789FF05460E4630
:10291000504659464246FFF79DFC084305D001202A
:1029200004E020463946BDE8F08D0020054346EA24
:10293000E0762C4337430A986305E40AA0EB0800CD
:102940000022FD0A44EA47540A3002D5002001461D
:10295000E9E7010510196941DDE9084500196941F8
:10296000BDE8F04DA2E7C1F30A52C1F3130140F2F2
:10297000FF3341F480119A4202DA00200146704789
:1029800040F233439A42A2F2334202DC5242FFF752
:1029900046BFFFF75FBC0000064C074D06E0E0684D
:1029A00040F0010394E8070098471034AC42F6D396
:1029B000FDF72AFCECA000000CA100002DE9F04F6F
:1029C00000258DB0DFF8A481A94605954FF48076E7
:1029D00001242F460695304605F0CAFA38B1D8F8DA
:1029E0000403204203D0304605F0B8FA2543361DD3
:1029F00064007F1CB6B2082FEDD34FF4BE7420469E
:102A000005F0B6FA48B1204605F0A8FA45F00045B1
:102A100005AA0221002005F08BFA554E15F0FF0F94
:102A200015D0012700242F420DD008EB8401D1F8E6
:102A30001005D1F81015C0F3052056F82420C1F375
:102A4000014102B190477F00641C082CEBD3002D9C
:102A50004DDA0020CDF82490411E4FF0010A0DF10F
:102A6000140B07ADCDF8289045F82010401C022823
:102A7000FAD300BF96F854704FF0000878B227F0F0
:102A8000C004401C33D007A9204604F0FDFA0028FA
:102A90002DD04FEA9719204601F092FD56F820708C
:102AA0001FB1B9F1030F03D00CE0B9F1030F1ED130
:102AB00009A8E10804F00702435C0AFA02FC43EAB1
:102AC0000C03435402A8029405F0FCF9029900EBB0
:102AD0008100D0F8000705A9C0F30140029020460C
:102AE00004F0D2FA0028029804D0022804D00DB0D5
:102AF000BDE8F08F0328FAD1B9F1030F08D102988D
:102B000002282CD00221204605F08FF94FF0010851
:102B100017B149462046B847B8F1000FE7D001AADF
:102B20000221002005F004FA00205A460DF10401AC
:102B300052F8204051F82030A34212D0002009ABB7
:102B400051F8204042F8204053F8204045F82040FA
:102B5000401C0228F4D3B8F1000F8BD1C7E7032142
:102B6000D1E7401C0228E3D3C1E700000060004029
:102B70005806002000F01F0201219140400980000A
:102B800000F1E020C0F88012704700F01F02012120
:102B900091404009800000F1E020C0F8001170472A
:102BA00000F01F02012191404009800000F1E02067
:102BB000C0F8001270474907090E002806DA00F035
:102BC0000F0000F1E02080F8141D704700F1E020B4
:102BD00080F80014704700002DE9F0414FF4807731
:102BE000384604F059FA0126284CB50748B1384652
:102BF00004F059FA0120C5F808036670002001F0BE
:102C0000E7FC4FF48277384604F046FA48B138467C
:102C100004F049FA0220C5F80803A670012001F06B
:102C2000D7FC4FF48876304604F036FA48B1304687
:102C300004F039FA1020C5F808031448143004F0E1
:102C40007BFB4FF48676304604F026FA00281BD032
:102C5000304604F028FA0820C5F8080304F058FBB1
:102C600094F82000042809D00020002184F82010C6
:102C7000E169002908D018B1032002E00120F4E73F
:102C80000220BDE8F0410847BDE8F08114060020AD
:102C900007480021C0F84011C0F84411C0F848119D
:102CA000C0F84C11C0F80011C0F8041105F09EBD29
:102CB000001001400149024803F006B9DC0500207C
:102CC0000030004005F004BD30B54FF080500022C8
:102CD000D0F830110123082902D1D0F8344114B1C1
:102CE000082909D00BE04FF08041C1F80C21C1F850
:102CF000102161490A6005E0D0F8344114B1082977
:102D000057D059E05D4909685D4C21605B49091D58
:102D10000968241D2160594908310968241D216072
:102D200056490C310968241D216054491031096845
:102D3000241D2160514914310968241D21604F4927
:102D4000183109684E4C203421604C491C31096807
:102D5000241D2160494920310968241D216047490B
:102D600024310968241D2160444928310968241D43
:102D7000216042492C310968241D21603F493031CE
:102D800009683F4C403421603C4934310968241DB6
:102D900021603A4938310968241D216037493C31A6
:102DA0000968241D2160354940310968241D2160CE
:102DB00005E0D0F8344114B1082904D006E0324CC3
:102DC0003049216005E0D0F8344114B1082904D01D
:102DD00006E02E4CFB21216005E0D0F8344114B10F
:102DE000082908D00EE090F858422948016864F399
:102DF0000301016002E0D0F8340118B925494FF40D
:102E0000007008602448016841F470010160BFF35C
:102E10004F8FBFF36F8F4FF01021D1F800020028C1
:102E200003DBD1F80402002822DA1C4C23601C4882
:102E30000368002BFCD01223C1F800320568002D76
:102E4000FCD0C1F8043201680029FCD0226001687E
:102E50000029FCD0BFF34F8F0F487C380168114A1E
:102E600001F4E06111430160BFF34F8F00BFFDE744
:102E70000E490D48086030BD3805004004040010BC
:102E800020C50040488103008C56004018F50040E2
:102E9000E40E00404096024088ED00E004E5014069
:102EA00000E401400400FA050090D00388000020EF
:102EB0000448017F04480029024901D005F079BF88
:102EC00005F0E8BE38060020002000400FB42DE9D0
:102ED000F0410446CAB0092C3ED2DFE804F00505F3
:102EE00005050505053D050053AA06A8529900F001
:102EF0004FF8051E31DD18216846FFF7F3F924204D
:102F00008DF8000001208DF801008DF802400D20A1
:102F10008DF815000A208DF8160000240DF1180810
:102F20006E4617E0281B122800DB1220C7B21221C0
:102F3000F01CFFF7D7F908EB04013A46F01CFFF745
:102F4000AAF9684605F076F9024606A1032005F0C5
:102F500011F91234AC42E5DB00204AB0BDE8F001C3
:102F60005DF814FB3A494E464F3A257300000000C5
:102F70000FB4054B10B503A9044A029800F020FDD8
:102F800010BC5DF814FB00001B4E00003800002050
:102F900037B514460846064B6A46214600F010FD38
:102FA00004466946002001F0A2F820463EBD00001C
:102FB000EF4000004100080218BF04200A0E18BFAD
:102FC00040F001004FF07F4232EA010108BF40F0BB
:102FD0000200012808BF05207047000010B510EE60
:102FE000104A4FF01A402DED028B00EB4400B0F177
:102FF000C85F4AD84FF0FC40B0EB440F22D2B0EE8D
:10300000C00AF7EE000A30EEC00AF6EE000A20EE23
:10301000208A18EE100A05F039FB00EE100A14F0B1
:10302000004F1DBF9FED281ADFED280AB1EE400AC0
:103030009FED271A08BFF0EE410AF8EE001A20EEC5
:10304000210A05E020EE008A9FED221ADFED220A18
:10305000DFED221A9FED222A70EEC00A20EE080A48
:1030600008EE212ADFED1F1A48EE021A9FED1E2AF4
:1030700008EE212ADFED1D1A48EE021ABDEC028B84
:1030800040EE610A30EE810A10BD4FF0CC40B0EB4B
:10309000440F82BF9FED160ABDEC028B10BD4FF0AE
:1030A0007F40B0EB440F05D2BDEC028BBDE8104071
:1030B00000F0D5BA012000F0BBFBBDEC028BBDE8EF
:1030C000104000F0D3BA00000000494022AA7D3A27
:1030D000000000000000C93F22AAFD3924FE1C3D6B
:1030E000C78AD83C1E67383D1B93993DAFAA2A3E3C
:1030F000DB0FC93F10EE100A10B510EE901A4FF01A
:10310000684202EB40032DED028BB3F1654F3CBFEB
:1031100002EB4102B2F1654F7CD200BFC0F3C7534E
:10312000C1F3C7529A1A1B2A09DD10F0004F14BFD1
:103130009FED6E0A9FED6E0ABDEC028B10BD12F181
:103140001A0F1BDA11F0004F09D010F0004F0CBF1E
:103150009FED680A9FED680ABDEC028B10BD80EE02
:10316000208A18EE100AFFF725FF042808BF00F098
:1031700085FAB0EE480ABDEC028B10BD4200B2EBFE
:10318000410F37D910F0004F19BFDFED5C1A9FEDEA
:103190005C1ADFED5C1A9FED5C1AB0EE602A0A46FD
:1031A000F1EE400A80F00041B0EE420A10460A1AE1
:1031B0005200B2F1807F34D2484010F0004FDFED72
:1031C000532A9FED533A1DBFBEEE002A71EEE21A5C
:1031D00031EE431AB6EE002A04BF71EEA21A31EEA8
:1031E000031AF0EE402A42EE602A40EE020A82EE16
:1031F000A02A18E011F0004F04BF9FED461AF0EE30
:10320000411AD4D010F0004F1CBFDFED431A9FEDE0
:10321000431A00E026E004BFDFED411A9FED411A9A
:10322000C5E780EE202A22EE020ADFED3F0ADFED3D
:103230003F2ABDEC028B40EE202ADFED3D0A40EE36
:10324000220ADFED3C2A40EE202ADFED3B0A40EE69
:10325000220A22EE000A00EE201A31EE020A30EEB7
:10326000210A10BD4FF07F42B2EB400F28BFB2EBF6
:10327000410F05D2BDEC028BBDE8104000F0F2B961
:1032800040EA01035B0008BF41F0FF410BD0B2EB05
:10329000400F08BFB2EB410F08D120F0804000EE94
:1032A000100A21F0804100EE901A37E7B2EB400F90
:1032B00012BF5FEA410240F0FF4001F000413FF4DD
:1032C0002DAF4A0092EA40033FF528AF002AACBF79
:1032D0009FED1A1A9FED1A1A20EE010A60EE810A7C
:1032E00010EE100A10EE901A18E70000DB0FC9BFAD
:1032F000DB0FC93FDB0F4940DB0F49C00000C9BFEE
:1033000022AAFDB90000C93F22AAFD390060ED3EA6
:10331000C30ACE3700000000000049C022AA7DBACF
:103320000000494022AA7D3A2DAD65BD8FB8D53D3C
:103330000FB511BE61C84C3EA8AAAABE0000804FBE
:103340000000802F10EE101A08B5444A6846B2EB10
:10335000410F28D94FF0E640B0EB410F94BF002059
:103360004FF0FF3000900098002861DB60EE000A0B
:1033700010F0010F45D010F0020FDFED391A9FED6C
:10338000391A00EEE11ADFED381A40EE811A21EE0B
:10339000A01AF0EE400A40EE010A08BFF1EE600A02
:1033A000B0EE600A08BD314B21F0004293423CD997
:1033B00011F0004FDFED2E0A20EE201ADFED2D0A6E
:1033C00019BF31EE601A71EE200A31EE201A71EE4B
:1033D000600ABDEEE01A11EE100A9FED271A00F008
:1033E000030000EEC10A9FED251A009000EEC10A0D
:1033F0009FED231A00EEC10A9FED221A00EEC10ACA
:10340000B1E79FED211A9FED210A10F0020F00EEA7
:10341000810A9FED1F1A00EE801AB7EE000A00EE37
:10342000810A18BFB1EE400A08BD00F02FF99AE7F3
:1034300010EE100A4000B0F17F4F3CBFB7EE000A1B
:1034400008BD07D14FF0010000F0F2F9BDE80840D7
:1034500000F00CB9BDE8084000F001B9B61F927E3B
:10346000336D4C39DA82083CA0AA2ABE490E49467F
:1034700083F9223F0000004B0000C93F00A0FD3946
:103480000020A2331A61342CB93AB2BACA9F2A3D3D
:10349000DDFFFFBE00B510EE101A2DED028B81B0DE
:1034A000524A6846B2EB410F2ED94FF0E640B0EBDE
:1034B000410F94BF00204FF0FF3000900098B0EE15
:1034C000408A00286ADB10F0010F4BD068EE080A32
:1034D0009FED471A9FED470A00EE810A9FED461ABD
:1034E00010F0020F00EE801AB7EE000A00EE810A1B
:1034F00002BF01B0BDEC028B00BD00BF01B0B1EE58
:10350000400ABDEC028B00BD3C4B21F000429342CF
:1035100041D911F0004FDFED3A0A20EE201ADFED1D
:10352000390A19BF31EE601A71EE200A31EE201A05
:1035300071EE600ABDEEE01A11EE100A9FED321A2C
:1035400000F0030000EEC10A9FED301A009000EE7B
:10355000C10A9FED2F1A00EEC10A9FED2E1A00EE50
:10356000C10AABE728EE080A9FED2B1ADFED2B0A04
:1035700010F0020F40EE410A9FED291A00EE201ACA
:1035800061EE000AB0EE480A08EE200AB6D101B09A
:10359000BDEC028B00BD00F079F88FE718EE100A41
:1035A0004000B0F17F4F0DD218EE100AFFF702FD78
:1035B000042808BF00F062F8B0EE480A01B0BDEC84
:1035C000028B00BD09D1012000F032F901B0BDEC41
:1035D000028B5DF804EB00F049B801B0B0EE480A88
:1035E000BDEC028B5DF804EB00F039B8B61F927E9B
:1035F000B93AB2BACA9F2A3DDDFFFFBE490E49461D
:1036000083F9223F0000004B0000C93F00A0FD39B4
:103610000020A2331A61342C336D4C39DA82083C15
:10362000A0AA2ABE10B52DED028BB1EEC08A18EE0D
:10363000100A20F00040C0F1FF40C00F0AD010EE89
:10364000100A20F00040C0F1FF40C00F04BF01206D
:1036500000F0EEF8B0EE480ABDEC028B10BD30EE83
:10366000000A704730EE200A70470000DFED020AC2
:1036700080EEA00A70470000000000009FED020AE3
:1036800020EE000A70470000000000102DE9F00154
:103690004FF07F42B2EB410F9FBF4FF0FF3101600F
:1036A000BDE8F00170474FF0004242EA0123C1F348
:1036B000C752783A551112F01F0C434CCCF120063A
:1036C0007C44C1F3C752A2F178024FEA621204EBC4
:1036D000820254F8254008BFD2E9015612D055683D
:1036E00004FA0CF425FA06F73C43976805FA0CF542
:1036F00027FA06F8D26807FA0CFCF24045EA0805FA
:103700004CEA0206A4FB034CA5FB0352A6FB036391
:103710001D449D4234BF012600261319334416B1BF
:10372000934202D903E0934201D2012200E0002239
:10373000624402F1200C9206DC0C42EA443200EEB4
:10374000102A5B03DFED210AF8EEC01A00EE103AF2
:103750004FEA9C1C11F0004FB8EE400AC0F800C0C0
:1037600020EE201A00EE105ADFED190AB8EE400ADA
:1037700020EE200A71EE810A70EE800A10EE902A87
:1037800002F500626FF30B0200EE902A70EEE11A70
:1037900031EEC11ADFED101A30EE411A9FED0D0A1D
:1037A00020EE800A01EE210A9FED0C1A00EE810A3C
:1037B00004BFBDE8F0017047CCF180510160BDE865
:1037C000F001B1EE400A7047A46600000000003628
:1037D0000000802C22AAFD29DB0FC92F0000C92F71
:1037E0000EB50092CDE901300B4603A20021062060
:1037F000FFF76CFB0EBD000025737C25737C2564F0
:103800002072657475726E696E672025640A000007
:1038100002E008C8121F08C1002AFAD17047704799
:10382000002001E001C1121F002AFBD170470000F7
:103830000149086070470000940000202DE9FF5FF7
:1038400082B00021DDE90430020DDDF840B0034311
:1038500018D044F61050A2F2FF32424315141198CA
:1038600001281FD0A5EB0B00401C5FEA000A4FF0B7
:1038700000064E4FDFF83891B046504615D5CAF1D4
:10388000000413E0119801244AA3012801D16FEA32
:103890000B010298119AC0E90031C0E9024206B05A
:1038A000BDE8F09FCBF10000DFE704460021404A6D
:1038B000491842EB0450CDE9001012E0E00707D0B0
:1038C00032463B4640464946FEF7D2FD8046894691
:1038D00032463B4610461946FEF7CAFD06460F46DD
:1038E0006410002CEAD1DDE90401DDE90023BAF11E
:1038F000000F06DAFEF7BCFD42464B46FEF7B8FD68
:1039000005E0FEF727FE42464B46FEF723FE04463F
:103910000E460022284BFEF707FF03D84FF0FF307A
:10392000014607E00022254B20463146FEF7F9FC10
:10393000FFF719F8102409E0002C0ADB0A22002303
:10394000FEF73CFF039B30321A55641E50EA010219
:10395000F2D1641C039AC4F111031444119A012A90
:1039600003D0012208430DD10AE0084304D000200F
:103970004FF0110B119072E7A3EB0B056D1E0DE0DC
:103980005B4504DD4FF0000205F1010504E003DAB8
:103990004FF00002A5F10105002AECD00298119920
:1039A000C0E90231C0E9004579E700000000144099
:1039B0000000F03F300000000000F0430000E03F56
:1039C0002DE9FF4F95B09B468946064600250FE23C
:1039D000252877D100242746F84A0121059400E0E4
:1039E000044316F8013F203B01FA03F01042F7D1DF
:1039F00030782A2811D06FF02F033078A0F13002F0
:103A0000092A16D8059A44F0020402EB820203EB5D
:103A100042021044761C0590EFE759F8042B0592FA
:103A2000002A03DA504244F40054059044F00204A2
:103A3000761C30782E2816D116F8010F44F00404B5
:103A40002A280DD06FF02F023078A0F13003092B17
:103A500009D807EB870302EB4303C718761CF3E78B
:103A600059F8047B761C30786C280FD006DC4C2883
:103A700017D068280DD06A2814D104E0742810D01B
:103A80007A280FD10DE044F400140AE044F48014C5
:103A900001E044F440147278824202D104F58014AB
:103AA000761C761C307866280BD013DC582877D02B
:103AB00009DC002875D04528F6D04628F4D04728E0
:103AC0001AD19DE118E0632835D0642879D06528A3
:103AD00012D195E1702873D008DC6728F1D06928ED
:103AE0006FD06E280DD06F2806D1B5E073282CD08A
:103AF000752875D0782874D05A46179990476D1C50
:103B000075E1C4F30250022809D003280DD0D9F87A
:103B1000001004280DD00D6009F1040967E1D9F8FF
:103B20000010EA17C1E90052F6E7D9F800100D803D
:103B3000F2E70D70F0E719F8041B8DF80010002073
:103B40008DF80100EA46012003E059F804AB4FF07C
:103B5000FF3061074FF0000102D40DE008F10101D0
:103B60008846B9420FDA8045F8DB1AF808100029B8
:103B7000F4D108E008F1010188468142FADB1AF825
:103B800008100029F6D105985B46A0EB08072146EE
:103B90003846179A00F094FA284400EB080507E02D
:103BA0004DE029E10DE01AF8010B5A4617999047AC
:103BB000B8F10108F7D25B4621463846179A13E15F
:103BC00042E00A220092C4F302524FF0000A022A95
:103BD00008D059F804CB032A4FEAEC710AD00DE063
:103BE00029E02AE009F1070121F00702F2E802C109
:103BF000914609E00FFA8CFC4FEAEC71042A03D1DC
:103C00004FFA8CFC4FEAEC71002907DA0A460021D2
:103C1000DCF1000C61EB02012D2202E0220504D54B
:103C20002B228DF80420012203E0E20701D020229C
:103C3000F7E7904659E00A2102E010220DE010213A
:103C40004FF0000A00910BE010224FF0000A44F000
:103C500004040827009203E008224FF0000A0092B3
:103C6000C4F30252022A05D059F804CB0021032ADA
:103C700008D009E009F1070121F00702F2E802C1CA
:103C8000914605E01FFA8CFC042A01D10CF0FF0CD0
:103C90004FF00008220728D5702806D0009B83F03B
:103CA000100353EA0A0305D00EE040228DF80420E9
:103CB000012208E05CEA010206D030228DF80420DF
:103CC0008DF8050002229046009B83F0080353EA1A
:103CD0000A030AD15CEA010201D1620705D530224C
:103CE0008DF804204FF001087F1E582804D034A01E
:103CF00003900EA802900DE036A0F9E75346604607
:103D0000009AFEF75BFD84460398825C0298401E91
:103D1000029002705CEA0100F0D1029806A9081A2C
:103D200000F1200A600702D524F4803400E0012766
:103D3000574502DDA7EB0A0000E0002000EB0A0176
:103D4000009005984144401A0590E00306D45B4674
:103D50002146179A059800F0B3F90544002706E0BC
:103D600001A85A46C05D179990476D1C7F1C4745B6
:103D7000F6DBE0030CD55B462146179A059800F068
:103D80009FF9054404E030205A46179990476D1C6E
:103D90000099481E00900029F5DC08E0029802997D
:103DA0005A460078491C0291179990476D1CBAF148
:103DB0000001AAF1010AF1DC65E100000928010017
:103DC0003031323334353637383961626364656691
:103DD0000000000030313233343536373839414253
:103DE000434445460000000000F058F90544761CA5
:103DF000307800287FF4ECAD19B02846BDE8F08F8C
:103E0000620700D4062709F1070222F0070CFCE83C
:103E10000223E14603F000485FEA080C02D00FF2EB
:103E2000702C0DE05FEA045C02D50FF2682C07E00D
:103E30005FEAC47C02D00FF2602C01E0AFF2700C9C
:103E40004FF0FF3823F00043CDF850C065280CD068
:103E500006DC452809D046281DD047283DD13DE045
:103E6000662818D067287ED138E00021112F01DBA9
:103E7000112000E0781CCDE9000106A90EA8FFF78B
:103E8000DDFCDDE90F010E9A03910021009207F19C
:103E9000010A04914DE04FF000400097CDE9011078
:103EA00006A90EA8FFF7CAFCDDE90F0203920E9BDC
:103EB00011990022DDF80CA00093049211B9791C2D
:103EC00000EB010AB7EB0A0004D4C0F1FF3007F1A0
:103ED000010A0490AAEB0700019044E0012F00DAE8
:103EE00001270021112F01DD112000E03846CDE926
:103EF000000106A90EA8FFF7A1FCDDE90F010E9A4B
:103F00000391002104910092BA4621070CD4039931
:103F1000514500DA8A46BAF1010F05DD009AAAF18F
:103F20000101515C302908D0B84202DA10F1040FC7
:103F300006DA0121CDE9011015E0AAF10101E9E756
:103F4000002805DC049901440491AAEB000102E079
:103F5000411C514500DD8A460499401A401C0190DD
:103F60004FF000400290200704D40198504501DB37
:103F7000CDF8048000208DF84F0002980DF14F0716
:103F8000B0F1004F25D02B200E9002984FF0020880
:103F900000280CDA404202902D200E9007E00A2102
:103FA0000298FEF7F5FB3031029007F8011DB8F1D9
:103FB0000001A8F10108F2DC02980028EFD1791E77
:103FC0000E980870307800F0200040F0450007F8A7
:103FD000020D12A8C01B00F107081498007800B168
:103FE000012000EB0A01019801EBE07105984144C2
:103FF000401A401E0590E00306D45B462146179AFE
:10400000059800F05DF805441498007818B15A46F8
:10401000179990476D1CE00324D55B462146179AFB
:10402000059800F04DF805441CE00498002807DBD3
:10403000DDE90301884203DD0098405C179901E047
:10404000179930205A469047049805F10105401C05
:1040500004900198401E019004D12E205A461799D1
:1040600090476D1CBAF10001AAF1010ADDDC05E000
:1040700017F8010B5A46179990476D1CB8F10001CB
:10408000A8F10108F4DC5B462146179A0598ABE6D7
:104090002D0000002B000000200000002DE9F04161
:1040A000044600251E461746880404D405E0394618
:1040B0002020B0476D1C641EF9D52846BDE8F0816C
:1040C0002DE9F041044600251E469046C80301D55F
:1040D000302700E02027880404D505E04146384613
:1040E000B0476D1C641EF9D52846BDE8F0810A680A
:1040F000531C0B6010707047704700000DA1012029
:1041000004F012F803F074FF03F076FF0028FBD1EF
:104110000CA1032004F008F8BFF34F8F104801688A
:10412000104A01F4E06111430160BFF34F8F00BFFB
:10413000FDE700003A4552524F523A466174616CB5
:104140000D0A00003A494E464F3A48697420776597
:10415000616B2068616E646C65720D0A000000007E
:104160000CED00E00400FA050EB500210091CDE948
:1041700001106A4644F20100FFF7C0FF0EBD10B502
:104180008268C368934203D000F034FE002010BD63
:10419000052010BD29B112B1531E134203D00920CE
:1041A00070470E2070470160838000218160C160EC
:1041B0000846704710B58268C3689A1A83889A4285
:1041C00003D800F021FE002010BD042010BD000027
:1041D000014800687047000004150140074B9B78B8
:1041E00023B12AB120B10068037C1BB108207047BD
:1041F000072070474174426100207047B0060020DC
:1042000070B504F0D1F81048002404210470447003
:104210000E4D817014206C602C706C70FEF7AAFC3F
:1042200000211420FEF7C7FC1420FEF7AEFC08485E
:10423000046000211120FEF7BEFC0548001F006845
:10424000A860002070BD0000B00600201000002013
:10425000081501402DE9F843DFF8709099F8023015
:104260005BB350B3052902D20720BDE8F883436948
:104270001BB3437C012B22D000270446002588462F
:104280001646284600F09EF8684604F00BFEC0B1C2
:10429000012101700E4944600968C0E90218C0E9B3
:1042A00004769DF8000089F80100002000F08CF8E9
:1042B0001420FEF775FC2846D7E70820D5E70F46FF
:1042C000DBE70425002000F07FF8F4E7B0060020CB
:1042D00004150140F0B5284E89B01F460D00044674
:1042E00072603BD0A888296882B22448FFF752FF49
:1042F000002834D1A889A96882B220481030FFF77D
:1043000049FF00282BD120221D496846FDF7C3FF35
:1043100060690690207C00B101208DF814008DF8B2
:104320001C70607C00B10E208DF81500E0680290D2
:10433000A068039020680190606800900E48114AC0
:104340006946083003F0FEFA002808D1B0702068F2
:10435000401C04D09DF81D0018B106E0072009B0EC
:10436000F0BD0548083003F079FB03490122491CE0
:10437000C81D03F01BFBF2E72400002014070020F7
:10438000708F0000E58B000010B501460B48FFF769
:1043900011FF040010D10A4803F0AAFC60B90849D3
:1043A00006480839FFF7EBFE30B905490122083904
:1043B000034803F017FC0446204610BD24070020E4
:1043C0002C00002000F002B800F008B872B60248D5
:1043D0000168491C016070473400002003490868E7
:1043E000401E086000D162B6704700003400002013
:1043F00070B5054608680C46411C04D003F07AFDF0
:10440000206803F008FD6068411C02D0002103F021
:10441000F9FC28791F4901EB40102968007F00282A
:10442000A069C1F8240523D0607D227D296810434E
:10443000C1F86C05D4E900122868C0F80C15C0F862
:10444000142522E0A068411C02D0002103F0DAFC10
:10445000E068411C04D003F04DFDE06803F0DBFC94
:10446000D4E902122868C0F80825C0F8101570BDFC
:10447000607D217D2A680843C2F86C05D4E90012EA
:104480002868C0F81425C0F80C15207D0128D9D063
:1044900070BD0000380600200249085C012103F0CD
:1044A00033BD00001C8F00007CB50024084E25465B
:1044B0000122305D009500231146019503F04EFC6A
:1044C000641C042CF4D3BDE87C4000F003B8000069
:1044D0001C8F000010B500242046FFF7DDFF641C90
:1044E000042CF9D310BD000070B5461C0D46012404
:1044F0000020FFF767FF114A10682860D2E900101A
:104500009568081A2B1A701C5B1C98420FD963B16E
:104510000B480C4B294000681B6802EB810163F3D8
:104520009F20C8601068401C1060002401E08819BA
:1045300010600020FFF748FF204670BD34070020C0
:10454000B490000048000020034803C8814201D114
:1045500001207047002070473407002005494FF0C4
:10456000FF32082841F8202002D3084480F84C206C
:104570007047000058060020F0B54FF0FF3512B12B
:104580000023082601E0082309260C4C05E000BFA3
:1045900054F823707F1C04D05B1CB342F8D3284628
:1045A000F0BD26185DB286F8245044F82310002A86
:1045B000F5D1E11881F84C00F1E700005806002021
:1045C0000249084490F92400704700005806002072
:1045D00070B5084C050009D010342168002907D0B7
:1045E00008682060496828468847F6E70834F4E7F9
:1045F00070BD0000140600202DE9F05F26484168D8
:10460000F1B3DFF898B00E688146DBF800408768A8
:104610008078E11B21F07F45ED1CB0B9DFF8808088
:104620004FF48030C8F84403C8F804031120FEF7A3
:10463000A1FA1120FEF7A9FA4FF0010AC8F800A06C
:104640002F2002F0D9FD89F802A0B54200D23546EC
:10465000124BE8193C3320F07F401860DBF8001063
:104660005A46091B21F07F41001B20F07F40C91CE6
:1046700081420FD9106818602F2002F0BDFD00E0C4
:1046800004E0BDE8F05F1120FEF78ABABDE8F05FF4
:1046900003F08ABEBDE8F09F100000200415014021
:1046A000001001402DE9F0410025441C17460E463C
:1046B0002846FFF787FE174801683960836801685C
:1046C00001EA03029A1A521C944208D84A1C1A4062
:1046D00021440160002100EB820531600AE0476857
:1046E0001F40A74207D90B19511E1944521E0160E1
:1046F000084D32600C35D0E900128068891A401AE2
:10470000401C00D100250020FFF75EFE2846BDE8D2
:10471000F08100003407002008B560B120208DF83A
:10472000000028208DF8010030208DF8020038208C
:104730008DF8030004E0A32204216846FDF7CBFDB9
:104740006A46042140F69E2002F068FC02F0ACF8B4
:1047500008BD00003EB5044602208DF80000CA20C6
:104760008DF80100E3208DF8020009208DF8030088
:104770006A460421682002F051FCA3208DF8000055
:10478000610609D5C0218DF80110C8218DF80210ED
:10479000C2218DF8031005E08DF801008DF80200AC
:1047A0008DF8030014F4C07F09D0C4218DF80410E3
:1047B000CC218DF80510C6218DF8061005E08DF886
:1047C00004008DF805008DF806008DF808008DF8BE
:1047D00007008DF809006A460A2140F6A72002F07A
:1047E0001DFCA0074FF0D80503D020208DF8000055
:1047F00001E08DF800506A46012140F6B62002F033
:104800000DFCA00601D5012000E0002000F08EF88C
:1048100014F4C07F1ED0E0050AD5B2208DF8000048
:104820008B208DF80100B6208DF802009B2009E056
:10483000B0208DF8000080208DF80100B4208DF8A4
:10484000020090208DF803006A46042140F6A22061
:1048500002F0E4FBE1074FF40B6022D0F8218DF861
:1048600000106A46012102F0D9FBFA21072000F06E
:10487000D1F9072000F09CF9012000F0B9F964207B
:1048800000F078FA4FF4FA7000F084FAC821254855
:1048900000F056F9282000F06BF90A2000F078F9B2
:1048A00005E08DF800506A46012102F0B7FBA00731
:1048B00003D5D9208DF8000001E08DF800506A463C
:1048C000012140F23D7002F0A9FB600701D50120F3
:1048D00000E0002000F048F8E00601D5012000E0EB
:1048E0000020FFF719FF104D44F00800688101F027
:1048F000DBFF0020A873600601D50620A87314F41E
:10490000C07F02D0A87B801DA87314F0140F02D0C2
:10491000A87B1030A873A00702D0A87B001DA87345
:1049200000203EBD09E3CA02981000200EB54FF4E6
:10493000976310B106A107C901E008A207CA8DE874
:1049400007006A460921184602F068FB0EBD000008
:10495000B8AAB38DB4980D355D000000B8AAAAAA14
:10496000B088C3C5C700000008B560B1C0208DF88D
:104970000000C2208DF80100C4208DF80200C6207E
:104980008DF8030004E08B2204216846FDF7A3FCA8
:104990006A46042140F6982002F040FB01F084FFB3
:1049A00008BD0000C8234FF48062024940F6F6308B
:1049B00001F04EBE07910000014948600020704799
:1049C00098100020014908600020704798100020CE
:1049D00030B5044613A285B007CA8DE807004FF032
:1049E000FF35C82C16D8C820B0FBF4F1491E080AC0
:1049F0008DF80C008DF80D1003AA022140F216204C
:104A000002F00CFB30B96A460C2140F6C12002F0DE
:104A100005FB10B1284605B030BD05488481002053
:104A2000F9E70000FEF2ABC4AAF1DFDFBBAFDFDFC6
:104A3000981000202DE9FF4104463CA004F0030338
:104A4000006802903AA0006803903AA006683AA075
:104A5000056802A8C15C8DF80010C4F3C101425C76
:104A60008DF80120C4F38112805C8DF8020003A848
:104A7000C35C8DF80430415C8DF80510805C8DF8C6
:104A800006006A46032140F2264002F0C7FA4FF0C2
:104A9000FF37E0BB01AA032140F22A4002F0BEFA30
:104AA000A8BBCDE9006560070BD59DF8000040F07C
:104AB00001008DF800009DF8040040F001008DF821
:104AC0000400A0060BD59DF8010040F001008DF810
:104AD00001009DF8050040F001008DF80500E0059B
:104AE0000BD59DF8020040F001008DF802009DF802
:104AF000060040F001008DF806006A4603214FF4DD
:104B0000886002F08BFA10B901AA032100E004E0EA
:104B100040F2314002F082FA18B1384604B0BDE8E4
:104B2000F081064804810020F8E700004CCD6C00BD
:104B30000CC92C00365676002646660098100020D8
:104B40004FF47A7290FBF2F008B54843010E8DF8ED
:104B50000010010C8DF80110010A8DF802108DF87B
:104B600003006A4604214FF4AE7002F057FA08BD04
:104B70000521B0FBF1F008B5010A8DF800108DF8A1
:104B800001006A4602214FF4AD7002F047FA08BDF9
:104B90000521B0FBF1F008B5010A8DF800108DF881
:104BA00001006A4602214FF4AC7002F037FA08BDEA
:104BB00008B500218DF80010C10702D030218DF812
:104BC0000010810705D59DF8001041F00C018DF80B
:104BD0000010400705D59DF8000040F003008DF857
:104BE00000006A4601214FF4A47002F017FA08BDD4
:104BF00008B560B1042800D90420401E8DF80000DB
:104C00006A46012140F24F1002F008FA08BD012067
:104C1000F3E7000070B504462DED028B82B040072B
:104C20004FF0FF357ED0B1F5C86F7BD800EE101A7B
:104C3000B8EE400ADFED460A01A880EE208A01F0B6
:104C400067FC9DF80400022806D0042810D008282C
:104C500035D0102874D13EE09FED3E0A28EE000AC0
:104C6000BCEEC00A10EE100A9FED3B0A82B20AE0C9
:104C70009FED3A0A28EE000ABCEEC00A10EE100AB8
:104C80009FED370A82B228EE000A6E46BCEEC00ADB
:104C900010EE100A81B2100A8DF800008DF8012084
:104CA000080A8DF802008DF80310E00726D032467E
:104CB00002214FF4EA7002F0B1F998BB17E09FEDC2
:104CC000290A28EE000ABCEEC00A10EE100A9FED79
:104CD000260A82B2D7E79FED250A28EE000ABCEE2D
:104CE000C00A10EE100A9FED220A82B2CBE7B21C76
:104CF00002214FF4927002F091F998B9A0070DD5F6
:104D00006A4602214FF4EC7002F088F950B9B21CE7
:104D100002214FF4947002F081F918B9600714D59C
:104D20006A4600E00CE002214FF4EE7002F076F9E2
:104D300030B9B21C02214FF4967002F06FF920B125
:104D4000284602B0BDEC028B70BD0020F9E70000E0
:104D50000000484300008046000040460000004636
:104D60000000C045000080450000404500000045AF
:104D70000000C0440521B0FBF1F008B5010A8DF830
:104D800000108DF801006A4602214FF4EF7002F026
:104D900045F908BD0521B0FBF1F008B5010A8DF811
:104DA00000108DF801006A4602214FF4ED7002F008
:104DB00035F908BD0E4910B50A784C780023A24297
:104DC00012D0521CD2B20A70022A00D10B70084ACB
:104DD0000B780C3252F8232002608868104420F0CF
:104DE0007F408860012010BD0360002010BD0000DE
:104DF00010000020826883881A4003689A5C0A7059
:104E00008168491C81607047C26883881A400368C2
:104E10009954C168491CC160704710B50446C0B2BE
:104E2000FFF7B2FA204610BD10B5002821D0114B73
:104E30000022001F196803E0814203D80A4649682E
:104E40000029F9D152B11368841A9C4204D1006838
:104E500018441060104602E0506000E0186039B15C
:104E600002680B1A934203D10B681A440260496826
:104E7000416010BD8C00002001490120087170477D
:104E8000B8000020054910B501200860012002F09B
:104E900013F90028FAD10249487010BD04000040FF
:104EA000140600202DE9F8438046994614460F4623
:104EB00042F21076501C01F0B7FA054600F8017B6B
:104EC00022464946FDF7E7F90027641CE3B22A466B
:104ED00041460E48009702F011FD040003D00CA0DB
:104EE000FEF746F804E00F48017839B146B1077083
:104EF0002846FFF799FF2046BDE8F883761EF3D1D8
:104F00002846FFF791FF0D20F6E70000048F000010
:104F1000777269746520636F6D706C657465642168
:104F2000000000000D00002070B50E460446007918
:104F300018494FF4A27501EB4010017F2068A1B120
:104F40004FF4887103F0EDF94FF49071206803F08D
:104F5000E8F94FF49271206803F0E3F929462068DC
:104F600003F0DFF90C49206809E04FF48E7103F07B
:104F7000C7F92946206803F0C3F908492068C0F83A
:104F80000413206802F081FA3146BDE8704002F057
:104F900060BA000038060020100302008000020002
:104FA0003EB50446B0F904000D46C0030090B4F9C4
:104FB000060004F10C03C0030190B4F908006A462E
:104FC000C0030290606A4100208880B200F074F84B
:104FD0000098296804F11803A0EB61000090019883
:104FE00069686A46A0EB610001900298A968A0EB8D
:104FF00061000290606A4100208880B200F05CF895
:10500000206B40F0200020633EBD000030B591B021
:105010000446002000900B4615468968606800F041
:105020001CFB02465968A06800F017FB101A01909B
:105030001968A06800F011FB02469968206800F02A
:105040000CFB101A02905968206800F006FB02461B
:105050001968606800F001FB101A039008AA6946FD
:10506000284600F056FB0CA9284600F02FFB04AAA6
:105070000CA908A800F04DFB069808B9059898B14E
:105080009DED050A9FED0A1AB8EEC00A60EE010A0E
:105090009DED060AB8EEC00A20EE010AFEF72AF8D6
:1050A000B1EE400A11B030BD9FED020AFAE70000F0
:1050B000000080300000000070B5044600F00300DE
:1050C0000E4652F8200061074FF0FF3501D5294602
:1050D00000E001214843314600F0BFFA1860C4F3F4
:1050E000C100A10652F8200001D5294600E00121A7
:1050F0004843314600F0B1FA5860C4F38110E1052D
:1051000052F8200000D401256843314600F0A5FA8A
:10511000986070BD10B5014648220C48FDF7BBF8F9
:105120000A49F43901F5A070D1F830214263D1F871
:1051300034218267D1F83811C0F8BC10032902D19C
:10514000012000F0B3FD002010BD0000400C002045
:1051500010B548220249FDF79EF8002010BD00005E
:10516000400C002010B528210348FDF7BBF8BDE82E
:105170001040024800F03CBDA8100020A15D0000D6
:1051800010B500F025FA002804D1BDE8104002480F
:1051900000F02EBD10BD0000FD5D000070B50025C3
:1051A0002C46084E08E000BF06EB840040688047AC
:1051B00008B105B90546641C3068A042F4DC2846F5
:1051C00070BD0000AC0E00202DE9F041264A0446D7
:1051D000A2F114014FF47A75A1F1100000F066F904
:1051E0002149206B2439C7054861636F8B61D4F86E
:1051F000B820CA6101D5E56A0026DF0504D5276F0E
:10520000AF4201DA3D460126D70505D5D4F8B47082
:10521000AF4201DA3D460226D4F820715FEAC75C4E
:1052200003D5D4F82CC1AC4518DB012E08D0022ED2
:105230000ED0032E12D0C0F380100862A06B03E0E2
:10524000C3F380100862E06F48620020BDE8F0817F
:10525000C2F380100862D4F8C000F5E7C7F38010ED
:105260000862D4F82401EFE7CC1000200249C1F80D
:105270008000002070470000240E002010B5034C71
:105280001ECC80E81E00002010BD0000340E00205F
:105290000148006D70470000240E00200148806F17
:1052A000704700008C0C00200248B0F87400C0F376
:1052B000002070478C0C002030B518B1074D38CD58
:1052C00080E8380005485C380AB1C36F13600029D4
:1052D00002D090F87800087030BD0000E80C002083
:1052E00070B5044A02F1400378CB80E87800106A78
:1052F000086070BD240E00200248B0F8B800C0F36A
:10530000002070478C0C002070B5134C0546E168F6
:10531000606800F09CF906462168A06800F097F9E3
:10532000301A2860D4E9020100F091F90646D4E968
:10533000001000F08CF930446860E068014600F02D
:1053400086F906462068014600F081F93044A0F154
:105350008040A860002070BD240E0020024B0ECBC0
:1053600080E80E0070470000A40C00200148406B4C
:10537000704700008C0C002010B518B1054C1CCCF7
:1053800080E81C00002903D00348D0F80C01086015
:1053900010BD00004C0C00204C0B00200248008E79
:1053A000C0F30020704700008C0C00200346002052
:1053B0004FEA000153F82120491C521302FB02005E
:1053C0000329F7DB7047000010490020B1F8742072
:1053D000D20500D5C86F0A8ED20503D58A6B8242EA
:1053E00000D91046B1F8B820D20504D5D1F8C020B4
:1053F000824200D91046B1F8FC20D20504D5D1F87C
:105400000411814200D90846704700008C0C00202E
:105410003EB5040017D000221146FFF74DFF684645
:10542000FFF772FF20680099A0EBA1302060606850
:105430000199A0EBA1306060A0680299A0EBA130B7
:10544000A06000203EBD05203EBD0000024B0ECBFB
:1054500080E80E00704700004C0E00200448D0F891
:105460003C0108B1002070470248D0F8BC007047EA
:105470004C0B00208C0C002070B50B4C054694F8AA
:105480007C0080070AD0224602F1100101F13000B1
:1054900000F03FF9E06F20F00300E06794E80F00B0
:1054A00085E80F00002070BD240E002070B5154661
:1054B0000C46FFF7E1FFFFF787FF2860FFF71CFFAF
:1054C00010B1FFF7CBFF04E0FFF768FF18B1FFF75B
:1054D0004DFF206070BDFFF7E7FE0028F9D0FFF711
:1054E000DDFEF6E7F0B5054B93E8F00080E8F0004C
:1054F000187C0870586A1060186AF0BDA810002067
:105500000148006F70470000240E002010B54FF4D2
:10551000A0710948FCF7E6FE4FF4CC710748FCF790
:10552000E1FE00F075FBBDE810404DF29303482208
:105530000349044800F026BB4C0B00208C0C0020D3
:10554000515100001551000010B500F063F800F053
:1055500057F850B100F054F82223134A13A1FEF774
:105560003FF9BDE8104000F04BB8FFF7CFFF50B156
:10557000FFF7CCFF25230C4A0CA1FEF731F9BDE85B
:105580001040FFF7C3BFFFF7FBFD00280AD0FFF76D
:10559000F7FD2723044A05A1FEF722F9BDE81040D4
:1055A000FFF7EEBD10BD0000EC9000002E2E5C2E2B
:1055B0002E5C2E2E5C654D442D362E305C636F7252
:1055C000655C6D6C6C6974655C6D706C2E6300005D
:1055D00010B588210848FCF785FE07484FF0804148
:1055E0009FED060A41638163C1630164016101604B
:1055F00080ED210A002010BD240E0020DB0F494061
:1056000010B554210248FCF76DFE002010BD0000CB
:10561000AC0E002010B54FF4CC710348FCF762FECD
:1056200001490C20486010BD000F002070B50446F1
:1056300000F018FB0546E01C00F014FB45EAC0052D
:10564000A01D00F00FFB45EA801080B270BD80FB0A
:105650000101400F40EAC100704780FB0101800F4B
:1056600040EA8100704710B503680C68234413605A
:1056700043684C682344536083688C682344936078
:10568000C068C9680844D06010BD90ED000AD1ED33
:10569000000A30EE200A82ED000A90ED010AD1EDF9
:1056A000010A30EE200A82ED010A90ED020AD1EDE6
:1056B000020A30EE200A82ED020A90ED030AD1EDD3
:1056C000030A30EE200A82ED030A704702680A607E
:1056D000426852424A60826852428A60C0684042D0
:1056E000C860704790ED000A81ED000A90ED010A54
:1056F000B1EE400A81ED010A90ED020AB1EE400AD6
:1057000081ED020A90ED030AB1EE400A81ED030A31
:10571000704730B50B46044609680068FFF79DFFE7
:10572000054659686068FFF798FF2D1A9968A068C8
:10573000FFF793FF2D1AD968E068FFF78EFF281A4C
:10574000106059682068FFF788FF0546196860688F
:10575000FFF783FF0544D968A068FFF77EFF054483
:105760009968E068FFF779FF281A50609968206807
:10577000FFF773FF0546D9686068FFF76EFF2D1AC3
:105780001968A068FFF769FF05445968E068FFF7EA
:1057900064FF28449060D9682068FFF75EFF0546E3
:1057A00099686068FFF759FF05445968A068FFF7DA
:1057B00054FF2D1A1968E068FFF74FFF2844D060A6
:1057C00030BD90ED000AD1ED000A91ED011A20EEF6
:1057D000200AD0ED010A00EEC10AD0ED020A91EDD7
:1057E000021A00EEC10AD0ED030A91ED031A00EE91
:1057F000C10A82ED000A90ED000AD1ED010A91ED97
:10580000001A20EE200AD0ED010A00EE810AD0ED48
:10581000020A91ED031A00EE810AD0ED030A91ED20
:10582000021A00EEC10A82ED010A90ED000AD1EDE4
:10583000020A91ED031A20EE200AD0ED010A00EED3
:10584000C10AD0ED020A91ED001A00EE810AD0EDF6
:10585000030A91ED011A00EE810A82ED020A90ED31
:10586000000AD1ED030A91ED021A20EE200AD0EDD4
:10587000010A00EE810AD0ED020A91ED011A00EE54
:10588000C10AD0ED030A91ED001A00EE810A82ED03
:10589000030A704710B590ED000AD0ED010A0446E6
:1058A00020EE000A00EEA00AD0ED020A00EEA00AE7
:1058B000D0ED030A00EEA00AFDF7B4FEB5EEC00A73
:1058C000F1EE10FA18D0D4ED000A80EE801A84EDC3
:1058D000001AD4ED010A80EE801A84ED011AD4ED8D
:1058E000020A80EE801A84ED021AD4ED030A80EEDB
:1058F000801A84ED031A10BDB7EE000A84ED000A89
:105900009FED040A84ED010A84ED020A84ED030A86
:1059100010BD00000000000090ED003A90ED012A5B
:10592000D0ED021A63EE030AD0ED032A9FED250A9B
:1059300042EE020A41EEA10A42EEA20A10EE901ACD
:10594000B1F1804F32DAB6EE000A20EE801AB7EEDF
:10595000080AF0EE403A21EE204A44EE603A63EE47
:10596000A00AF0EE403A21EE204A44EE603A63EE9F
:10597000A00AF0EE403A21EE204A44EE603A63EE8F
:10598000A00A21EE201A01EE600A20EE200A63EE42
:10599000000AC0ED000A62EE000AC0ED010A61EEE5
:1059A000800A22EE800AC0ED020A07E0F7EE000A44
:1059B000C0ED000A80ED010A80ED020A80ED030AC5
:1059C000704700000000000030B590B00546002090
:1059D0001446009007C901AB83E8070008AA69468E
:1059E0002846FFF796FE0CA92846FFF76FFE04AA8B
:1059F0000CA908A8FFF78DFE05AB93E8070084E823
:105A0000070010B030BD10B5024640680B46014695
:105A1000FFF71DFE044610680146FFF718FE2044FC
:105A2000A0F180401860D2E90101FFF710FE0446A2
:105A30001168D068FFF70BFE201A5860D1685068D3
:105A4000FFF705FE044611689068FFF700FE20444A
:105A50009860D2E90101FFF7FAFD04461168D068A9
:105A6000FFF7F5FD2044D86090680146FFF7EFFD91
:105A7000044610680146FFF7EAFD2044A0F180408B
:105A80001861D2E90201FFF7E2FD0446D2E90010F5
:105A9000FFF7DDFD201A5861D1685068FFF7D7FD88
:105AA000044611689068FFF7D2FD201A9861D2E988
:105AB0000201FFF7CCFD0446D2E90010FFF7C7FD55
:105AC0002044D861D0680146FFF7C1FD0446106844
:105AD0000146FFF7BCFD2044A0F18040186210BDD4
