:020000040000FA
:10000000C86C0020150200001D0200001F02000045
:100010002102000023020000250200000000000071
:1000200000000000000000000000000027020000A7
:1000300029020000000000002B0200002D02000039
:10004000615E00002F020000396100003D5F00008A
:100050002F0200002F020000455C00002F0200006C
:100060002F0200002F0200002F0200002F020000CC
:100070002F0200002F0200002F0200002F020000BC
:100080002F020000195F00002F0200002F02000065
:100090004D5F00002F0200002F0200002F02000021
:1000A0002F0200002F0200002F0200002F0200008C
:1000B0002F0200002F0200000000000000000000DE
:1000C0002F0200002F0200002F0200002F0200006C
:1000D0002F0200002F0200002F0200002F0200005C
:1000E0002F0200002F0200002F0200002F0200004C
:1000F000000000002F0200000000000000000000CF
:1001000000000000000000000000000000000000EF
:1001100000000000000000000000000000000000DF
:1001200000000000000000000000000000000000CF
:1001300000000000000000000000000000000000BF
:1001400000000000000000000000000000000000AF
:10015000000000000000000000000000000000009F
:10016000000000000000000000000000000000008F
:10017000000000000000000000000000000000007F
:10018000000000000000000000000000000000006F
:10019000000000000000000000000000000000005F
:1001A000000000000000000000000000000000004F
:1001B000000000000000000000000000000000003F
:1001C000000000000000000000000000000000002F
:1001D000000000000000000000000000000000001F
:1001E000000000000000000000000000000000000F
:1001F00000000000000000000000000000000000FF
:10020000DFF80CD005F0FEFC004800471DB80000E8
:10021000C86C00200648804706480047FEE7FEE716
:10022000FEE7FEE7FEE7FEE7FEE7FEE7FEE7FEE7A6
:10023000515F000001020000FE4880ED3A0A70475D
:100240002DE9F047DFF8EC9300262DED0A8B0446EC
:10025000B0EE408AF0EE608A884635463746D9F8D7
:10026000AC0005F0CBFA53EC182B05F02BFB6FD349
:10027000D9F8B00005F0C2FA53EC182B05F03AFBA0
:10028000F5D3B4F90000B4F90610401A05F0B6FA37
:1002900053EC182B05F016FB00D20126B4F90E0022
:1002A000B4F91410401A05F0A9FA53EC182B05F014
:1002B00009FB00D2761CB4F91C00B4F92210401AD4
:1002C00005F09CFA53EC182B05F0FCFA00D2761CD2
:1002D0009FEDD90B012E3BDC53EC102B51EC180B8E
:1002E00005F095F98946064649EC180BB4F900006B
:1002F000B4F90610401A05F081FA53EC182B05F0FA
:10030000F9FA00D20125B4F90E00B4F9141049EC41
:10031000186B401A05F072FA53EC182B05F0EAFA44
:1003200000D26D1CB4F91C00B4F9221049EC186B12
:10033000401A05F063FA53EC182B05F0DBFA00D2F3
:100340006D1C002D05DD0220BDEC0A8BBDE8F08799
:1003500065E000269FEDBACB06EB460904EB890564
:10036000B5F90A0005F04AFA98ED048B53EC182B06
:1003700005F047F941EC190BB5F9040005F03EFA18
:1003800053EC182B05F03DF953EC192B05F03FF910
:1003900041EC190BB5F9080005F030FA98ED028B25
:1003A00053EC182B05F02DF941EC1A0BB5F90200AE
:1003B00005F024FA53EC182B05F023F953EC1A2B13
:1003C00005F025F941EC1A0BB5F9060005F016FA0F
:1003D00098ED008B53EC182B05F013F941EC1B0B37
:1003E00034F9290005F00AFA53EC182B05F009F945
:1003F00053EC1B2B05F00BF953EC1A2B05F060F8AE
:1004000053EC192B05F05CF853EC1C2B05F05AFA51
:1004100000D27F1C761C032E9EDB022F01DA012006
:1004200092E7002090E788490A684B68D00180EA8B
:10043000D20080EA031048608B68520380EAC3034D
:1004400082EA5312520282EAD0208B600860704721
:1004500010B52DED048BF0EE408AFFF7E4FF00EEBF
:10046000100AB8EE400ADFED790A20EE200A9FED6F
:10047000789A20EE090A06F03FF9B0EE408AFFF7BD
:10048000D2FF00EE100AB8EE400A20EE090AB5EEDF
:10049000C00AF1EE10FA01D1B7EE000A10EE100A10
:1004A00005F0FDF941EC100B06F0DAF99FED691B40
:1004B00051EC100B53EC112B05F0A9F805F032FAB2
:1004C00000EE100A06F0B3FC20EE280A20EE080A1F
:1004D000BDEC048B10BD2DE9F04105462DED048BDC
:1004E000B0EE608AF0EE408A0F4618EE100A05F072
:1004F000D6F997ED301B53EC112B05F088F841EC41
:10050000190B18EE900A05F0CAF995ED301B53EC63
:10051000112B05F07CF853EC192B04F0D1FF0024CB
:10052000C5E9300118EE100A05F0B9F907EBC40867
:1005300098ED001B53EC112B05F069F841EC190BF9
:1005400018EE900A05F0ABF905EBC40696ED001B1A
:1005500053EC112B05F05BF853EC192B04F0B0FFB2
:10056000C6E9000118EE100A05F099F998ED241B70
:1005700053EC112B05F04BF841EC190B18EE900AD7
:1005800005F08DF996ED241B53EC112B05F03FF887
:1005900053EC192B04F094FF641CC6E92401062CCB
:1005A000C0DB002418EE100A05F079F941EC100BBD
:1005B00007EBC40090ED121B51EC100B53EC112B08
:1005C00005F025F841EC190B18EE900A05F067F9D3
:1005D00005EBC40696ED121B53EC112B05F017F832
:1005E00053EC192B04F06CFF641CC6E91201092CB2
:1005F000D8DB002418EE100A05F051F941EC100B7D
:1006000007EBC40090ED0C1B51EC100B53EC112BBD
:1006100004F0FDFF41EC190B18EE900A05F03FF9CC
:1006200005EBC40696ED0C1B53EC112B04F0EFFF09
:1006300014E00000682100200000000000000440D9
:10064000000000000000000094000020DB0FC94003
:100650000000802F00000000000000C053EC192BA8
:1006600004F02EFF641CC6E90C01032CC2DBBDECB8
:10067000048BBDE8F0812DE9F04F04462DED068B8B
:1006800083B00D46086805F0B9F841EC1A0B6868AC
:1006900005F0B4F841EC190BA86805F0AFF841EC8F
:1006A000180B94ED300B9FEDFE1B51EC100B53EC2F
:1006B000112B04F005FFC4E9300194ED0C0B53EC51
:1006C0001A2B51EC100B04F0FBFEC4E90C0194ED65
:1006D0000E0B53EC192B51EC100B04F0F1FEC4E996
:1006E0000E0194ED100B53EC182B51EC100B04F091
:1006F000E7FEC4E9100153EC1A2B51EC1A0B04F07D
:1007000086FF029194ED001B064653EC112B04F07A
:10071000D7FEC4E9000153EC192B51EC1A0B04F07D
:1007200076FF894649EC100B94ED021B054653EC0D
:10073000112B51EC100B04F0C3FEC4E9020153EC81
:10074000182B51EC1A0B04F062FF8B464BEC100B8C
:1007500094ED041B804653EC112B51EC100B04F06C
:10076000AFFEC4E9040153EC192B51EC190B04F052
:100770004EFF019194ED061B074653EC112B04F03C
:100780009FFEC4E9060153EC182B51EC190B04F041
:100790003EFF009194ED081B824653EC112B04F0B0
:1007A0008FFEC4E9080153EC182B51EC180B04F030
:1007B0002EFF94ED0A1B53EC112B04F081FEC4E9CB
:1007C0000A01029953EC1A2B41EC106B51EC100BFF
:1007D00004F01DFF94ED121B53EC112B04F070FE7E
:1007E00049EC105BC4E9120153EC192B51EC100BCE
:1007F00004F00DFF94ED141B53EC112B04F060FE7C
:100800004BEC108BC4E9140153EC182B51EC100B7A
:1008100004F0FDFE94ED161B53EC112B04F050FE7A
:1008200049EC105BC4E9160153EC1A2B51EC100B88
:1008300004F0EDFE94ED181B53EC112B04F040FE78
:10084000C4E91801019953EC192B41EC107B51ECD0
:10085000100B04F0DCFE94ED1A1B53EC112B04F08A
:100860002FFEC4E91A010099554641EC10AB0E4623
:1008700053EC182B51EC100B04F0C9FE94ED1C1B2B
:1008800053EC112B04F01CFEC4E91C0153EC1A2B91
:1008900051EC180B04F0BBFE53EC1A2B04F0B7FE1E
:1008A00094ED1E1B53EC112B04F00AFE46EC105B7A
:1008B000C4E91E0153EC192B51EC100B04F0A7FEF8
:1008C00094ED201B53EC112B04F0FAFDC4E9200138
:1008D00053EC182B51EC180B04F099FE894649ECA7
:1008E000100B074653EC182B51EC100B04F08FFE45
:1008F00094ED221B53EC112B04F0E2FDC4E922011C
:1009000053EC1A2B51EC1A0B04F081FE884648EC8C
:10091000100B054653EC1A2B51EC100B04F077FE2C
:1009200053EC1A2B04F073FE94ED241B53EC112BA3
:1009300004F0C6FDC4E9240153EC192B51EC190B4A
:1009400004F065FE8A464AEC100B064653EC192B60
:1009500051EC100B04F05BFE53EC192B04F057FE26
:1009600094ED261B53EC112B04F0AAFD49EC107BEF
:10097000C4E9260153EC182B51EC100B04F047FE90
:1009800053EC182B04F043FE94ED281B53EC112B71
:1009900004F096FD48EC105BC4E9280153EC192BD8
:1009A00051EC100B04F033FE53EC192B04F02FFE26
:1009B00094ED2A1B53EC112B04F082FD48EC105BE4
:1009C000C4E92A0153EC182B51EC100B04F01FFE64
:1009D00053EC182B04F01BFE94ED2C1B53EC112B45
:1009E00004F06EFD4AEC106BC4E92C0153EC182B9B
:1009F00051EC100B04F00BFE53EC182B04F007FE27
:100A000094ED2E1B53EC112B04F05AFDC4E92E017A
:100A100003B0BDEC068BBDE8F08F2DE9F04F934697
:100A20002DED108B0D46044693B090ED0CEB53EC7E
:100A30001E2B51EC1E0B04F0EAFD94ED000B41EC73
:100A4000190B8DED080B94ED308B53EC102B51EC02
:100A5000180B04F0DCFD53EC192B04F0D2FD94EDDF
:100A60000EDB41EC1F0B53EC1D2B51EC1D0B04F066
:100A7000CEFD94ED060B41EC190B8DED060B53ECFE
:100A8000102B51EC180B04F0C2FD53EC192B04F0A1
:100A9000B8FD41EC100B8DED040B94ED10CB03E091
:100AA000000000000000F03F53EC1C2B51EC1C0B2D
:100AB00004F0ADFD94ED0A0B41EC190B8DED020B2A
:100AC00053EC102B51EC180B04F0A1FD53EC192B37
:100AD00004F097FD41EC110B53EC1D2B8DED001B29
:100AE00051EC1E0B04F093FD94ED020B41EC190B3D
:100AF00053EC102B51EC180B04F089FD53EC192B1F
:100B000004F07FFD41EC1B0B53EC1C2B51EC1E0B36
:100B100004F07DFD94ED040B41EC190B53EC102B0C
:100B200051EC180B04F073FD53EC192B04F069FD24
:100B300041EC1A0B53EC1C2B51EC1D0B04F067FD20
:100B400094ED080B41EC190B53EC102B51EC180BE6
:100B500004F05DFD53EC192B04F053FD9DED020BE9
:100B600041EC190B53EC102B51EC1E0B04F04FFD14
:100B700041EC110B51EC180B8DED101B94ED160B85
:100B800053EC102B04F043FD41EC110B51EC1E0B08
:100B90008DED0E1B9DED060B53EC102B04F037FD75
:100BA00041EC110B51EC180B8DED0C1B94ED140B5B
:100BB00053EC102B04F02BFD41EC110B51EC1E0BF0
:100BC0008DED0A1B9DED080B53EC102B04F01FFD5F
:100BD00094ED120B41EC1E0B53EC102B51EC180B47
:100BE00004F015FD53EC1E2B04F00BFD9DED0A1BCC
:100BF00053EC112B04F064FC9DED0C1B53EC112BFA
:100C000004F0FFFC9DED0E1B53EC112B04F058FC7F
:100C10009DED101B53EC112B04F0F3FC9FEDFE1B1C
:100C200053EC112B04F0F3FC9DED020B41EC1E0B79
:100C300053EC102B51EC1D0B04F0E9FC41EC110BB3
:100C400051EC180B8DED101B94ED1C0B53EC102B7D
:100C500004F0DDFC41EC110B51EC1D0B8DED0E1B76
:100C60009DED060B53EC102B04F0D1FC41EC110B65
:100C700051EC180B8DED0C1B94ED1A0B53EC102B53
:100C800004F0C5FC41EC110B51EC1D0B8DED0A1B62
:100C90009DED080B53EC102B04F0B9FC94ED180BF0
:100CA00041EC1D0B53EC102B51EC180B04F0AFFC76
:100CB00053EC1D2B04F0A5FC9DED0A1B53EC112BEE
:100CC00004F0FEFB9DED0C1B53EC112B04F099FC82
:100CD0009DED0E1B53EC112B04F0F2FB9DED101B50
:100CE00053EC112B04F08DFC9FEDCB1B53EC112B1F
:100CF00004F08DFC9DED020B41EC1D0B53EC102B11
:100D000051EC1C0B04F083FC41EC110B51EC180B63
:100D10008DED021B94ED220B53EC102B04F077FCAD
:100D200041EC110B51EC1C0B8DED0A1B9DED060BDC
:100D300053EC102B04F06BFC41EC110B51EC180B35
:100D40008DED0C1B94ED200B53EC102B04F05FFC8D
:100D500041EC110B51EC1C0B8DED061B9DED080BAE
:100D600053EC102B04F053FC94ED1E0B41EC1C0BC8
:100D700053EC102B51EC180B04F049FC53EC1C2BDA
:100D800004F03FFC9DED061B53EC112B04F098FB87
:100D90009DED0C1B53EC112B04F033FC9DED0A1B55
:100DA00053EC112B04F08CFB9DED021B53EC112B2B
:100DB00004F027FC9FED981B53EC112B04F027FC4B
:100DC0009DED040B41EC180B53EC102B51EC1F0B59
:100DD00004F01DFC10919DED001B824653EC112B7D
:100DE00004F015FC41EC110B53EC192B8DED0A1B93
:100DF00051EC1F0B04F00BFC53EC192B04F007FC17
:100E000041EC110B53EC1A2B8DED081B9DED040BDF
:100E100051EC100B04F0FBFB814653EC1A2B1191A3
:100E200004F0F5FB41EC110B8DED061B9FED7C0BE7
:100E300051EC1B0B53EC102B04F0E9FB53EC1A2B79
:100E400004F0E5FB53EC192B04F0E1FB9DED001BD6
:100E500041EC1C0B53EC1B2B51EC110B04F0D7FB9A
:100E6000074653EC1B2B029104F0D1FB53EC1C2BD7
:100E700004F0C7FB9DED061B53EC112B04F020FB87
:100E80009DED081B53EC112B04F01AFB9DED0A1B82
:100E900053EC112B04F0B5FB41EC1C0B9FED620BE6
:100EA00053EC102B04F00EFD7DD053EC192B51ECBC
:100EB0001B0B04F0ACFB53EC182B04F0A8FB41EC2B
:100EC000110B53EC1D2B8DED0E1B029941EC107B89
:100ED00051EC100B04F09BFB41EC110B8DED0C1B46
:100EE0009DED000B53EC102B9DED040B51EC100B02
:100EF00004F08DFB53EC1E2B04F089FB41EC110B2D
:100F000053EC192B8DED081B51EC190B04F07FFBF2
:100F100053EC1E2B04F07BFB41EC110B53EC1D2B0F
:100F20008DED0A1B51EC190B04F071FB41EC110B18
:100F300053EC182B8DED061B9DED040B51EC100BA3
:100F400004F065FB9DED061B53EC112B04F059FBDF
:100F500053EC1A2B04F05BFB9DED0A1B53EC112B99
:100F600004F0AEFA9DED081B53EC112B04F049FB85
:100F70009DED0C1B53EC112B04F0A2FA9DED0E1B02
:100F800053EC112B04F03DFB41EC100B53EC1A2BEE
:100F90008DED060B51EC1B0B04F039FB8846064621
:100FA00048EC100B00E065E153EC182B51EC100BF2
:100FB00004F02DFB41EC110B53EC1E2B8DED041BAB
:100FC000029941EC107B51EC100B04F020FB41EC3A
:100FD000110B51EC1F0B8DED021B9DED000B53EC23
:100FE000102B04F014FB53EC1D2B04F010FB41EC10
:100FF000110B53EC1A2B8DED081B51EC1A0B04F05E
:1010000006FB53EC1D2B04F002FB41EC110B53ECDF
:101010001E2B8DED001B0BE0000000000000E03FE8
:101020000000000000000040000000000000000080
:1010300051EC1A0B04F0EBFA41EC1A0B53EC182BA1
:1010400051EC1F0B04F0E3FA53EC1A2B04F0D9FA1D
:1010500053EC192B04F0DBFA9DED001B53EC112B24
:1010600004F02EFA9DED081B53EC112B04F0C9FA85
:101070009DED021B53EC112B04F022FA9DED041B95
:1010800053EC112B04F0BDFA41EC100B53EC1D2B6B
:101090008DED040B48EC106B51EC100B04F0B7FA1B
:1010A00041EC110B53EC1E2B8DED001B119941EC03
:1010B000109B51EC100B04F0AAFA41EC110B53EC0D
:1010C000182B8DED021B109941EC10AB51EC100B5D
:1010D00004F09DFA41EC1A0B53EC1B2B51EC1B0B4B
:1010E00004F095FA53EC182B04F091FA41EC180B2C
:1010F00053EC1E2B51EC1B0B04F089FA41EC1B0B3B
:1011000053EC1D2B51EC1F0B04F081FA53EC1B2BFD
:1011100004F077FA53EC192B04F079FA53EC182BFE
:1011200004F0CEF953EC1A2B04F06BFA9DED021B80
:1011300053EC112B04F0C4F99DED001B53EC112B63
:1011400004F05FFA9DED060B41EC190B53EC1C2BE0
:1011500051EC100B04F0CDFA41EC180B53EC1C2BA6
:1011600085ED008B9DED040B51EC100B04F0C1FAE2
:1011700041EC1A0B53EC1C2B85ED02AB51EC190B17
:1011800004F0B7FA41EC190B85ED049B94ED100BBC
:1011900053EC102B04F03BFA94ED0E0B41EC1B0BBF
:1011A00053EC102B51EC1A0B04F031FA94ED0C0BAC
:1011B00041EC1C0B53EC102B51EC180B04F027FAEC
:1011C00053EC1C2B04F07CF953EC1B2B04F078F946
:1011D0001FED6D1B53EC112B04F019FA94ED061B57
:1011E00094ED000B41EC1B0B53EC112B51EC100B4D
:1011F00004F066F994ED0A1B53EC112B04F060F92E
:1012000053EC1B2B04F0FDF994ED301B53EC112B28
:1012100004F06FFA41EC1B0B53EC192B51EC190B3A
:1012200004F0F5F941EC190B53EC1A2B51EC1A0BA5
:1012300004F0EDF941EC1A0B53EC182B51EC180BA0
:1012400004F0E5F953EC1A2B04F03AF953EC192B9E
:1012500004F036F953EC1B2B04F032F941EC100B7F
:1012600005F0A8FD8BED000B012013B0BDEC108B39
:10127000BDE8F08F0020F8E72DE9F04F0D462DED89
:10128000108B04468BB091ED00AB53EC1A2B51EC54
:101290001A0B04F0BCF994ED0CCB53EC1C2B04F0AE
:1012A000B6F953EC1C2B04F0B2F994ED30FB41EC91
:1012B000180B53EC1A2B51EC1F0B04F0A8F98B46BA
:1012C0004BEC100B074653EC1A2B51EC100B04F0AF
:1012D0009EF994ED00EB53EC1E2B04F098F953ECBF
:1012E000182B04F08EF941EC190B53EC1E2B51EC2A
:1012F0001A0B04F08CF953EC1C2B04F088F94BEC1E
:10130000107B94ED121B41EC180B53EC112B51EC9C
:10131000100B04F07CF953EC192B04F075F953EC25
:10132000182B04F0CDF841EC1B0B1FEDC30B51EC57
:101330001A0B53EC102B04F06AF9894649EC100B98
:1013400095ED029B064653EC192B51EC100B04F063
:101350005EF953EC1C2B04F05AF994ED0EDB53ECC0
:101360001D2B04F054F941EC180B1FEDD30B51EC7D
:101370001F0B53EC102B04F04AF9824653EC1A2B46
:10138000069104F044F953EC192B04F040F994ED64
:10139000021B53EC112B04F03AF953EC1B2B04F015
:1013A0008FF853EC182B04F02CF941EC180B53EC8C
:1013B0001C2B51EC1A0B04F02AF9049194ED06BB96
:1013C000804653EC1B2B04F022F941EC110B4BEC43
:1013D000107B8DED001B94ED141B51EC100B53ECA6
:1013E000112B04F014F953EC182B04F00DF99DEDBA
:1013F000001B53EC112B04F063F841EC110B49EC8A
:10140000106B8DED001B95ED048B51EC100B53EC24
:10141000182B04F0FCF853EC1C2B04F0F8F894EDB6
:1014200010CB53EC1C2B04F0F2F841EC110B53ECF5
:101430001A2B8DED021B069941EC10AB51EC100BF1
:1014400004F0E5F853EC182B04F0E1F894ED041BDC
:1014500053EC112B04F0DBF89DED001B53EC112B2A
:1014600004F02EF89DED021B53EC112B04F0C9F88B
:1014700041EC100B8DED000B049994ED0AAB41EC9F
:10148000108B53EC1A2B51EC100B04F0C0F841EC0C
:10149000110B4BEC107B8DED021B94ED161B51ECE8
:1014A000100B53EC112B04F0B2F89DED001B53EC24
:1014B000112B04F0A9F89DED021B53EC112B03F046
:1014C000FFFF41EC110B8DED001B9FEDFE0B51EC6E
:1014D0001E0B53EC102B04F09AF853EC1E2B04F067
:1014E00096F841EC110B8DED021B9FEDF60B51ECC4
:1014F0001F0B53EC102B04F08AF8059194ED241B7C
:10150000814653EC112B04F082F89DED001B53EC47
:10151000112B03F0D5FF9DED021B53EC112B04F0B2
:1015200070F841EC110B53EC1E2B8DED001B51ECB0
:10153000190B04F06CF853EC1D2B04F068F841EC27
:10154000110B53EC192B8DED081B51EC1F0B04F004
:101550005EF8039194ED181B064653EC112B04F032
:1015600056F89DED001B53EC112B04F04DF89DED4A
:10157000081B53EC112B03F0A3FF41EC110B8DED75
:10158000001B9FEDD20B51EC1E0B53EC102B04F003
:101590003EF88B464BEC100B054653EC1B2B51ECE5
:1015A000100B04F034F841EC110B8DED081B9FED8E
:1015B000C70B51EC1F0B53EC102B04F028F80491CF
:1015C00094ED2A1B804653EC112B04F020F89DED7E
:1015D000001B53EC112B03F073FF9DED081B53EC24
:1015E000112B04F00EF841EC110B53EC1E2B8DED7A
:1015F000001B51EC180B04F00AF853EC1C2B04F000
:1016000006F841EC1E0B53EC182B51EC1F0B03F0AA
:10161000FEFF029194ED1E1B074653EC112B03F0C5
:10162000F6FF9DED001B53EC112B03F0EDFF53EC87
:101630001E2B03F045FF4BEC105B41EC1F0B53ECF2
:101640001A2B51EC100B03F0E2FF41EC1E0B049936
:1016500094ED2C1B41EC108B53EC112B51EC100B27
:1016600003F0D5FF53EC1F2B03F02AFF53EC1E2B86
:1016700003F0C7FF41EC1F0B53EC192B51EC190B76
:1016800003F0C5FF53EC1D2B03F0C1FF53EC1D2BE2
:1016900003F0BDFF41EC1E0B039953EC192B41ECF9
:1016A000106B51EC100B03F0B2FF53EC1B2B03F04B
:1016B000AEFF53EC1F2B03F003FF53EC1E2B03F084
:1016C000A0FF41EC1F0B53EC1B2B51EC190B03F04B
:1016D0009EFF53EC1D2B03F09AFF41EC1E0B039968
:1016E00094ED1A1B41EC106B53EC112B51EC100BC9
:1016F00003F08DFF53EC1F2B03F086FF53EC1E2BE2
:1017000003F0DEFE41EC1F0B9FED720B51EC190B49
:1017100053EC102B03F07BFF53EC182B03F077FFF7
:1017200053EC1D2B03F073FF53EC1C2B03F06FFFE6
:1017300041EC1E0B069953EC192B41EC10AB51EC0C
:10174000100B03F064FF53EC182B03F060FF94EDD3
:10175000081B53EC112B03F05AFF53EC1F2B03F023
:10176000AFFE53EC1E2B03F04CFF41EC1E0B53EC71
:101770001D2B51EC190B03F04AFF53EC1A2B03F00D
:1017800046FF41EC190B039994ED1C1B41EC106BC7
:1017900053EC112B51EC100B03F039FF53EC1E2BC3
:1017A00003F032FF53EC192B03F08AFE41EC1D0BC2
:1017B0009FED44EB51EC1B0B53EC1E2B03F027FF6A
:1017C00053EC1B2B03F023FF41EC190B059994ED0F
:1017D000261B41EC109B53EC112B51EC100B03F02A
:1017E00016FF53EC1D2B03F06BFE53EC192B03F08B
:1017F00008FF41EC1D0B53EC1B2B51EC180B03F0B5
:1018000006FF53EC1C2B03F002FF41EC190B02996D
:1018100094ED201B41EC107B53EC112B51EC100B81
:1018200003F0F5FE53EC1D2B03F0EEFE53EC192BE9
:1018300003F046FE9FED250B41EC190B53EC102BEA
:1018400051EC1B0B03F0E3FE53EC1A2B03F0DFFE0D
:1018500041EC1B0B049994ED2E1B41EC108B53ECC7
:10186000112B51EC100B03F0D2FE53EC192B03F0AB
:1018700027FE53EC1B2B03F0C4FE41EC1B0B53EC77
:10188000182B51EC180B03F0C2FE53EC1C2B03F089
:10189000BEFE53EC1C2B03F0BAFE41EC190B02996F
:1018A00053EC182B41EC107B51EC100B03F0AFFE06
:1018B00053EC1A2B03F0ABFE53EC1B2B03F000FE92
:1018C0000CE00000000000000000D03F000000001D
:1018D0000000E03F000000000000004053EC192B26
:1018E00003F08FFE41EC190B53EC1A2B51EC180B43
:1018F00003F08DFE53EC1C2B03F089FE41EC180B1A
:10190000029994ED221B41EC107B53EC112B51EC0E
:10191000100B03F07CFE53EC192B03F075FE53EC17
:10192000182B03F0CDFD41EC180B53EC1E2B51ECA2
:101930001A0B03F06CFE53EC1A2B03F068FE41EC1B
:10194000190B059994ED281B41EC109B53EC112BBE
:1019500051EC100B03F05BFE53EC182B03F0B0FDC1
:1019600053EC192B03F04DFE41EC100B0BB07DE452
:1019700030B50446B0F88C0089B000040690B4F885
:101980008E000D4600040790B4F8900088340004DF
:10199000089002A808F012FE029906982B46401AF9
:1019A00006900399079806AA401A07900499089888
:1019B000401A08902088616A80B208F0ABFC09B038
:1019C00030BDF0B50D462DED048B87B06946FFF7AD
:1019D000CFFF9FEDFE8B00246F469FEDFE9A03AE76
:1019E00057F8240000EE100A06EB8400B8EEC00A97
:1019F00020EE090A80ED000A20EE000A10EE100A1F
:101A000003F04DFF53EC182B03F05AFD41EC180B7B
:101A1000641C032CE4DBB0EE480AF0EE680A05F023
:101A2000C9F9B0EE408AF0EE608A002456F824002E
:101A300003F035FF53EC182B03F05BFE03F072FF4D
:101A400000EE100A05EB8400641CD0ED000A032CA4
:101A500030EE200A80ED000AE8DB686D401C686506
:101A600008F06AFFE86707B0BDEC048BF0BD2DE914
:101A7000F041044608F034FE40BB08F0CBFD0428DA
:101A800024D0D54920460E46FFF79BFFD34DD5E91C
:101A90005C01814205DB304603F083F90020C5F884
:101AA0007401208E4FF00406C00515D504F118000E
:101AB00008F008FE8009B0F5C87F0AD2D5F8B80052
:101AC000002850DD401EC5F8B8004AE00120BDE8FE
:101AD000F081C5F8B86044E0D4F8A010D5F814013E
:101AE000081A01D4034600E04342BB4A4FF4A02C3D
:101AF000583A634505DDD4E929035365C2E913105B
:101B00002FE00312D4F8A470D5F818015B43381AFB
:101B100001D4864601E0C0F1000EE64505DDD4F8AB
:101B2000A800D164C2E914701BE0001200FB00336E
:101B3000D4F8A800D5F81C11401A01D4014600E0E1
:101B4000414261450DDC001200FB0030B0F5403F22
:101B5000B4DBA034C5F8B86094E80B004C3282E8DE
:101B60000B000020B3E70220B1E72DE9F04F9B4CBA
:101B70002DED028B93B0D4F8A81090ED000B04EB80
:101B8000C10181ED000BD4F8A810491CC4F8A810BD
:101B900090ED020B04EBC10181ED000BD4F8A8100D
:101BA000491CC4F8A81090ED040B04EBC10080EDB3
:101BB000000BD4F8A800401CC4F8A800152802DBCC
:101BC0000020C4F8A800182284490CA803F032FCB5
:101BD0001822824904A803F02DFC01260DF1300AD9
:101BE0000DF1100BA146002406EB460808EB04019A
:101BF00009EBC1050AEBC40795ED001B97ED000B3F
:101C000053EC112B51EC100B03F074FE03D295ED45
:101C1000000B87ED000B0BEBC40795ED001B97ED58
:101C2000000B53EC112B51EC100B03F04BFE03D2C5
:101C300095ED000B87ED000B641C032CD6DB761CA6
:101C4000072ED0DB9DED0C1B9DED040B53EC112BEF
:101C500051EC100B03F0D5FC9DED0E1B9DED060B1A
:101C600041EC180B53EC112B51EC100B03F0C9FC99
:101C700053EC182B03F026FE0BD39DED0E1B9DEDB0
:101C8000060B53EC112B51EC100B03F0BAFC41EC9A
:101C9000180B9DED101B9DED080B53EC112B51EC17
:101CA000100B03F0AEFC53EC182B03F00BFE0BD320
:101CB0009DED101B9DED080B53EC112B51EC100BFF
:101CC00003F09FFC41EC180B13B0B0EE480AF0EEA5
:101CD000680ABDEC028BBDE8F08F10B504462DED0F
:101CE000068B9CB0002155200E91CDE90F1011906C
:101CF0009FED3B8B0AA808F02FFC12A90AA808F058
:101D000001FF16AA0EA912A808F01FFF6A460AA929
:101D100016A808F01AFF0198B2EE059A00F5967021
:101D200001900298B0EE490A00F59670029003986F
:101D300000F596700390FEF78BFBBDEEC00A01998B
:101D400010EE100AB0EE490A08440190FEF780FB3D
:101D5000BDEEC00A029810EE101AB0EE490A08440F
:101D60000290FEF775FBBDEEC00A039910EE100A53
:101D700008440390204601A9FEF77DFC94ED300B4A
:101D80009FED191B51EC100B53EC112B03F0B2FD1E
:101D90005DD21AAA04A92046FEF73FFE60B39DED6E
:101DA000080B9FED138B51EC100B53EC182B03F029
:101DB00028FC41EC100B53EC102B03F028FC41ECF9
:101DC000190B9DED060B53EC182B16E000000000DC
:101DD00000000000000080378822002068210020D9
:101DE0000000000000408F40000000000000344070
:101DF0000000000000C0724029E051EC100B03F01D
:101E000000FC41EC100B53EC102B03F000FC9DED9B
:101E1000040B41EC1A0B53EC182B51EC100B03F094
:101E2000F0FB41EC100B53EC102B03F0F0FB53ECE8
:101E30001A2B03F045FB53EC192B03F041FB41EC4B
:101E4000100B04F0B7FFB0EE408AF0EE608A9FED11
:101E5000FD0B51EC180B53EC102B03F04AFC1CB09B
:101E600041EC100BBDEC068B10BD10B5E821F74816
:101E700003F007FBF648F74920F8BC1F4A0CC28064
:101E8000C181828281834284F048E821E83003F0F6
:101E9000F8FAEF490020C1F8B40010BD2DE9F04375
:101EA000EB4D04462DED108BC3B0006BC5F8A001BF
:101EB0002046FFF7DCFD00287ED1D5F8941105F10E
:101EC000BC08012911D1B4F98C003D90B4F98E0001
:101ED0003E90B4F990003F903DA9DC48FEF7CBFB63
:101EE00004F18C01404600F0A4FB1FED48DB9FEDA0
:101EF000DABB9FEDDBCB9FEDDCAB9FEDDDEBD34E93
:101F0000D5F80801E83E002802DD401EC5F80801AA
:101F100096ED300B53EC1D2B51EC100B03F0EAFC4B
:101F20007DD2CA49E822E839684603F083FAC748F7
:101F30003DA9E838FEF79FFBC44940AA20390F4667
:101F4000A1F1C800FEF769FD00287BD0BF483946E3
:101F5000E838FFF791F9B0EE408AF0EE608A95ED2F
:101F6000400B51EC180B53EC102B03F04AFB96ED91
:101F7000300B41EC190B53EC1B2B51EC100B03F005
:101F800040FB41EC100B51EC190B53EC102B03F000
:101F9000B0FB41EC100B04F00DFF96ED30FBB0EE02
:101FA000409AF0EE609A53EC1B2B51EC1F0B03F0A0
:101FB00028FB53EC1F2B00E0E9E003F028FB41EC89
:101FC0001F0B53EC1C2B51EC180B03F020FB53ECB4
:101FD0001F2B03F08EFB41EC100B04F0EBFED5F849
:101FE000E80003F05CFC95ED381B53EC112B03F07B
:101FF0000EFB53EC192B03F065FC03D3D5F8080155
:10200000002826DD9148E8226946E83803F012FAF4
:10201000D5F8E80003F043FC95ED381B01E010E033
:1020200010E053EC112B03F0F2FA53EC192B03F0F0
:1020300049FC5CD24FF4FA7001F0DAFB0A20C5F8D3
:10204000080154E08148E8226946E83803F0F2F9D3
:102050004DE0D5F89801012849D1D5F8B400401CCD
:10206000C5F8B400002009F047F996ED320B53ECA7
:102070001A2B51EC100B03F0CAFA03F0F1FB3A9063
:1020800096ED340B53EC1A2B51EC100B03F0BFFA06
:1020900003F0E6FB3B9096ED360B53EC1A2B51EC1C
:1020A000100B03F0B4FA03F0DBFB3C9003213AA8D9
:1020B00009F094F896ED300B53EC1E2B51EC100BFD
:1020C00003F018FC11D29FED6C0A6049E839F0EE7C
:1020D000400A0846FEF7FFF95C483946E838FFF742
:1020E000CBF8B0EE408AF0EE608A85ED408B208E12
:1020F000564FC0050CD5B4F87400C00508D507F1DB
:10210000E800FFF7EAFDB0EE408AF0EE608A01E0F9
:102110009FED4C8B97ED300B1FEDCD1B51EC100B51
:1021200053EC112B03F0CEFB31D3484940AAC83100
:1021300089464648FEF771FC00287CD0D4F8AC00F4
:1021400003F05CFB41EC100B53EC102B9FED4B0BA1
:1021500051EC100B03F0CDFA41EC1F0B4846FFF792
:1021600004FDB0EE409AF0EE609A53EC1F2B51EC58
:10217000190B03F0BFFB0BD29FED420B51EC180B78
:1021800053EC102B03F09EFB02D2FFF76EFEDBE157
:1021900053EC1F2B51EC190B03F094FB51D251EC73
:1021A000180B9FED3A9B53EC192B03F08BFBF5D2E8
:1021B00097ED300B9FED371B51EC100B53EC112BAF
:1021C00003F098FBEAD296ED300B53EC1D2B51EC4B
:1021D000100B03F077FB7CD149461C48FFF74CF805
:1021E000B0EE408AF0EE608A85ED408B97ED309B33
:1021F00053EC1B2B51EC190B03F003FA53EC192B86
:1022000003F005FA41EC190B53EC1C2B51EC180BA5
:1022100003F0FDF953EC192B03F06BFA41EC100BB2
:1022200004F0C8FDB0EE408AF0EE608AD5F8E80010
:1022300003F035FB00E088E195ED381B53EC112BE2
:102240002CE078E10000000000000840981F00200A
:10225000682100200080FFFF000000000000F03F28
:102260000000000000000040000000000000F040FE
:102270000000000000409F406666E63E9A999999EA
:102280009999A941000000000000F83F00000000FB
:10229000000010400000000000003E4003F0B7F9CD
:1022A00053EC182B03F00EFBFFF46FAF9DED400BCA
:1022B00049464046FDF7C4FF02283FF466AF0028B8
:1022C0007ED1D5F898010128FAD1002009F014F840
:1022D00000E02FE097ED320B53EC1A2B51EC100B72
:1022E00003F095F903F0BCFA3A9097ED340B53ECF8
:1022F0001A2B51EC100B03F08AF903F0B1FA3B9062
:1023000097ED360B53EC1A2B51EC100B03F07FF9C1
:1023100003F0A6FA3C9003213AA808F05FFF0120E1
:1023200008F088FF1920009001900290684608F09C
:1023300079FFF6E0D5F8B40003F060FA97ED301BB2
:1023400053EC112B03F0D5F99FEDE71B53EC112B48
:1023500003F0D0FAA8D34946E548FEF78DFF97ED84
:1023600030DBB0EE408AF0EE608A53EC1B2B51EC70
:102370001D0B03F046F953EC1D2B03F048F941EC1B
:102380001B0B53EC1C2B51EC180B03F040F953ECD6
:102390001B2B03F0AEF941EC100B04F00BFDB0EE7B
:1023A00040BAF0EE60BAD5F8E80003F078FA95ED9F
:1023B000381B53EC112B03F02AF953EC1B2B00E0D4
:1023C00087E003F07FFAC5D39DED400B49464046B8
:1023D000FDF736FF00287CD196ED361B97ED360BC6
:1023E00053EC112B51EC100B03F00BF941EC100BDB
:1023F00053EC102B03F00BF996ED341B97ED340BD7
:1024000041EC1B0B53EC112B51EC100B03F0F9F8C2
:1024100041EC100B53EC102B03F0F9F896ED321B46
:1024200097ED320B41EC1C0B53EC112B51EC100BC4
:1024300003F0E7F841EC100B53EC102B03F0E7F836
:1024400053EC1C2B03F03CF853EC1B2B03F038F837
:1024500041EC100B04F0AEFCB0EE40BAF0EE60BA06
:10246000D4F8AC0003F0CAF953EC1B2B03F0CFF8FF
:102470009FEDA01B53EC112B03F0C9F841EC1B0B93
:1024800053EC192B03F036FA1AD39FED9C0B51EC49
:102490001B0B53EC102B03F02DFABFF476AED5F8DE
:1024A000B40003F0ABF997ED301B53EC112B03F0A4
:1024B00020F99FED941B53EC112B03F003FAECD29F
:1024C000D5F8980101287FF460AE002008F014FFD1
:1024D00000E039E085ED408B97ED320B53EC1A2B81
:1024E00051EC100B03F093F803F0BAF93A9097ED22
:1024F000340B53EC1A2B51EC100B03F088F803F05B
:10250000AFF93B9097ED360B53EC1A2B51EC100BB7
:1025100003F07DF803F0A4F93C9003213AA808F0F9
:102520005DFEF7EE000A9FED790A7149A1F1E8001E
:10253000FDF7D1FF29E697ED300B53EC1E2B51EC44
:10254000100B03F0D7F9F5D3002043B0BDEC108B8E
:10255000BDE8F08370B56E4C0546D4F80C0110B997
:10256000284600F091F8D5F8B01044F6206081427A
:102570000ADAD4F8102111448142C4F810114FF046
:10258000000005DBC4F810012846BDE8704085E472
:1025900070BD04224FF4C871AFF2470008F0BCBC14
:1025A000AFF24F0008F0B0BF514810B5E821E8384D
:1025B00002F067FFFFF759FC4FF4D471544802F062
:1025C00060FF534CB7EE000A04F5907084ED3A0AB0
:1025D00002F033FB0A20C4F87001B2EE000A84ED69
:1025E000570A1E209FED4B0AC4F87C0184ED620A55
:1025F0009FED490A84ED610A9FED480A002084EDB1
:10260000630A10BD10B5FFF7CFFF002805D1AFF268
:102610007D00BDE8104008F007BD10BD10B5AFF259
:10262000CB0008F071FFAFF29500BDE8104008F054
:1026300091BF30B50022C2EBC20331F9124030F92C
:102640001350AC420ADD02EB42040D8820F82450FE
:1026500000EB84044D8865808D88A58000EB4303E2
:1026600031F91240B3F906309C4209DA02EB420319
:1026700000EB83030C88DC804C881C818C885C8197
:10268000521C032AD7DB30BD70B5214DD0F8AC20E9
:102690000446EAB1D3170020192102F075FE45F86F
:1026A000AC0F54F8AC2F0020D317052102F06CFEBC
:1026B000686022680020D317962102F065FE03F0BF
:1026C0009DF8C5E90D01AC3D0120C5F80C0170BDB8
:1026D0006FF00040C5F8AC009FED110BC5F8B000DD
:1026E00085ED380BF0E700000AD7A3703D0AE73FFD
:1026F000981F0020000000000000103E00000000B5
:1027000000000440333333333333C33F0000000051
:1027100068210020CDCCCC3E3333333F9A99193F0A
:102720000000C0FFFFFFDF4110B5FF49C4074FF0B5
:1027300040434FF0804205D08B66CB66C1E91C3226
:102740008A67CA67840709D5C1F80031C1F8043126
:10275000C1E94232C1F81021C1F81421400709D55E
:10276000C1F89831C1F89C31C1E96832C1F8A8219B
:10277000C1F8AC2110BD2DE9F14F002082B0824696
:1027800081460298806F00287ED000220020401CE5
:102790000428FCDB029800EBC203D3E90010A1FB84
:1027A0000167D3E9065400FB017701FB0077AB46D4
:1027B000AD1BCDE900670326A5FB06C8A64664EB62
:1027C000070404FB0684002705FB0745DDE90067D5
:1027D0001CEB06047D41A4FB016705FB017504FBAE
:1027E0000055D3E90C47341B65EB0705CDE90045DF
:1027F0005D46A5FB05670324A6FB04580EFB0B777B
:102800000BFB0E7707FB04844FF0000C06FB0C4417
:10281000D3E91263761B63EB04034C18A4FB017C21
:1028200040EB000505FB01C504FB0055A7FB014C6F
:1028300005FB01C507FB0055A4FB017C05FB01C599
:1028400004FB0054F6196341DDE90045AD0045EA9B
:102850009475A400A4FB017C05FB01C104FB0014DA
:10286000F01B73EB040103D50023404263EB01012D
:10287000BAEB000479EB010301DA82468946521C67
:10288000032A83DB504600E016E0494602F0A0FF31
:1028900000EE900AA54890ED0E1A80EE810A10EE27
:1028A000100A02F0BCFFA04AD2F80C2203B092003A
:1028B000BDE8F04F02F0A8BD002003B00146BDE81E
:1028C000F08F2DE9F14F0020009A0146926FE2B39C
:1028D00000240022521C042AFCDB009A02EBC405EF
:1028E000AA46D5E90029A2FB023CD5E906769E4618
:1028F000FB1A0325A3FB057809FB02CC02FB09CBDD
:1029000066EB0B0606FB05854FF0000C03FB0C562F
:1029100017EB0E03A3FB027C46EB0B0606FB02C281
:1029200003FB0923DAE90C25BA1AAB4103D50025CC
:10293000524265EB0303851A71EB030501DA104679
:102940001946641C032CC4DB00E015E002F040FFD4
:1029500000EE900A754890ED0E1A80EE810A10EE96
:10296000100A02F05CFF704AD2F80C22BDE8F84F62
:1029700002EB420202F048BD00200146BDE8F88F9C
:102980002DE9FE43684D80460024D5F810626F465D
:1029900005EBC4013246D1E9020102F026FD05EB48
:1029A0008401B1F884100904401847F8240004F1A8
:1029B0000104032CECDB5C489821083002F061FD37
:1029C0000120FFF7B1FE95F8E8010199042807D12D
:1029D000D5F81802B0F5201F02DD052085F8E801C2
:1029E000524C0098636AC11A01D40E4600E01E1AC8
:1029F0000198A26A801A01D4074601E0019FD71B03
:102A0000BE4206DD002901D4084606E00098181AE7
:102A100003E0002801D50198101A029AE16A521ABF
:102A200001D4134601E0029BCB1A834205DB002A46
:102A300001D4104601E00298081AD8F8241008F0D2
:102A400028F8D5F81812814206DD0321684608F0FF
:102A500099FC022008F0E8FC009860620198A062EE
:102A60000298E062BDE8FE83304AC2E90201704785
:102A70002E4AC2E9060170472C4AC2E90401704798
:102A8000294AD2F8E0310360D2E97402C1E90002B8
:102A90007047254AD2F8E0310360D2E97602C1E9F5
:102AA000000270472DE9FE4781460020EA468A6F02
:102AB00022B901EB800339F91020DA6701EB8002BB
:102AC00039F91030D46F1D1B4AF82050136E9D4207
:102AD00000DD1566D36E9D4200DAD5660123002421
:102AE00022464FEAE578A3FB056704FB057403FB68
:102AF0000844334602EB420601EBC60606EBC00C67
:102B0000DCE90076FF186641CCE90076521C042A05
:102B1000E9DB401C0328CADB886F401C8867012062
:102B2000C1F89000BDE8FE8710230020702500202A
:102B300030B5002302EB830550F823405B1CEC66A4
:102B4000032BF7DBC2F88810916F79B1002102EBFB
:102B5000810450F82130E56F5B1B00D55B42256E88
:102B60009D4200DA2366491C0329F0DB906F401C6C
:102B700090670120C2F8900030BD10B500210B46CF
:102B800000EB8102491CD46ED46713660329F7DB7E
:102B9000D0F8881040F8783FC0E9051310BDD0E99F
:102BA0002210081A70470146D1E91802824200DB60
:102BB0001046896E814200DB084670472DE9F047D8
:102BC0008046501E012686408946C2F120074046B5
:102BD00002F01AFC04460D46404649463A4602F0C9
:102BE00004FC3A4602F010FCB04203DD641C45F1DF
:102BF000000505E07142884202DA641E45F1FF35A6
:102C000020462946BDE8F087F7490020086248625F
:102C10008862C862086448648864C864086348635A
:102C20008863C863086548658865C865704730B5BE
:102C3000EE4AD2F8483223B1D2E990542D1A8C4191
:102C400001DAC2E990015B1CC2F8483230BD30B5F0
:102C5000E64AD2F8583223B1D2E994542D1A8C4165
:102C600001DAC2E994015B1CC2F8583230BD30B5BC
:102C7000DE4AD2F828322BB1D2E98845041B71EB29
:102C8000050401DAC2E988015B1CC2F8283230BDB4
:102C900030B5D64AD2F838322BB1D2E98C45041B74
:102CA00071EB050401DAC2E98C015B1CC2F8383211
:102CB00030BD2DE9F0470246CC480125083080465A
:102CC000C36E016E046FC91A436E1B1B8B4200DB7F
:102CD0001946836ED8F87400181A884200DB014642
:102CE000C14F6037F86B884204DA002400F010FA14
:102CF000204687E7108E0124BC4EC0054FF000012E
:102D00000ED5D6F880303068834209DBB2F87420E3
:102D1000D20506D5D6F8B021824201DB052400E0B9
:102D20000C4674B3600719D5AF48C8388146FFF721
:102D300022FD000D40EA01300915C6E97601D7E908
:102D400004321B1A8A4102DA0025FFF7A1FF9821FD
:102D5000484602F096FB0420FFF7E6FCE0070ED0A1
:102D60004046FFF708FDC6E97C01D7E90634024674
:102D7000181A8C4103DA00251046FFF778FF284621
:102D800040E7FFE702203DE71EB5044690F830001B
:102D9000C0F38110032804D19449201D0831FFF7A6
:102DA00081FE94F87400C0F38110032805D18E4988
:102DB00004F14800C839FFF775FED4F8B8008B4A13
:102DC000C0F38113A0326946032B0FD0C0F341102A
:102DD00003281AD1002004EB8003D3F8A0309B1302
:102DE00041F82030401C0328F5DB09E0002004EB0B
:102DF0004003B3F98C3041F82030401C0328F6DB47
:102E00006846D4F8C010FFF793FE1EBD2DE9F047C9
:102E100005460020296BCA056AD501F050014029FA
:102E200000D1012095F8741001F05001402900D123
:102E3000012095F8B8106D4C01F05001402900D0E8
:102E400030B100F065F90020C4F8E00184F8E80131
:102E5000654ED4F80812E86A6036814228D0C4F87A
:102E600008020A28306B0CDA40002060716B00EE1B
:102E7000100A491CC4F80C12B8EEC00A03F0D7FFC0
:102E800005E02060706BC4F80C0296ED0E0A84ED2C
:102E9000850AD4F80C02C0F11000C4F810024FF4F7
:102EA0008040C4F8180296F8341019208840F06366
:102EB0002846FFF769FF94F8E811DFF830910527FD
:102EC0004FF0020809F1A009072911D2DFE801F04B
:102ED000041127305E7E8500D4F8E001411CC4F85F
:102EE000E0110A2804DB00F013F9012084F8E8015E
:102EF00086E0D4F89800012810D12846FFF7D9FEC3
:102F000010B1012803D004E084F8E87101E084F8EE
:102F1000E8814846FFF731FEFFF776FE70E00320B8
:102F200084F8E8012846FFF72BFD00F0F1F867E090
:102F30002846FFF7BEFEE8B3012861D1B5F8B80016
:102F40004FF00403C00515D54846FFF72CFE014697
:102F5000C017C4E97410D6E902C2BCEB010182417A
:102F600002DA84F8E87108E04846FFF718FE316A93
:102F7000884202D384F8E83124E0F4E97601FFF7CF
:102F800066FED4E90601FFF752FE39E0B5F8B80055
:102F9000C0050BD54846FFF706FE0146C017C4E939
:102FA0007410D6E90232591A824108DB2846FFF72D
:102FB00080FE00E003E010B1012803D020E084F897
:102FC000E8711DE02846FFF7DBFCD6E7062084F811
:102FD000E801012008F028FA0DE02846FFF769FE15
:102FE000012805D038B10BE0102500201023002067
:102FF00084F8E88104E000F08BF84846FFF7BDFD57
:103000000020FFE510B500214010002802D001F19A
:103010000101F9DC4FF0010001F1010100FA01F0BA
:10302000434C00EE100AC4E90C01B8EEC00A03F0EC
:10303000FEFE84ED0E0A94F8341019208840E063F7
:1030400010BD10B54FF418713A4802F01AFA402139
:10305000374802F016FA0720FFF766FB344840F2C3
:10306000DC510022C0E906121421C0E902124FF41B
:103070001671C0E9041230492E4C01620120C4F8D7
:10308000E4011920FFF7BEFF0020C4F8080210BDBC
:1030900010B54FF41871274802F0F3F90720FFF735
:1030A00043FB244801210022C0F8E41180F8E81114
:1030B0000321012008F0AEF907226421AFF2B3200A
:1030C000BDE8104007F028BF10B5012008F0ACF9AA
:1030D000AFF2C720BDE8104008F016BA10B5FFF7F0
:1030E000B0FF002805D1AFF25700BDE8104007F04F
:1030F0009BBF10BD10B5FFF7E7FFAFF26B00BDE857
:10310000104008F027BA0B49D1E97C01704770479D
:10311000084810B59821083002F0B3F99821074803
:1031200002F0AFF9BDE810400520FFF7FDBA00003E
:1031300070250020102300200008AF2F4824002015
:10314000F0B516462DED028B85B01F460C460546A0
:103150003C22FE49A1F10C0002F06CF9FB4950221F
:103160004C31A1F1100002F065F9F84996E80D0024
:103170000C3901F13C0C8CE80D005CCC01F198009D
:1031800080E85C009FEDF28AD1F82401401CC1F870
:103190002401062802DD0620C1F82401C0F106063C
:1031A0000C46A0351AE004EB06116A463846483151
:1031B00007F0CBFC06EB460004EB80016A4628468C
:1031C00007F052F8F0EEC00AB0EEC81AF4EEC10AE9
:1031D000F1EE10FA01D2B0EE408A761C062EE2DB48
:1031E00005B0B0EE480ABDEC028BF0BD70B51446D8
:1031F0002DED048B0E46B0EE408A00259FEDD59A4A
:10320000416BF0EE498A002904DBD0F8BC000328AA
:1032100000D10125CD492422B431081F02F00AF95A
:10322000CA480C38002380ED388A00EB83015B1C10
:1032300091ED2F0A0A2B70EE288AF6DBB2EE040A13
:10324000C822C8EE800AC0ED390A9FEDC31A322E9B
:103250001DDB9FEDC20AC0F81C21B6F57A7FC8EECF
:10326000001A00EE104AB8EEC00A61EE801A81EE34
:10327000810A2FDB9FEDBA0AC8EE001A00EE104A51
:10328000B8EEC00A61EE801A81EE810A22E041F2B6
:10329000883194FBF1F14942D0F81C3101EB8101F6
:1032A000C918C0F81C1102D50021C0F81C119FEDEF
:1032B000AD0AC8EE001A00EE104AB8EEC00A61EE80
:1032C000801A81EE810A29B9D0F82811012901D18B
:1032D000B0EE490AD0F8201109B1B0EE480AA2496F
:1032E0008C4201D1B0EE480AB5EEC00AF1EE10FAF8
:1032F00001D0C0ED3A0A90ED3A1A9C4B71EE600A8B
:10330000F0EEE00A10EE901A994227DDD0ED2E0A79
:10331000F5EEC00AF1EE10FA20D1002D1ED0C0F853
:103320001C21204602F06AFA41EC190B18EE100A33
:1033300002F0B5FA9FED8E1B53EC112B02F0D9F978
:1033400053EC192B02F063F99FED8B1B53EC112BFF
:1033500002F0CFF902F0E6FA00EE100ABDEC048BA1
:1033600070BD2DE9F04F04462DED048BA9B09FED03
:10337000799A4FF0000A754ECDF810A00C3ECDF8AA
:1033800014A0CDF818A0D6F82011022003297DD072
:1033900000209FED7B8A20AD06EB800191ED2A0A8B
:1033A00005EB8001401CB8EEC00A042820EE080A94
:1033B00081ED000AF0DB0FA807F0CEF824A807F093
:1033C0002FF9624B24AA9C330FA920462793FFF7BD
:1033D000B7FEF0EE408A04F1180007F073F9810996
:1033E0006148D6F83021824200DB0246B0EE680A1E
:1033F0002046FFF7FBFED6ED3B0AB3460BA820EEB6
:10340000200A86ED2E0A07F0A7F813A90BA807F0EB
:1034100016FD4E480FAAF0300BA9064607F095FBA3
:1034200031460BA807F06EFB00210DF13C080DF1B1
:103430004C090DF1100E00221346104601EB410C11
:103440000CEB000759F8276008EB8007401C7F68E9
:103450000328C6FB0723F3DB900F40EA83004EF8F6
:103460002100491C0329E6DBDBF820015E46002829
:103470006AD05046CDF818A0404200EE100AB8EECF
:10348000C00A20EE080A03F037F900E0A2E08DED53
:10349000000A8DED019A8DED029A0698404200EEE9
:1034A000100AB8EEC00A20EE080A03F0BBFB8DED4F
:1034B000030A9DED060ADFED330AD6F83001B8EEB7
:1034C000C00A41F2883190FBF1F080EE201A00EE44
:1034D000100AF8EEC01A81EE210AB0EE001AC0EE12
:1034E000011ABDEEE10A10EE101A490000EE101AA2
:1034F0000691B8EEC00A60EE200A00EE100AB8EE9F
:10350000C00A20EE800ABDEEC00A8DED060AB8EEB4
:10351000C00A20EE080A03F0EFF88DED070A8DEDE2
:10352000089A8DED099A9DED060AB8EEC00A20EEC4
:10353000080A03F077FB8DED0A0A1CAA694620A849
:1035400007F05BFB6A461FE04BE00000BC25002053
:10355000002474490000000000409C4500004843DE
:10356000000048420000C84340420F000E2DB23D0B
:103570000000000000007940000000000088B34017
:1035800000008030E102374707A91CA807F035FB8F
:103590006F46DFED958AD4F8BC00002813DD0020CB
:1035A00007EB800191ED000A05EB800181ED000A37
:1035B00020EE280A06EB8001401C0428BDEEC00A5C
:1035C00081ED2A0AECDBD4F8BC00F6EE009A032861
:1035D0000CD108E0C6F8200129B0BDEC048BBDE891
:1035E000F08F069848E700F0DBFBE0B396ED2A0A7F
:1035F000B8EEC00A20EE080A8DED1C0A96ED2B0AE3
:10360000B8EEC00A20EE080A8DED1D0A96ED2C0AD0
:10361000B8EEC00A20EE080A8DED1E0A96ED2D0ABE
:10362000B8EEC00A20EE080A8DED1F0AD6F8200178
:103630000028D1D096ED2E0A20EE290A03F05CF87E
:1036400020EE280ABDEEC00A86ED2A0AC6F8ACA014
:10365000C6F8B0A096ED2E0A20EE290A03F0E2FA91
:1036600020EE280A00E004E0BDEEC00A86ED2D0A37
:103670002BE096ED2E0A20EE290A03F03DF88DEDA1
:10368000070A8DED089A8DED099A96ED2E0A20EE27
:10369000290A03F0C7FA8DED0A0A6A4607A920A88D
:1036A00007F0ABFA684607F053FB002007EB8001F8
:1036B00091ED000A06EB8001401C20EE280A042848
:1036C000BDEEC00A81ED2A0AF0DBD4F8C0102798BD
:1036D00007F0B6FDD6F820010028AAD0401E79E7F1
:1036E00070B590F8B810414ACC064FF000034FF087
:1036F000030101D4C2E94813B0F82041E40509D41C
:10370000048EE40503D5B0F87440E40502D4C2E9A0
:1037100048131AE0D2F8341139B1D0E93013C91A7C
:103720004FF47A73B1FBF3F105E0D0F8B01044F632
:103730002064A14202DBC2F830110AE0D2F82C5119
:103740002944C2F82C11A14201DA002070BDC2E95F
:103750004B31FFF706FEF8E710B54FF49C71234894
:1037600001F08FFE214C4FF080400021C4F8FC0096
:1037700044F8A80F1D48A83007F062FD4FF47A7096
:10378000B7EE000A606784ED110A10BD174880ED9E
:103790003B0A002070471549C1F8280100207047F6
:1037A0001249C1F834010020704704224FF4167109
:1037B000AFF2D30007F0B0BBAFF2DB0007F0A4BE5E
:1037C00010B5FFF7C9FF09490020C1F82801C1F869
:1037D0003401AFF22900BDE8104007F025BCAFF27C
:1037E000350007F0B7BE00000000804EB025002075
:1037F000002803DDFE490122C1E9200200207047B4
:1038000010B5B821FA4801F03CFE9FEDFA0AF848DD
:1038100080ED030A9FEDF80A80ED020A9FEDF70A9A
:103820004FF0804180ED000AB3EE0E0A80ED010AF0
:1038300041664FF4FA619FEDF20AC16780ED270AF5
:10384000002010BD70B5EA4C002594ED001AB4EECE
:10385000C01AF1EE10FA17D394ED011AB4EEC01AA3
:10386000F1EE10FA10DC2069012817D194ED030A5B
:10387000B4EEE00AF1EE10FA06D394ED020AB4EECB
:10388000E00AF1EE10FA09DD606F20B9D848A16DA9
:10389000183007F0D5FC0120C4E91D05D4E91E014C
:1038A000884204DB606F012800D1E565656770BD63
:1038B00010B504462DED028BB0EE408A06F056FEA0
:1038C000CB49002220B918EE100ACE4B984202DDF7
:1038D0000A614A6102E00869002808D14869204469
:1038E0004861B0F5FA7F02DD0120C1E90402BDECB8
:1038F000028B10BDF0B58DB00D46144606466946E4
:1039000007F09DFA09AA3146284607F01EF9294614
:10391000304607F0F7F80021EC460DF1240E0023A5
:103920001A46184601EB41073D180EEB80065CF87D
:1039300025507668401CC5FB06320328F4DB980F3F
:1039400040EA820044F82100491C0329E7DB0DB05E
:10395000F0BDA7490020C1F88C00704710B590ED6C
:10396000000AD0ED010AB8EEC00AB8EEE01AF8EE8F
:10397000E00A20EE000A01EE200AD0ED020AB8EEBD
:10398000E01AF8EEE00A01EE200A03F050FADFED4B
:103990009E0A20EE200A10BD00229549012330B175
:1039A000012810D0C1F8983041F88C2F31E081ED1A
:1039B000280A81ED290A9FED950A81ED2A0AE1E99D
:1039C00024328A607047D1ED280A91ED271A70EEF3
:1039D000600AF0EEE00AF4EEC10AF1EE10FA16D237
:1039E000D1F89400401CC1F89400D1ED290A312887
:1039F00030EE800A81ED290AE4DD0220DFED840A41
:103A0000C1F8900080EE201A81ED2A1A704741F823
:103A1000902F4A6070472DE9F04798462DED088BAE
:103A20008AB017468A4604469FED788A0025704E74
:103A3000039504950595D6F8880000287DD006F0FA
:103A400039FE10B103A806F015FED6F880004FF03D
:103A50000109002817DDC6F8849006F02BFE48B156
:103A600003A806F02FFE8009B0F5C87F02D2D6F871
:103A7000800004E0D6F88000001BC6F88000002813
:103A800001DCC6F8845006F057FF002855D000200E
:103A90009FED5D9A57F8201000EE101A58F820108C
:103AA000401CB8EEC00A032860EE090A00EE101AA6
:103AB000B8EEC00A20EE800A00EE098AEADB38463A
:103AC000FFF74CFFF0EE408A4FF07E5788EE280A51
:103AD000F7EE00AA10EE100AB84201DDB0EE6A0A55
:103AE00010EE100ADFF82C81BFEE00BA404501D974
:103AF000B0EE4B0A02F0E6FBD6F88C00B0EE40AA1E
:103B000098B196ED000AB4EEE80AF1EE10FA0CDD79
:103B100096ED010AB4EEE80AF1EE10FA05D2B0EE25
:103B20004A0AD6F89000FFF737FF684606F042FED3
:103B30002F490C22AC31684600E0E2E001F0B3FC12
:103B400018B9D6F8980001286BD129489DE80E00D5
:103B5000AC3080E80E00009818B9019808B90298B6
:103B6000F0B36846FFF7FAFEB0EE408AB5EEC08AC1
:103B7000F1EE10FA55D0F2EE049A38EE690A20EE12
:103B8000000A03F054F986ED010A38EE290A20EE06
:103B9000000A03F04CF986ED000A9DED020AB8EE2A
:103BA000C00A60EE090AB0EE480A80EE808A18EE7C
:103BB000100AB84201DDB0EE6A8A18EE100A4045DC
:103BC00001D9B0EE4B8AB0EE480A02F07BFBD6ED8D
:103BD000270A30EE600A86ED020AB0EE480A00E0DD
:103BE00024E002F06FFBD6ED270A30EE200A14E045
:103BF000E82600200000B4420000B4C20000704279
:103C00007B142E3E00401C46000080370000000060
:103C100000004842000080BF03E086ED030AC6F8BA
:103C20008C50DFF88481F16D21B32FE01FED0D0A78
:103C300086ED000AB3EE0E0A86ED010AD6F898006A
:103C4000012808D01FED140A86ED020A1FED170A9D
:103C500086ED030AE5E796ED2A0A96ED271A70EE3F
:103C6000410A30EE010AC6ED020A86ED030AC6F8E3
:103C70009850D6E70027C6F85C9006EB071041463F
:103C8000183006F0A5FC7F1C042FF6DB464906AA77
:103C90000C310F465046FFF72DFE3946504606F0D0
:103CA00031FF03A806F00EFD00EE100ADFED3F0A1B
:103CB0002046B8EE400A20EE200AFFF7F9FDF0EEAC
:103CC0004A0AB0EE680AFFF7BDFDD6E91E01884238
:103CD00001DA2044B067706F90B9306E20443066CE
:103CE000B0F57A7F0CDD304930223039A1F1100077
:103CF000356601F09FFB2C484146103806F068FC01
:103D0000706F0AB0BDEC088BBDE8F08770B588B065
:103D1000044604A806F084FCD4E93001451A68463C
:103D200006F01AFC064604AB04F1A00269462846D8
:103D3000FFF771FE07F094FA08B0304670BD042218
:103D40004FF49671AFF23B0007F0E6B8AFF24300D4
:103D500007F0DABB10B5FFF753FD00280DD112486C
:103D600000215838C0F88C100121C0F88810AFF23B
:103D70003100BDE8104007F057B910BD10B5AFF2E3
:103D8000730007F0C1FBAFF27B00BDE8104007F005
:103D9000BBBB054901205839C1F88C000020704791
:103DA00001485838406F7047402700200000803C91
:103DB000F0B51D462DED028B99B090ED000AD0EDC7
:103DC000010A1746B8EEC00AB8EEE01AF8EEE00AAB
:103DD0000E4620EE000A044601EE200AD0ED020A4B
:103DE000B8EEE01AF8EEE00A01EE200A03F01FF840
:103DF000F0EEC00A10EE900AB0F18D4F7EDDD6EDE8
:103E0000000AB8EEE01ADFEDFE0A21EE201A8DED71
:103E1000041A96ED011AB8EEC11A21EE201A8DEDA2
:103E2000051A96ED021AB8EEC11A21EE201A8DED90
:103E3000061A96ED031AB8EEC11A61EE200ACDED0E
:103E4000070A9FEDF08A10AA8DED0C8AD4ED000AC6
:103E50000CA904A8F8EEE00A80EE801A8DED0D1A88
:103E6000D4ED010AF8EEE00A80EE801A8DED0E1A0C
:103E7000D4ED020AF8EEE00A80EE801A8DED0F1AFA
:103E800006F0BBFE14A904A806F048FE6A4614A971
:103E900010A806F0B2FE9DED021ADDED010ADA4926
:103EA00021EE010A00EEA00A10EE100A884202DAA2
:103EB0009FEDD60A11E010EE100AD549884202DAC9
:103EC0009FEDD40A09E010EE100AD349884202DAC5
:103ED000B5EE000A01E09FEDD10A01EE907AB8EE4E
:103EE000E12ADFEDCF2A8DED088AC2EE221A21EEFB
:103EF000800A21EE001A8DED091A00E038E020EE6C
:103F0000C00A6A4604A98DED0A0A8DED0B8A08A83D
:103F100006F073FE6A4604A9104606F0D2FD684614
:103F200006F0D4FEDDED000A9FEDBE0A60EE800AC9
:103F3000FDEEE00AC5ED000ADDED010A60EE800A43
:103F4000FDEEE00AC5ED010ADDED020A60EE800A31
:103F5000FDEEE00AC5ED020ADDED030A20EE800A5F
:103F6000BDEEC00A85ED030A19B0BDEC028BF0BDB1
:103F700096E80F0085E80F00F6E72DE9F0410C46C2
:103F80002DED068B054690ED000AD0ED010AB8EE46
:103F9000C00AB8EEE01AF8EEE00A20EE000A01EEE0
:103FA000200AD0ED020AB8EEE01AF8EEE00A01EEBF
:103FB000200A02F03CFF10EE100A4FF07E58002657
:103FC0004FF0804740453FDDD5ED020AB7EE009A3D
:103FD000F8EEE00AC0EE808A39EE680A9FED89AA01
:103FE000B5EEC00AF1EE10FA01DCB0EE4A0AF6EEC8
:103FF000009A20EE290A02F01AFFB0EE408A38EE4D
:10400000890AB5EEC00AF1EE10FA01DCB0EE4A0AF8
:1040100020EE290A02F00BFFF0EE408A95ED000A2F
:10402000B8EEC00A60EE000A95ED010AB8EEC01ABB
:10403000B8EEC00A41EE000AB0EE600A02F0F7FEE8
:1040400010EE100A404503DCC4E90076A66025E0C6
:10405000DFED740A28EEA01ABDEEC11A84ED001A35
:1040600095ED011AF8EEC11A81EE801A21EE081AB8
:1040700061EE200AFDEEE00AC4ED010AD5ED000A6A
:10408000F8EEE00A80EE801A21EE080ADFED660AFB
:1040900020EE200ABDEEC00A84ED020AE660BDEC07
:1040A000068BBDE8F08170B590ED000AD0ED010AF5
:1040B0000546B8EEC00AB8EEE01AF8EEE00A0C4683
:1040C00020EE000A01EE200AD0ED020AB8EEE01A56
:1040D000F8EEE00A01EE200AD0ED030AB8EEE01A8D
:1040E000F8EEE00A01EE200AB5EEC00AF1EE10FA91
:1040F00007D84FF08040206000206060A060C8605A
:1041000070BD02F094FEB7EE001AC1EE000A9FEDFA
:10411000450A20EE800AD5ED000AF8EEE00A60EECE
:10412000800AFDEEE00AC4ED000AD5ED010AF8EEC2
:10413000E00A60EE800AFDEEE00AC4ED010AD5ED6A
:10414000020AF8EEE00A60EE800AFDEEE00AC4ED35
:10415000020AD5ED030AF8EEE00A20EE800ABDEE71
:10416000C00A84ED030A70BD70B5044690F83000B3
:1041700088B040067ED5A069002801DB014600E03A
:1041800041424FF480320026284D91420BDAE1691A
:10419000002900DA4942914205DA216A002900DA51
:1041A0004942914267DB002800DA40424FF4C801DF
:1041B00088420BDCE069002800DA4042884205DCD6
:1041C000206A002800DA4042884201DD032000E036
:1041D0000220A863696BA06A814242D0686394EDB3
:1041E0000A0A9FED131AF8EEC00A80EE810ADFED8D
:1041F000110A20EE200A10EE100A01F050FB1BE01D
:10420000000080300000000017B75139A69BC43B66
:104210000AD7233C8FC2753DCDCC4C3ECDCCCC3E95
:104220000014CD470000804E000080CEA027002063
:10423000002474490000004E9FEDFA1B53EC112B33
:1042400001F0E5F99FEDF91B53EC112B01F0DFF9BB
:104250009FEDF81B53EC112B01F04BFA01F000FB22
:1042600028630496296BA06906F013FC0590296B5E
:10427000E06901E022E023E006F00BFC0690296BE8
:10428000206A06F006FC07906A4604A9EB4806F08F
:104290005CFC0098E94A8001009001986946800121
:1042A00001900298800102900398800103901046CB
:1042B00006F0F5FBE1490846FFF7F5FE08B070BDD2
:1042C000AE63FBE770B504462DED048B8EB0D0F8DD
:1042D0002001410676D5D94DD4F81011D84B2A6863
:1042E000891AD4F82C215A438A4201DA032100E0CA
:1042F0000221A963800504F5887602D5CF493046AE
:10430000B5E0002107A806F0C3F9CC490C223C31E6
:1043100007A801F0C8F820B9D4F82801A96D88428F
:104320007ED020886B4680B207AA616A05F0F2FF52
:104330009DED000ADDED010AB8EEC00AB8EEE01A04
:10434000F8EEE00A20EE000A01EE200ADDED020A96
:10435000B8EEE01AF8EEE00A01EE200A02F067FD7E
:10436000B0EE408A9FEDB70A68EE000A9FEDB61ADC
:1043700080EE810ADFEDB50A20EE200AD4ED4A0A6C
:10438000F8EEE00A60EE800A1FED571A80EE810A0F
:10439000F6EE000A20EE209AB0EE490A02F0ACF9DF
:1043A000F0EE408AB0EE490A02F03CFC18EE100A2A
:1043B0004FF08041884206DA0020C5E912102865D6
:1043C000686532E055E05FED690A68EEA00AFDEE2F
:1043D000E00AC5ED120A5FED6C0A20EE200ADDED61
:1043E000000AF8EEE00A60EE200A80EE881AFDEE80
:1043F000C10AC5ED130ADDED010AF8EEE00A60EE30
:10440000200A80EE881AFDEEC10AC5ED140ADDED22
:10441000020AF8EEE00A20EE200AC0EE080A00E0E8
:104420000DE0BDEEE00A85ED150A07AB93E8070045
:1044300005F13C0383E80700D4F82801A8657F490B
:1044400003AA4831304606F080FB7C480AAA5C305B
:1044500003A9044606F079FB2146304606F052FBDC
:1044600003AA0AA9754806F070FB744903A8FFF770
:104470001AFE0EB0BDEC048B70BD1FB50446694634
:104480006E4806F03FFB6D4A69462032204606F032
:104490005CFB6A491DCC103181E81D001FBD2DE970
:1044A000F0470446654E90F8740006F15C0A06F188
:1044B0002008012500F05001103692B004F58879EB
:1044C00004F15C07402906D094F8200100F0500068
:1044D00040280DD01DE031463846FFF74EFDB4F8B8
:1044E0002001C0050CD55146484606F00BFB07E0FD
:1044F0005146484606F006FBB4F87400C00508D5DE
:1045000069464E4806F0FEFA42466946304606F0D5
:104510001CFBB4F82001C005204602D5FFF7D2FEEF
:1045200001E0FFF721FE32464449404606F00DFB0C
:1045300094F8740040066FD5208EB4F8201108431B
:10454000C0056DD50FAA3946304606F059FCD4E9AE
:10455000172080FB0001C2FB0201626E374FC2FBD5
:1045600002014FF08042801A71F1020014DB04A8AE
:1045700006F0E0F8DDE9042080FB0001C2FB020147
:10458000069AC2FB02014FF08042801A71F10200CC
:1045900002DB0420B8630BE0B86B042808D041F2BA
:1045A0008832022806D0032804D0012852D009E01E
:1045B000002507E0E16E91FBF2F5012D00DA0125FF
:1045C000032800D0AD0022480024454310980794EA
:1045D0008002294606F05DFA08900F98294640426D
:1045E000800206F056FACDE909040BAA314607A865
:1045F00006F0ABFA32460BA9104606F050FA3146E7
:104600000846FFF750FD69460C4806F07BFA424623
:104610006946304606F099FA12B00020BDE8F087EE
:1046200020E00000112D4454FB210940000000004F
:10463000000070400000000000806640A0270020BD
:1046400071981C00DB0F49400000344300008037A4
:10465000A69BC400E06E90FBF2F0012800DA012076
:104660004500AFE7334619463846E26EFFF7A0FB38
:10467000C9E770B50446008EC105D4F8200107D4FF
:10468000B4F87410C90503D4C10501D4002070BD6D
:10469000C0F30120032807D02046FFF700FF23487E
:1046A000A16B06F021FFF1E704F588711F482EC9C0
:1046B00080E82E00F3E71E4806F026BF1B4810B521
:1046C0006C21103800F0DDFE18484FF080411038A2
:1046D000016101600162C163C165002010BD18481D
:1046E00010B5082213A1006800F0DDFE08B13220E9
:1046F00010BD1322BDE81040C8210D4806F00CBCC7
:1047000010B5FFF7DBFF002805D1AFF22D00BDE8A3
:10471000104006F089BC10BD10B5054806F0F4FE47
:10472000AFF24500BDE8104006F014BFB0270020EE
:1047300073460000654D504C20352E3100000000BE
:104740000000002000209FEDFE0AFE4ADFEDFE0A79
:1047500002EB8001401C81ED080AC0B2C1ED0B0ADA
:104760000328F5D37047F74A002002EB8001D1ED12
:10477000080A91ED2D0AF4EEC00AF1EE10FA01D20A
:1047800081ED080AD1ED0B0AF4EEC00AF1EE10FA41
:1047900001DD81ED0B0A401CC0B20328E5D3704750
:1047A0003EB50B46B0F8481009040091B0F84A1025
:1047B000009A09040191B0F84C1009040291E149F2
:1047C0004C6E121B0092019A8C6E121B0192029A7F
:1047D000C96E511A0291816EB0F844006A4680B2E7
:1047E00005F098FD3EBDF0B5D64F00242546D7F81C
:1047F00094208DB02E46012A01D1C7F8946009A9F2
:10480000FFF7CEFF05A805F00BFF05990998602278
:10481000A0EBA130099006990A98A0EBA1300A906C
:1048200007990B98A0EBA130C8490B90081F00F026
:1048300001FE0DF1240CC5489CE80E00143080E800
:104840000E00684605F076FFC04960226C31081FF3
:1048500000F0F0FDBD489DE80E00803080E80E00BD
:1048600000210922D7F82C04401CC7F82C0401EBC6
:10487000410007EB8000DDF800C0D0F84C33491C44
:1048800093FBF2F31C44D0F85033092993FBF2F365
:104890001D44D0F8543393FBF2F31E44D0F8B833E0
:1048A00093FBF2F363440093D0F8BC33DDF804C00B
:1048B00093FBF2F363440193D0F8C003029B90FB97
:1048C000F2F018440290CDDB002C00DA6442002D97
:1048D00000DA6D42002E00DA76420098002800DAF5
:1048E000404200900198002800DA4042019002986E
:1048F000002800DA40420290009900208C4200DA41
:10490000012001998D4200DA401C02998E4200DAA2
:10491000401CD7F82C14092900DB401C04280DD1B9
:1049200097F8240402280BD901468648D7F8282492
:10493000643006F00FFC012006F006FC0DB0F0BD5F
:1049400006F0D0FBFAE72DE9F0417E4D00272DED72
:10495000048B06463C4685F824749FED7D9B9FEDB5
:104960007E8BC5F8287405EB8400D5ED0F0A90ED19
:10497000330AB4EEE00AF1EE10FA1EDB95ED140BEB
:1049800053EC182B51EC100B00F03BFE41EC100BDC
:1049900001F05AFF53EC192B51EC100B00F092FF71
:1049A0000BD295F824040121401C85F82404D5F885
:1049B0002804A1400843C5F82804641CE4B2032C71
:1049C000D1D395F82404B8B3002406EBC40090EDCD
:1049D000000B51EC100B00F043FF05EB8401641C4D
:1049E000E4B24866032CF0D3C5F82C74A8680428F8
:1049F00002DA95F82404A86095F8240403281BD152
:104A00005749E868884217DC95ED140B53EC182BD6
:104A100051EC100B00F0F5FD41EC100B01F014FF10
:104A200053EC192B51EC100B00F04CFF04D2A8688A
:104A3000032801D10420A8604A49286988421DDA68
:104A40004949E868884219DC95ED140B53EC182BA2
:104A500051EC100B00F0D5FD41EC100B01F0F4FE11
:104A60009FED421B51EC100B53EC112B00F02AFF71
:104A700004D2A868042801D10520A860BDEC048BED
:104A8000BDE8F0812DE9F0412E4C0746D4F8A4048E
:104A9000012802D000252846F2E73649F7EE000A41
:104AA000A1F1E800B7EE000A0646FBF714FD254A1F
:104AB0003046503202F5AC71FBF7AFFF0500EAD08B
:104AC0006068401C606094ED140B51EC100B00F01A
:104AD000C7FEB96E05F0DDFF00EE100ADFED260A15
:104AE000B8EEC00A20EE200A10EE100A00F0D7FE41
:104AF000C4E9140194ED6A0B51EC100B00F0B0FE08
:104B0000A06594ED6C0B51EC100B00F0A9FEE06574
:104B100094ED6E0B51EC100B00F0A2FE206694EDAC
:104B2000680B9FED161B51EC100B53EC112B00F092
:104B3000E1FEB0D231469FED130AF0EE400A23E0C9
:104B400000401CC61028002000401C46602B00209E
:104B50009A9999999999B93F000000000000F03F97
:104B6000AE47E13D00007A43BC74933C9CC420B046
:104B70007268913FD82900200000803700000000B3
:104B80000070A740CDCCCC3E0846FBF7A4FC82E7E2
:104B9000D0ED030A90ED040A00210122F4EEC00AD0
:104BA0000223F1EE10FA12DD90ED051AF4EEC10ABF
:104BB000F1EE10FA0BDDB4EEC10A0164F1EE10FA69
:104BC00002DBC0E911237047C0E911327047B4EE2F
:104BD000E00AF1EE10FA12DD90ED051AB4EEC10A0A
:104BE000F1EE10FA0BDDF4EEC10A0264F1EE10FAF8
:104BF00002DBC0E911137047C0E911317047F4EED0
:104C0000C00A0364F1EE10FA02DBC0E9111270472A
:104C1000C0E911217047002319469FEDFE0AC364C5
:104C200000EB8102491C82ED000A82ED090A03298A
:104C3000F6DB0121C0E91D13704730B5044614208E
:104C4000A0650A202066002584F870502046FFF7F2
:104C5000E2FF656530BD70B52DED048B86B0694609
:104C6000FFF79EFD9FEDEC8B1FED3D9A00246E46F5
:104C700003AD56F8240000EE100A05EB8400B8EEF0
:104C8000C00A20EE090A80ED000A20EE000A10EEAC
:104C9000100A00F004FE53EC182B00F011FC41EC5C
:104CA000180B641C032CE4DBB0EE480AF0EE680A33
:104CB00002F080F8DA4EB0EE408AF0EE608A00240E
:104CC00055F8240000F0EBFD53EC182B00F011FD1B
:104CD00000F028FE00EE100A06EB840000F580606C
:104CE000641CD0ED0C0A032C30EE200A80ED0C0A77
:104CF000E6DBD6F88404401CC6F884040120C6F81C
:104D0000AC0406B0BDEC048B70BD70B505462DED4E
:104D1000028B86B004AA03A9684605F097FD9FEDB3
:104D2000BE8B00246E4606EB840090ED000A20EE58
:104D3000000A10EE100A00F0B2FD53EC182B00F040
:104D4000BFFB41EC180B641C032CECDBB0EE480AF3
:104D5000F0EE680A02F02EF8B0EE408AF0EE608ABB
:104D6000002456F8240000F09AFD53EC182B00F0B4
:104D7000C0FC00F0D7FD00EE100A05EB8400641CB7
:104D8000D0ED000A032C30EE200A80ED000AE8DBAB
:104D9000686D401C68650120E86706B0BDEC028BB9
:104DA00070BDF0B504460021F7EE001A9FED992A78
:104DB00094ED140A04EB8100B8EEC01AD0ED000A9D
:104DC00080EE810AB5EEC00AF1EE10FA02DBB0EE19
:104DD000401A01E0B1EE401AD0ED060AF5EEC00A25
:104DE000F1EE10FA01DAF1EE600A71EE600AC0ED40
:104DF0000C0A80ED060A94ED0F1AD0ED092A71EE27
:104E0000610A00EEA20AC0EE010AC0ED090AF5EE41
:104E1000C00AF1EE10FA01DAF1EE600AC0ED030A01
:104E2000491C80ED002A0329C2DB2046FFF7B0FEB3
:104E3000E06CB0F57A7F01DA401CE06494F87070A1
:104E400000210526042303250122206C062F09D208
:104E5000DFE807F00309102B52376267A267E164AD
:104E600084F87020F0BDE06F0128FBD1022084F8A7
:104E700070000DE004EB8000D4ED190A90ED030AF8
:104E8000B4EEE00AF1EE10FA04DB84F8703031E0A1
:104E9000A167F0BDD4ED1A0AB4EEE00AF1EE10FA03
:104EA00022D934E06267A267F0BD04EB8000D4ED44
:104EB000190A90ED030AB4EEE00AF1EE10FAE4DA12
:104EC000F0BD04EB8000D4ED1A0A90ED030AB4EEB5
:104ED000E00AF1EE10FA07D9006B524EB04206D943
:104EE000216EE06C8842EBDB84F87050DAE784F8DE
:104EF0007030E1646167CBE704EB8000D4ED1B0AFE
:104F000090ED030AB4EEE00AF1EE10FAD8D884F876
:104F10007060E164C6E710B5044600EE104AB8EED2
:104F2000C00ADFED410A20EE200A9FED401AC0EED4
:104F3000010AB6EE000A20EE800A10EE100A00F018
:104F4000AEFC41EC100B01F073FB9FED391B51ECF3
:104F5000100B53EC112B00F05AFB00F081FC0146C2
:104F60002F48C0E9204110BD2DE9F04F00242DED60
:104F7000028B91B00546049405940694C06E44F6E5
:104F80002061274E884206DBD6F88010884210D078
:104F9000FFF7C1FF0DE0D6F848231044C6F84803D8
:104FA00088427DDBE96E814201D0FFF7B4FFC6F88D
:104FB0004843286BC6F8B0042846FFF74CFE06F5B8
:104FC000906003C8814204DB1B48FFF7EAFEC6F885
:104FD0008444D6F8A804012802D12846FFF703FC30
:104FE000D6F8A40401285BD104A805F0C1FB9DED0F
:104FF000040ADDED050A20EE000A00EEA00ADDED50
:10500000060A00EEA00A01F012FF86ED030ADFEDAA
:105010000B0A15E000000000000000000000000086
:1050200010280020CDCC4CBD368D2740002474497B
:10503000000000000000D041402C0020000080460D
:1050400020EE200AC149A146ADF82040BDEEC00ABD
:10505000099110EE100AADF81C00ADF81E4007A82B
:10506000FDF720FD684605F0BBFB316F009805F0A9
:1050700010FD0446716F019805F00BFD0444B16FFB
:10508000029805F006FD0444F16F039805F001FD58
:1050900004EB00089DE80F0000240DF1340A00E045
:1050A000A2E006F170079FEDAA8A87E80F000DF1D4
:1050B000280B05EB4407A96E37F8480F000405F0EC
:1050C000E8FC00EE100A4AF8240006EB8400B8EE73
:1050D000C00A20EE080A80ED050A388801044BF862
:1050E0002410641CE4B2032CE3D398480AA9E838DE
:1050F0000446FBF7C0FA3168D6F82803884273DB10
:1051000095ED390AD6ED360AB8EEC00AF5EEC00ABA
:1051100020EE080AF1EE10FA05D070EE600AF0EE0B
:10512000E00AC6ED370A86ED360AB068062818D2BE
:10513000DFE800F0030303030D249FED860AC82077
:1051400086ED0E0AB7EE000A86ED0F0A08E09FED25
:10515000820A86ED0E0A9FED810A642086ED0F0A11
:105160003064288EC005099812D4FDF7AAFB00F020
:105170002FFB00EE100A5FED530A11E09FED780A55
:1051800086ED0E0A9FED770A322086ED0F0AE7E7DB
:10519000FDF7F1FA00F01CFB00EE100ADFED720AD9
:1051A000982180EE201A86ED041A099800F069F91A
:1051B000D6F88410414543DA96ED040AB5EEC00AEC
:1051C000F1EE10FA3CDDD6ED0E0AB4EEE00AF1EE97
:1051D00010FA35D2316C7068884206DA2846FFF73B
:1051E00051FC002859D00CE056E06049D6F8B000D8
:1051F000884206DB2846FFF745FC00284DD0C6F85C
:105200000490002006EB8001401C91ED050AC0B21D
:1052100081ED2D0A0328F5D3FFF7A5FA002006EB50
:105220008001401C91ED080AD1ED0B0AC0B20328A1
:1052300030EE600A81ED330AF1D34D48FFF783FB6E
:10524000002006EB8001401C91ED260AD1ED050AF5
:10525000C0B2032830EE600AB0EEC00A81ED290A20
:10526000EFD396ED290AD6ED2A0A002030EE200A67
:10527000D6ED2B0A30EE200A86ED2C0A06EB8001D3
:10528000401C91ED050AC0B281ED260A0328F5D332
:10529000E821204600F0F5F8002011B0BDEC028BAB
:1052A000BDE8F08F10B54FF49761324800F0E9F88F
:1052B000304C0A20206040072067FFF743FA04F5CE
:1052C0008660FFF7BAFC2068C4F880049FED2A0AC4
:1052D00004F580601E2180ED1B0A9FED280AC4F8AA
:1052E0008C1480ED260A9FED260A80ED250A9FED9D
:1052F000250A80ED270A1920FDF784FE002010BD45
:10530000012240F25231AFF29F3005F005BEAFF2FC
:10531000A73006F0F9B810B5FFF7C4FF002805D193
:10532000AFF22300BDE8104005F07EBE10BD10B501
:10533000AFF2CB3006F0E8F8AFF23B00BDE810402A
:1053400006F008B90B48806870470000C02A0020AA
:10535000000080370080BB44000096439A99993F33
:10536000000070423333B33F0050C347CDCC4C3DB7
:10537000B82900201028002000000042CDCCCC3EEF
:10538000CDCC4C3F3333333F2DE9F0410024061B95
:10539000254671F1000605DA01240027D0EB07004D
:1053A00067EB0101161E73F1000605DA0027D2EB48
:1053B0000702012567EB030300F0E6FA86460E4676
:1053C00017469C46AC4204D00025D0EB050E65EB99
:1053D000010624B10020D2EB000760EB030C7046FD
:1053E00031463A466346BDE8F081202A04DB203A84
:1053F00000FA02F1002070479140C2F1200320FA28
:1054000003F3194390407047202A06DBCB17203A5C
:1054100041FA02F043EAE07306E041FA02F3D040B9
:10542000C2F1200291400843194670470048704776
:105430006C08010010B5431A934209D283188818EA
:1054400003E010F8011D03F8011D521EF9D210BD32
:1054500040EA01039B0703D009E008C9121F08C0F6
:10546000042AFAD203E011F8013B00F8013B521E76
:10547000F9D210BDD2B201E000F8012B491EFBD2D7
:1054800070470022F6E710B513460A46044619464F
:10549000FFF7F0FF204610BD421C10F8011B002949
:1054A000FBD1801A704730B504460020034600E067
:1054B0005B1C934203D2E05CCD5C401BF8D030BD56
:1054C0002DE9FE4F804681EA0300C00F0C46009094
:1054D00021F0004123F00045B8EB0200A94105D2BC
:1054E0004046214690461C460B46024623F00040AB
:1054F000104347D0270DC7F30A00C3F30A510290A7
:10550000401A019040286BDAC3F3130040F4801B6B
:105510000098924620B10023D2EB030A63EB0B0BF9
:1055200001985946C0F140025046FFF75EFF06461B
:105530000D4650465946019AFFF766FF10EB0800EA
:105540006141002487EA115284EAE7731A4340D08C
:10555000009A62B3019A012A4FEA075215DC001B38
:1055600061EB02014FF0004202EA0752CDE900422E
:10557000001C41F5801132462B4600F08CFA03B036
:10558000BDE8F08F40462146F9E7001B61EB0201C0
:10559000001C41F5801300185B412018A2F500178C
:1055A00047EB030140EAD570B6196D4111E06D0873
:1055B0004FEA360645EAC0754FEA0752001B61EB19
:1055C0000201001C41F5801149084FEA3000001922
:1055D000514132462B4603B0BDE8F04F00F04CBAC3
:1055E0000098012240000023D0EB020263EBE0733D
:1055F000009821464FEAE074B8EB000061EB04012B
:10560000E9E783F000435BE781F0004158E72DE9CB
:10561000FE4F81EA030404F0004421F000410094AD
:105620004FF0000B23F0004350EA01045ED052EA31
:1056300003045BD0C3F30A54C1F30A552C44A4F20B
:10564000F3340194A0FB0254C1F3130141F480111F
:10565000C3F3130343F4801301FB024400FB034E26
:10566000840A970A44EA815447EA8357A4FB0768EF
:1056700002958D0A05FB07854FEA932C04FB0C5419
:105680002705029D4FEA065847EA1637B5EB08058D
:105690006EEB070C870E920E47EA811742EA8312DF
:1056A000A7FB0201B6EB0B0164EB00042B0D43EAF0
:1056B0000C335E1844EB1C50DA465146E7FB0201FE
:1056C000C5F313044FEA0B3343EA14534FEA043291
:1056D000019C43EA0603A4F10C040294009CCDE96A
:1056E00000B400F0D8F903B0BDE8F08F0020014607
:1056F000F9E72DE9F04D81EA030404F0004B21F0B5
:10570000004514464FF0000A23F0004150EA05021C
:1057100020D054EA01021DD0C5F30A570246C5F352
:105720001303C1F31300C1F30A5640F4801543F488
:105730008013A7EB0608101BD64608F2FD3873EB62
:10574000050002D308F1010801E092185B41B8F1AD
:10575000000F03DA00200146BDE8F08D00204FF471
:105760008011064684460EE0171B73EB050705D330
:10577000121B63EB050306434CEA010C49084FEA90
:10578000300092185B4150EA0107EDD152EA030064
:1057900012D082EA040083EA0501084305D0101BF9
:1057A000AB4106D20122002306E000224FF0004365
:1057B00002E06FF0010253101AEB06004CEB0851A7
:1057C00010EB0A0041EB0B01BDE8F04D00F054B9BD
:1057D000F0B4CA17CB0F50405140C61841F1000534
:1057E0004FEAC372314628004FF0960303D0B62328
:1057F000F0BC00F013B930460021F9E70EB5C10F37
:1058000080EAE0700844CA07002140F233438DE883
:105810000E000A460B4600F03EF903B000BD10B57D
:1058200000F0004420F00040C20DC0F3160040F428
:1058300000007F2A02DA0020014610BD0021962ACE
:1058400003DCC2F19602D04002E0963AFFF7CDFDAC
:10585000002CF2D00023D0EB030063EB010110BD5C
:1058600070B5C1F30A5201F000450024C1F31301E1
:1058700040F2FF3341F480119A4201DA002070BDFA
:1058800040F233439A42A2F2334203DC524200F028
:10589000ACF800E090402C43F1D0404270BD00F0E5
:1058A000004230F000400AD0C10D01F56071C0F334
:1058B000160042EA0151C208400711437047002018
:1058C0000146704730B5041E71F1000404DB4FF04F
:1058D0000044404264EB0101141E73F1000405DB37
:1058E0001C464FF00043524263EB04038B4208BF57
:1058F000824230BD30B5041E71F1000404DB4FF06C
:105900000044404264EB0101141E73F1000405DB06
:105910001C464FF00043524263EB0403994208BF18
:10592000904230BD01F0004330B421F0004150EA14
:10593000010206D00A0DA2F56072C1F31301002A1C
:1059400002DC30BC00207047440F44EAC104C100AF
:10595000E01830BC00EBC25000F057B830B50B4631
:10596000014600202022012409E021FA02F59D428F
:1059700005D303FA02F5491B04FA02F52844151E63
:10598000A2F10102F1DC30BD2DE9F05F05460020F7
:1059900092469B4688460646814640241BE02846A0
:1059A00041464746224600F020F853465A46C01A60
:1059B000914110D3114618462246FFF716FD2D1AC5
:1059C00067EB01084F46224601200021FFF70DFD3D
:1059D00017EB00094E41201EA4F10104DFDC48460C
:1059E00031462A464346BDE8F09F202A04DB203A90
:1059F00021FA02F00021704721FA02F3D040C2F1EF
:105A0000200291400843194670470029A8BF7047FB
:105A1000401C490008BF20F00100704710B4B0FAE4
:105A200080FC00FA0CF050EA010404BF10BC70477F
:105A300049B1CCF1200421FA04F411FA0CF118BF99
:105A4000012121430843A3EB0C01CB1D4FEA006168
:105A50004FEA102042BF002010BC704700EBC3503B
:105A600010440029A4BF10BC7047401C490008BF67
:105A700020F0010010BC704710B5141E73F1000433
:105A800008DA401C41F1000192185B411A4301D130
:105A900020F0010010BD2DE9F04D92469B4611B15A
:105AA000B1FA81F202E0B0FA80F220329046FFF7BC
:105AB0009CFC04460F4640EA0A0041EA0B015346AB
:105AC0005A46084313D0114653EA010019D0C8F1D1
:105AD00040025046FFF789FF05460E46504659469C
