:020000040000FA
:1000000030540020150200001D0200001F020000F5
:100010002102000023020000250200000000000071
:1000200000000000000000000000000027020000A7
:1000300029020000000000002B0200002D02000039
:10004000592100002F020000312400003522000059
:100050002F0200002F0200003D1F00002F020000B1
:100060002F0200002F0200002F0200002F020000CC
:100070002F0200002F0200002F0200002F020000BC
:100080002F020000112200002F0200002F020000AA
:10009000452200002F0200002F0200002F02000066
:1000A0002F0200002F0200002F0200002F0200008C
:1000B0002F0200002F0200000000000000000000DE
:1000C0002F0200002F0200002F0200002F0200006C
:1000D0002F0200002F0200002F0200002F0200005C
:1000E0002F0200002F0200002F0200002F0200004C
:1000F000000000002F0200000000000000000000CF
:1001000000000000000000000000000000000000EF
:1001100000000000000000000000000000000000DF
:1001200000000000000000000000000000000000CF
:1001300000000000000000000000000000000000BF
:1001400000000000000000000000000000000000AF
:10015000000000000000000000000000000000009F
:10016000000000000000000000000000000000008F
:10017000000000000000000000000000000000007F
:10018000000000000000000000000000000000006F
:10019000000000000000000000000000000000005F
:1001A000000000000000000000000000000000004F
:1001B000000000000000000000000000000000003F
:1001C000000000000000000000000000000000002F
:1001D000000000000000000000000000000000001F
:1001E000000000000000000000000000000000000F
:1001F00000000000000000000000000000000000FF
:10020000DFF80CD001F088FE00480047F55A0000E6
:10021000305400200648804706480047FEE7FEE7C6
:10022000FEE7FEE7FEE7FEE7FEE7FEE7FEE7FEE7A6
:100230004922000001020000F0B516462DED028BA8
:1002400085B01F460C4605463C22FE49A1F10C0034
:1002500001F00AFBFB4950224C31A1F1100001F0E2
:1002600003FBF84996E80D000C3901F13C0C8CE8D1
:100270000D005CCC01F1980080E85C009FEDF28AF3
:10028000D1F82401401CC1F82401062802DD062013
:10029000C1F82401C0F106060C46A0351AE004EBB3
:1002A00006116A463846483104F09FFE06EB4600C8
:1002B00004EB80016A46284604F0C6FAF0EEC00A54
:1002C000B0EEC81AF4EEC10AF1EE10FA01D2B0EEA7
:1002D000408A761C062EE2DB05B0B0EE480ABDEC83
:1002E000028BF0BD70B514462DED048B0E46B0EEBA
:1002F000408A00259FEDD59A416BF0EE498A00298E
:1003000004DBD0F8BC00032800D10125CD4924220C
:10031000B431081F01F0A8FACA480C38002380ED58
:10032000388A00EB83015B1C91ED2F0A0A2B70EEDB
:10033000288AF6DBB2EE040AC822C8EE800AC0EDB5
:10034000390A9FEDC31A322E1DDB9FEDC20AC0F899
:100350001C21B6F57A7FC8EE001A00EE104AB8EEFE
:10036000C00A61EE801A81EE810A2FDB9FEDBA0A86
:10037000C8EE001A00EE104AB8EEC00A61EE801A0C
:1003800081EE810A22E041F2883194FBF1F1494289
:10039000D0F81C3101EB8101C918C0F81C1102D53D
:1003A0000021C0F81C119FEDAD0AC8EE001A00EE46
:1003B000104AB8EEC00A61EE801A81EE810A29B9AE
:1003C000D0F82811012901D1B0EE490AD0F8201146
:1003D00009B1B0EE480AA2498C4201D1B0EE480AF8
:1003E000B5EEC00AF1EE10FA01D0C0ED3A0A90ED78
:1003F0003A1A9C4B71EE600AF0EEE00A10EE901A89
:10040000994227DDD0ED2E0AF5EEC00AF1EE10FA82
:1004100020D1002D1ED0C0F81C21204601F0F2FB97
:1004200041EC190B18EE100A01F01CFC9FED8E1B1D
:1004300053EC112B01F077FB53EC192B01F001FB6E
:100440009FED8B1B53EC112B01F06DFB01F036FC83
:1004500000EE100ABDEC048B70BD2DE9F04F044690
:100460002DED048BA9B09FED799A4FF0000A754EDF
:10047000CDF810A00C3ECDF814A0CDF818A0D6F8F9
:100480002011022003297DD000209FED7B8A20AD22
:1004900006EB800191ED2A0A05EB8001401CB8EEC5
:1004A000C00A042820EE080A81ED000AF0DB0FA83C
:1004B00004F042FB24A804F093FB624B24AA9C3373
:1004C0000FA920462793FFF7B7FEF0EE408A04F10C
:1004D000180004F0D7FB81096148D6F83021824228
:1004E00000DB0246B0EE680A2046FFF7FBFED6EDC1
:1004F0003B0AB3460BA820EE200A86ED2E0A04F034
:100500001BFB13A90BA804F0EAFE4E480FAAF0301B
:100510000BA9064604F069FD31460BA804F042FD24
:1005200000210DF13C080DF14C090DF1100E0022D7
:100530001346104601EB410C0CEB000759F82760FD
:1005400008EB8007401C7F680328C6FB0723F3DB0A
:10055000900F40EA83004EF82100491C0329E6DB96
:10056000DBF820015E4600286AD05046CDF818A07E
:10057000404200EE100AB8EEC00A20EE080A02F06F
:10058000B9F900E0A2E08DED000A8DED019A8DED44
:10059000029A0698404200EE100AB8EEC00A20EE19
:1005A000080A02F04FFA8DED030A9DED060ADFED11
:1005B000330AD6F83001B8EEC00A41F2883190FB18
:1005C000F1F080EE201A00EE100AF8EEC01A81EE6B
:1005D000210AB0EE001AC0EE011ABDEEE10A10EEDB
:1005E000101A490000EE101A0691B8EEC00A60EE2B
:1005F000200A00EE100AB8EEC00A20EE800ABDEE16
:10060000C00A8DED060AB8EEC00A20EE080A02F014
:1006100071F98DED070A8DED089A8DED099A9DED22
:10062000060AB8EEC00A20EE080A02F00BFA8DEDB9
:100630000A0A1CAA694620A804F02FFD6A461FE09A
:100640004BE00000E011002000247449000000008D
:1006500000409C4500004843000048420000C84359
:1006600040420F000E2DB23D000000000000794016
:10067000000000000088B34000008030E1023747EE
:1006800007A91CA804F009FD6F46DFED958AD4F890
:10069000BC00002813DD002007EB800191ED000A6B
:1006A00005EB800181ED000A20EE280A06EB8001AF
:1006B000401C0428BDEEC00A81ED2A0AECDBD4F808
:1006C000BC00F6EE009A03280CD108E0C6F8200121
:1006D00029B0BDEC048BBDE8F08F069848E701F027
:1006E000A5F8E0B396ED2A0AB8EEC00A20EE080A93
:1006F0008DED1C0A96ED2B0AB8EEC00A20EE080A12
:100700008DED1D0A96ED2C0AB8EEC00A20EE080AFF
:100710008DED1E0A96ED2D0AB8EEC00A20EE080AED
:100720008DED1F0AD6F820010028D1D096ED2E0AB3
:1007300020EE290A02F0DEF820EE280ABDEEC00AFB
:1007400086ED2A0AC6F8ACA0C6F8B0A096ED2E0A2F
:1007500020EE290A02F076F920EE280A00E004E0F3
:10076000BDEEC00A86ED2D0A2BE096ED2E0A20EE96
:10077000290A02F0BFF88DED070A8DED089A8DED7C
:10078000099A96ED2E0A20EE290A02F05BF98DED0A
:100790000A0A6A4607A920A804F07FFC684604F00C
:1007A00027FD002007EB800191ED000A06EB800198
:1007B000401C20EE280A0428BDEEC00A81ED2A0A5A
:1007C000F0DBD4F8C010279804F0FEFED6F8200124
:1007D0000028AAD0401E79E770B590F8B810414AB9
:1007E000CC064FF000034FF0030101D4C2E94813D7
:1007F000B0F82041E40509D4048EE40503D5B0F82F
:100800007440E40502D4C2E948131AE0D2F8341166
:1008100039B1D0E93013C91A4FF47A73B1FBF3F14F
:1008200005E0D0F8B01044F62064A14202DBC2F823
:1008300030110AE0D2F82C512944C2F82C11A142FF
:1008400001DA002070BDC2E94B31FFF706FEF8E780
:1008500010B54FF49C71234801F02DF8214C4FF056
:1008600080400021C4F8FC0044F8A80F1D48A830BF
:1008700004F0AAFE4FF47A70B7EE000A606784EDC8
:10088000110A10BD174880ED3B0A0020704715493A
:10089000C1F82801002070471249C1F83401002036
:1008A000704704224FF41671AFF2D30004F084BDF8
:1008B000AFF2DB0004F094BF10B5FFF7C9FF0949A0
:1008C0000020C1F82801C1F83401AFF22900BDE8C9
:1008D000104004F0F9BDAFF2350004F0A7BF0000EE
:1008E0000000804ED4110020F0B51D462DED028B86
:1008F00099B090ED000AD0ED010A1746B8EEC00A93
:10090000B8EEE01AF8EEE00A0E4620EE000A0446C1
:1009100001EE200AD0ED020AB8EEE01AF8EEE00A85
:1009200001EE200A02F056F9F0EEC00A10EE900A2D
:10093000B0F18D4F7EDDD6ED000AB8EEE01ADFEDA6
:10094000FE0A21EE201A8DED041A96ED011AB8EE7A
:10095000C11A21EE201A8DED051A96ED021AB8EE95
:10096000C11A21EE201A8DED061A96ED031AB8EE83
:10097000C11A61EE200ACDED070A9FEDF08A10AA98
:100980008DED0C8AD4ED000A0CA904A8F8EEE00A5B
:1009900080EE801A8DED0D1AD4ED010AF8EEE00A12
:1009A00080EE801A8DED0E1AD4ED020AF8EEE00A00
:1009B00080EE801A8DED0F1A04F06FFB14A904A8C5
:1009C00004F0FCFA6A4614A910A804F066FB9DED39
:1009D000021ADDED010ADA4921EE010A00EEA00A51
:1009E00010EE100A884202DA9FEDD60A11E010EEEE
:1009F000100AD549884202DA9FEDD40A09E010EEC8
:100A0000100AD349884202DAB5EE000A01E09FEDF0
:100A1000D10A01EE907AB8EEE12ADFEDCF2A8DED12
:100A2000088AC2EE221A21EE800A21EE001A8DED0C
:100A3000091A00E038E020EEC00A6A4604A98DEDEC
:100A40000A0A8DED0B8A08A804F027FB6A4604A960
:100A5000104604F086FA684604F088FBDDED000AD3
:100A60009FEDBE0A60EE800AFDEEE00AC5ED000AC9
:100A7000DDED010A60EE800AFDEEE00AC5ED010A37
:100A8000DDED020A60EE800AFDEEE00AC5ED020A25
:100A9000DDED030A20EE800ABDEEC00A85ED030AF3
:100AA00019B0BDEC028BF0BD96E80F0085E80F0091
:100AB000F6E72DE9F0410C462DED068B054690ED4D
:100AC000000AD0ED010AB8EEC00AB8EEE01AF8EE5E
:100AD000E00A20EE000A01EE200AD0ED020AB8EE8C
:100AE000E01AF8EEE00A01EE200A02F073F810EEC8
:100AF000100A4FF07E5800264FF0804740453FDDFA
:100B0000D5ED020AB7EE009AF8EEE00AC0EE808A50
:100B100039EE680A9FED89AAB5EEC00AF1EE10FA27
:100B200001DCB0EE4A0AF6EE009A20EE290A02F045
:100B300051F8B0EE408A38EE890AB5EEC00AF1EEFF
:100B400010FA01DCB0EE4A0A20EE290A02F042F85F
:100B5000F0EE408A95ED000AB8EEC00A60EE000A99
:100B600095ED010AB8EEC01AB8EEC00A41EE000ACF
:100B7000B0EE600A02F02EF810EE100A404503DCD9
:100B8000C4E90076A66025E0DFED740A28EEA01A1D
:100B9000BDEEC11A84ED001A95ED011AF8EEC11AE6
:100BA00081EE801A21EE081A61EE200AFDEEE00ABD
:100BB000C4ED010AD5ED000AF8EEE00A80EE801AD5
:100BC00021EE080ADFED660A20EE200ABDEEC00A1B
:100BD00084ED020AE660BDEC068BBDE8F08170B5DD
:100BE00090ED000AD0ED010A0546B8EEC00AB8EE55
:100BF000E01AF8EEE00A0C4620EE000A01EE200AA8
:100C0000D0ED020AB8EEE01AF8EEE00A01EE200A92
:100C1000D0ED030AB8EEE01AF8EEE00A01EE200A81
:100C2000B5EEC00AF1EE10FA07D84FF08040206010
:100C300000206060A060C86070BD01F0CBFFB7EE1F
:100C4000001AC1EE000A9FED450A20EE800AD5ED9C
:100C5000000AF8EEE00A60EE800AFDEEE00AC4ED5C
:100C6000000AD5ED010AF8EEE00A60EE800AFDEE1A
:100C7000E00AC4ED010AD5ED020AF8EEE00A60EEE2
:100C8000800AFDEEE00AC4ED020AD5ED030AF8EE93
:100C9000E00A20EE800ABDEEC00A84ED030A70BDB2
:100CA00070B5044690F8300088B040067ED5A06943
:100CB000002801DB014600E041424FF4803200266B
:100CC000284D91420BDAE169002900DA494291424C
:100CD00005DA216A002900DA4942914267DB0028DF
:100CE00000DA40424FF4C80188420BDCE06900287A
:100CF00000DA4042884205DC206A002800DA4042DF
:100D0000884201DD032000E00220A863696BA06A2D
:100D1000814242D0686394ED0A0A9FED131AF8EEFF
:100D2000C00A80EE810ADFED110A20EE200A10EEE3
:100D3000100A00F097FF1BE0000080300000000068
:100D400017B75139A69BC43B0AD7233C8FC2753DC8
:100D5000CDCC4C3ECDCCCC3E0014CD470000804ED7
:100D6000000080CE0C130020002474490000004EC7
:100D70009FEDFA1B53EC112B00F063FE9FEDF91B66
:100D800053EC112B00F05DFE9FEDF81B53EC112B83
:100D900000F0C9FE00F047FF28630496296BA069A4
:100DA00004F0C7F80590296BE06901E022E023E038
:100DB00004F0BFF80690296B206A04F0BAF8079097
:100DC0006A4604A9EB4804F010F90098E94A80014A
:100DD000009001986946800101900298800102907C
:100DE000039880010390104604F0A9F8E1490846F1
:100DF000FFF7F5FE08B070BDAE63FBE770B50446C3
:100E00002DED048B8EB0D0F82001410676D5D94D5A
:100E1000D4F81011D84B2A68891AD4F82C215A43D7
:100E20008A4201DA032100E00221A963800504F56A
:100E3000887602D5CF493046B5E0002107A803F0F7
:100E400007FFCC490C223C3107A800F046FD20B931
:100E5000D4F82801A96D88427ED020886B4680B2E4
:100E600007AA616A03F046FD9DED000ADDED010A67
:100E7000B8EEC00AB8EEE01AF8EEE00A20EE000A7A
:100E800001EE200ADDED020AB8EEE01AF8EEE00A03
:100E900001EE200A01F09EFEB0EE408A9FEDB70AF7
:100EA00068EE000A9FEDB61A80EE810ADFEDB50A02
:100EB00020EE200AD4ED4A0AF8EEE00A60EE800A3D
:100EC0001FED571A80EE810AF6EE000A20EE209AF6
:100ED000B0EE490A01F00EFDF0EE408AB0EE490A8C
:100EE00001F0B0FD18EE100A4FF08041884206DA9A
:100EF0000020C5E912102865686532E055E05FED15
:100F0000690A68EEA00AFDEEE00AC5ED120A5FED7F
:100F10006C0A20EE200ADDED000AF8EEE00A60EE31
:100F2000200A80EE881AFDEEC10AC5ED130ADDED38
:100F3000010AF8EEE00A60EE200A80EE881AFDEE63
:100F4000C10AC5ED140ADDED020AF8EEE00A20EE52
:100F5000200AC0EE080A00E00DE0BDEEE00A85EDD3
:100F6000150A07AB93E8070005F13C0383E8070087
:100F7000D4F82801A8657F4903AA4831304604F017
:100F800034F87C480AAA5C3003A9044604F02DF822
:100F90002146304604F006F803AA0AA9754804F071
:100FA00024F8744903A8FFF71AFE0EB0BDEC048BB9
:100FB00070BD1FB5044669466E4803F0F3FF6D4AE5
:100FC00069462032204604F010F86A491DCC1031E1
:100FD00081E81D001FBD2DE9F0470446654E90F8DD
:100FE000740006F15C0A06F12008012500F05001AA
:100FF000103692B004F5887904F15C07402906D0D8
:1010000094F8200100F0500040280DD01DE031463A
:101010003846FFF74EFDB4F82001C0050CD5514607
:10102000484603F0BFFF07E05146484603F0BAFFC9
:10103000B4F87400C00508D569464E4803F0B2FF05
:1010400042466946304603F0D0FFB4F82001C0059F
:10105000204602D5FFF7D2FE01E0FFF721FE32461F
:101060004449404603F0C1FF94F8740040066FD530
:10107000208EB4F820110843C0056DD50FAA39465B
:10108000304604F00DF9D4E9172080FB0001C2FBC3
:101090000201626E374FC2FB02014FF08042801A9C
:1010A00071F1020014DB04A803F01EFEDDE9042048
:1010B00080FB0001C2FB0201069AC2FB02014FF055
:1010C0008042801A71F1020002DB0420B8630BE059
:1010D000B86B042808D041F28832022806D00328D1
:1010E00004D0012852D009E0002507E0E16E91FB11
:1010F000F2F5012D00DA0125032800D0AD002248C9
:1011000000244543109807948002294603F011FFFC
:1011100008900F9829464042800203F00AFFCDE96B
:1011200009040BAA314607A803F05FFF32460BA95A
:10113000104603F004FF31460846FFF750FD6946AC
:101140000C4803F02FFF42466946304603F04DFF3E
:1011500012B00020BDE8F08720E00000112D4454BB
:10116000FB2109400000000000007040000000006A
:10117000008066400C13002071981C00DB0F494072
:101180000000344300008037A69BC400E06E90FB53
:10119000F2F0012800DA01204500AFE73346194696
:1011A0003846E26EFFF7A0FBC9E770B50446008E33
:1011B000C105D4F8200107D4B4F87410C90503D4CC
:1011C000C10501D4002070BDC0F30120032807D061
:1011D0002046FFF700FF2348A16B04F0F1FAF1E786
:1011E00004F588711F482EC980E82E00F3E71E48D9
:1011F00004F0F6BA1B4810B56C21103800F05BFB08
:1012000018484FF080411038016101600162C163EC
:10121000C165002010BD184810B5082213A1006850
:1012200000F05BFB08B1322010BD1322BDE8104076
:10123000C8210D4804F0C0B810B5FFF7DBFF002847
:1012400005D1AFF22D00BDE8104004F03DB910BD4E
:1012500010B5054804F0C4FAAFF24500BDE81040EF
:1012600004F0E4BA1C130020AB110000654D504C93
:1012700020352E310000000000000020002803DD92
:10128000FE490122C1E920020020704710B5B821B3
:10129000FA4800F010FB9FEDFA0AF84880ED030AC7
:1012A0009FEDF80A80ED020A9FEDF70A4FF08041AA
:1012B00080ED000AB3EE0E0A80ED010A41664FF49C
:1012C000FA619FEDF20AC16780ED270A002010BD88
:1012D00070B5EA4C002594ED001AB4EEC01AF1EE98
:1012E00010FA17D394ED011AB4EEC01AF1EE10FA09
:1012F00010DC2069012817D194ED030AB4EEE00A4E
:10130000F1EE10FA06D394ED020AB4EEE00AF1EE23
:1013100010FA09DD606F20B9D848A16D183004F0CB
:1013200053F90120C4E91D05D4E91E01884204DBFC
:10133000606F012800D1E565656770BD10B5044692
:101340002DED028BB0EE408A03F000FCCB49002269
:1013500020B918EE100ACE4B984202DD0A614A61AC
:1013600002E00869002808D1486920444861B0F5C6
:10137000FA7F02DD0120C1E90402BDEC028B10BD41
:10138000F0B58DB00D4614460646694603F0A7FF3A
:1013900009AA3146284603F028FE2946304603F0C4
:1013A00001FE0021EC460DF1240E00231A461846DA
:1013B00001EB41073D180EEB80065CF8255076687E
:1013C000401CC5FB06320328F4DB980F40EA82007C
:1013D00044F82100491C0329E7DB0DB0F0BDA74903
:1013E0000020C1F88C00704710B590ED000AD0EDD8
:1013F000010AB8EEC00AB8EEE01AF8EEE00A20EEF4
:10140000000A01EE200AD0ED020AB8EEE01AF8EE6A
:10141000E00A01EE200A01F0DDFBDFED9E0A20EE7E
:10142000200A10BD00229549012330B1012810D0B7
:10143000C1F8983041F88C2F31E081ED280A81ED18
:10144000290A9FED950A81ED2A0AE1E924328A6092
:101450007047D1ED280A91ED271A70EE600AF0EE80
:10146000E00AF4EEC10AF1EE10FA16D2D1F89400B7
:10147000401CC1F89400D1ED290A312830EE800AD1
:1014800081ED290AE4DD0220DFED840AC1F8900035
:1014900080EE201A81ED2A1A704741F8902F4A6099
:1014A00070472DE9F04798462DED088B8AB0174616
:1014B0008A4604469FED788A0025704E0395049570
:1014C0000595D6F8880000287DD003F0D3FB10B135
:1014D00003A803F0AFFBD6F880004FF00109002805
:1014E00017DDC6F8849003F0C5FB48B103A803F0EC
:1014F000C9FB8009B0F5C87F02D2D6F8800004E0AD
:10150000D6F88000001BC6F88000002801DCC6F871
:10151000845003F061FC002855D000209FED5D9AB7
:1015200057F8201000EE101A58F82010401CB8EEA2
:10153000C00A032860EE090A00EE101AB8EEC00ACD
:1015400020EE800A00EE098AEADB3846FFF74CFFFE
:10155000F0EE408A4FF07E5788EE280AF7EE00AA98
:1015600010EE100AB84201DDB0EE6A0A10EE100A61
:10157000DFF82C81BFEE00BA404501D9B0EE4B0A2E
:1015800001F004F8D6F88C00B0EE40AA98B196EDC0
:10159000000AB4EEE80AF1EE10FA0CDD96ED010A4D
:1015A000B4EEE80AF1EE10FA05D2B0EE4A0AD6F827
:1015B0009000FFF737FF684603F0B4FB2F490C2279
:1015C000AC31684600E0E2E000F087F918B9D6F8DF
:1015D000980001286BD129489DE80E00AC3080E8C6
:1015E0000E00009818B9019808B90298F0B368463F
:1015F000FFF7FAFEB0EE408AB5EEC08AF1EE10FABF
:1016000055D0F2EE049A38EE690A20EE000A01F095
:10161000E1FA86ED010A38EE290A20EE000A01F00F
:10162000D9FA86ED000A9DED020AB8EEC00A60EE16
:10163000090AB0EE480A80EE808A18EE100AB84215
:1016400001DDB0EE6A8A18EE100A404501D9B0EE0D
:101650004B8AB0EE480A00F099FFD6ED270A30EE2B
:10166000600A86ED020AB0EE480A00E024E000F0CD
:101670008DFFD6ED270A30EE200A14E07813002003
:101680000000B4420000B4C2000070427B142E3E41
:1016900000401C4600008037000000000000484267
:1016A000000080BF03E086ED030AC6F88C50DFF827
:1016B0008481F16D21B32FE01FED0D0A86ED000A44
:1016C000B3EE0E0A86ED010AD6F89800012808D07C
:1016D0001FED140A86ED020A1FED170A86ED030AB4
:1016E000E5E796ED2A0A96ED271A70EE410A30EEEC
:1016F000010AC6ED020A86ED030AC6F89850D6E73D
:101700000027C6F85C9006EB07104146183003F03E
:1017100045FA7F1C042FF6DB464906AA0C310F461A
:101720005046FFF72DFE3946504603F03BFC03A818
:1017300003F0A8FA00EE100ADFED3F0A2046B8EEEB
:10174000400A20EE200AFFF7F9FDF0EE4A0AB0EE5B
:10175000680AFFF7BDFDD6E91E01884201DA204480
:10176000B067706F90B9306E20443066B0F57A7F04
:101770000CDD304930223039A1F11000356600F01F
:1017800073F82C484146103803F008FA706F0AB01D
:10179000BDEC088BBDE8F08770B588B0044604A89E
:1017A00003F01EFAD4E93001451A684603F0C4F983
:1017B000064604AB04F1A00269462846FFF771FE15
:1017C00003F012FF08B0304670BD04224FF496714A
:1017D000AFF23B0003F0F0BDAFF2430004F000B8FD
:1017E00010B5FFF753FD00280DD1124800215838DD
:1017F000C0F88C100121C0F88810AFF23100BDE8AC
:10180000104003F061BE10BD10B5AFF2730003F0DD
:10181000E7FFAFF27B00BDE8104003F0E1BF0549F0
:1018200001205839C1F88C00002070470148583811
:10183000406F7047D01300200000803C202A06DB58
:10184000CB17203A41FA02F043EAE07306E041FA8E
:1018500002F3D040C2F1200291400843194670477C
:1018600000487047F09E000010B5431A934209D219
:101870008318881803E010F8011D03F8011D521E9B
:10188000F9D210BD40EA01039B0703D009E008C963
:10189000121F08C0042AFAD203E011F8013B00F835
:1018A000013B521EF9D210BDD2B201E000F8012B6B
:1018B000491EFBD270470022F6E710B513460A46D0
:1018C00004461946FFF7F0FF204610BD421C10F8F1
:1018D000011B0029FBD1801A704730B50446002057
:1018E000034600E05B1C934203D2E05CCD5C401BEE
:1018F000F8D030BD2DE9FE4F804681EA0300C00FCD
:101900000C46009021F0004123F00045B8EB0200A6
:10191000A94105D24046214690461C460B46024648
:1019200023F00040104347D0270DC7F30A00C3F34C
:101930000A510290401A019040286BDAC3F3130059
:1019400040F4801B0098924620B10023D2EB030A9A
:1019500063EB0B0B01985946C0F14002504600F072
:1019600010FA06460D4650465946019AFFF766FFA3
:1019700010EB08006141002487EA115284EAE77302
:101980001A4340D0009A62B3019A012A4FEA0752E3
:1019900015DC001B61EB02014FF0004202EA075226
:1019A000CDE90042001C41F5801132462B4600F083
:1019B0004DFA03B0BDE8F08F40462146F9E7001B21
:1019C00061EB0201001C41F5801300185B412018F7
:1019D000A2F5001747EB030140EAD570B6196D4137
:1019E00011E06D084FEA360645EAC0754FEA075226
:1019F000001B61EB0201001C41F5801149084FEA10
:101A000030000019514132462B4603B0BDE8F04F7B
:101A100000F00DBA0098012240000023D0EB020232
:101A200063EBE073009821464FEAE074B8EB0000E6
:101A300061EB0401E9E783F000435BE781F00041DB
:101A400058E72DE9FE4F81EA030404F0004421F039
:101A5000004100944FF0000B23F0004350EA0104D2
:101A60005ED052EA03045BD0C3F30A54C1F30A55B3
:101A70002C44A4F2F3340194A0FB0254C1F31301EB
:101A800041F48011C3F3130343F4801301FB0244B8
:101A900000FB034E840A970A44EA815447EA8357BD
:101AA000A4FB076802958D0A05FB07854FEA932C76
:101AB00004FB0C542705029D4FEA065847EA1637E7
:101AC000B5EB08056EEB070C870E920E47EA8117FF
:101AD00042EA8312A7FB0201B6EB0B0164EB0004A0
:101AE0002B0D43EA0C335E1844EB1C50DA4651468A
:101AF000E7FB0201C5F313044FEA0B3343EA145327
:101B00004FEA0432019C43EA0603A4F10C04029458
:101B1000009CCDE900B400F099F903B0BDE8F08F66
:101B200000200146F9E72DE9F04D81EA030404F0B5
:101B3000004B21F0004514464FF0000A23F000410D
:101B400050EA050220D054EA01021DD0C5F30A571D
:101B50000246C5F31303C1F31300C1F30A5640F460
:101B6000801543F48013A7EB0608101BD64608F235
:101B7000FD3873EB050002D308F1010801E092186B
:101B80005B41B8F1000F03DA00200146BDE8F08D9B
:101B900000204FF48011064684460EE0171B73EBBD
:101BA000050705D3121B63EB050306434CEA010C42
:101BB00049084FEA300092185B4150EA0107EDD125
:101BC00052EA030012D082EA040083EA05010843C6
:101BD00005D0101BAB4106D20122002306E00022F3
:101BE0004FF0004302E06FF0010253101AEB0600C1
:101BF0004CEB085110EB0A0041EB0B01BDE8F04D36
:101C000000F015B90EB5C10F80EAE0700844CA07AC
:101C1000002140F233438DE80E000A460B4600F0E7
:101C200015F903B000BD70B5C1F30A5201F00045CB
:101C30000024C1F3130140F2FF3341F480119A42B2
:101C400001DA002070BD40F233439A42A2F23342DF
:101C500003DC524200F0A4F800E090402C43F1D0A5
:101C6000404270BD00F0004230F000400AD0C10D8B
:101C700001F56071C0F3160042EA0151C208400745
:101C800011437047002001467047000030B5041E24
:101C900071F1000404DB4FF00044404264EB0101A9
:101CA000141E73F1000405DB1C464FF00043524242
:101CB00063EB0403994208BF904230BD01F000433A
:101CC00030B421F0004150EA010206D00A0DA2F51D
:101CD0006072C1F31301002A02DC30BC002070479F
:101CE000440F44EAC104C100E01830BC00EBC2500C
:101CF00000F066B830B50B460146002020220124D2
:101D000009E021FA02F59D4205D303FA02F5491BC9
:101D100004FA02F52844151EA2F10102F1DC30BDDF
:101D20002DE9F05F0546002092469B468846064610
:101D3000814640241BE0284641464746224600F0A3
:101D40002FF853465A46C01A914110D311461846EF
:101D5000224600F016F82D1A67EB01084F4622467E
:101D60000120002100F00DF817EB00094E41201E64
:101D7000A4F10104DFDC484631462A464346BDE86B
:101D8000F09F202A04DB203A00FA02F1002070477D
:101D90009140C2F1200320FA03F3194390407047A9
:101DA000202A04DB203A21FA02F00021704721FAB0
:101DB00002F3D040C2F12002914008431946704717
:101DC0000029A8BF7047401C490008BF20F001004F
:101DD000704710B4B0FA80FC00FA0CF050EA01042D
:101DE00004BF10BC704749B1CCF1200421FA04F4BF
:101DF00011FA0CF118BF012121430843A3EB0C0198
:101E0000CB1D4FEA00614FEA102042BF002010BCFA
:101E1000704700EBC35010440029A4BF10BC7047AA
:101E2000401C490008BF20F0010010BC704710B5ED
:101E3000141E73F1000408DA401C41F100019218ED
:101E40005B411A4301D120F0010010BD2DE9F04D96
:101E500092469B4611B1B1FA81F202E0B0FA80F2EB
:101E600020329046FFF78DFF04460F4640EA0A00F5
:101E700041EA0B0153465A46084313D0114653EA30
:101E8000010019D0C8F140025046FFF789FF05460E
:101E90000E46504659464246FFF773FF084305D0A9
:101EA000012004E020463946BDE8F08D00200543BE
:101EB00046EAE0762C4337430A986305E40AA0EB30
:101EC00008000022FD0A44EA47540A3002D50020E7
:101ED0000146E9E7010510196941DDE908450019E6
:101EE0006941BDE8F04DA2E7C1F30A52C1F3130105
:101EF00040F2FF3341F480119A4202DA0020014699
:101F0000704740F233439A42A2F2334202DC52421B
:101F1000FFF746BFFFF735BF064C074D06E0E06808
:101F200040F0010394E8070098471034AC42F6D320
:101F3000FEF76AF978A2000098A200002DE9F04FA0
:101F400000258DB0DFF8A481A94605954FF4807671
:101F500001242F460695304605F004FF38B1D8F825
:101F60000403204203D0304605F0F2FE2543361D1F
:101F700064007F1CB6B2082FEDD34FF4BE74204628
:101F800005F0F0FE48B1204605F0E2FE45F00045C0
:101F900005AA0221002005F0C5FE554E15F0FF0FE1
:101FA00015D0012700242F420DD008EB8401D1F871
:101FB0001005D1F81015C0F3052056F82420C1F300
:101FC000014102B190477F00641C082CEBD3002D27
:101FD0004DDA0020CDF82490411E4FF0010A0DF19A
:101FE000140B07ADCDF8289045F82010401C0228AE
:101FF000FAD300BF96F854704FF0000878B227F07B
:10200000C004401C33D007A9204604F033FF002849
:102010002DD04FEA9719204601F0BCFD56F82070EC
:102020001FB1B9F1030F03D00CE0B9F1030F1ED1BA
:1020300009A8E10804F00702435C0AFA02FC43EA3B
:102040000C03435402A8029405F036FE029900EBFB
:102050008100D0F8000705A9C0F301400290204696
:1020600004F008FF0028029804D0022804D00DB024
:10207000BDE8F08F0328FAD1B9F1030F08D1029817
:1020800002282CD00221204605F0C9FD4FF001089E
:1020900017B149462046B847B8F1000FE7D001AA6A
:1020A0000221002005F03EFE00205A460DF10401F9
:1020B00052F8204051F82030A34212D0002009AB42
:1020C00051F8204042F8204053F8204045F8204085
:1020D000401C0228F4D3B8F1000F8BD1C7E70321CD
:1020E000D1E7401C0228E3D3C1E7000000600040B4
:1020F0005C06002000F01F02012191404009800091
:1021000000F1E020C0F88012704700F01F020121AA
:1021100091404009800000F1E020C0F800117047B4
:1021200000F01F02012191404009800000F1E020F1
:10213000C0F8001270474907090E002806DA00F0BF
:102140000F0000F1E02080F8141D704700F1E0203E
:1021500080F80014704700002DE9F0414FF48077BB
:10216000384604F08FFE0126284CB50748B13846A2
:1021700004F08FFE0120C5F808036670002001F00E
:1021800011FD4FF48277384604F07CFE48B13846A2
:1021900004F07FFE0220C5F80803A670012001F0BC
:1021A00001FD4FF48876304604F06CFE48B13046AD
:1021B00004F06FFE1020C5F808031448143004F032
:1021C000B5FF4FF48676304604F05CFE00281BD045
:1021D000304604F05EFE0820C5F8080304F092FFC4
:1021E00094F82000042809D00020002184F8201051
:1021F000E169002908D018B1032002E00120F4E7CA
:102200000220BDE8F0410847BDE8F0811806002033
:1022100007480021C0F84011C0F84411C0F8481127
:10222000C0F84C11C0F80011C0F8041106F046BB0C
:10223000001001400149024803F01CBBE0050020EA
:102240000030004006F0ACBA30B54FF080500022AC
:10225000D0F830110123082902D1D0F8344114B14B
:10226000082909D00BE04FF08041C1F80C21C1F8DA
:10227000102161490A6005E0D0F8344114B1082901
:1022800057D059E05D4909685D4C21605B49091DE3
:102290000968241D2160594908310968241D2160FD
:1022A00056490C310968241D2160544910310968D0
:1022B000241D2160514914310968241D21604F49B2
:1022C000183109684E4C203421604C491C31096892
:1022D000241D2160494920310968241D2160474996
:1022E00024310968241D2160444928310968241DCE
:1022F000216042492C310968241D21603F49303159
:1023000009683F4C403421603C4934310968241D40
:1023100021603A4938310968241D216037493C3130
:102320000968241D2160354940310968241D216058
:1023300005E0D0F8344114B1082904D006E0324C4D
:102340003049216005E0D0F8344114B1082904D0A7
:1023500006E02E4CFB21216005E0D0F8344114B199
:10236000082908D00EE090F858422948016864F323
:102370000301016002E0D0F8340118B925494FF497
:10238000007008602448016841F470010160BFF3E7
:102390004F8FBFF36F8F4FF01021D1F8000200284C
:1023A00003DBD1F80402002822DA1C4C23601C480D
:1023B0000368002BFCD01223C1F800320568002D01
:1023C000FCD0C1F8043201680029FCD02260016809
:1023D0000029FCD0BFF34F8F0F487C380168114AA9
:1023E00001F4E06111430160BFF34F8F00BFFDE7CF
:1023F0000E490D48086030BD380500400404001047
:1024000020C50040488103008C56004018F500406C
:10241000E40E00404096024088ED00E004E50140F3
:1024200000E401400400FA050090D0038C00002075
:102430000448017F04480029024901D006F03BBD51
:1024400006F0AABC3C060020002000400FB42DE995
:10245000F0410446CAB0092C3ED2DFE804F005057D
:1024600005050505053D050053AA06A8529900F08B
:1024700067F8051E31DD18216846FFF71CFA242095
:102480008DF8000001208DF801008DF802400D202C
:102490008DF815000A208DF8160000240DF118089B
:1024A0006E4617E0281B122800DB1220C7B212214B
:1024B000F01CFFF700FA08EB04013A46F01CFFF7A6
:1024C000D3F9684605F0FEFE024606A1032005F09A
:1024D0007FFE1234AC42E5DB00204AB0BDE8F001DB
:1024E0005DF814FB3A494E464F3A25730000000050
:1024F0000FB4054B10B503A9044A029800F038FD4B
:1025000010BC5DF814FB00001F45000040000020D7
:102510000FB41CB50246002007AC00290BD0491EA1
:10252000CDE90021054B6A462146069800F020FDC2
:10253000009A002111701CBC5DF814FB9F3600004E
:1025400037B514460846064B6A46214600F010FD92
:1025500004466946002001F0ADF820463EBD00006B
:10256000B53600004100080218BF04200A0E18BF4B
:1025700040F001004FF07F4232EA010108BF40F015
:102580000200012808BF05207047000010B510EEBA
:10259000104A4FF01A402DED028B00EB4400B0F1D1
:1025A000C85F4AD84FF0FC40B0EB440F22D2B0EEE7
:1025B000C00AF7EE000A30EEC00AF6EE000A20EE7E
:1025C000208A18EE100A06F0CBF800EE100A14F07C
:1025D000004F1DBF9FED281ADFED280AB1EE400A1B
:1025E0009FED271A08BFF0EE410AF8EE001A20EE20
:1025F000210A05E020EE008A9FED221ADFED220A73
:10260000DFED221A9FED222A70EEC00A20EE080AA2
:1026100008EE212ADFED1F1A48EE021A9FED1E2A4E
:1026200008EE212ADFED1D1A48EE021ABDEC028BDE
:1026300040EE610A30EE810A10BD4FF0CC40B0EBA5
:10264000440F82BF9FED160ABDEC028B10BD4FF008
:102650007F40B0EB440F05D2BDEC028BBDE81040CB
:1026600000F0D5BA012000F0BBFBBDEC028BBDE849
:10267000104000F0D3BA00000000494022AA7D3A81
:10268000000000000000C93F22AAFD3924FE1C3DC5
:10269000C78AD83C1E67383D1B93993DAFAA2A3E96
:1026A000DB0FC93F10EE100A10B510EE901A4FF074
:1026B000684202EB40032DED028BB3F1654F3CBF46
:1026C00002EB4102B2F1654F7CD200BFC0F3C753A9
:1026D000C1F3C7529A1A1B2A09DD10F0004F14BF2C
:1026E0009FED6E0A9FED6E0ABDEC028B10BD12F1DC
:1026F0001A0F1BDA11F0004F09D010F0004F0CBF79
:102700009FED680A9FED680ABDEC028B10BD80EE5C
:10271000208A18EE100AFFF725FF042808BF00F0F2
:1027200085FAB0EE480ABDEC028B10BD4200B2EB58
:10273000410F37D910F0004F19BFDFED5C1A9FED44
:102740005C1ADFED5C1A9FED5C1AB0EE602A0A4657
:10275000F1EE400A80F00041B0EE420A10460A1A3B
:102760005200B2F1807F34D2484010F0004FDFEDCC
:10277000532A9FED533A1DBFBEEE002A71EEE21AB6
:1027800031EE431AB6EE002A04BF71EEA21A31EE02
:10279000031AF0EE402A42EE602A40EE020A82EE70
:1027A000A02A18E011F0004F04BF9FED461AF0EE8A
:1027B000411AD4D010F0004F1CBFDFED431A9FED3B
:1027C000431A00E026E004BFDFED411A9FED411AF5
:1027D000C5E780EE202A22EE020ADFED3F0ADFED98
:1027E0003F2ABDEC028B40EE202ADFED3D0A40EE91
:1027F000220ADFED3C2A40EE202ADFED3B0A40EEC4
:10280000220A22EE000A00EE201A31EE020A30EE11
:10281000210A10BD4FF07F42B2EB400F28BFB2EB50
:10282000410F05D2BDEC028BBDE8104000F0F2B9BB
:1028300040EA01035B0008BF41F0FF410BD0B2EB5F
:10284000400F08BFB2EB410F08D120F0804000EEEE
:10285000100A21F0804100EE901A37E7B2EB400FEA
:1028600012BF5FEA410240F0FF4001F000413FF437
:102870002DAF4A0092EA40033FF528AF002AACBFD3
:102880009FED1A1A9FED1A1A20EE010A60EE810AD6
:1028900010EE100A10EE901A18E70000DB0FC9BF07
:1028A000DB0FC93FDB0F4940DB0F49C00000C9BF48
:1028B00022AAFDB90000C93F22AAFD390060ED3E01
:1028C000C30ACE3700000000000049C022AA7DBA2A
:1028D0000000494022AA7D3A2DAD65BD8FB8D53D97
:1028E0000FB511BE61C84C3EA8AAAABE0000804F19
:1028F0000000802F10EE101A08B5444A6846B2EB6B
:10290000410F28D94FF0E640B0EB410F94BF0020B3
:102910004FF0FF3000900098002861DB60EE000A65
:1029200010F0010F45D010F0020FDFED391A9FEDC6
:10293000391A00EEE11ADFED381A40EE811A21EE65
:10294000A01AF0EE400A40EE010A08BFF1EE600A5C
:10295000B0EE600A08BD314B21F0004293423CD9F1
:1029600011F0004FDFED2E0A20EE201ADFED2D0AC8
:1029700019BF31EE601A71EE200A31EE201A71EEA5
:10298000600ABDEEE01A11EE100A9FED271A00F062
:10299000030000EEC10A9FED251A009000EEC10A67
:1029A0009FED231A00EEC10A9FED221A00EEC10A24
:1029B000B1E79FED211A9FED210A10F0020F00EE02
:1029C000810A9FED1F1A00EE801AB7EE000A00EE92
:1029D000810A18BFB1EE400A08BD00F02FF99AE74E
:1029E00010EE100A4000B0F17F4F3CBFB7EE000A76
:1029F00008BD07D14FF0010000F0F2F9BDE8084032
:102A000000F00CB9BDE8084000F001B9B61F927E95
:102A1000336D4C39DA82083CA0AA2ABE490E4946D9
:102A200083F9223F0000004B0000C93F00A0FD39A0
:102A30000020A2331A61342CB93AB2BACA9F2A3D97
:102A4000DDFFFFBE00B510EE101A2DED028B81B038
:102A5000524A6846B2EB410F2ED94FF0E640B0EB38
:102A6000410F94BF00204FF0FF3000900098B0EE6F
:102A7000408A00286ADB10F0010F4BD068EE080A8C
:102A80009FED471A9FED470A00EE810A9FED461A17
:102A900010F0020F00EE801AB7EE000A00EE810A75
:102AA00002BF01B0BDEC028B00BD00BF01B0B1EEB2
:102AB000400ABDEC028B00BD3C4B21F0004293422A
:102AC00041D911F0004FDFED3A0A20EE201ADFED78
:102AD000390A19BF31EE601A71EE200A31EE201A60
:102AE00071EE600ABDEEE01A11EE100A9FED321A87
:102AF00000F0030000EEC10A9FED301A009000EED6
:102B0000C10A9FED2F1A00EEC10A9FED2E1A00EEAA
:102B1000C10AABE728EE080A9FED2B1ADFED2B0A5E
:102B200010F0020F40EE410A9FED291A00EE201A24
:102B300061EE000AB0EE480A08EE200AB6D101B0F4
:102B4000BDEC028B00BD00F079F88FE718EE100A9B
:102B50004000B0F17F4F0DD218EE100AFFF702FDD2
:102B6000042808BF00F062F8B0EE480A01B0BDECDE
:102B7000028B00BD09D1012000F032F901B0BDEC9B
:102B8000028B5DF804EB00F049B801B0B0EE480AE2
:102B9000BDEC028B5DF804EB00F039B8B61F927EF5
:102BA000B93AB2BACA9F2A3DDDFFFFBE490E494677
:102BB00083F9223F0000004B0000C93F00A0FD390F
:102BC0000020A2331A61342C336D4C39DA82083C70
:102BD000A0AA2ABE10B52DED028BB1EEC08A18EE68
:102BE000100A20F00040C0F1FF40C00F0AD010EEE4
:102BF000100A20F00040C0F1FF40C00F04BF0120C8
:102C000000F0EEF8B0EE480ABDEC028B10BD30EEDD
:102C1000000A704730EE200A70470000DFED020A1C
:102C200080EEA00A70470000000000009FED020A3D
:102C300020EE000A70470000000000102DE9F001AE
:102C40004FF07F42B2EB410F9FBF4FF0FF31016069
:102C5000BDE8F00170474FF0004242EA0123C1F3A2
:102C6000C752783A551112F01F0C434CCCF1200694
:102C70007C44C1F3C752A2F178024FEA621204EB1E
:102C8000820254F8254008BFD2E9015612D0556897
:102C900004FA0CF425FA06F73C43976805FA0CF59C
:102CA00027FA06F8D26807FA0CFCF24045EA080554
:102CB0004CEA0206A4FB034CA5FB0352A6FB0363EC
:102CC0001D449D4234BF012600261319334416B11A
:102CD000934202D903E0934201D2012200E0002294
:102CE000624402F1200C9206DC0C42EA443200EE0F
:102CF000102A5B03DFED210AF8EEC01A00EE103A4D
:102D00004FEA9C1C11F0004FB8EE400AC0F800C01A
:102D100020EE201A00EE105ADFED190AB8EE400A34
:102D200020EE200A71EE810A70EE800A10EE902AE1
:102D300002F500626FF30B0200EE902A70EEE11ACA
:102D400031EEC11ADFED101A30EE411A9FED0D0A77
:102D500020EE800A01EE210A9FED0C1A00EE810A96
:102D600004BFBDE8F0017047CCF180510160BDE8BF
:102D7000F001B1EE400A704780720000000000369A
:102D80000000802C22AAFD29DB0FC92F0000C92FCB
:102D90000EB50092CDE901300B4603A200210620BA
:102DA000FFF754FB0EBD000025737C25737C256462
:102DB0002072657475726E696E672025640A000062
:102DC00002E008C8121F08C1002AFAD170477047F4
:102DD000002001E001C1121F002AFBD17047000052
:102DE0000149086070470000980000202DE9FF5F4E
:102DF00082B00021DDE90430020DDDF840B003436C
:102E000018D044F61050A2F2FF3242431514119824
:102E100001281FD0A5EB0B00401C5FEA000A4FF011
:102E200000064E4FDFF83891B046504615D5CAF12E
:102E3000000413E0119801244AA3012801D16FEA8C
:102E40000B010298119AC0E90031C0E9024206B0B4
:102E5000BDE8F09FCBF10000DFE704460021404AC7
:102E6000491842EB0450CDE9001012E0E00707D00A
:102E700032463B4640464946FEF7E3FD80468946DA
:102E800032463B4610461946FEF7DBFD06460F4626
:102E90006410002CEAD1DDE90401DDE90023BAF178
:102EA000000F06DAFEF7CDFD42464B46FEF7C9FDA0
:102EB00005E0FEF738FE42464B46FEF734FE044678
:102EC0000E460022284BFEF7E1FE03D84FF0FF30FC
:102ED000014607E00022254B20463146FEF70AFD59
:102EE000FFF702F8102409E0002C0ADB0A22002375
:102EF000FEF716FF039B30321A55641E50EA01029A
:102F0000F2D1641C039AC4F111031444119A012AEA
:102F100003D0012208430DD10AE0084304D0002069
:102F20004FF0110B119072E7A3EB0B056D1E0DE036
:102F30005B4504DD4FF0000205F1010504E003DA12
:102F40004FF00002A5F10105002AECD0029811997A
:102F5000C0E90231C0E9004579E7000000001440F3
:102F60000000F03F300000000000F0430000E03FB0
:102F70002DE9FF4F95B09B468946064600250FE296
:102F8000252877D100242746F84A0121059400E03E
:102F9000044316F8013F203B01FA03F01042F7D139
:102FA00030782A2811D06FF02F033078A0F130024A
:102FB000092A16D8059A44F0020402EB820203EBB8
:102FC00042021044761C0590EFE759F8042B059255
:102FD000002A03DA504244F40054059044F00204FD
:102FE000761C30782E2816D116F8010F44F0040410
:102FF0002A280DD06FF02F023078A0F13003092B72
:1030000009D807EB870302EB4303C718761CF3E7E5
:1030100059F8047B761C30786C280FD006DC4C28DD
:1030200017D068280DD06A2814D104E0742810D075
:103030007A280FD10DE044F400140AE044F480141F
:1030400001E044F440147278824202D104F5801405
:10305000761C761C307866280BD013DC582877D085
:1030600009DC002875D04528F6D04628F4D047283A
:103070001AD19DE118E0632835D0642879D06528FD
:1030800012D195E1702873D008DC6728F1D0692847
:103090006FD06E280DD06F2806D1B5E073282CD0E4
:1030A000752875D0782874D05A46179990476D1CAA
:1030B00075E1C4F30250022809D003280DD0D9F8D5
:1030C000001004280DD00D6009F1040967E1D9F85A
:1030D0000010EA17C1E90052F6E7D9F800100D8098
:1030E000F2E70D70F0E719F8041B8DF800100020CE
:1030F0008DF80100EA46012003E059F804AB4FF0D7
:10310000FF3061074FF0000102D40DE008F101012A
:103110008846B9420FDA8045F8DB1AF80810002912
:10312000F4D108E008F1010188468142FADB1AF87F
:1031300008100029F6D105985B46A0EB0807214648
:103140003846179A00F094FA284400EB080507E087
:103150004DE029E10DE01AF8010B5A461799904706
:10316000B8F10108F7D25B4621463846179A13E1B9
:1031700042E00A220092C4F302524FF0000A022AEF
:1031800008D059F804CB032A4FEAEC710AD00DE0BD
:1031900029E02AE009F1070121F00702F2E802C163
:1031A000914609E00FFA8CFC4FEAEC71042A03D136
:1031B0004FFA8CFC4FEAEC71002907DA0A4600212D
:1031C000DCF1000C61EB02012D2202E0220504D5A6
:1031D0002B228DF80420012203E0E20701D02022F7
:1031E000F7E7904659E00A2102E010220DE0102195
:1031F0004FF0000A00910BE010224FF0000A44F05B
:1032000004040827009203E008224FF0000A00920D
:10321000C4F30252022A05D059F804CB0021032A34
:1032200008D009E009F1070121F00702F2E802C124
:10323000914605E01FFA8CFC042A01D10CF0FF0C2A
:103240004FF00008220728D5702806D0009B83F095
:10325000100353EA0A0305D00EE040228DF8042043
:10326000012208E05CEA010206D030228DF8042039
:103270008DF8050002229046009B83F0080353EA74
:103280000A030AD15CEA010201D1620705D53022A6
:103290008DF804204FF001087F1E582804D034A078
:1032A00003900EA802900DE036A0F9E75346604661
:1032B000009AFEF735FD84460398825C0298401E12
:1032C000029002705CEA0100F0D1029806A9081A87
:1032D00000F1200A600702D524F4803400E00127C1
:1032E000574502DDA7EB0A0000E0002000EB0A01D1
:1032F000009005984144401A0590E00306D45B46CF
:103300002146179A059800F0B3F90544002706E016
:1033100001A85A46C05D179990476D1C7F1C474510
:10332000F6DBE0030CD55B462146179A059800F0C2
:103330009FF9054404E030205A46179990476D1CC8
:103340000099481E00900029F5DC08E002980299D7
:103350005A460078491C0291179990476D1CBAF1A2
:103360000001AAF1010AF1DC65E100000928010071
:1033700030313233343536373839616263646566EB
:1033800000000000303132333435363738394142AD
:10339000434445460000000000F058F90544761CFF
:1033A000307800287FF4ECAD19B02846BDE8F08FE6
:1033B000620700D4062709F1070222F0070CFCE897
:1033C0000223E14603F000485FEA080C02D00FF246
:1033D000702C0DE05FEA045C02D50FF2682C07E068
:1033E0005FEAC47C02D00FF2602C01E0AFF2700CF7
:1033F0004FF0FF3823F00043CDF850C065280CD0C3
:1034000006DC452809D046281DD047283DD13DE09F
:10341000662818D067287ED138E00021112F01DB03
:10342000112000E0781CCDE9000106A90EA8FFF7E5
:10343000DDFCDDE90F010E9A03910021009207F1F6
:10344000010A04914DE04FF000400097CDE90110D2
:1034500006A90EA8FFF7CAFCDDE90F0203920E9B36
:1034600011990022DDF80CA00093049211B9791C87
:1034700000EB010AB7EB0A0004D4C0F1FF3007F1FA
:10348000010A0490AAEB0700019044E0012F00DA42
:1034900001270021112F01DD112000E03846CDE980
:1034A000000106A90EA8FFF7A1FCDDE90F010E9AA5
:1034B0000391002104910092BA4621070CD403998C
:1034C000514500DA8A46BAF1010F05DD009AAAF1EA
:1034D0000101515C302908D0B84202DA10F1040F22
:1034E00006DA0121CDE9011015E0AAF10101E9E7B1
:1034F000002805DC049901440491AAEB000102E0D4
:10350000411C514500DD8A460499401A401C019037
:103510004FF000400290200704D40198504501DB91
:10352000CDF8048000208DF84F0002980DF14F0770
:10353000B0F1004F25D02B200E9002984FF00208DA
:1035400000280CDA404202902D200E9007E00A215C
:103550000298FEF7CFFB3031029007F8011DB8F159
:103560000001A8F10108F2DC02980028EFD1791ED1
:103570000E980870307800F0200040F0450007F801
:10358000020D12A8C01B00F107081498007800B1C2
:10359000012000EB0A01019801EBE071059841441C
:1035A000401A401E0590E00306D45B462146179A58
:1035B000059800F05DF805441498007818B15A4653
:1035C000179990476D1CE00324D55B462146179A56
:1035D000059800F04DF805441CE00498002807DB2E
:1035E000DDE90301884203DD0098405C179901E0A2
:1035F000179930205A469047049805F10105401C60
:1036000004900198401E019004D12E205A4617992B
:1036100090476D1CBAF10001AAF1010ADDDC05E05A
:1036200017F8010B5A46179990476D1CB8F1000125
:10363000A8F10108F4DC5B462146179A0598ABE631
:103640002D0000002B000000200000002DE9F041BB
:10365000044600251E461746880404D405E0394672
:103660002020B0476D1C641EF9D52846BDE8F081C6
:103670002DE9F041044600251E469046C80301D5B9
:10368000302700E02027880404D505E0414638466D
:10369000B0476D1C641EF9D52846BDE8F0814A6824
:1036A000002A06D00A68531C0B6010704868401E40
:1036B000486070470A68531C0B6010707047000028
:1036C0000DA1012004F05EFD04F0B6FC04F0B8FC8E
:1036D0000028FBD10CA1032004F054FDBFF34F8F51
:1036E00010480168104A01F4E06111430160BFF322
:1036F0004F8F00BFFDE700003A4552524F523A4605
:103700006174616C0D0A00003A494E464F3A4869AF
:1037100074207765616B2068616E646C65720D0A58
:10372000000000000CED00E00400FA050EB50021D9
:103730000091CDE901106A4644F20100FFF7C0FF95
:103740000EBD10B58268C368934203D000F0D4FE6A
:10375000002010BD052010BD29B112B1531E134227
:1037600003D0092070470E2070470160838000213C
:103770008160C1600846704710B58268C3689A1AB4
:1037800083889A4203D800F0C1FE002010BD0420B7
:1037900010BD00000148006870470000041501409A
:1037A000074B9B7823B12AB120B10068037C1BB181
:1037B000082070470720704741744261002070471D
:1037C000B406002070B504F03DFE1048002404212A
:1037D000047044700E4D817014206C602C706C70FD
:1037E000FEF788FC00211420FEF7A5FC1420FEF74C
:1037F0008CFC0848046000211120FEF79CFC054861
:10380000001F0068A860002070BD0000B406002002
:1038100018000020081501402DE9F843DFF87090EA
:1038200099F802305BB350B3052902D20720BDE8F6
:10383000F88343691BB3437C012B22D00027044645
:10384000002588461646284600F09EF8684605F092
:10385000ABFBC0B1012101700E4944600968C0E9A9
:103860000218C0E904769DF8000089F801000020E4
:1038700000F08CF81420FEF753FC2846D7E7082008
:10388000D5E70F46DBE70425002000F07FF8F4E7DA
:10389000B406002004150140F0B5284E89B01F463B
:1038A0000D00044672603BD0A888296882B2244883
:1038B000FFF752FF002834D1A889A96882B22048B6
:1038C0001030FFF749FF00282BD120221D49684600
:1038D000FDF7CAFF60690690207C00B101208DF8D9
:1038E00014008DF81C70607C00B10E208DF815005E
:1038F000E0680290A06803902068019060680090E2
:103900000E48114A6946083003F016FF002808D116
:10391000B0702068401C04D09DF81D0018B106E06E
:10392000072009B0F0BD0548083003F091FF0349B6
:103930000122491CC81D03F033FFF2E72C000020D0
:103940001807002074900000E98C000010B50146B3
:103950000B48FFF711FF040010D10A4804F0C2F829
:1039600060B9084906480839FFF7EBFE30B9054948
:1039700001220839034804F02FF80446204610BD00
:10398000280700203400002000F002B800F008B83A
:1039900072B602480168491C016070473C00002073
:1039A00003490868401E086000D162B670470000F5
:1039B0003C00002070B5054608680C46411C04D048
:1039C00004F092F9206804F020F96068411C02D0EC
:1039D000002104F011F928791F4901EB40102968F2
:1039E000007F0028A069C1F8240523D0607D227DD6
:1039F00029681043C1F86C05D4E900122868C0F8A2
:103A00000C15C0F8142522E0A068411C02D000214A
:103A100004F0F2F8E068411C04D004F065F9E068B5
:103A200004F0F3F8D4E902122868C0F80825C0F8B9
:103A3000101570BD607D217D2A680843C2F86C05B1
:103A4000D4E900122868C0F81425C0F80C15207DB0
:103A50000128D9D070BD00003C0600200249085C56
:103A6000012104F04BB90000209000007CB5002437
:103A7000084E25460122305D009500231146019530
:103A800004F066F8641C042CF4D3BDE87C4000F01C
:103A900003B800002090000010B500242046FFF776
:103AA000DDFF641C042CF9D310BD002901DA0020CD
:103AB00070470268114401600120704770B5461CD0
:103AC0000D4601240020FFF75FFF114A10682860AF
:103AD000D2E900109568081A2B1A701C5B1C9842DA
:103AE0000FD963B10B480C4B294000681B6802EBEF
:103AF000810163F39F20C8601068401C106000249F
:103B000001E0881910600020FFF740FF204670BDDB
:103B100038080020B891000050000020034803C876
:103B2000814201D1012070470020704738080020F1
:103B300005494FF0FF32082841F8202002D30844FD
:103B400080F84C20704700005C060020F0B54FF074
:103B5000FF3512B10023082601E0082309260C4C8A
:103B600005E000BF54F823707F1C04D05B1CB342F7
:103B7000F8D32846F0BD26185DB286F8245044F8E4
:103B80002310002AF5D1E11881F84C00F1E700007C
:103B90005C0600200249084490F9240070470000A8
:103BA0005C06002070B5084C050009D0103421686F
:103BB000002907D008682060496828468847F6E74A
:103BC0000834F4E770BD0000180600202DE9F05F0E
:103BD00026484168F1B3DFF898B00E688146DBF8FB
:103BE000004087688078E11B21F07F45ED1CB0B96B
:103BF000DFF880804FF48030C8F84403C8F804032D
:103C00001120FEF777FA1120FEF77FFA4FF0010A34
:103C1000C8F800A02F2003F0E9F989F802A0B54206
:103C200000D23546124BE8193C3320F07F40186033
:103C3000DBF800105A46091B21F07F41001B20F0E1
:103C40007F40C91C81420FD9106818602F2003F0F3
:103C5000CDF900E004E0BDE8F05F1120FEF760BAA6
:103C6000BDE8F05F04F0EEBBBDE8F09F1800002057
:103C700004150140001001402DE9F0410025441CCD
:103C800017460E462846FFF77FFE17480168396041
:103C90008368016801EA03029A1A521C944208D808
:103CA0004A1C1A4021440160002100EB820531606A
:103CB0000AE047681F40A74207D90B19511E194453
:103CC000521E0160084D32600C35D0E90012806848
:103CD000891A401A401C00D100250020FFF756FE2B
:103CE0002846BDE8F08100003808002008B560B122
:103CF00020208DF8000028208DF8010030208DF85C
:103D0000020038208DF8030004E0A3220421684655
:103D1000FDF7CAFD6A46042140F69E2003F074F8C0
:103D200002F0B4FC08BD00003EB5044602208DF848
:103D30000000CA208DF80100E3208DF80200092060
:103D40008DF803006A460421682003F05DF8A32083
:103D50008DF80000610609D5C0218DF80110C82139
:103D60008DF80210C2218DF8031005E08DF80100D6
:103D70008DF802008DF8030014F4C07F09D0C4212F
:103D80008DF80410CC218DF80510C6218DF8061091
:103D900005E08DF804008DF805008DF806008DF81B
:103DA00008008DF807008DF809006A460A2140F6E0
:103DB000A72003F029F8A0074FF0D80503D0202052
:103DC0008DF8000001E08DF800506A46012140F6B0
:103DD000B62003F019F8A00601D5012000E000206C
:103DE00000F08EF814F4C07F1ED0E0050AD5B22092
:103DF0008DF800008B208DF80100B6208DF80200B0
:103E00009B2009E0B0208DF8000080208DF8010093
:103E1000B4208DF8020090208DF803006A4604213A
:103E200040F6A22002F0F0FFE1074FF40B6022D031
:103E3000F8218DF800106A46012102F0E5FFFA2111
:103E4000072000F069FA072000F034FA012000F0A2
:103E500051FA642000F010FB4FF4FA7000F01CFBE4
:103E6000C821254800F0EEF9282000F003FA0A20C6
:103E700000F010FA05E08DF800506A46012102F0CA
:103E8000C3FFA00703D5D9208DF8000001E08DF80D
:103E900000506A46012140F23D7002F0B5FF600714
:103EA00001D5012000E0002000F048F8E00601D52F
:103EB000012000E00020FFF719FF104D44F008003A
:103EC000688102F0E3FB0020A873600601D506209C
:103ED000A87314F4C07F02D0A87B801DA87314F0CF
:103EE000140F02D0A87B1030A873A00702D0A87BC3
:103EF000001DA87300203EBD09E3CA029C110020EA
:103F00000EB54FF4976310B106A107C901E008A2EE
:103F100007CA8DE807006A460921184602F074FFB7
:103F20000EBD0000B8AAB38DB4980D355D00000039
:103F3000B8AAAAAAB088C3C5C700000008B560B176
:103F4000C0208DF80000C2208DF80100C4208DF83B
:103F50000200C6208DF8030004E08B22042168468D
:103F6000FDF7A2FC6A46042140F6982002F04CFFBF
:103F700002F08CFB08BD0000C8234FF480620249A8
:103F800040F6F63002F00EBA0B9200002DE9FF4F1A
:103F900089B01746DDE9165200244D4E8846814609
:103FA0002C80A246B07B694602F0FEFA4FF0FF3B40
:103FB00018B158460DB0BDE8F08F708910F0140F9D
:103FC0003ED0009909BA21F0FF029DF803100A4380
:103FD0003A6001999DF8073009BA21F0FF011943B1
:103FE0007960029B9DF80B401BBA23F0FF0323432B
:103FF000BB60039C121424BA24F0FF0C9DF80F4000
:1040000009144CEA040C1024C7F80CC01B144FEA26
:104010002C4712FB02F211FB012113FB03F217FBE9
:1040200007221144A1F17061B1F1007F04D902F0BF
:104030002DFBA5F800A0BCE7298841F480712980F8
:104040004206694611D50A19A41D13885BBAA8F85F
:10405000003053885BBAA8F80230928852BAA8F8A8
:1040600004202A8842F008022A8010F4C07F11D070
:104070000A19A41D13885BBAA9F8003053885BBAEB
:10408000A9F80230928852BAA9F804202A8842F08E
:1040900070022A80800716D00C44E07800F0C0053A
:1040A00000F03F016078C00706D0C80801F00701A2
:1040B0003268491C02B190476078000703D57168E7
:1040C00009B1A80988470C9801F0FEFF002071E7AC
:1040D0009C11002030B5044613A285B007CA8DE8B4
:1040E00007004FF0FF35C82C16D8C820B0FBF4F1FC
:1040F000491E080A8DF80C008DF80D1003AA022144
:1041000040F2162002F080FE30B96A460C2140F6DB
:10411000C12002F079FE10B1284605B030BD054837
:1041200084810020F9E70000FEF2ABC4AAF1DFDFD2
:10413000BBAFDFDF9C1100202DE9FF4104463CA00E
:1041400004F00303006802903AA0006803903AA0CC
:1041500006683AA0056802A8C15C8DF80010C4F397
:10416000C101425C8DF80120C4F38112805C8DF89E
:10417000020003A8C35C8DF80430415C8DF8051083
:10418000805C8DF806006A46032140F2264002F06A
:104190003BFE4FF0FF37E0BB01AA032140F22A406B
:1041A00002F032FEA8BBCDE9006560070BD59DF893
:1041B000000040F001008DF800009DF8040040F080
:1041C00001008DF80400A0060BD59DF8010040F019
:1041D00001008DF801009DF8050040F001008DF808
:1041E0000500E0050BD59DF8020040F001008DF8B8
:1041F00002009DF8060040F001008DF806006A46B6
:1042000003214FF4886002F0FFFD10B901AA0321D9
:1042100000E004E040F2314002F0F6FD18B138460B
:1042200004B0BDE8F081064804810020F8E70000F2
:104230004CCD6C000CC92C00365676002646660024
:104240009C1100204FF47A7290FBF2F008B54843BD
:10425000010E8DF80010010C8DF80110010A8DF887
:1042600002108DF803006A4604214FF4AE7002F08C
:10427000CBFD08BD0521B0FBF1F008B5010A8DF8B2
:1042800000108DF801006A4602214FF4AD7002F073
:10429000BBFD08BD0521B0FBF1F008B5010A8DF8A2
:1042A00000108DF801006A4602214FF4AC7002F054
:1042B000ABFD08BD08B500218DF80010C10702D084
:1042C00030218DF80010810705D59DF8001041F0D0
:1042D0000C018DF80010400705D59DF8000040F056
:1042E00003008DF800006A4601214FF4A47002F02B
:1042F0008BFD08BD08B560B1042800D90420401E1C
:104300008DF800006A46012140F24F1002F07CFD5A
:1043100008BD0120F3E7000070B504462DED028BC7
:1043200082B040074FF0FF357ED0B1F5C86F7BD823
:1043300000EE101AB8EE400ADFED460A01A880EE42
:10434000208A01F019FF9DF80400022806D00428F5
:1043500010D0082835D0102874D13EE09FED3E0AD9
:1043600028EE000ABCEEC00A10EE100A9FED3B0AD0
:1043700082B20AE09FED3A0A28EE000ABCEEC00ABB
:1043800010EE100A9FED370A82B228EE000A6E4640
:10439000BCEEC00A10EE100A81B2100A8DF80000BF
:1043A0008DF80120080A8DF802008DF80310E0074F
:1043B00026D0324602214FF4EA7002F025FD98BB68
:1043C00017E09FED290A28EE000ABCEEC00A10EEA5
:1043D000100A9FED260A82B2D7E79FED250A28EE44
:1043E000000ABCEEC00A10EE100A9FED220A82B24B
:1043F000CBE7B21C02214FF4927002F005FD98B990
:10440000A0070DD56A4602214FF4EC7002F0FCFCC7
:1044100050B9B21C02214FF4947002F0F5FC18B9A7
:10442000600714D56A4600E00CE002214FF4EE70FC
:1044300002F0EAFC30B9B21C02214FF4967002F08F
:10444000E3FC20B1284602B0BDEC028B70BD002019
:10445000F9E70000000048430000804600004046A5
:10446000000000460000C0450000804500004045B7
:10447000000000450000C0440521B0FBF1F008B584
:10448000010A8DF800108DF801006A4602214FF4F0
:10449000EF7002F0B9FC08BD0521B0FBF1F008B5E2
:1044A000010A8DF800108DF801006A4602214FF4D0
:1044B000ED7002F0A9FC08BD0E4910B50A784C78E1
:1044C0000023A24212D0521CD2B20A70022A00D19A
:1044D0000B70084A0B780C3252F82320026088686F
:1044E000104420F07F408860012010BD0360002050
:1044F00010BD000018000020826883881A400368FD
:104500009A5C0A708168491C81607047C268838820
:104510001A4003689954C168491CC160704710B5BE
:104520000446C0B2FFF712FA204610BD10B50028AD
:1045300021D0114B0022001F196803E0814203D8EB
:104540000A4649680029F9D152B11368841A9C427D
:1045500004D1006818441060104602E0506000E08A
:10456000186039B102680B1A934203D10B681A44E0
:1045700002604968416010BD90000020054910B5F7
:1045800001200860012002F08DFC0028FAD10249C8
:10459000487010BD04000040180600202DE9F843C3
:1045A0008046994614460F4642F21076501C01F0A0
:1045B00055FD054600F8017B22464946FDF754F9B2
:1045C0000027641CE3B22A4641460E48009703F0D8
:1045D0008FF8040003D00CA0FDF78AFF04E00E481A
:1045E000017839B146B107702846FFF79FFF204692
:1045F000BDE8F883761EF3D12846FFF797FF0D201C
:10460000F6E70000089000007477695F7478206511
:1046100072726F72000000001600002070B50E4626
:104620000446007918494FF4A27501EB4010017F50
:104630002068A1B14FF4887103F0BBFE4FF4907174
:10464000206803F0B6FE4FF49271206803F0B1FECB
:104650002946206803F0ADFE0C49206809E04FF4BC
:104660008E7103F095FE2946206803F091FE0849FB
:104670002068C0F80413206802F001FE3146BDE84E
:10468000704002F0E0BD00003C0600201003020074
:10469000800002003EB50446B0F904000D46C00398
:1046A0000090B4F9060004F10C03C0030190B4F9C2
:1046B00008006A46C0030290606A4100208880B208
:1046C00000F018F90098296804F11803A0EB6100C4
:1046D0000090019869686A46A0EB61000190029819
:1046E000A968A0EB61000290606A4100208880B256
:1046F00000F000F9206B40F0200020633EBD000078
:1047000070B5174C15460268636F8E0611D4A4F875
:1047100048208188A4F84A100089A4F84C0043F08E
:104720008000A4F12C01606701F17000FFF7B2FF77
:104730000DE0E265426822668068606643F0200012
:10474000606701F003000749A067C1F83401606F9A
:1047500040F4A0706067E06FC4E91F50002070BD96
:10476000900D0020500C00203EB515461D4C8A06C9
:1047700018D400F05DFF684600F024FA009824F891
:104780008C0F0198608017490298A0804C3901F184
:10479000D400FFF77FFF54F82C0F40F0800044F85E
:1047A000B80915E00268C4F8A0204268C4F8A42043
:1047B0008068C4F8A800D4F8B80040F02000C4F81D
:1047C000B80001F003000849C4F8BC00C1F8380182
:1047D00054F8C00F64E80250206840F4A0702060D4
:1047E00000203EBD900D0020500C002010B50A4A5C
:1047F000036853648088A2F8480002F14000026B0D
:1048000042F4E0720263826BC0E90E120249FFF7C4
:1048100041FF002010BD0000500D002070B571C890
:10482000084B01F4007183E87100A3F58870C0F8AB
:104830002421D0F8202142F4E0720A43C0F820215C
:10484000002070BDA00E002030B591B004460020BD
:1048500000900B4615468968606800F06AFB0246C6
:104860005968A06800F065FB101A01901968A068EB
:1048700000F05FFB02469968206800F05AFB101AAE
:1048800002905968206800F054FB0246196860687D
:1048900000F04FFB101A039008AA6946284600F062
:1048A000A4FB0CA9284600F07DFB04AA0CA908A8CB
:1048B00000F09BFB069808B9059898B19DED050A94
:1048C0009FED0A1AB8EEC00A60EE010A9DED060AD5
:1048D000B8EEC00A20EE010AFDF7E4FEB1EE400A90
:1048E00011B030BD9FED020AFAE7000000008030F1
:1048F0000000000070B5044600F003000E4652F8B8
:10490000200061074FF0FF3501D5294600E0012165
:104910004843314600F00DFB1860C4F3C100A10606
:1049200052F8200001D5294600E0012148433146D4
:1049300000F0FFFA5860C4F38110E10552F820003E
:1049400000D401256843314600F0F3FA986070BD49
:1049500010B5014648220C48FCF786FF0A49F43995
:1049600001F5A070D1F830214263D1F8342182677B
:10497000D1F83811C0F8BC10032902D1012000F091
:104980001DFE002010BD0000440D002010B548227F
:104990000249FCF769FF002010BD0000440D002013
:1049A00010B528210348FCF786FFBDE810400248F7
:1049B00000F08ABDAC1100204D57000010B500F08A
:1049C00073FA002804D1BDE81040024800F07CBD15
:1049D00010BD0000A957000070B500252C46084EF8
:1049E00008E000BF06EB84004068804708B105B9C5
:1049F0000546641C3068A042F4DC284670BD000007
:104A0000B00F00202DE9F0411C48002490F8301030
:104A1000490600D5022490F87410490601D544F0E7
:104A2000010490F8B810490601D544F0040490F848
:104A3000FC10490601D544F0080490F82001400616
:104A400001D544F01004002635460D4F0EE000BF9E
:104A500005EB450007EB8000C168214205D04168A5
:104A60000648884708B106B906466D1C3868A84252
:104A7000EEDC00F005FE3046BDE8F081900D002030
:104A8000500C00202DE9F041264A0446A2F1140101
:104A90004FF47A75A1F1100000F074F92149206BF0
:104AA0002439C7054861636F8B61D4F8B820CA61A7
:104AB00001D5E56A0026DF0504D5276FAF4201DA8C
:104AC0003D460126D70505D5D4F8B470AF4201DACA
:104AD0003D460226D4F820715FEAC75C03D5D4F8BE
:104AE0002CC1AC4518DB012E08D0022E0ED0032EAF
:104AF00012D0C0F380100862A06B03E0C3F38010F3
:104B00000862E06F48620020BDE8F081C2F38010C7
:104B10000862D4F8C000F5E7C7F380100862D4F843
:104B20002401EFE7D01100200249C1F880000020E5
:104B300070470000280F002010B5034C1ECC80E801
:104B40001E00002010BD0000380F00200148006D3D
:104B500070470000280F00200148806F7047000058
:104B6000900D00200248B0F87400C0F30020704798
:104B7000900D002030B518B1074D38CD80E83800D1
:104B800005485C380AB1C36F1360002902D090F861
:104B90007800087030BD0000EC0D002070B5044AAC
:104BA00002F1400378CB80E87800106A086070BD9D
:104BB000280F00200248B0F8B800C0F3002070476A
:104BC000900D0020054A002102EB8103D3F83C310F
:104BD00040F82130491C0329F6DB7047900D002076
:104BE00070B5134C0546E168606800F09CF9064614
:104BF0002168A06800F097F9301A2860D4E9020112
:104C000000F091F90646D4E9001000F08CF9304428
:104C10006860E068014600F086F9064620680146B3
:104C200000F081F93044A0F18040A860002070BD00
:104C3000280F0020024B0ECB80E80E0070470000CA
:104C4000A80D00200148406B70470000900D002027
:104C500010B518B1054C1CCC80E81C00002903D00D
:104C60000348D0F80C01086010BD0000500D002072
:104C7000500C00200248008EC0F300207047000056
:104C8000900D0020034600204FEA000153F8212038
:104C9000491C521302FB02000329F7DB7047000096
:104CA00010490020B1F87420D20500D5C86F0A8ED3
:104CB000D20503D58A6B824200D91046B1F8B820DC
:104CC000D20504D5D1F8C020824200D91046B1F8EF
:104CD000FC20D20504D5D1F80411814200D9084640
:104CE00070470000900D00203EB5040017D0002250
:104CF0001146FFF73FFF6846FFF772FF20680099F3
:104D0000A0EBA130206060680199A0EBA130606049
:104D1000A0680299A0EBA130A06000203EBD052054
:104D20003EBD0000024B0ECB80E80E007047000035
:104D3000500F00200448D0F83C0108B10020704713
:104D40000248D0F8BC007047500C0020900D0020A5
:104D500070B50B4C054694F87C0080070AD02246BB
:104D600002F1100101F1300000F03FF9E06F20F096
:104D70000300E06794E80F0085E80F00002070BD95
:104D8000280F002070B515460C46FFF7E1FFFFF72E
:104D900087FF2860FFF70EFF10B1FFF7CBFF04E09D
:104DA000FFF768FF18B1FFF74DFF206070BDFFF7F8
:104DB000D9FE0028F9D0FFF7CFFEF6E7F0B5054B96
:104DC00093E8F00080E8F000187C0870586A1060E2
:104DD000186AF0BDAC1100200148006F7047000058
:104DE000280F002010B54FF4A0710948FCF763FDAF
:104DF0004FF4CC710748FCF75EFD00F075FBBDE891
:104E000010404DF2930348220349044800F026BBAA
:104E1000500C0020900D00208D49000051490000E9
:104E200010B500F063F800F057F850B100F054F8F6
:104E30002223134A13A1FDF7ABFFBDE8104000F099
:104E40004BB8FFF7CFFF50B1FFF7CCFF25230C4A3B
:104E50000CA1FDF79DFFBDE81040FFF7C3BFFFF7B2
:104E6000ADFD00280AD0FFF7A9FD2723044A05A1BC
:104E7000FDF78EFFBDE81040FFF7A0BD10BD00009C
:104E8000F09100002E2E5C2E2E5C2E2E5C654D4483
:104E90002D362E305C636F72655C6D6C6C69746569
:104EA0005C6D706C2E63000010B588210848FCF71B
:104EB00002FD07484FF080419FED060A4163816380
:104EC000C16301640161016080ED210A002010BD11
:104ED000280F0020DB0F494010B554210248FCF791
:104EE000EAFC002010BD0000B00F002010B54FF408
:104EF000CC710348FCF7DFFC01490C20486010BD71
:104F00000410002070B5044600F018FB0546E01CB4
:104F100000F014FB45EAC005A01D00F00FFB45EAB8
:104F2000801080B270BD80FB0101400F40EAC100DB
:104F3000704780FB0101800F40EA8100704710B587
:104F400003680C682344136043684C68234453602F
:104F500083688C6823449360C068C9680844D06043
:104F600010BD90ED000AD1ED000A30EE200A82ED6E
:104F7000000A90ED010AD1ED010A30EE200A82ED1F
:104F8000010A90ED020AD1ED020A30EE200A82ED0C
:104F9000020A90ED030AD1ED030A30EE200A82EDF9
:104FA000030A704702680A60426852424A60826897
:104FB00052428A60C0684042C860704790ED000A63
:104FC00081ED000A90ED010AB1EE400A81ED010A7F
:104FD00090ED020AB1EE400A81ED020A90ED030A5B
:104FE000B1EE400A81ED030A704730B50B46044626
:104FF00009680068FFF79DFF054659686068FFF77C
:1050000098FF2D1A9968A068FFF793FF2D1AD968A9
:10501000E068FFF78EFF281A106059682068FFF7D4
:1050200088FF054619686068FFF783FF0544D96863
:10503000A068FFF77EFF05449968E068FFF779FFF5
:10504000281A506099682068FFF773FF0546D968F1
:105050006068FFF76EFF2D1A1968A068FFF769FFF7
:1050600005445968E068FFF764FF28449060D968F8
:105070002068FFF75EFF054699686068FFF759FFF3
:1050800005445968A068FFF754FF2D1A1968E068B5
:10509000FFF74FFF2844D06030BD90ED000AD1EDFE
:1050A000000A91ED011A20EE200AD0ED010A00EE6F
:1050B000C10AD0ED020A91ED021A00EEC10AD0ED4C
:1050C000030A91ED031A00EEC10A82ED000A90ED89
:1050D000000AD1ED010A91ED001A20EE200AD0ED70
:1050E000010A00EE810AD0ED020A91ED031A00EEEA
:1050F000810AD0ED030A91ED021A00EEC10A82ED99
:10510000010A90ED000AD1ED020A91ED031A20EE9A
:10511000200AD0ED010A00EEC10AD0ED020A91ED9D
:10512000001A00EE810AD0ED030A91ED011A00EE9B
:10513000810A82ED020A90ED000AD1ED030A91ED99
:10514000021A20EE200AD0ED010A00EE810AD0ED0D
:10515000020A91ED011A00EEC10AD0ED030A91EDA9
:10516000001A00EE810A82ED030A704710B590ED37
:10517000000AD0ED010A044620EE000A00EEA00A63
:10518000D0ED020A00EEA00AD0ED030A00EEA00A5C
:10519000FDF720FDB5EEC00AF1EE10FA18D0D4EDFF
:1051A000000A80EE801A84ED001AD4ED010A80EE28
:1051B000801A84ED011AD4ED020A80EE801A84ED83
:1051C000021AD4ED030A80EE801A84ED031A10BD92
:1051D000B7EE000A84ED000A9FED040A84ED010A8F
:1051E00084ED020A84ED030A10BD000000000000F7
:1051F00090ED003A90ED012AD0ED021A63EE030A19
:10520000D0ED032A9FED250A42EE020A41EEA10AE3
:1052100042EEA20A10EE901AB1F1804F32DAB6EEE9
:10522000000A20EE801AB7EE080AF0EE403A21EEAE
:10523000204A44EE603A63EEA00AF0EE403A21EED6
:10524000204A44EE603A63EEA00AF0EE403A21EEC6
:10525000204A44EE603A63EEA00A21EE201A01EEE5
:10526000600A20EE200A63EE000AC0ED000A62EE3A
:10527000000AC0ED010A61EE800A22EE800AC0ED4C
:10528000020A07E0F7EE000AC0ED000A80ED010A0D
:1052900080ED020A80ED030A704700000000000064
:1052A00030B590B0054600201446009007C901AB08
:1052B00083E8070008AA69462846FFF796FE0CA96E
:1052C0002846FFF76FFE04AA0CA908A8FFF78DFE79
:1052D00005AB93E8070084E8070010B030BD10B5B7
:1052E000024640680B460146FFF71DFE0446106863
:1052F0000146FFF718FE2044A0F180401860D2E973
:105300000101FFF710FE04461168D068FFF70BFE9D
:10531000201A5860D1685068FFF705FE04461168EE
:105320009068FFF700FE20449860D2E90101FFF782
:10533000FAFD04461168D068FFF7F5FD2044D860F7
:1053400090680146FFF7EFFD044610680146FFF73D
:10535000EAFD2044A0F180401861D2E90201FFF784
:10536000E2FD0446D2E90010FFF7DDFD201A586186
:10537000D1685068FFF7D7FD044611689068FFF7C1
:10538000D2FD201A9861D2E90201FFF7CCFD044654
:10539000D2E90010FFF7C7FD2044D861D06801466C
:1053A000FFF7C1FD044610680146FFF7BCFD20442D
:1053B000A0F18040186210BD2DE9F047244B05464E
:1053C0009146002002461C680EE000BF02EB420638
:1053D00003EB86067768AF4202D0B6688E4202D1F0
:1053E0000520BDE8F087521C9442EFDC132C27DC2B
:1053F00000220CB918E0521C944206DD02EB420672
:1054000003EB8606B6688E42F5DB94420AD10BE0C8
:1054100004EB440603EB8606083E641EB6E88011E2
:1054200086E880119442F3DC02EB420203EB820235
:10543000C2F80C90C2E901511968491C1960D0E703
:10544000044A05A10620FDF701F80620C9E700007F
:10545000500C002034A200004D504C00F0B5194C07
:105460000025266809E000BF05EB450704EB870728
:10547000D7F8B0709F4204D06D1CAE42F4DC142EFD
:1054800001DB0520F0BD06EB460504EB8505C5F8FC
:10549000B030236803EB430304EB8303C3F8A82075
:1054A00023680C3204EB83039860206804EB8000CF
:1054B00081656068104460602068401C20600020A6
:1054C000F0BD00000410002006490A68142A01DB20
:1054D0000520704701EB820250600868401C08609C
:1054E00000207047B00F002010B59FED110A114C3D
:1054F000002000BF04EB8001401C81ED5B0A0928FD
:10550000F8DB24210C48FCF7D6F90020B7EE000A9E
:105510004FF0804204EB0011401C81ED5B0AC1F8A2
:1055200048210328F6DB0020C4F8900110BD0000DC
:1055300000000000900D0020D80E002090F900100F
:10554000002902DD4FF00000704702DA4FF004003E
:10555000704790F90110002902DD4FF001007047FB
:1055600002DA4FF00500704790F90200002802DDD2
:105570004FF00200704702DA4FF0060070474FF01C
:1055800007007047014A916650647047900D0020F3
:105590004FF47A7290FBF2F20649C1E91B02D1F88E
:1055A0008420002A04D1044A92FBF0F0C1F8840060
:1055B00070470000900D002040420F00014908672D
:1055C00070470000280F002030B5064A52F87C3F93
:1055D00043F0010342F85C3939C842F8201B82E8E5
:1055E000390030BD280F00200149C1F83C01704747
:1055F000500C0020024AC2F8AC10C2F88800704774
:10560000900D00204FF47A7290FBF2F20649C1E946
:105610002C02D1F8C820002A04D1044A92FBF0F0F1
:10562000C1F8C80070470000900D002040420F00F4
:1056300030B41149002200BF50F8223001EB82043F
:10564000521CC4F83031032AF6DBD1F89021012A2C
:105650000BD0002201EB820450F82230521CC4F817
:105660003C31032AF6DB30BC7047044A014630BCAB
:1056700002F10C0000F037BD900D0020CC0E002090
:105680001E48026B530602D542F010010163426FBF
:10569000530602D542F010024267D0F8B8205306F4
:1056A00003D542F01002C0F8B820D0F8FC20530611
:1056B00003D542F01002C0F8FC20D0F820114A06B1
:1056C00003D541F01001C0F8201150F8301F21F02F
:1056D000400140F8741B50F8301C21F0400140F8A4
:1056E000301C416921F040014161816D21F0400190
:1056F0008165C16F21F04001C1677047900D0020A6
:10570000014A516210607047900D00204FF47A7288
:1057100090FBF2F20549C1E90A020A6C002A03D1A2
:10572000034A92FBF0F0086470470000900D0020DF
:1057300040420F0004494FF47A72C1F8280190FBEF
:10574000F2F0C1F82C017047900D002007224FF4B1
:1057500061710148FFF730BE854A000010B5FFF7C0
:105760003BF900280AD0FFF737F94223044A05A184
:10577000FDF70EFBBDE81040FFF72EB910BD00008D
:10578000FD9100002E2E5C2E2E5C2E2E5C654D446D
:105790002D362E305C636F72655C6D6C6C69746560
:1057A0005C6D706C2E63000010B507224FF44871D9
:1057B0000248FFF701FE002010BD0000294B000049
:1057C00030B5064A52F87C3F43F0020342F858399C
:1057D00039C842F8141982E8390030BD280F00207A
:1057E00030B5114900220B681AE000BF02EB4204F9
:1057F00001EB84046468844211D10868521C904211
:105800000ADD02EB420001EB8000001D90E8380049
:105810000C3880E83800F0E7401E086002E0521CB7
:105820009342E3DC002030BD500C002010B5104C3A
:105830000021226818E000BF04EB81035B6883420B
:1058400011D1501E884209D0501A820004EB810009
:1058500000F10801001D121FFCF706F82068401E29
:105860002060002010BD491C8A42E5DC052010BDE7
:10587000B00F00202DE9FF470D464FF49277044604
:10588000394602F075FD4FF002094FF001084FF460
:10589000827640B13946204602F06FFD31462046FF
:1058A00002F066FDB0B3B2463146204602F060FD1C
:1058B0004FF0FF36002770B35146204602F05DFDE1
:1058C00005F10C0001AB07C883E8070095F8230039
:1058D00078B1287B01282DD0D4F84C05C0B28DF8C2
:1058E0000600287B022828D0D4F84C05C0B28DF8D9
:1058F00007004FF4B071204602F03FFD4FF4AE7147
:10590000204602F03AFD95F8250080B395F8230073
:1059100068BB3CE000E013E0A868C4F80803C5F8E1
:105920000890A868C4F80403C4F82080C4F8148060
:10593000BDE8FF87D4F83C05D0E7D4F83C05D5E7AF
:105940004FF4A471204602F018FD287B80B14FF47B
:105950000070C4F80002801CA860C4F80863A8683E
:10596000C4F80403C4F80880C4F82080E0E708E025
:1059700005F10C0001AB07C883E8070095F8250086
:1059800028B90020C4F80002AF60C4F80863D4F856
:10599000C404C4F8C404810702D58DF8008006E071
:1059A000400702D58DF8009001E08DF8007095F861
:1059B000250008B985F82470D5E90021684690478C
:1059C000B6E70268134602E08A4204D01268002A51
:1059D000FAD10B60016070472DE9F047394E00277E
:1059E00080463D46DFF8E090D6F804A057E003D0AB
:1059F0000446D0F81C8035E099F8002002EB420103
:105A0000521CD2B289F8002009EBC10199F802308A
:105A1000091D9A4201D189F8005048680A78044665
:105A2000012A12D0022A02D0032A3BD108E002F058
:105A300015FF00B10127257434E00574C06900E04A
:105A400070680028F9D170602CE0207C50BB886819
:105A50006060C868A0600869E0604869A061F0788B
:105A600000B165606268B168184B501A20F07F4041
:105A7000984202D2A168084406E0881AA16820F082
:105A80007F40814202D9081A206000E025606560ED
:105A90000120A56020742046E56102F0C1FEB8F146
:105AA0000000A4D199F8001099F801008142A3D117
:105AB00017B97168514502D00120BDE8F087002078
:105AC000FBE7000018000020B4060020FFFF7F0065
:105AD00008B59DF8000020F00F0040F01000801D78
