:020000040002F8
:10200000287F00201DBD020025BD020027BD020063
:1020100029BD02002BBD02002DBD02000000000002
:102020000000000000000000000000002FBD0200C2
:1020300031BD02000000000033BD020035BD0200CA
:102040009D38020037BD0200BF3E0200092F02008A
:1020500037BD020037BD02009949020037BD0200BA
:1020600037BD020037BD020037BD020037BD020098
:1020700037BD020037BD020037BD020037BD020088
:1020800037BD0200C54E020037BD020037BD020059
:10209000E54E020037BD020037BD020037BD020029
:1020A00037BD020037BD020037BD020037BD020058
:1020B00037BD020037BD0200000000000000000034
:1020C00037BD020037BD020037BD020037BD020038
:1020D00037BD020037BD020037BD020037BD020028
:1020E00037BD020037BD020037BD020037BD020018
:1020F0000000000037BD02000000000000000000EA
:1021000000000000000000000000000000000000CF
:1021100000000000000000000000000000000000BF
:1021200000000000000000000000000000000000AF
:10213000000000000000000000000000000000009F
:10214000000000000000000000000000000000008F
:10215000000000000000000000000000000000007F
:10216000000000000000000000000000000000006F
:10217000000000000000000000000000000000005F
:10218000000000000000000000000000000000004F
:10219000000000000000000000000000000000003F
:1021A000000000000000000000000000000000002F
:1021B000000000000000000000000000000000001F
:1021C000000000000000000000000000000000000F
:1021D00000000000000000000000000000000000FF
:1021E00000000000000000000000000000000000EF
:1021F00000000000000000000000000000000000DF
:10220000DFF80CD00FF07AFB00480047672302008C
:10221000287F00200178022901D0012902D14068DD
:1022200003F06CB8704700B58BB001F0FEF91822CE
:10223000F84968460EF07AFFF74806904FF4807030
:102240000790F64808904FF480600723AFF23B02F6
:10225000099006A9684603F0A7F9002801D003F009
:102260004DF80BB000BD10B501F0B3F808B103F0A4
:1022700045F8BDE81040EAA1132003F073BC704795
:10228000E5490120243908717047704770472DE9EE
:10229000F04F00202DED048BA7B02021189019904D
:1022A0001A900CA80EF069FF25AA24A91BA809F012
:1022B00086FB002852D025AA24A918A804F0A2FA67
:1022C00000284BD01B980FF015F99FEDDA8B53ECDB
:1022D000182B0FF018F841EC190B8DED0C9B1C9886
:1022E0000FF008F953EC182B0FF00DF8CDE90E01A3
:1022F00006460F461D980FF0FDF853EC182B0FF013
:1023000002F8CDE91001804689461E980FF0F2F8D8
:1023100053EC182B0EF0F7FFCDE91201CDE91401B3
:102320001A980FF038F904460D4619980FF033F952
:1023300082468B4618980FF02EF90A4606A981E8C6
:10234000050CCDE90A45DDE91401CDE904018DE86C
:10235000C00353EC192BB9A00FF0F0FA27B0BDEC75
:10236000048BBDE8F08F98B001F0E7F908B102F0F6
:10237000C5FF002001F00EFA02F0B6FD08B102F030
:10238000BDFFA448B94A0121083802F0D0FD08B1C8
:1023900002F0B4FF9F4C0022083C4FF43401206847
:1023A00002F0D5FD08B102F0A9FFFFF73CFF0020C5
:1023B00003F0C3FB08B102F0A1FF02F046F808B138
:1023C00002F09CFF6068019003208DF80500A84A88
:1023D00001A9282002F0D2F908B102F08FFF0121F3
:1023E000282002F078FAFFF73EFF14A807F06BF9F7
:1023F00008B1A0A100E0A7A1132003F0B3FB05F0F2
:1024000067FB18B1A7A1132003F0ACFB0DF0F4FF9C
:102410000DF052F80CF0DEFC0BF070FF0DF016FB27
:1024200009F051FC18B1A6A1132003F09BFB05F0A5
:1024300083FBAB4CAB4E322808D078B1AAA1132055
:1024400003F090FB204600F0A7F90BE0ADA11320AC
:1024500003F088FB204600F09FF9F7E7AEA11320B8
:1024600003F080FB792006F0D4FC782006F0A1FF71
:10247000142007F07BF80A2006F063FD11A807F08E
:10248000E3FB13A807F093FB12A807F0A8FB0CA826
:1024900009F001F9BDF84400B6FBF0F003F0DCFCF4
:1024A000BDF84400B6FBF0F003F0E6FC9E4803F0F4
:1024B000F5FC9E4805F0C3F9BDF84C10C90303F0C4
:1024C000C6FC9A4805F0BBF99DF84810C90303F013
:1024D00056FD9648093005F0B2F9BDF83010C90331
:1024E00003F052FD4C4C0720243C00256070A57081
:1024F000A56184F82150E56065610AA8256100F0B6
:10250000DFFF06E08AA1132003F030FB304600F025
:1025100043F905F03FFE0200F4D194A1132003F02B
:1025200021FB824805F08BF905F03CFE944806F04B
:1025300056FB944806F057FB40F27310A08306F058
:102540009BF9142005F076FF012008F081FD0120A1
:10255000A070642005F06EFF42F21076304603F062
:10256000BFFC304603F078FC304603F085FC62B6D1
:1025700000F054F900260AA800F0A2FF60780028B5
:10258000F8D020790028F5D0207910B120780028E3
:10259000F0D120790028EDD0A0780028EAD00BA94E
:1025A00005A8CDE9000104AB0DAA02A916A806F002
:1025B0006EFA0028DED19DF82C0000B92571BDF817
:1025C000140010F0700F04D016A8049903F068FEF0
:1025D0000126BDF91400010712D5BDF908000690C7
:1025E000BDF90A000790BDF90C000890002106A86B
:1025F000049A03F025FEBDF81400C00502D4C6E01D
:10260000C00505D500210DA8049A03F0D9FEBEE04F
:10261000BAE00000903E03009C2200209C23002092
:102620000D0A5457492073746172747321200D0A86
:1026300000000000000000000000103E25372E358D
:10264000662C25372E35662C25372E35662C2537FA
:102650002E35662C25372E35662C25372E35662CE3
:1026600025372E3566200D0A000000007F2202006B
:1026700081220200436F756C64206E6F7420696E56
:10268000697469616C697A6520746865206D70751C
:102690002E0D0A004D505520737461727473212001
:1026A0000D0A0000436F756C64206E6F7420696EB4
:1026B000697469616C697A65204D504C2E0D0A0071
:1026C000656E61626C655F654D504C5F6F757470CF
:1026D000757473206661696C656421200D0A0000C1
:1026E00000CA9A3B40420F00436F756C64206E6FC6
:1026F0007420737461727420746865204D504C2E80
:102700000D0A00004E6F7420617574686F72697AEB
:1027100065642E0D0A0000004D504C2073746172E8
:10272000747321200D0A0000A08601009C21002066
:10273000436F756C64206E6F74206C6F616420440D
:102740004D5020496D6167652C204572726F722073
:10275000436F64653A2025642C2072657472792079
:10276000696E203120736563200D0A00444D5020AE
:10277000646F776E6C6F6164656421200D0A0000E0
:102780008B2202008D220200002E3FF4F3AE03F0F4
:10279000F7FEFFF77CFDEDE600283ED04E494F4A9C
:1027A000096800BF00BF00BF00BF00BF00BF00BF7F
:1027B00000BF91422FD000BF00BF00BF00BF00BFCD
:1027C00000BF00BF00BF00BF00BF00BF00BF00BF11
:1027D00000BF00BF00BF00BF00BF00BF00BF00BF01
:1027E00000BF00BF00BF00BF00BF00BF00BF00BFF1
:1027F00000BF00BF00BF00BF00BF00BF00BF00BFE1
:1028000000BF00BF00BF00BF00BF00BF00BF00BFD0
:1028100000BF00BF00BF401EC3D1704710B588B0D5
:10282000002202A905A808F04CFC0446072802D0A3
:10283000E0073FD042E02AA1132003F093F901A85A
:1028400007F02DFABDF80400029941430291039963
:1028500041430391049941430491032102A803F0E9
:1028600039FC684607F000FA9DED050A032105A82A
:10287000F8EEC00A9DED000A60EE800AFDEEE00A67
:10288000CDED050ADDED060AF8EEE00A60EE800AFD
:10289000FDEEE00ACDED060ADDED070AF8EEE00AEE
:1028A00020EE800ABDEEC00A8DED070A03F075FC2C
:1028B00008B010BD0FA1132003F054F9A00703D4F2
:1028C00010A1132003F04EF96007F1D411A11320D9
:1028D00003F048F9ECE70000382200200024F4005F
:1028E00053656C662054657374205061737365641E
:1028F000210D0A004779726F206661696C65642E4C
:102900000D0A0000416363656C206661696C656453
:102910002E0D0A00436F6D70617373206661696CE0
:1029200065642E0D0A00000000283ED0FD49FE4AD5
:10293000096800BF00BF00BF00BF00BF00BF00BFED
:1029400000BF91422FD000BF00BF00BF00BF00BF3B
:1029500000BF00BF00BF00BF00BF00BF00BF00BF7F
:1029600000BF00BF00BF00BF00BF00BF00BF00BF6F
:1029700000BF00BF00BF00BF00BF00BF00BF00BF5F
:1029800000BF00BF00BF00BF00BF00BF00BF00BF4F
:1029900000BF00BF00BF00BF00BF00BF00BF00BF3F
:1029A00000BF00BF00BF401EC3D1704770B50646D0
:1029B0000D460079DD4900EB800001EBC00494F87E
:1029C000220008B1082070BD0020C4E90023A060E7
:1029D00084F8250084F82400A87B84F82700687B0D
:1029E00010B1284600F0A6FA296840F20C60890070
:1029F00001F1A041C1F800076968890001F1A04117
:102A0000C1F80007D5E900123068C0F80815C0F811
:102A10000C25A968C0F82415206828B13068297BE6
:102A2000000B40B200F0C6FF012084F82200002015
:102A300070BD0179BD4A01EB810102EBC101006863
:102A400000228A60531EC0F80833D0F80032C0F864
:102A50000022C0F80025012081F82200704730B51F
:102A600004460079B14900EB800001EBC0052868FD
:102A700060B12068000B41B201F01F0201209040BC
:102A80004909890001F1E021C1F880012046FFF7E2
:102A9000D0FF95F8270088B9216840F20230D1F8BC
:102AA0000815890001F1A041C1F800072168D1F89B
:102AB0000C15890001F1A041C1F80007002085F83C
:102AC000220030BD0179994A01EB8101006802EBD7
:102AD000C1010622C0F80025022081F822007047BB
:102AE0000079924900EB800001EBC00090F82400CF
:102AF00070472DE9F05F06461F4615460C464FF01D
:102B0000000A4FF0080B4FF48279506800F00AFA7F
:102B100000287DD04FF0FF30C4F8080396F8240059
:102B200028B1B068C4F804031120BDE8F09F78070D
:102B300003D4F80601D4012000E0002086F8240028
:102B400095E8070006F10C0383E80700C7F30010BF
:102B500086F825006878C4F888054FF4827120460D
:102B600000F0D5F94FF49271204600F0D0F9F80743
:102B70004FF0010800D04046C4F85005B80701D511
:102B8000404600E00020C4F84005287800286BD0BB
:102B900001287CD002284DD0032814D04FF0070A1A
:102BA000380704D42878032801D044F80B80306813
:102BB00000286DD0780702D54FF40070B060B0687F
:102BC000C4F80403B9E0A86800F0ACF900B34FF40E
:102BD0008070C4F80002A9786868C4F84405C4F895
:102BE00048154FF4A871204600F091F94FF4B071E8
:102BF000204600F08CF94FF4A471204600F087F9CC
:102C0000C4F82080C4F808804FF4A871204600E082
:102C100028E000F082F90028F6D04FF4A871204691
:102C200000F075F9E878A968C4F84415C4F84805B7
:102C30003F4815E0A8786968C4F84415C4F8480509
:102C4000A86800F06FF968B1E878A968C4F834158D
:102C5000C4F838054FF48450C4F8000240F2022052
:102C6000B0609DE7102060E7A8786968C4F8441553
:102C7000C4F84805B8060FD54FF48070C4F80002B8
:102C80002B48B0604FF4A4794946204601E00CE09F
:102C90001BE000F03CF905E04FF40070C4F80002BE
:102CA000801CB060C4F820807AE7A8786968C4F80E
:102CB0003415C4F838054FF48050C4F8000240F2CF
:102CC0000220B0604FF0000BECE745464FF48277EE
:102CD0004FF492780BE04146204600F01EF930B1E7
:102CE0004146204600F013F925626561B946494620
:102CF000204600F012F90028EDD0D4F8C404C4F83E
:102D0000C404002186F82410B8B10321C20701D001
:102D10004FF40241820701D548F2012140070BD54B
:102D200008E00000382200200024F4009C27002046
:102D30000002040048F202218A465046F5E630B40B
:102D40000379B54C03EB830304EBC304006813461B
:102D50000A460146204630BCCBE63EB5002500952C
:102D6000069C8DF8011002958DF8023001920CB18D
:102D7000202200E000226946FFF7E1FF3EBD3EB59C
:102D8000A64D2C68AD6800948DF801100192029553
:102D90008DF8023000226946FFF7D1FF3EBD0020CA
:102DA00070470068012901D0082100E00021084493
:102DB0007047006800F5827070472DE9FF470D46A7
:102DC0004FF492770446394600F0A7F84FF0020915
:102DD0004FF001084FF4827640B13946204600F0AA
:102DE00096F83146204600F098F8B0B3B246314626
:102DF000204600F092F84FF0FF36002770B351469E
:102E0000204600F084F805F10C0001AB07C883E808
:102E1000070095F8230078B1287B01282DD0D4F83D
:102E20004C05C0B28DF80600287B022828D0D4F8C3
:102E30004C05C0B28DF807004FF4B071204600F089
:102E400066F84FF4AE71204600F061F895F8250061
:102E500080B395F8230068BB3CE000E013E0A8686D
:102E6000C4F80803C5F80890A868C4F80403C4F8B7
:102E70002080C4F81480BDE8FF87D4F83C05D0E773
:102E8000D4F83C05D5E74FF4A471204600F03FF894
:102E9000287B80B14FF40070C4F80002801CA86049
:102EA000C4F80863A868C4F80403C4F80880C4F828
:102EB0002080E0E708E005F10C0001AB07C883E8DB
:102EC000070095F8250028B90020C4F80002AF607B
:102ED000C4F80863D4F8C404C4F8C404810702D554
:102EE0008DF8008006E0400702D58DF8009001E0E3
:102EF0008DF8007095F8250008B985F82470D5E99B
:102F0000002168469047B6E74349454855E708B56C
:102F1000002242504058009008BD4058002800D080
:102F2000012070470121B1EB507F01D10120704792
:102F30000020704738B5044640F20C6021688900D3
:102F400001F1A041C1F800076168890001F1A041C9
:102F5000C1F80007206800F04AF8606800F047F800
:102F6000216840F20D60890001F1A041C1F800071D
:102F70006168890001F1A041C1F800070420FFF752
:102F8000D3FC002560680090684600F025F8D0F872
:102F900010050099C84010F0010F02D0002D1AD082
:102FA0000EE0206800F02DF80420FFF7BDFC20683B
:102FB00000F01DF80420FFF7B7FC6D1C092DE1DBC4
:102FC000606800F01EF80420FFF7AEFC6068BDE802
:102FD000384000F00CB838BD0168202902D24FF00B
:102FE000A040704701F01F0101600E48704701B515
:102FF0006846FFF7F1FF009A01219140C0F80815DB
:1030000008BD01B56846FFF7E7FF009A012191402E
:10301000C0F80C1508BD00009C270020A83E030046
:103020000030004000030050017800290AD10279E5
:10303000CA4901202AB1012A05D0022A03D0032A55
:1030400000D108707047487070471FB5C44B0FCB54
:103050008DE80F00C2480023C24A69460838FFF7CE
:10306000A5FC002804D1BE480838FFF72BFD00203E
:1030700004B010BDFEB50346BC481446BA4D00F876
:10308000013B0EF053F868208DF80100B748002688
:103090000190B3488DF80060641C8DF80240324600
:1030A00069460838FFF74BFEAC490A7812B11DB1EA
:1030B0000E70FEBD6D1EF8D10D20FEBD7CB5002545
:1030C0008DF80400A6488DF80510A74C022301AA2C
:1030D000682108380095FFF740FE002804D19F4979
:1030E0000A7812B11CB10D707CBD641EF8D10D20A0
:1030F0007CBD2DE9F74382B09B4C99481746894621
:103100004FF000082646012302AA68210838CDF8AE
:103110000080FFF722FE002813D1904D287898B147
:10312000BEB185F800808E48FBB24A466821083857
:10313000FFF725FE002804D1697841B14CB185F82C
:10314000018005B0BDE8F083761EE7D101E0641E82
:10315000F2D10D20F5E72DE9F74382B0824C80488B
:10316000174689464FF000082646012302AA0C2183
:103170000838CDF80080FFF7F0FD0028E1D1774D49
:10318000287888B1AEB185F800807548FBB24A4610
:103190000C210838FFF7F3FD0028D2D1697831B14E
:1031A0003CB185F80180CCE7761EE9D101E0641ED0
:1031B000F4D10D20C5E77CB500258DF804006848E2
:1031C0008DF80510684C022301AA0C2108380095DF
:1031D000FFF7C3FD002804D160490A7812B11CB181
:1031E0000D707CBD641EF8D10D207CBD2DE9FF471C
:1031F0008246014682B05C4C594899469046002769
:103200002646012303AA08380097FFF7A6FD05000C
:1032100007D057A1132002F0A5FC284606B0BDE850
:10322000F0874E4D287880B1D6B12F704C4808F009
:10323000FF034A4651460838FFF7A1FD060007D0B4
:1032400052A1132002F08EFC06E0761EEAD107E0C0
:10325000687818B124B16F703046DFE7641EF7D18B
:103260000D20DBE77CB500258DF8041019788DF86A
:10327000051001463A483C4C022301AA0838009543
:10328000FFF76BFD002804D134490A7812B11CB154
:103290000D707CBD641EF8D10D207CBDA6E72DE924
:1032A000F8438046994614460F462F4E501C10F0A6
:1032B0005FFD054600F8017B224649460DF036FFCA
:1032C00027480027641CE3B22A4641460838009785
:1032D000FFF743FD040003D033A00EF02FFB04E002
:1032E0001E48017839B146B10770284610F018FD24
:1032F0002046BDE8F883761EF3D1284610F010FD75
:103300000D20F6E72DE9FC5F0024994617468A4612
:103310008346154D2646DFF8448017E00AEB04008B
:103320008DF8040019F804008DF805000C480223FC
:1033300001AA594608380096FFF70FFD002807D16B
:1033400041460A7832B13DB10E70641CBC42E5D3EF
:10335000BDE8FC9F6D1EF4D10D20F9E7AE210020E1
:10336000BC3E03002930020040420F00C427002069
:103370006572726F722072657475726E2066726FFC
:103380006D20747769207478200D0A006572726F61
:10339000722072657475726E2066726F6D2074771C
:1033A00069207278200A00007477695F747820655C
:1033B00072726F7200000000014604221920FFF7AC
:1033C00059BE01783720FFF779BE01783820FFF722
:1033D00075BEFFF73ABE1CB50446062269463B207F
:1033E000FFF787FE00280BD100216846C1F10502D6
:1033F000491C825CC9B204F8012B0629F6D30020CF
:103400001CBD1CB50446062269464320FFF771FE29
:1034100000280BD100216846C1F10502491C825CDD
:10342000C9B204F8012B0629F6D300201CBD38B51B
:103430000446022269464120FFF75BFE002808D1BE
:103440009DF800109DF80100090200FA81F020802B
:10345000002038BD012201463A20FFF74ABE38B5A8
:103460000446012269463720FFF743FE9DF800001D
:1034700040F002008DF800006846FFF7A2FF002828
:1034800003D121780A20FFF796FE38BD38B50C46E7
:10349000014606220320FFF75EFE00280CD14FF004
:1034A00001022CB12146BDE838400920FFF753BE88
:1034B00069460920FFF74FFE38BDFFF74CBE0000FC
:1034C00010B5044601F094FD00EB4001C1EBC010C3
:1034D0004FF4804101EBC000C00B206010BD0FB461
:1034E0002DE9F0410446CAB0092C3ED2DFE804F0D1
:1034F000050505050505053D050053AA06A85299D1
:103500000EF044FA051E31DD182168460DF035FE37
:1035100024208DF8000001208DF801008DF8024074
:103520000D208DF815000A208DF8160000240DF1ED
:1035300018086E4617E0281B122800DB1220C7B2BD
:103540001221F01C0DF019FE08EB04013A46F01CA4
:103550000DF0ECFD684602F004FB024606A10320D4
:1035600002F004FB1234AC42E5DB00204AB0BDE8B7
:10357000F0015DF814FB00003A494E464F3A2573BE
:103580000000000038B501240090684631B100F019
:10359000A8F800998C40C0F8084538BD00F0A1F8A3
:1035A00000998C40C0F80C4538BD604908B5085CEE
:1035B0000090684600F095F8D0F804050099C840DE
:1035C00010F0010000D0012080F0010008BD574933
:1035D000085C0021D6E75549085C0121D2E710B507
:1035E00000242046FFF7F7FF641C042CF9D310BD1C
:1035F00010B500242046FFF7EAFF641C042CF9D321
:1036000010BD4A4908B5085C0090684600F069F8AA
:10361000D0F80425009B0121994021EA0203C0F85B
:1036200008351140C0F80C1508BD7CB500243F4E8C
:1036300025460122305D009500231146019500F0DA
:103640005BF8641C042CF4D3BDE87C40C7E7374921
:10365000085C704710B50246344B4FF0FF30002134
:103660005C5C944201D1084610BD491C0429F7D383
:1036700010BD2E4908B5091D085C0090684600F091
:1036800030F8D0F810050099C84010F0010000D0C3
:10369000012080F0010008BD7CB50024234E2546A2
:1036A000361D0022305D032300951146019500F080
:1036B00023F8641C042CF4D37CBD1C4B10B50246CB
:1036C00000214FF0FF301B1D5C5C944201D1084685
:1036D00010BD491C0429F7D310BD1449091D085C0D
:1036E00070470168202902D24FF0A040704701F0D6
:1036F0001F0101600E4870472DE9FF411C46DDE9BE
:103700000A7815460E466846FFF7EBFF46EA450184
:1037100041EA840141EA072242EA0841009A00EBAB
:103720008200C0F80017BDE8FF810000CC3E030016
:103730000003005098480078704770B5964C0025FB
:10374000207808B1852512E00021A1606160216127
:10375000E1604FF0E020D0F80001012610F0010FE9
:1037600002D1084600F026F98C48066026702846EB
:1037700070BD10B500F018F94FF080414FF0FF30E8
:10378000C1F8080300F0D0F800F0DCF8824900200E
:10379000087010BD70B5804D0446A87838B114B1DA
:1037A000616801208847002001F0ABFF15E0002090
:1037B00001F0A7FF24B178482146103000F0CFF87F
:1037C000E86850B94FF4827000F092F80220410787
:1037D000C1F80403724901200860E868401CE860F1
:1037E000BDE87040002001F08DBF10B5002001F051
:1037F00088FF6948C168491EC160C06808B900F007
:1038000093F8BDE81040002001F07CBF65480068D7
:10381000C0F30040704770B55F4D0446687838B11A
:1038200014B1616800208847002001F06AFF13E0AE
:10383000002001F066FF24B157482146083000F00F
:103840008EF8686840B94FF4807000F051F801209C
:103850008107C1F8040308606868401C6860BDE81F
:103860007040002001F04EBF10B5002001F049FF6C
:1038700049484168491E4160406808B900F062F853
:10388000BDE81040002001F03DBF012000F03FB82E
:103890000F2070470F2070470F2070472DE9F0412F
:1038A0004FF48077384600F02BF801243A4EA507F4
:1038B00048B1384600F01CF80120C5F808037470C0
:1038C000002000F057F84FF48277384600F018F8DF
:1038D00000280BD0384600F00BF80220C5F808038A
:1038E000B470BDE8F041012000F044B8BDE8F081BB
:1038F00008B500F18040002101600068009008BD1B
:1039000000F180400068002800D001207047254960
:103910000C39096840F4803001F00111814201D175
:1039200001207047002070471D490120091D0860D3
:103930001C480168C1F300410029FAD11649002052
:10394000887070471649012010B5091F08600120D2
:10395000FFF7DDFF0028FAD10F49487010BD02685B
:10396000134602E08A4204D01268002AFAD10B60A2
:103970000160704770B5084C050009D0103421680B
:10398000002907D008682060496828468847F6E77C
:103990000834F4E770BD0000D4270020180500406B
:1039A00008000040180400404FF0E0210120C1F859
:1039B000800170474907090E002806DA00F00F025F
:1039C00002F1E02282F8141D03E000F1E02282F807
:1039D000001400F01F02012191404009800000F115
:1039E000E020C0F88012C0F8001170472DE9F041C6
:1039F00005460079FF4F904607EB40140E46E07EE7
:103A000010B10820BDE8F081707F2077284600F0D3
:103A100091FA5FEA080060603169216003D0317F6C
:103A2000284600F0D8FA287907EB4010007F0028DC
:103A3000286801D0082100E00421C0F8001500200A
:103A4000E0752076A0750121E176A076DAE770B501
:103A500004460079E749002601EB401520682A7FDB
:103A6000C0F80065686888B1207901EB4010007FDC
:103A70000028206801D0E04901E0DF498C39C0F816
:103A80000813206800F04BFA00F03EFA204600F0E0
:103A9000D7FAEE766E6070BD0079D64901EB401022
:103AA000807D002800D0012070472DE9F0470546B1
:103AB0000079D04E904606EB40140F46207F18B197
:103AC000084600F02FFA30B12846FFF7E5FF20B195
:103AD0001120BDE8F0871020FBE784F81680A7606E
:103AE0000027A78228794FF0010806EB40143E46D4
:103AF000207F0028286825D04FF49079494600F0AF
:103B0000F8F94FF4AC7A5146286800F0F2F92868C9
:103B1000A17DA268C0F84425C0F848152868C0F8FF
:103B200008806068F0B94946286800F0E8F98046E6
:103B30005146286800F0E3F958EA0001F3D058BB79
:103B4000A7750FE04FF48E7A514600F0C1F928684E
:103B5000C0F808802146286800F0ABFA61684FF48D
:103B6000807089B13046B4E75146286800F0B6F954
:103B700010B9A08A4845F7D1A08A484505D021460A
:103B8000286800F096FA00E08146A08AA17D88426C
:103B9000EAD3A08A484501D10F26D1E751462868CB
:103BA00000F09CF90028F9D02868C0F80C80C7E71D
:103BB00070B50546C87D0C4600284FF48471284630
:103BC0000AD000F085F9D5F81805627EE1688854BE
:103BD000607E401C607670BD00F07AF9D5F818055B
:103BE00070BD2DE9F04105460079824E904606EB06
:103BF00040140F46207F18B1084600F093F980B1B9
:103C0000626800234FF404704FF401716AB12A799D
:103C100006EB4212127F002A2A6804D0C2F8080379
:103C200003E01020EEE6C2F80813E27DB2B1227E76
:103C30007AB162685AB12A7906EB4212127F1AB140
:103C40002968C1F8040302E02868C0F804131120B1
:103C5000D8E62761012384F8188005E084F81780EE
:103C60000020E760607620762879424606EB401017
:103C70003946007F0028284603D0BDE8F04100F017
:103C800089BABDE8F04100F034BA0179594A0068B8
:103C900002EB4111097F11B1D0F8100101E0D0F819
:103CA0000801002800D00120704770B50446007953
:103CB000504D05EB4010017F00290AD1807E00287D
:103CC00007D1204600F005FA2179012005EB4111CA
:103CD000887670BD0279474901EB4212127F002AB3
:103CE00007D10268012353600079002201EB4010E4
:103CF0008276704710B5044600793E4901EB4010CA
:103D00004FF49271027F206812B100F0F2F801E0E6
:103D100000F0DEF82168D1F88004C1F8800410BDFD
:103D20002DE9F041054601793248012600EB4114A6
:103D30002868217F79B14FF4AC77394600F0D9F883
:103D40002868C660606803E03946286800F0D7F844
:103D50000028F9D056E6C660606830B1A08AC1B2CA
:103D60002046BDE8F04100F076BA4FF48070A082A2
:103D700048E601791F4A02EB411101220B7F0168DD
:103D80000BB14A6070474FF40173C1F80833006803
:103D9000426070472DE9FF470C4605464FF400711D
:103DA00000F0A1F801274FF40178002630B34FF45A
:103DB00092794946284600F091F8F8B149462846DC
:103DC00000F086F8C5F80883A07E00B96F60022075
:103DD0008DF80000D5F88004C5F880040390E07DDC
:103DE0008DF80800E0680190E6752676D4E90012A7
:103DF000684604E0E82700201003020001E0904735
:103E000027E00421284600F06EF810B34FF48471C7
:103E1000284600F063F8E0B121462846FFF7C8FEC7
:103E2000E07D617E884214D1207E38B1617EE268F7
:103E3000E0752069E0602676667607E0A07E00B92E
:103E40006F60C5F80883E675617EE268204600F081
:103E5000F6F94FF48E784146284600F03FF888B1D5
:103E6000A08AA17D884204D22146284600F021F98B
:103E700008E04146284600F02BF8A17D11B120460C
:103E800000F0E9F94FF4A2784146284600F026F800
:103E9000002812D04146284600F01AF8A07E00B152
:103EA0002F60E07D002808D0E675617EE26804B0EE
:103EB0002046BDE8F04700F0C2B9BDE8FF87FE48E4
:103EC000017FFE480029FC4901D000F0D2B961E72A
:103ED00008B5002242504058009008BD40580028C4
:103EE00000D001207047D0F80403084000D0012022
:103EF000704708B5002242504058009008BD405815
:103F0000002800D00120704700F01F0201219140DD
:103F10004009800000F1E020C0F880117047000BDC
:103F200040B270470121B1EB507F01D101207047B1
:103F30000020704770B5054608680C46411C04D047
:103F400000F033FA206800F014FA6068411C02D0D7
:103F5000002100F018FA2879D74901EB40102968B0
:103F6000007F0028A069C1F8240523D0607D227D50
:103F700029681043C1F86C05D4E900122868C0F81C
:103F80000C15C0F8142522E0A068411C02D00021C5
:103F900000F0F9F9E068411C04D000F006FAE0688E
:103FA00000F0E7F9D4E902122868C0F80825C0F843
:103FB000101570BD607D217D2A680843C2F86C052C
:103FC000D4E900122868C0F81425C0F80C15207D2B
:103FD0000128D9D070BD70B50E4604460079B649A7
:103FE0004FF4A27501EB4010017F2068A1B14FF49E
:103FF0008871FFF77EFF4FF490712068FFF779FF1B
:104000004FF492712068FFF774FF29462068FFF78C
:1040100070FFAB49206809E04FF48E71FFF758FF3D
:1040200029462068FFF754FFA6492068C0F804130A
:104030002068FFF774FF3146BDE87040FFF7BABC57
:1040400070B5034600799C4901EB40101968027F66
:104050004FF0FF30002AD1F80C25D1F81465D1F8C3
:104060000855D1F8104504D0C1F80C05C1F8140565
:1040700003E0C1F81405C1F80C051968C1F808057A
:10408000C1F81005501C02D0104600F085F9701CD4
:1040900002D0304600F080F9601C02D0204600F0CB
:1040A0007BF9681C04D02846BDE8704000F074B964
:1040B00070BD70B50C4605464FF48E71FFF708FFD2
:1040C000A18AA068415CA08A401CA082C5F81C158A
:1040D00070BD10B5044600684FF49271FFF7F8FE0A
:1040E0004FF484712068FFF7F3FE2068012101601E
:1040F00010BD2DE9F05F044600796F4901EB4015D2
:10410000A87E184302D12046FFF7E3FF6868002825
:10411000206806D04FF40171C0F804130020BDE8F8
:10412000F09F4FF4A2763146FFF7D2FEB1464FF42E
:10413000927A4FF4847B51462068FFF7CFFE064603
:1041400059462068FFF7CAFE804649462068FFF7B7
:10415000C5FE074648EA07003043ECD056EA0700A0
:1041600007D129462068FFF723FDE87D697E884254
:10417000E1D80020E8750EB10320D0E70FB10F2081
:10418000CDE7A97E01200029216801D00860C5E79C
:104190004860C3E72DE9F05F894604464FF488750F
:1041A0009A469046002600682946FFF7A2FE4FF483
:1041B000A27739462068FFF79CFE2068C0F8349546
:1041C000C0F838852068BAF1000F13D0D0F800127B
:1041D00041F02001C0F800122179DFF8DC8008EB03
:1041E0004110406848B120684FF40471C0F80413CE
:1041F000304694E701210160EEE7AA46B9464FF444
:10420000927B51462068FFF77AFE074649462068B0
:10421000FFF775FE054659462068FFF770FE014618
:1042200047EA05000843ECD02379002208EB43104D
:10423000C27501B10326002DDAD00F26D8E71FB5CD
:1042400001238DF800308DF808100192D0E900129A
:10425000684690471FBD1FB500228DF800208DF8DD
:104260000810816801918275D0E900126846904774
:104270001FBD2DE9FF410C464FF4927705463946A4
:10428000FFF73DFE002608B339462846FFF731FE0A
:1042900002208DF80000D5F88004C5F88004039052
:1042A000D5F83C058DF80800E0680190E6752676A3
:1042B000D4E90012684607E0E8270020002000400B
:1042C0001003020080000200904724E04FF488773A
:1042D00039462846FFF713FEE8B139462846FFF76E
:1042E00008FED5F83C05C1B2E07D884213D1207E9E
:1042F00060B1E268D5F8000220F02000C5F80002A5
:10430000207EE0752069E060267601E0E675E268CF
:104310002046FFF794FF4FF4A27739462846FFF76F
:10432000EEFD68B139462846FFF7E3FDE07D38B180
:10433000E675D5F83C05E268C1B22046FFF77FFF7D
:104340004FF4907631462846FFF7D9FD00280ED06D
:1043500031462846FFF7CDFDA07D002807D0D5F8CF
:104360004C0504B0C1B22046BDE8F04173E7BDE89A
:10437000FF811CB5002100910B46012201911146DD
:1043800000F028F81CBD1CB500220B460092114617
:10439000019200F01FF81CBD1CB5002100910B46D6
:1043A0000122019100F016F81CBD01B5684600F02D
:1043B00006F8009A01219140C0F8081508BD01686F
:1043C000202902D24FF0A040704701F01F01016088
:1043D0000C4870472DE9FF411C46DDE90A78154677
:1043E0000E466846FFF7EBFF46EA450141EA8401C5
:1043F00041EA072242EA0841009A00EB8200C0F835
:104400000017B4E700030050F0B54FF0FF3512B1CC
:104410000023082601E008230926FE4C05E000BF22
:1044200054F823707F1C04D05B1CB342F8D3284699
:10443000F0BD26185DB286F8245044F82310002AF7
:10444000F5D1E11881F84C00F1E770B5F14D95F820
:10445000550040B10824204601F096F90346EE4A83
:10446000EEA1022028E00020411E2A18401CC0B204
:1044700082F824103028F8D30024204600F00AFCEB
:10448000641CE4B2092CF8D307210620FFF792FA46
:104490004FF4BE7000F05DFBEC494FF00040C1F8F6
:1044A0000403012085F855000024204601F06CF932
:1044B0000346D94AE6A1032001F05FFB204670BD08
:1044C000D44890F85500002800D00120704710B55E
:1044D000044600F0D0FB28B12046BDE81040002182
:1044E00000F06CBB204600F0BCFB00280FD020463B
:1044F00000F0CBFBD54A02EB8001D1F8103523F058
:104500000103C1F8103501218140C2F8081310BD24
:1045100010B50446FFF7DBFF204600F0A2FB40B1D8
:10452000204600F0B2FBC94A002102EB8000C0F82F
:104530001015204600F039FB204600F0A6FBC0B263
:1045400000F0A8FBB349FF20214481F8240010BDEE
:1045500010B5044600F085FB70B1204600F095FBD5
:10456000C0B200F097FB204600F08FFBB74A002155
:1045700002EB8000C0F81015A649FF20214481F805
:1045800024002046BDE8104000F00FBB70B50024A9
:10459000A04D2646281990F92400811C10D0C01780
:1045A000401C02D02046FFF7B3FF641C302CF1D32F
:1045B00085F85560BDE87040B0A1032001F0D2BA83
:1045C0002046FFF7C5FFF0E72DE9FC41044691487E
:1045D0000D462044002690F92410491C01D00826DD
:1045E0003EE0A978002751B3012200212046FFF7C1
:1045F0000BFF411C21D0830094482A781844697825
:10460000D0F81035DFF894C203EA0C03C0F8103577
:10461000D0F810354FF47C5C0CEA042C43EA0C0310
:104620004FF4403C0CEA02424FF4801C0CEA01516A
:104630000A431343C0F8103504E0042610E0FE21BD
:1046400080F8241068780128204616D000F0D8FAA7
:1046500001222046009700231146019700F08CFAB2
:10466000304601F091F86C4A0346143278A10320D9
:1046700001F083FA3046BDE8FC8100F0B7FAE7E7C5
:1046800000F0B4BA00F0BCBA08B50090684600F07B
:1046900068FAD0F80425009B0121994021EA020321
:1046A000C0F808351140C0F80C1508BD5949084438
:1046B00090F92400810065480844D0F8101541F0B5
:1046C0000301C0F8101570475249084490F92400BE
:1046D00081005E480844D0F8101521F00301C0F8AD
:1046E0001015704710B500F0D0FA5849800601EB5C
:1046F000106010BD10B500F0C8FA302101EB800049
:104700005249C0B2084410BD10B500F0BEFA602195
:1047100001EB80004D49C0B2084410BD01B1012138
:104720003C4A104490F92400820048481044D0F8D4
:10473000102561F31452C0F81025704710B500F031
:10474000A4FA424A800602EB10600121016010BD0C
:1047500010B500F09AFA302101EB80003B4AC0B25C
:104760000121815010BD10B500F08FFA602101EBDE
:104770008000364AC0B20121815010BD2DE9FC41B4
:10478000DFF89080044608EB0400002790F924002D
:104790001346C0170E46401C01D008278FE0F27860
:1047A00019462046FFF730FE0546401C31D0B07850
:1047B00068B16846009400F0D4F9009900EB8101DB
:1047C000D1F8000720F00200C1F8000707E000213F
:1047D0007378204600910A46019100F0CDF9F078F7
:1047E000B0B11A48317800EB8500D0F810252C4B79
:1047F0001A40C0F810254FF47C524FF4403302EABF
:10480000042203EA01410A43D0F810150A4349E0A3
:104810004BE053E008280020DC3E03004750494F9E
:1048200054453A5741524E494E473A46756E637465
:10483000696F6E3A2025732C206572726F72206347
:104840006F64653A2025732E0D0A00000060004059
:104850004750494F54453A494E464F3A46756E6364
:1048600074696F6E3A2025732C206572726F722006
:10487000636F64653A2025732E0D0A004750494F37
:1048800054453A494E464F3A556E696E69746961AE
:104890006C697A65642E0D0A00000000FFC0ECFF11
:1048A000FFC0FCFFC0F8102509E008EB05003278D6
:1048B00010F84C1F41EA8211017000E004273846CD
:1048C00000F062FFF94A0346AFF27C01032001F0D9
:1048D00054F93846CFE62DE9F0410E46804600F007
:1048E000CAF9F34D0028404616D000F0CEF928440E
:1048F00090F84C008009032802D001280AD003E078
:10490000404600F087F928B103214046BDE8F04158
:1049100000F054B90221F8E700F0A3F9002820D0F4
:10492000404600F0B2F90446E24F4FF4807007EBC6
:10493000840100EB8400D1F8102580B242F001021E
:10494000C1F8102500F005F9002E0AD0404600F00D
:104950009CF955F82000002803D00120A040C7F89A
:104960000403BDE8F08110B500F054F9002800D030
:10497000012010BD70B505464FF4BE7400F071F90A
:1049800038B1284600F081F94FF4807101EB8000C6
:1049900084B2C848204470BD2DE9F04F00258DB089
:1049A000DFF81083A94605954FF4807601242F4641
:1049B0000695304600F0C7F838B1D8F80403204215
:1049C00003D0304600F0C5F82543361D64007F1C37
:1049D000B6B2082FEDD34FF4BE74204600F0B3F802
:1049E00048B1204600F0B5F845F0004505AA02217F
:1049F000002000F01AF9AE4E15F0FF0F15D0012778
:104A000000242F420DD008EB8401D1F81005D1F815
:104A10001015C0F3052056F82420C1F3014102B15E
:104A200090477F00641C082CEBD3002D4DDA00204A
:104A3000CDF82490411E4FF0010A0DF1140B07AD83
:104A4000CDF8289045F82010401C0228FAD300BF6A
:104A500096F854704FF0000878B227F0C004401C5C
:104A600033D007A9204600F0F4F800282DD04FEAF3
:104A70009719204600F009F956F820701FB1B9F1D6
:104A8000030F03D00CE0B9F1030F1ED109A8E10810
:104A900004F00702435C0AFA02FC43EA0C034354A5
:104AA00002A8029400F05DF8029900EB8100D0F8B2
:104AB000000705A9C0F301400290204600F0C9F8A4
:104AC0000028029804D0022804D00DB0BDE8F08F71
:104AD0000328FAD1B9F1030F08D1029802282CD08B
:104AE0000221204600F06AF84FF0010817B149464C
:104AF0002046B847B8F1000FE7D001AA02210020F4
:104B000000F093F800205A460DF1040152F82040BD
:104B100051F82030A34212D0002009AB51F82040B8
:104B200042F8204053F8204045F82040401C02281D
:104B3000F4D3B8F1000F8BD1C7E70321D1E7401CB4
:104B40000228E3D3C1E75B494058012800D0002088
:104B50007047584908B5084400210160006800907A
:104B600008BD0168202902D24FF0A040704701F033
:104B70001F010160504870472DE9FF411C46DDE9E7
:104B80000A7815460E466846FFF7EBFF46EA4501F0
:104B900041EA840141EA072242EA0841009A00EB17
:104BA0008200C0F80017BDE8FF811CB5002100910C
:104BB0000B4601220191FFF7DFFF1CBD13B50C4628
:104BC0006846FFF7CEFF009900EB8101D1F800277E
:104BD00022F44032C1F80027009900EB8100D0F8A0
:104BE000001741EA0441C0F800171CBD01B5684632
:104BF000FFF7B7FF009A01219140C0F8081508BDE2
:104C000001B56846FFF7ADFF009A01219140C0F859
:104C10000C1508BD01B56846FFF7A3FFD0F81005D5
:104C20000099C84000F0010008BD1CB51F4C0144AC
:104C3000343CD4E90034CDE900346C4606E000BFD2
:104C400054F82030D3F81035401C08C28142F7D800
:104C50001CBDC20800F007030120895C9840084091
:104C600070471349084490F92400082801D2012014
:104C70007047002070470E49084490F92400082826
:104C800001DB01207047002070470949084490F972
:104C90002400704706494FF0FF32082841F82020D1
:104CA00002D3084480F84C2070470000083F0300FE
:104CB00008280020006000400003005000283ED07B
:104CC000FA49FB4A096800BF00BF00BF00BF00BF30
:104CD00000BF00BF00BF91422FD000BF00BF00BF88
:104CE00000BF00BF00BF00BF00BF00BF00BF00BFCC
:104CF00000BF00BF00BF00BF00BF00BF00BF00BFBC
:104D000000BF00BF00BF00BF00BF00BF00BF00BFAB
:104D100000BF00BF00BF00BF00BF00BF00BF00BF9B
:104D200000BF00BF00BF00BF00BF00BF00BF00BF8B
:104D300000BF00BF00BF00BF00BF401EC3D170470F
:104D400070B5012670044FF0E0210025C1F8800104
:104D5000D84C4010C4F84803C4F8080366602F20FC
:104D6000FFF7ACFFA660D44C2F20A560FFF7A6FF8D
:104D7000A57070BD2DE9F047CF4E002780463D4617
:104D8000DFF83893D6F804A057E003D00446D0F8F3
:104D90001C8035E099F8002002EB4201521CD2B28F
:104DA00089F8002009EBC10199F80230091D9A42E7
:104DB00001D189F8005048680A780446012A12D0C7
:104DC000022A02D0032A3BD108E000F07DF900B1AD
:104DD0000127257434E00574C06900E0706800287C
:104DE000F9D170602CE0207C50BB88686060C86896
:104DF000A0600869E0604869A061F07800B1656072
:104E00006268B168AE4B501A20F07F40984202D2DF
:104E1000A168084406E0881AA16820F07F4081421A
:104E200002D9081A206000E0256065600120A560B5
:104E300020742046E56100F01CF9B8F10000A4D10F
:104E400099F8001099F801008142A3D117B971684F
:104E5000514502D00120BDE8F0870020FBE79749CB
:104E60004A788B78521CD2B2934200D100220B7840
:104E7000934201D1002070470270487800EB400057
:104E800001EBC000001D7047F8B5064600240D4632
:104E9000204600F036FC6846FFF7E1FF68B1057078
:104EA000864946609DF800004870002000F02AFC0A
:104EB000142000F0B8F82046F8BD0424002000F0CB
:104EC00021FCF8E77B480021C0F84011C0F84411EC
:104ED000C0F84811C0F84C11C0F80011C0F8041116
:104EE00000F01EB900F04FB970B5FFF729FF734805
:104EF00000240B21047044706F4D817014206C608D
:104F00002C706C7000F09AF80721142000F0A1F8C2
:104F1000142000F07DF86B4804600721112000F098
:104F200098F86848001F0068A860002070BD634BB7
:104F30009B7823B12AB120B10068037C1BB1082003
:104F400070470720704741744261002070472DE987
:104F5000F843DFF8689199F8023063B358B3052934
:104F600002D20720BDE8F883436923B3437C012BB9
:104F700023D000270446002588461646284600F020
:104F8000C0FB6846FFF76BFFC8B1012101704D49B6
:104F90004460091F0968C0E90218C0E904769DF859
:104FA000000089F80100002000F0ACFB142000F0A4
:104FB0003AF82846D6E70820D4E70F46DAE7042572
:104FC000002000F09FFBF4E73C49897831B128B11B
:104FD000416919B100210174022155E70820704789
:104FE0003648807810B1032100204DE70820704733
:104FF0003448001F00687047401A20F07F40704717
:105000002C490120486070472A49012008607047F8
:1050100000F01F02012191404009800000F1E020D2
:10502000C0F80011704700F01F02012191404009B3
:10503000800000F1E020C0F80012704700F01F026D
:10504000012191404009800000F1E020C0F8801269
:1050500070474907090E002806DA00F00F0000F13A
:10506000E02080F8141D704700F1E02080F8001463
:105070007047114B10B5596831B102680C68A242F3
:1050800004D8A21A0A60C161586010BD0B4603E043
:105090000B46C969121B21B10C689442F8D3A41ABB
:1050A0000C600260C161D86110BD00003822002090
:1050B0000024F40000100140B021002060280020EE
:1050C000FFFF7F00081501402DE9F041824E77680F
:1050D0003D462C4603E0844204D02546E469002C7A
:1050E000F9D11BE0D4B1A5420BD1F869706040B989
:1050F0007A49012088600021B160F0702F20FFF70D
:10510000DDFD2168E069E86110B1026811440160C9
:105110007068874202D00120BDE8F0810020FBE7E3
:105120002DE9F0416C4D6C68002CF5D06C480027DF
:105130000068A968B846401A20F07F462068B0424F
:105140000CD82146361A0744E469087C20B181F85E
:105150001080886949698847002CEFD129786878E0
:10516000814206D1401CC0B26870022801D185F886
:105170000180594869780C3040F82170BDE8F04151
:10518000142050E7C8E72DE9F84F534C0025684636
:10519000D4E901A600F034F8002738B30023009AC0
:1051A00061681CE0D1F800C00846944503D9ACEB17
:1051B00002020A6015E0A2EB0C0263440760D0F81B
:1051C0000CC0C1698146BCF1000F08D006EB030892
:1051D00028F07F48C0E9018CC9F81C500546002919
:1051E000E0D128466160FFF7C5FD03E02846FFF7E0
:1051F000C1FD10B1504600F020F8E770BDE8F88F0F
:10520000354910B50A784C780023A24212D0521CBE
:10521000D2B20A70022A00D10B702F4A0B780C32DE
:1052200052F8232002608868104420F07F40886094
:10523000012039E70360002036E72DE9F05F2648BA
:105240004168E1B3DFF898B00E688146DBF80040B2
:1052500087688078E11B21F07F45ED1CB0B9DFF84D
:105260007C804FF48030C8F84403C8F80403112050
:10527000FFF7E4FE1120FFF7CBFE4FF0010AC8F85C
:1052800000A02F20FFF71AFD89F802A0B54200D236
:105290003546134BE8193C3320F07F401860DBF8AB
:1052A00000105A46091B21F07F41001B20F07F406F
:1052B000C91C81420DD9106818602F2000E005E05C
:1052C000FFF7FCFCBDE8F05F1120ACE6BDE8F05F45
:1052D00036E5BDE8F09F0000B0210020001001403D
:1052E000041501400EB5ADF80010CDE901206A4665
:1052F000002144F2010000F03DF80EBD0EB5002182
:105300000091CDE901106A4644F2010000F032F844
:105310000EBD08B501238DF800309DF80030144B08
:10532000186059609A606FF48041401807D00128D6
:105330000FD1DA60D86800889861D86807E01A61F0
:105340001869806858611869008898611869406810
:10535000D861186858689868D86818695869986951
:10536000D86972B69DF800000028FBD162B608BD6E
:105370006C2900200AA1012000F0F4FB0CA10320FD
:1053800000F0F0FBBFF34F8F10480168104A01F4A2
:10539000E06111430160BFF34F8F00BFFDE70000E4
:1053A0003A4552524F523A466174616C0D0A000000
:1053B0003A494E464F3A486974207765616B2068D8
:1053C000616E646C65720D0A000000000CED00E077
:1053D0000400FA0529B112B1531E134203D009206B
:1053E00070470E2070470160838000218160C1609A
:1053F0000846704710B58268C3689A1A83889A4233
:1054000003D800F072F8002010BD042010BD10B5C4
:105410008268C368934203D000F070F8002010BD8A
:10542000052010BD10B58368C468E31A8B4208D903
:1054300083681944838800681940405C107000201C
:1054400010BD052010BDC1688160002070472DE9A6
:10545000F0411646884607000ED06EB1B868F9686C
:105460003468081A0025844200D30446306030B105
:105470005FEA080001D00BE00E20BDE8F0810520B6
:10548000FBE700BF08EB050138466D1C00F036F85D
:10549000A542F7D300203460EFE72DE9F04116462E
:1054A0008846070011D086B1B868F9683468081AD0
:1054B000B9880025081A401C844200D30446306095
:1054C00028B15FEA0800D8D00AE00E20D5E7042012
:1054D000D3E700BF18F8051038466D1C00F005F83A
:1054E000A542F7D300203460C7E7C26883881A401A
:1054F00003689954C168491CC160704782688388F9
:105500001A4003689A5C0A708168491C8160704780
:105510007CB50178704D81B301290BD002292BD1C4
:105520008DF80010C068691C01900122C81DFEF7AB
:1055300058FB2EE0406801786848FFF75BFF674C36
:10554000012618B18DF80060019006E0A068E168BE
:10555000814205D000208DF80000696868468847C0
:10556000A068E168081AA188884207D85A49012230
:10557000491CC81DFEF735FB7CBD01E0AE70FBE7A2
:10558000564855491030FFF742FF30B103208DF8DF
:105590000000696868468847EEE74F49012201F13B
:1055A0000800FEF782FAE7E7F0B54B4E89B01F46D8
:1055B0000D00044672603BD0A888296882B2474833
:1055C000FFF708FF002834D1A889A96882B24348B0
:1055D0001030FFF7FFFE00282BD1202240496846FB
:1055E0000BF0A4FD60690690207C00B101208DF8CD
:1055F00014008DF81C70607C00B10E208DF8150031
:10560000E0680290A06803902068019060680090B4
:105610003148344A69460830FEF7E8F9002808D1D5
:10562000B0702068401C04D09DF81D0018B106E041
:10563000072009B0F0BD28480830FEF736FB2649A0
:105640000122491CC81DFEF7CCFAF2E710B5234829
:10565000FFF7F9FE002805D12048BDE810401030C2
:10566000FFF7F1BE10BD70B51B4E01461B48B57863
:10567000FFF7CDFE04464DB10020B070711C012231
:10568000C81DFEF7AEFA08B1FFF738FE204670BD20
:105690000146124810B51030FFF7ACFE040011D1DE
:1056A0000D480830FEF7F8F960B90C480A49103087
:1056B000FFF7ADFE30B90849012201F10800FEF7FD
:1056C000F4F90446204610BD034810B50830FEF733
:1056D000BEF9002010BD0000C42100208C2900204C
:1056E000203F03001155020072B619480168491C99
:1056F0000160704716490868401E086000D162B614
:105700007047F1E7F6E7EFF30580C005C00D01D063
:1057100001207047EFF3148040F30000401C7047F5
:10572000EFF30580C005C00D10D0103840B200283E
:1057300006DA00F00F0000F1E02090F8140D03E00D
:1057400000F1E02090F80004400970470F207047F6
:10575000D4210020104A10B502F1F0030EE0991A8E
:10576000C91001EBD171491002EBC1010C688442F0
:1057700001D90B4602E005D201F108029A42EED3AC
:10578000002010BD486810BD00B5FFF7E3FF0028FA
:1057900001D10148143800BD543F030008B56846E4
:1057A000FFF761FF0528FAD09DF8000008BD10B58D
:1057B0000446C0B2FFF76CFF204610BD00780128F8
:1057C00001D1D3498870704730B5D14C054689B0B6
:1057D000207828B16078854202D1002009B030BD20
:1057E0002022CC4968460BF0A1FC00208DF8140063
:1057F00006200090082001900520039007200290C9
:105800004FF0EB700690C248001DFEF720F90DB175
:10581000002200E0C04ABE486946001DFEF7E6F8D7
:105820000028DBD1012020706570D6E710B5144642
:1058300002004FF001000CD008461368B7A24FF4E5
:1058400080710CF08BF801462046BDE8104000F056
:1058500056B90021216010BD2DE9F043C7B00025E5
:105860001C46904689464E9F459500F032F9002827
:105870007AD1459805AE311845AA4846FFF7D6FFBC
:10588000002835D0072F27D2DFE807F004121B3598
:10589000424F5D0040460BF07BFC054645982918B9
:1058A000FF2919D830442A4641460BF03FFC13E04B
:1058B00045982368C0F58071304442460CF04EF89C
:1058C00009E06068009045982368C0F58071304415
:1058D00042460CF043F80546294645A800F00FF96A
:1058E000459978B3B1F5807F3ED805A800F0F5F86A
:1058F00047B0BDE8F083D4E90101CDE90001459846
:105900002368C0F58071304442460CF027F8E2E786
:10591000201D07C88DE8070045982368C0F58071F1
:10592000304442460CF01AF8D5E7201D0FC88DE828
:105930000F0045982368C0F58071304442460CF052
:105940000DF8C8E710E004F1080001AD0FC885E8C4
:105950000F006068009045982368C0F5807130445E
:1059600042460BF0FBFFB6E70020C1E72DE9F04F00
:10597000C1B00D004FF0000140914D984B991C466D
:10598000174601EB000B01D00A2000E00020804602
:1059900000F09FF800287CD16E46BCB9409840AA20
:1059A00031182846FFF742FF002872D038460BF026
:1059B000EFFBC22800D9C220054640982A46304451
:1059C00039460BF0B3FB4098284440904FF0200A32
:1059D000409901EB080231320DEB01050DEB020697
:1059E000002002E005F801AB401C4045FAD3002737
:1059F0005C4508D305F801AB05F801AB05F801AB30
:105A000006F801AB2DE04B98844202D24A98005D23
:105A100002E0211A4C98405C2B4681460246012147
:105A2000880022FA00F000F00F00092801D9373071
:105A300000E03030C1F1010C491E03F80C00EFD238
:105A40009D1C05F801AB0BF06DFB016811F8090016
:105A500010F03E0F01D0484600E02E2006F8010B62
:105A6000641C7F1C102FC3D30D2030700A2070706F
:105A700085F800A04099684641444331409100F0C8
:105A80002CF830B100F025F818B9002040905C45A2
:105A90009ED341B02046BDE8F08F2248704722488F
:105AA000704738B51A4C607828B101226946201D2C
:105AB000FEF797F80AE00020A07015480122694619
:105AC000001DFEF78EF8A0780028FCD09DF800009D
:105AD00038BD0F48001DFDF7DFBF70B50D460A4603
:105AE0000146012411480BF021FB0948EAB20F4995
:105AF000001DFDF7DAFF00B10024204670BD00292B
:105B000001DA0020704702681144016001207047EB
:105B1000DC21002044400300BD5702005B253038E3
:105B2000645D0000595802006D590200AC29002044
:105B30008C4AC2E905017047FAE770B50120FFF70A
:105B400043FE040008D1FFF7A8FF0546FFF7A7FFB3
:105B500001462846FFF7ECFF204670BD0120FFF705
:105B600033BE704700231A4600F0F2B808B501238F
:105B700000926A4600F0ECF808BD1CB5CDE90023A0
:105B800002236A4600F0E4F81CBD3EB5069C8DE891
:105B90001C0003236A4600F0DBF83EBD7FB5DDE95B
:105BA00008458DE83C0004236A4600F0D1F87FBD2B
:105BB00070B586B00DF1280C9CE870008DE87C0073
:105BC00005236A4600F0C4F806B070BDF0B587B092
:105BD0000DF1300C9CE8F0008DE8FC0006236A46CD
:105BE00000F0B6F807B0F0BD2DE9FF471C460023D2
:105BF0005C4F1646884681461D460096CDE9014514
:105C00000395D7F818C0424600214846E0470346AE
:105C1000A042F2D3BDE8FF87524803C8814201D1B8
:105C200001207047002070472DE9F04F87B0FFF743
:105C3000F3FF18B1002007B0BDE8F08F494ED6E958
:105C4000014704EA070006EB8000A146641CC56812
:105C50000CE000BFC5F3891000EB9550044404EA42
:105C6000070006EB8000A146C568641CA807F1D0B8
:105C700005F003004FF0000B022805D0AA0A01A886
:105C8000C5F38313002151E004EA070006EB80000E
:105C900004F1010A0AEA0704C268381B80004FEACF
:105CA0009558001DC5F38913804520D92D490C3125
:105CB00038B106EB840400F0FF0CA8EB00000C34B4
:105CC00004E00C46002108F0FF0C0846C0B2CDE904
:105CD0000210CDE9004CB469C5F3C2005946A04793
:105CE000404510D108F103080AEB980428E0002190
:105CF00006EB84000C300090CDE901810391C5F3DF
:105D0000C200B469EBE760F38F1509EA070006EB00
:105D10008000C56015E000BF04EA070C06EB8C0CA0
:105D2000491CDCF80CC040F804CB641C9942F3D346
:105D3000C5F3C2000093756901AB5946A84700B18D
:105D40007460FFF769FF80F0010074E7FFF7A9BEF8
:105D500038B50D460093034B00215C6913462A4673
:105D6000A04738BDAC2A002010B501464822FE48A5
:105D70000BF0DCF9FC49F43901F5A070D1F83021C1
:105D80004263D1F834218267D1F83811C0F8BC10D1
:105D9000032902D1012002F02EF8002010BD10B519
:105DA0004822F1490BF0C2F9002010BDEE49002055
:105DB0004C31C1F89001704710B500209FEDEB0AFF
:105DC000E94C4C3404EB8001401C81ED5B0A09284E
:105DD000F8DB2421E6480BF0D0F90020B7EE000AEA
:105DE0004FF0804204EB0011401C81ED5B0AC1F8CA
:105DF00048210328F6DB0020C4F8900110BDDA48E2
:105E000010B54FF4A071F4380BF0B7F9D6484FF441
:105E1000CC714C300BF0B1F9FFF7CEFFBDE810406C
:105E20004DF293034822D349D34802F0EFB8CE484D
:105E30004C30406A7047CC484C30806E7047CA483E
:105E40004C30D0F8AC007047426201607047C64ADF
:105E50004C325162106070474FF47A7290FBF2F24C
:105E6000C1494C31C1E90A020A6C002A03D1C34A74
:105E700092FBF0F0086470474FF47A7290FBF2F2F4
:105E8000B9494C31C1E91B02D1F88420002A04D160
:105E9000BA4A92FBF0F0C1F8840070474FF47A726E
:105EA00090FBF2F2B0494C31C1E92C02D1F8C82084
:105EB000002A04D1B14A92FBF0F0C1F8C800704743
:105EC000A9494C31C96A01607047A7494C31096F33
:105ED00001607047A4494C31D1F8B410016070479B
:105EE000A1494FF47A724C31C1F8280190FBF2F0CD
:105EF000C1F82C0170479C494C31086470479A499D
:105F00004C31C1F88400704797494C31C1F8C80042
:105F1000704795484C30B0F8B800C0F30020704787
:105F200091484C30008EC0F3002070478E484C30B2
:105F3000B0F87400C0F3002070478B4900204C314A
:105F4000B1F87420D20500D5C86F0A8ED20503D5EA
:105F50008A6B824200D91046B1F8B820D20504D528
:105F6000D1F8C020824200D91046B1F8FC20D205F9
:105F700004D5D1F80411814200D9084670477A4A05
:105F80004C32916650647047774A4C32C2F8AC107C
:105F9000C2F8880070472DE9F0410C4605461646C8
:105FA0000968006800F01DFF07466168686800F036
:105FB00018FF0744A168A86800F013FF3844306058
:105FC0002168E86800F00DFF07466168286900F065
:105FD00008FF0744A168686900F003FF3844706057
:105FE0002168A86900F0FDFE07466168E86900F0D5
:105FF000F8FE0744A168286A00F0F3FE3844B06058
:10600000BDE8F0813EB50446B0F904000D46C0037A
:106010000090B4F9060004F10C03C0030190B4F938
:1060200008006A46C0030290606A4100208880B27E
:1060300001F05CFC0098296804F11803A0EB6100F2
:106040000090019869686A46A0EB6100019002988F
:10605000A968A0EB61000290606A4100208880B2CC
:1060600001F044FC206B40F0200020633EBD00287E
:1060700003D03D4B0ECB80E80E00704770B50C4648
:106080000546014638480C2206460BF088F840B118
:10609000354895E80E0080E80E003146D430FFF711
:1060A000B1FF314800224C300821C0F8BC40A0F5B7
:1060B000A070C0F83841BDE87040084600F058BEF6
:1060C0002949F439C1F83C0170472748F438D0F821
:1060D0003C01704770B50D46040011D001462248BE
:1060E0000C22203006460BF05AF848B11E4894E8BE
:1060F0000E00203080E80E0031467030FFF782FF3E
:10610000194800224C3010218567A0F5A070C0F816
:106110003451BDE87040084600F02ABE1249002202
:106120004C318867A1F5A071C1F8340110210846EF
:1061300000F01EBE70B50C4C0D46F43C98B1D10772
:1061400002D00168C4F81411910702D54168C4F85F
:106150001811510702D58068C4F81C01024920318A
:1061600001F170000CE00DE0BC2B002000000000ED
:10617000502D00209F5D0200695D020040420F002B
:10618000FFF740FFF948002210218567C4F8345119
:10619000BDE87040084600F0EBBD70B50D46040048
:1061A00011D00146F1480C22403806460AF0F7FFAC
:1061B00048B1EE4894E80E00403880E80E003146C1
:1061C0004030FFF71FFFE948A0F5A0744563C4F80D
:1061D0003051D0F8E40050B10421C4F80C01002281
:1061E000084600F0C5FD0120C4F8100170BD4FF451
:1061F000D810F1E7DE49D1F81001012800D00020C5
:106200000022C1F81021704710B520B1D74C403C96
:106210001CCC80E81C00002903D0D548D0F80C0124
:10622000086010BD10B520B1D04C2C3C1CCC80E8CF
:106230001C00002903D0CE48D0F82001086010BD12
:1062400070B5CA4C15460268636F8E0611D4A4F867
:1062500048208188A4F84A100089A4F84C0043F033
:106260008000A4F12C01606701F17000FFF7CAFE05
:106270000DE0E265426822668068606643F02000B7
:10628000606701F00300BA49A067C1F83401606F8C
:1062900040F4A0706067E06FC4E91F50002070BD3B
:1062A000B24A10B5403A036853648088A2F84800A7
:1062B000AE48026B42F4E0720263826BC0E90E12D8
:1062C000A0F14001FFF79EFE002010BDA74A00216B
:1062D00002EB8103D3F83C3140F82130491C0329FB
:1062E000F6DB704730B4A149002200BF50F82230DD
:1062F00001EB8204521CC4F83031032AF6DBD1F8DA
:106300009021012A0BD0002201EB820450F82230A8
:10631000521CC4F83C31032AF6DB30BC7047954A66
:10632000014630BC02F10C0001F0A7BB3EB515469A
:106330008E4C8A0618D4FFF7D5FF6846FFF7C6FFD4
:10634000009824F88C0F0198608088490298A080FA
:106350004C3901F1D400FFF755FE54F82C0F40F0F2
:10636000800044F8B80915E00268C4F8A02042682B
:10637000C4F8A4208068C4F8A800D4F8B80040F09D
:106380002000C4F8B80001F003007949C4F8BC004B
:10639000C1F8380154F8C00F64E80250206840F496
:1063A000A070206000203EBD704A42F8E40F906962
:1063B00040F4E0709061106AC2E908100020704754
:1063C00070B56C4B71C82C3B01F4007183E871000F
:1063D0006648C0F82421D0F8202142F4E0720A4334
:1063E000C0F82021002070BD604900204867704738
:1063F0005E490020C1F8B80070475C490020C1F830
:106400002001704759490020086370475749002010
:10641000C1F8FC0070472DE9F047554B0546914601
:10642000002002461C680DE002EB420603EB8606E4
:106430007768AF4202D0B6688E4202D10520BDE82F
:10644000F087521C9442EFDC132C27DC00220CB99D
:1064500018E0521C944206DD02EB420603EB86066E
:10646000B6688E42F5DB94420AD10BE004EB440699
:1064700003EB8606083E641EB6E8801186E88011AC
:106480009442F3DC02EB420203EB8202C2F80C906E
:10649000C2E901511968491C1960D0E7364A37A191
:1064A0000620FDF71CF80620C9E730B53049002268
:1064B0000B6819E002EB420401EB84046468844237
:1064C00011D10868521C90420ADD02EB420001EB38
:1064D0008000001D90E838000C3880E83800F0E7B4
:1064E000401E086002E0521C9342E3DC002030BDF5
:1064F0001E48026B530602D542F010010163426F41
:10650000530602D542F010024267D0F8B820530675
:1065100003D542F01002C0F8B820D0F8FC20530692
:1065200003D542F01002C0F8FC20D0F820114A0632
:1065300003D541F01001C0F8201150F8301F21F0B0
:10654000400140F8741B50F8301C21F0400140F825
:10655000301C416921F040014161816D21F0400111
:106560008165C16F21F04001C1677047082C002090
:10657000C82A0020442D0020645803004D504C00D0
:106580002DE9F0418748002490F83010490600D5E5
:10659000022490F87410490601D544F0010490F8E3
:1065A000B810490601D544F0040490F8FC104906DF
:1065B00001D544F0080490F82001400601D544F0CC
:1065C000100400263546784F0EE000BF05EB45006D
:1065D00007EB8000C168214205D0416871488847B7
:1065E00008B106B906466D1C3868A842EEDCFFF714
:1065F0007FFF304604E530B520B16A4D5C3538CDBB
:1066000080E8380067480AB1C36F1360002902D0E0
:1066100090F87800087030BD30B5624D183538CD2F
:1066200080E838005F480AB1836B1360002902D00C
:1066300090F83400087030BD30B55A4D0C3538CD67
:1066400080E8380057480AB1836B1360002902D0F4
:1066500090F83400087030BD524B18330ECB80E8F0
:106660000E0082E730B54F4DA03538CD80E83800B8
:106670004C4812B1D0F8C0301360002908D04A4A03
:10668000D2F83C210AB1002001E090F8BC0008706B
:1066900030BD444B10B5D3F8E440046012B1D3F8D8
:1066A00004011060002902D0D3F80001086010BD79
:1066B0003C48406B59E73C48D0F83C0108B1002009
:1066C00053E73848D0F8BC004FE73648806F4CE7B6
:1066D000344909680160002047E73249496C01608C
:1066E000002042E72F4A002102EB8103D3F8483112
:1066F00040F82130491C0929F6DB36E710B5294B53
:10670000DFED2A0A002100BF03EB810450F82120AD
:10671000C4F8482150F82120491C00EE102A09290C
:10672000B8EEC00A20EE200A84ED5B0AECDB10BD57
:106730001C4A002102EB810393ED5B0A00EB81030D
:10674000491C83ED000A0929F4DB0EE710B5154C4E
:106750009FED170A002100BF00EB810204EB8103CB
:10676000D2ED000A491CC3ED5B0AD2ED000A0929EB
:1067700060EE800AFDEEE00AC3ED520AECDB10BDCC
:10678000084A002102EB8103D3F8303140F8213070
:10679000491C0329F6DBE8E602490120C1F8900113
:1067A000E3E60000082C0020C82A0020000080300A
:1067B0000000804E3EB504466846FFF71CFF9DED85
:1067C000000AF8EEC00A9FEDFE0A60EE800AC4EDF2
:1067D000000ADDED010AF8EEE00A60EE800AC4ED81
:1067E000010ADDED020AF8EEE00A20EE800A84EDEF
:1067F000020AF44890F82800400601D501203EBD69
:1068000000203EBD10B586B004466846FFF7F3FE93
:1068100003A801F037FA03990098A0EBA13000908B
:1068200004990198A0EBA130019005990298A0EB82
:10683000A13002909DED000AF8EEC00A9FEDE00A3B
:10684000012060EE800AC4ED000ADDED010AF8EED9
:10685000E00A60EE800AC4ED010ADDED020AF8EEFE
:10686000E00A20EE800A84ED020A06B010BD3EB5B3
:106870000446D44803790B7080681060684601F0C4
:1068800001FA0098801300EE100AF8EEC00A9FED9E
:10689000CC0A60EE800AC4ED000A0198801300EE75
:1068A000900AF8EEE00A60EE800AC4ED010A029850
:1068B000801300EE900A0120F8EEE00A20EE800A34
:1068C00084ED020A3EBD3EB504466846FFF7A4FECD
:1068D0009DED000AF8EEC00A9FEDBB0AB94860EED4
:1068E000800AC4ED000ADDED010AF8EEE00A60EE70
:1068F000800AC4ED010ADDED020AF8EEE00A20EE9E
:10690000800A84ED020A90F82400400601D5012097
:106910003EBD00203EBD3EB504466846FFF78CFEF6
:106920009DED000AF8EEC00A9FEDA70AA54860EEAB
:10693000800AC4ED000ADDED010AF8EEE00A60EE1F
:10694000800AC4ED010ADDED020AF8EEE00A20EE4D
:10695000800A84ED020A90F82400400601D5012047
:106960003EBD00203EBD70B5964C054620790870AE
:10697000A06810609FED950A606900281ADBD4EDCD
:10698000060AF8EEE00A60EE800AC5ED000AD4EDD2
:10699000070AF8EEE00A60EE800AC5ED010AD4EDC0
:1069A000080AF8EEE00A60EE800AC5ED020AD4EDAE
:1069B000050A21E0A069404200EE900AF8EEE00AE4
:1069C00060EE800AC5ED000AE069404200EE900AE0
:1069D000F8EEE00A60EE800AC5ED010A206A404246
:1069E00000EE900AF8EEE00A60EE800AC5ED020AB9
:1069F0006069404200EE900AF8EEE00A20EE800A5C
:106A000085ED030A01F076FA85ED040A206B70BD6E
:106A10006C4B10B51C6914601A780A705FF00001A5
:106A200003EB810292ED2E0A00EB8102491C82EDFC
:106A3000000A0329F4DB93F82C00400601D501205D
:106A400000E000200021D96210BD10B55D4C237913
:106A50000B70A168116000F0F2F8206B10BDF0B56A
:106A6000584A584D04462DED028B083285B0002758
:106A70004FF47A76291D02F10C0001F068F9206BC1
:106A80006862606FA862D4F8B800E862216BC8053C
:106A900000D5E66A606FC20504D5226FB24201DA02
:106AA00016460127D4F8B820D30505D5D4F8B4305C
:106AB000B34201DA1E460227D4F820C15FEACC5364
:106AC00007D5D4F82C31B34200DA032700EA0203D9
:106AD00002E001EA00031340DB0506D5EFB1012F08
:106AE00020D0022F24D0032F28D000202863354A3D
:106AF00003A910326846FFF7B5FD9DF90C002E463C
:106B000028609FED338A00256F4600BF94F8B800D7
:106B100000F05000402817D025E0C1F38010286312
:106B2000A06B03E0C0F380102863E06FA860DEE78D
:106B3000C2F380102863D4F8C000F7E7CCF38010CC
:106B40002863D4F82401F1E757F8250000EE100A75
:106B500005EB450000EBC50006EB8000B8EEC00A6F
:106B6000343000F01BFFD4F8B800C0F381110329C2
:106B700016D040060CD557F8250000EE100AB8EEE6
:106B8000C00A00BF20EE080A06EB850080ED2E0A41
:106B90006D1C032DBADB05B00020BDEC028BF0BDEF
:106BA00057F8250000EE100A05EB450000EBC50084
:106BB00006EB8000B8EEC00A343000F004FFE1E7D5
:106BC0000AE81C39A02D002035FA8E3400008030F0
:106BD00000008037AFF27910FFF767BC07224FF44F
:106BE0006171AFF28510FFF716BC70B5C4215C4827
:106BF0000AF0C3FA5A4D002404EB440000EBC40031
:106C000005EB80005749343000F0B5FE641C032CBE
:106C1000F2DB002070BD10B5FFF7E7FFAFF24300D5
:106C2000BDE8104001F0C4B910B5AFF2CD10FFF7C8
:106C30003CFCAFF25700BDE8104001F098B910B528
:106C400004462DED028B8AB09FED478A684600F01E
:106C500031F89DED030ADDED000AB1EE400A0BF0BC
:106C6000A1F920EE080A84ED000A9DED070ADDED8A
:106C7000080AB1EE400A0BF095F920EE080A84EDFF
:106C8000010A9DED060A0BF0F7F820EE080A84EDE4
:106C9000020A94ED000AB5EEC00AF1EE10FA05D230
:106CA000DFED320A30EE200A84ED000A0AB0BDECB6
:106CB000028B10BD10B504462DED028B8AB028481A
:106CC0001FED3E8A6946143000F0A3FB9DED000ADB
:106CD000B8EEC00A20EE080A84ED000A9DED010A14
:106CE000B8EEC00A20EE080A84ED010A9DED020A02
:106CF000B8EEC00A20EE080A84ED020A9DED030AF0
:106D0000B8EEC00A20EE080A84ED030A9DED040ADD
:106D1000B8EEC00A20EE080A84ED040A9DED050ACB
:106D2000B8EEC00A20EE080A84ED050A9DED060AB9
:106D3000B8EEC00A20EE080A84ED060A9DED070AA7
:106D4000B8EEC00A20EE080A84ED070A9DED080A95
:106D5000B8EEC00A20EE080A84ED080AA6E7000093
:106D6000A02D0020E8210020E12E65420000B44360
:106D7000002A04D1064B1A688A4302431A607047FE
:106D800003490A6808B100200860104670470000F7
:106D9000FC210020DFEDFE0A20EE200ADFEDFD0AD7
:106DA000FD4980EE201ABCEEC10A10EE100AC0B2F6
:106DB00001EB800090ED000A7047DFEDF50A20EE50
:106DC000200ADFEDF40AF44980EE201ABCEEC10A75
:106DD00010EE100A4030C0B201EB800090ED000AC6
:106DE000704780FB0101800F40EA8100704730B599
:106DF0000B46044609680068FFF7F3FF054659682B
:106E00006068FFF7EEFF2D1A9968A068FFF7E9FFA9
:106E10002D1AD968E068FFF7E4FF281A1060596856
:106E20002068FFF7DEFF054619686068FFF7D9FFA5
:106E30000544D968A068FFF7D4FF05449968E06865
:106E4000FFF7CFFF281A506099682068FFF7C9FF45
:106E50000546D9686068FFF7C4FF2D1A1968A06855
:106E6000FFF7BFFF05445968E068FFF7BAFF284401
:106E70009060D9682068FFF7B4FF0546996860689C
:106E8000FFF7AFFF05445968A068FFF7AAFF2D1A66
:106E90001968E068FFF7A5FF2844D06030BD02689C
:106EA0000A60426852424A60826852428A60C06800
:106EB0004042C860704730B591B004460020009051
:106EC0000B46154689686068FFF78BFF02465968D4
:106ED000A068FFF786FF101A01901968A068FFF7F5
:106EE00080FF024699682068FFF77BFF101A029026
:106EF00059682068FFF775FF024619686068FFF758
:106F000070FF101A039008AA69462846FFF76FFF22
:106F10000CA92846FFF7C3FF04AA0CA908A8FFF78D
:106F200066FF069808B9059898B19DED050AB8EE78
:106F3000C00A9FED9A1A60EE010A9DED060AB8EEAE
:106F4000C00A20EE010A0BF02DF8B1EE400A11B094
:106F500030BD9FED930AFAE7034600204FEA000197
:106F600053F82120491C521302FB02000329F7DBCE
:106F7000704780FB0101400F40EAC10070470A469C
:106F8000C117890710B541EA90018007D3170AF0AD
:106F900077F810BD80FB010110B50AF0B1F810BD03
:106FA00010B503680C682344136043684C6823449D
:106FB000536083688C6823449360C068C968084440
:106FC000D06010BD70B50E462DED068B04469FEDCA
:106FD000759B0025B0EE498AF0EE698A1DE000BF7E
:106FE00054F8250000F063FDB0EE40AAF0EE60AA70
:106FF00054F8250000F05BFDB0EE401AF0EE601A88
:1070000053EC1A2B51EC110B0AF07DF953EC182BB1
:107010000AF0D2F841EC180B6D1CB542E0DB53ECE2
:10702000192B51EC180B0AF0E1FA23D2B0EE480A02
:10703000F0EE680A0BF0A2FC53EC102B9FED5B0BFB
:1070400051EC100B0AF0D1F941EC180B00250CE0C3
:1070500054F825000AF04EFA53EC182B0AF053F9B5
:107060000AF07AFA44F825006D1CB542F0DBBDEC5D
:10707000068B70BD4FF0804020600120002102E0AF
:1070800044F82010401CB042FADBF0E7042199E7F5
:1070900010B52DED068B9FED459B9FED46AB00682F
:1070A0000AF028FA9FED451B53EC112B0AF02BF93F
:1070B00041EC180B53EC192B0AF098FA04D2B0EEFD
:1070C000498AF0EE698A0AE053EC1A2B51EC180B4E
:1070D0000AF074FA03D2B0EE4A8AF0EE6A8AB0EE91
:1070E000480AF0EE680A0AF08FFC9FED361B51EC5F
:1070F000100B53EC112B0AF006F99FED341B53ECE7
:10710000112B0AF000F99FED331B53EC112B0AF001
:107110006CF9BDEC068B41EC100B10BD30B590B096
:10712000054600201446009007C901AB83E807001C
:1071300008AA69462846FFF75AFE0CA92846FFF719
:10714000AEFE04AA0CA908A8FFF751FE05AB93E810
:10715000070084E8070010B030BD90ED000AD1EDC3
:10716000000A91ED011A20EE200AD0ED010A00EE8E
:10717000C10AD0ED020A91ED021A00EEC10AD0ED6B
:10718000030A91ED031A00EEC10A82ED000A25E020
:1071900000000043D00F49406440030000008030ED
:1071A00000000000000000000000000000000000DF
:1071B0000000F03F000000000000F0BF00000000F1
:1071C0000000103E00000000000000400000000031
:1071D00000806640112D4454FB21094090ED000AC7
:1071E000D1ED010A91ED001A20EE200AD0ED010A3E
:1071F00000EE810AD0ED020A91ED031A00EE810A39
:10720000D0ED030A91ED021A00EEC10A82ED010AE7
:1072100090ED000AD1ED020A91ED031A20EE200A4A
:10722000D0ED010A00EEC10AD0ED020A91ED001A7C
:1072300000EE810AD0ED030A91ED011A00EE810AF9
:1072400082ED020A90ED000AD1ED030A91ED021AD7
:1072500020EE200AD0ED010A00EE810AD0ED020AEC
:1072600091ED011A00EEC10AD0ED030A91ED001A6A
:1072700000EE810A82ED030A704790ED000AD1ED1D
:10728000000A30EE200A82ED000A90ED010AD1EDED
:10729000010A30EE200A82ED010A90ED020AD1EDDA
:1072A000020A30EE200A82ED020A90ED030AD1EDC7
:1072B000030A30EE200A82ED030A70471FED480AE8
:1072C00090ED003A90ED012AD0ED021A63EE030A28
:1072D000D0ED032A42EE020A41EEA10A42EEA20AD2
:1072E00010EE901AB1F1804F32DAB6EE000A20EEBD
:1072F000801AB7EE080AF0EE403A21EE204A44EE3A
:10730000603A63EEA00AF0EE403A21EE204A44EEE5
:10731000603A63EEA00AF0EE403A21EE204A44EED5
:10732000603A63EEA00A21EE201A01EE600A20EE18
:10733000200A63EE000AC0ED000A62EE000AC0ED0A
:10734000010A61EE800A22EE800AC0ED020A07E01F
:10735000F7EE000AC0ED000A80ED010A80ED020A96
:1073600080ED030A704710B590ED000AD0ED010AD8
:10737000044620EE000A00EEA00AD0ED020A00EE5C
:10738000A00AD0ED030A00EEA00A0BF034FBB5EE24
:10739000C00AF1EE10FA18D0D4ED000A80EE801A7F
:1073A00084ED001AD4ED010A80EE801A84ED011AF2
:1073B000D4ED020A80EE801A84ED021AD4ED030A9D
:1073C00080EE801A84ED031A10BDB7EE000A84ED3A
:1073D000000A1FED8D0A84ED010A84ED020A84ED96
:1073E000030A10BD90ED000A81ED000A90ED010A3C
:1073F000B1EE400A81ED010A90ED020AB1EE400AB9
:1074000081ED020A90ED030AB1EE400A81ED030A14
:10741000704710B5024640680B460146FFF7A9FDCC
:10742000044610680146FFF7A4FD2044A0F1804007
:107430001860D2E90101FFF79CFD04461168D0688D
:10744000FFF797FD201A5860D1685068FFF791FD4B
:10745000044611689068FFF78CFD20449860D2E9DB
:107460000101FFF786FD04461168D068FFF781FD32
:107470002044D86090680146FFF77BFD0446106801
:107480000146FFF776FD2044A0F180401861D2E963
:107490000201FFF76EFD0446D2E90010FFF769FD17
:1074A000201A5861D1685068FFF763FD04461168DF
:1074B0009068FFF75EFD201A9861D2E90201FFF79C
:1074C00058FD0446D2E90010FFF753FD2044D8616F
:1074D000D0680146FFF74DFD044610680146FFF7EE
:1074E00048FD2044A0F18040186210BD10B54368EB
:1074F0000B6082684A60C4688C600068002805DA06
:1075000058420860504248606042886010BD020ED8
:107510000A70020C4A70020A8A70C87008467047E6
:107520000168C07809BA21F0FF010843704700885C
:1075300040BA00B27047B0F900007047020A0A7002
:107540004870084670472DE9F043002489462646D6
:10755000DDF81CC020E0002106EB46070D4609EBD4
:10756000C70713E09C4200D1641C614500D1491C4F
:1075700004EB440800EBC80808EB8108491C98EDAF
:10758000000A07EB85086D1C88ED000AD2F8008020
:107590008845E7DC641C761C1168A142DBDC481ED0
:1075A0001060BDE8F0832DE9F043002489462646AB
:1075B000DDF81CC020E0002106EB46070D4609EB74
:1075C000071713E09C4200D1641C614500D1491C9F
:1075D00004EB440800EB081808EBC108491C98EDBF
:1075E000000B07EBC5086D1C88ED000BD2F800807E
:1075F0008845E7DC641C761C1168A142DBDC481E70
:107600001060CEE72DE9F04788462DED028BA5B03E
:107610000E689FEDFE8A0546022E08D0002707EB74
:1076200047003C4605EBC0094FF0FF3A30E095EDCE
:10763000000AD5ED070A95ED061A20EE200AD5EDD1
:10764000010A00EEC10A25B0BDEC028BBDE8F0874F
:10765000C8F800603B46424601A928460094FFF75F
:1076600072FF414601A8FFF7CDFF09EB840090EDC2
:10767000001A3819C00701D0504600E0012000EE82
:10768000900A641CF8EEE00A61EE200A00EE808A9F
:10769000B442DDDBB0EE480AD5E72DE9F04188467B
:1076A0002DED048BCAB005469FEDD98B0E68022ED6
:1076B00002D000273C4656E095ED0C0B95ED021BE1
:1076C00053EC102B51EC110B09F01DFE95ED0E1B28
:1076D00095ED000B41EC180B53EC112B51EC100BFA
:1076E00009F011FE53EC182B09F007FE41EC100BCA
:1076F0004AB0BDEC048BBDE8F08100BFC8F8006063
:107700003B46424602A928460094FFF74CFF4146FB
:1077100002A8FFF7C2FF3819B0EE409AF0EE609A67
:10772000C00702D04FF0FF3000E0012009F0E2FE78
:1077300041EC100B07EB470005EB001000EBC40019
:1077400090ED001B51EC100B53EC112B09F0DBFDFD
:1077500053EC192B09F0D7FD53EC182B09F02CFD35
:1077600041EC180B641CB442C8DBB0EE480AF0EEE2
:10777000680ABDE710EE100AA749DFEDA80A8842A3
:1077800002DB30EE600A704710EE100AA44988420E
:10779000F9D330EE200A704700B5F0EE601AFFF71B
:1077A000E9FFB0EE401AB0EE610AFFF7E3FFF0EE3A
:1077B000400A994931EE600A10EE100ADFED970A8F
:1077C000884202DB30EE600A00BD10EE100A9449D8
:1077D0008842F9D930EE200A00BD10B5034641F2C7
:1077E0000550002204E09C5C00EB40102044521C39
:1077F0008A42F8DB10BD90F90010002902DD4FF03D
:107800000000704702DA4FF00400704790F9011051
:10781000002902DD4FF00100704702DA4FF0050049
:10782000704790F90200002802DD4FF00200704717
:1078300002DA4FF0060070474FF00700704770B54E
:107840000446FFF7D8FF0546E01CFFF7D4FF45EAE2
:10785000C005A01DFFF7CFFF45EA801080B270BDC4
:1078600030B500F00303450751F823404FF0FF33D4
:1078700001D51D4600E001256C431460C0F3C1042E
:10788000850651F8244001D51D4600E001256C43D2
:107890005460C0F38114C00551F8241000D40123B2
:1078A0005943916030BD30B50C6845074FF0FF3348
:1078B00001D51D4600E001256C4300F0030542F8A8
:1078C00025404C68850601D51D4600E001256C4326
:1078D000C0F3C10542F825408968C40500D40123DE
:1078E000C0F38110594342F8201030BD70B50446F2
:1078F00000F003000E4652F8200061074FF0FF35FC
:1079000001D5294600E0012148433146FFF769FAD5
:107910001860C4F3C100A10652F8200001D5294621
:1079200000E0012148433146FFF75BFA5860C4F399
:107930008110E10552F8200000D40125684331464A
:10794000FFF74FFA986070BD10B590ED000AD0EDCA
:10795000010A20EE000A00EEA00AD0ED020A00EEB5
:10796000A00A10EE100A09F016FEBDE8104041EC26
:10797000100B0BF003B89FED250A002280ED000AE2
:1079800080ED010A01EB820393ED000A00EB820314
:10799000521C83ED040A052AF4DB704780ED090AC6
:1079A00080ED0A0AD0ED060AB7EE001A70EE810AE1
:1079B00090ED071A30EE811AC0EE010AC0ED000A00
:1079C000C0ED010A704780ED090AD0ED060A90ED7E
:1079D000001A90ED072AD0ED011A00EEC10AF0EE70
:1079E000400A42EE610A90ED042AB0EE600A02EE0F
:1079F000010A90ED052A02EE210AD0ED081A20EEC8
:107A0000210A80ED0A0AC0EC020A7047000000005B
:107A10000000000000000000DB0F4940DB0FC94000
:107A2000DB0F49C091ED010AD2ED020A92ED011A75
:107A300020EE200AD1ED020A00EEC10A80ED000A14
:107A400091ED020AD2ED000A92ED021A20EE200A10
:107A5000D1ED000A00EEC10A80ED010A91ED000AA5
:107A6000D2ED010A92ED001A20EE200AD1ED010AB2
:107A700000EEC10A80ED020AC7E7F0B50E460746E0
:107A8000002400254FEA050303EB4300204456F889
:107A9000231057F82000FFF7A4F95B1C0544032BC3
:107AA000F2DB42F82450641C032CEADBF0BD10B575
:107AB00009F020FD9FED041B53EC112B09F023FC72
:107AC00041EC100B10BD0000000000000000103E53
:107AD00010B500F091FA00F043FA50B100F040FA0E
