:020000040000FA
:10000000E0500020150200001D0200001F02000049
:100010002102000023020000250200000000000071
:1000200000000000000000000000000027020000A7
:1000300029020000000000002B0200002D02000039
:10004000611200002F020000391500003D1300006E
:100050002F0200002F0200002F0200002F020000DC
:100060002F0200002F0200002F0200002F020000CC
:100070002F0200002F0200002F0200002F020000BC
:100080002F020000191300002F0200002F020000B1
:100090004D1300002F0200002F0200002F0200006D
:1000A0002F0200002F0200002F0200002F0200008C
:1000B0002F0200002F0200000000000000000000DE
:1000C0002F0200002F0200002F0200002F0200006C
:1000D0002F0200002F0200002F0200002F0200005C
:1000E0002F0200002F0200002F0200002F0200004C
:1000F000000000002F0200000000000000000000CF
:1001000000000000000000000000000000000000EF
:1001100000000000000000000000000000000000DF
:1001200000000000000000000000000000000000CF
:1001300000000000000000000000000000000000BF
:1001400000000000000000000000000000000000AF
:10015000000000000000000000000000000000009F
:10016000000000000000000000000000000000008F
:10017000000000000000000000000000000000007F
:10018000000000000000000000000000000000006F
:10019000000000000000000000000000000000005F
:1001A000000000000000000000000000000000004F
:1001B000000000000000000000000000000000003F
:1001C000000000000000000000000000000000002F
:1001D000000000000000000000000000000000001F
:1001E000000000000000000000000000000000000F
:1001F00000000000000000000000000000000000FF
:10020000DFF80CD000F0E8FF00480047F13F0000A5
:10021000E05000200648804706480047FEE7FEE71A
:10022000FEE7FEE7FEE7FEE7FEE7FEE7FEE7FEE7A6
:100230005113000001020000F0B51D462DED028BA8
:1002400099B090ED000AD0ED010A1746B8EEC00A49
:10025000B8EEE01AF8EEE00A0E4620EE000A044678
:1002600001EE200AD0ED020AB8EEE01AF8EEE00A3C
:1002700001EE200A01F066FBF0EEC00A10EE900AD3
:10028000B0F18D4F7EDDD6ED000AB8EEE01ADFED5D
:10029000FE0A21EE201A8DED041A96ED011AB8EE31
:1002A000C11A21EE201A8DED051A96ED021AB8EE4C
:1002B000C11A21EE201A8DED061A96ED031AB8EE3A
:1002C000C11A61EE200ACDED070A9FEDF08A10AA4F
:1002D0008DED0C8AD4ED000A0CA904A8F8EEE00A12
:1002E00080EE801A8DED0D1AD4ED010AF8EEE00AC9
:1002F00080EE801A8DED0E1AD4ED020AF8EEE00AB7
:1003000080EE801A8DED0F1A03F0DBFA14A904A811
:1003100003F068FA6A4614A910A803F0D2FA9DED1A
:10032000021ADDED010ADA4921EE010A00EEA00A07
:1003300010EE100A884202DA9FEDD60A11E010EEA4
:10034000100AD549884202DA9FEDD40A09E010EE7E
:10035000100AD349884202DAB5EE000A01E09FEDA7
:10036000D10A01EE907AB8EEE12ADFEDCF2A8DEDC9
:10037000088AC2EE221A21EE800A21EE001A8DEDC3
:10038000091A00E038E020EEC00A6A4604A98DEDA3
:100390000A0A8DED0B8A08A803F093FA6A4604A9AD
:1003A000104603F0F2F9684603F0F4FADDED000AB6
:1003B0009FEDBE0A60EE800AFDEEE00AC5ED000A80
:1003C000DDED010A60EE800AFDEEE00AC5ED010AEE
:1003D000DDED020A60EE800AFDEEE00AC5ED020ADC
:1003E000DDED030A20EE800ABDEEC00A85ED030AAA
:1003F00019B0BDEC028BF0BD96E80F0085E80F0048
:10040000F6E72DE9F0410C462DED068B054690ED03
:10041000000AD0ED010AB8EEC00AB8EEE01AF8EE14
:10042000E00A20EE000A01EE200AD0ED020AB8EE42
:10043000E01AF8EEE00A01EE200A01F083FA10EE6D
:10044000100A4FF07E5800264FF0804740453FDDB0
:10045000D5ED020AB7EE009AF8EEE00AC0EE808A07
:1004600039EE680A9FED89AAB5EEC00AF1EE10FADE
:1004700001DCB0EE4A0AF6EE009A20EE290A01F0FD
:1004800061FAB0EE408A38EE890AB5EEC00AF1EEA4
:1004900010FA01DCB0EE4A0A20EE290A01F052FA05
:1004A000F0EE408A95ED000AB8EEC00A60EE000A50
:1004B00095ED010AB8EEC01AB8EEC00A41EE000A86
:1004C000B0EE600A01F03EFA10EE100A404503DC7F
:1004D000C4E90076A66025E0DFED740A28EEA01AD4
:1004E000BDEEC11A84ED001A95ED011AF8EEC11A9D
:1004F00081EE801A21EE081A61EE200AFDEEE00A74
:10050000C4ED010AD5ED000AF8EEE00A80EE801A8B
:1005100021EE080ADFED660A20EE200ABDEEC00AD1
:1005200084ED020AE660BDEC068BBDE8F08170B593
:1005300090ED000AD0ED010A0546B8EEC00AB8EE0B
:10054000E01AF8EEE00A0C4620EE000A01EE200A5E
:10055000D0ED020AB8EEE01AF8EEE00A01EE200A49
:10056000D0ED030AB8EEE01AF8EEE00A01EE200A38
:10057000B5EEC00AF1EE10FA07D84FF080402060C7
:1005800000206060A060C86070BD01F0DBF9B7EECC
:10059000001AC1EE000A9FED450A20EE800AD5ED53
:1005A000000AF8EEE00A60EE800AFDEEE00AC4ED13
:1005B000000AD5ED010AF8EEE00A60EE800AFDEED1
:1005C000E00AC4ED010AD5ED020AF8EEE00A60EE99
:1005D000800AFDEEE00AC4ED020AD5ED030AF8EE4A
:1005E000E00A20EE800ABDEEC00A84ED030A70BD69
:1005F00070B5044690F8300088B040067ED5A069FA
:10060000002801DB014600E041424FF48032002621
:10061000284D91420BDAE169002900DA4942914202
:1006200005DA216A002900DA4942914267DB002895
:1006300000DA40424FF4C80188420BDCE069002830
:1006400000DA4042884205DC206A002800DA404295
:10065000884201DD032000E00220A863696BA06AE4
:10066000814242D0686394ED0A0A9FED131AF8EEB6
:10067000C00A80EE810ADFED110A20EE200A10EE9A
:10068000100A00F0A2FC1BE0000080300000000017
:1006900017B75139A69BC43B0AD7233C8FC2753D7F
:1006A000CDCC4C3ECDCCCC3E0014CD470000804E8E
:1006B000000080CE74100020002474490000004E19
:1006C0009FEDFA1B53EC112B00F07FFB9FEDF91B04
:1006D00053EC112B00F079FB9FEDF81B53EC112B21
:1006E00000F0E5FB00F052FC28630496296BA0693A
:1006F00003F033F80590296BE06901E022E023E084
:1007000003F02BF80690296B206A03F026F8079077
:100710006A4604A9EB4803F07CF80098E94A800196
:100720000090019869468001019002988001029032
:10073000039880010390104603F015F8E14908463C
:10074000FFF7F5FE08B070BDAE63FBE770B5044679
:100750002DED048B8EB0D0F82001410676D5D94D11
:10076000D4F81011D84B2A68891AD4F82C215A438E
:100770008A4201DA032100E00221A963800504F521
:10078000887602D5CF493046B5E0002107A802F0AF
:100790008FFECC490C223C3107A800F062FA20B948
:1007A000D4F82801A96D88427ED020886B4680B29B
:1007B00007AA616A02F040FD9DED000ADDED010A25
:1007C000B8EEC00AB8EEE01AF8EEE00A20EE000A31
:1007D00001EE200ADDED020AB8EEE01AF8EEE00ABA
:1007E00001EE200A01F0AEF8B0EE408A9FEDB70AA4
:1007F00068EE000A9FEDB61A80EE810ADFEDB50AB9
:1008000020EE200AD4ED4A0AF8EEE00A60EE800AF3
:100810001FED571A80EE810AF6EE000A20EE209AAC
:10082000B0EE490A00F01EFFF0EE408AB0EE490A31
:1008300000F0C0FF18EE100A4FF08041884206DA3F
:100840000020C5E912102865686532E055E05FEDCB
:10085000690A68EEA00AFDEEE00AC5ED120A5FED36
:100860006C0A20EE200ADDED000AF8EEE00A60EEE8
:10087000200A80EE881AFDEEC10AC5ED130ADDEDEF
:10088000010AF8EEE00A60EE200A80EE881AFDEE1A
:10089000C10AC5ED140ADDED020AF8EEE00A20EE09
:1008A000200AC0EE080A00E00DE0BDEEE00A85ED8A
:1008B000150A07AB93E8070005F13C0383E807003E
:1008C000D4F82801A8657F4903AA4831304602F0D0
:1008D000A0FF7C480AAA5C3003A9044602F099FFF5
:1008E0002146304602F072FF03AA0AA9754802F0B9
:1008F00090FF744903A8FFF71AFE0EB0BDEC048BFD
:1009000070BD1FB5044669466E4802F05FFF6D4A30
:1009100069462032204602F07CFF6A491DCC103126
:1009200081E81D001FBD2DE9F0470446654E90F893
:10093000740006F15C0A06F12008012500F0500160
:10094000103692B004F5887904F15C07402906D08E
:1009500094F8200100F0500040280DD01DE03146F1
:100960003846FFF74EFDB4F82001C0050CD55146BE
:10097000484602F02BFF07E05146484602F026FFAA
:10098000B4F87400C00508D569464E4802F01EFF51
:1009900042466946304602F03CFFB4F82001C005EB
:1009A000204602D5FFF7D2FE01E0FFF721FE3246D6
:1009B0004449404602F02DFF94F8740040066FD57C
:1009C000208EB4F820110843C0056DD50FAA394612
:1009D000304603F021F8D4E9172080FB0001C2FB68
:1009E0000201626E374FC2FB02014FF08042801A53
:1009F00071F1020014DB04A802F098FDDDE9042087
:100A000080FB0001C2FB0201069AC2FB02014FF00B
:100A10008042801A71F1020002DB0420B8630BE00F
:100A2000B86B042808D041F28832022806D0032887
:100A300004D0012852D009E0002507E0E16E91FBC7
:100A4000F2F5012D00DA0125032800D0AD0022487F
:100A500000244543109807948002294602F07DFE49
:100A600008900F9829464042800202F076FECDE9B8
:100A700009040BAA314607A802F0CBFE32460BA9A7
:100A8000104602F070FE31460846FFF750FD6946F9
:100A90000C4802F09BFE42466946304602F0B9FE21
:100AA00012B00020BDE8F08720E00000112D445472
:100AB000FB21094000000000000070400000000021
:100AC000008066407410002071981C00DB0F4940C4
:100AD0000000344300008037A69BC400E06E90FB0A
:100AE000F2F0012800DA01204500AFE7334619464D
:100AF0003846E26EFFF7A0FBC9E770B50446008EEA
:100B0000C105D4F8200107D4B4F87410C90503D482
:100B1000C10501D4002070BDC0F30120032807D017
:100B20002046FFF700FF2348A16B03F0C7F8F1E769
:100B300004F588711F482EC980E82E00F3E71E488F
:100B400003F0CCB81B4810B56C21103800F077F8D2
:100B500018484FF080411038016101600162C163A3
:100B6000C165002010BD184810B5082213A1006807
:100B700000F077F808B1322010BD1322BDE8104014
:100B8000C8210D4802F068BF10B5FFF7DBFF002851
:100B900005D1AFF22D00BDE8104002F0E5BF10BD59
:100BA00010B5054803F09AF8AFF24500BDE81040D3
:100BB00003F0BAB884100020FB0A0000654D504CC9
:100BC00020352E310000000000000020202A06DB26
:100BD000CB17203A41FA02F043EAE07306E041FA0B
:100BE00002F3D040C2F120029140084319467047F9
:100BF00010B5431A934209D28318881803E010F8FD
:100C0000011D03F8011D521EF9D210BD40EA010377
:100C10009B0703D009E008C9121F08C0042AFAD2B2
:100C200003E011F8013B00F8013B521EF9D210BD60
:100C3000D2B201E000F8012B491EFBD2704700221E
:100C4000F6E710B513460A4604461946FFF7F0FFCB
:100C5000204610BD421C10F8011B0029FBD1801A50
:100C6000704730B504460020034600E05B1C934209
:100C700003D2E05CCD5C401BF8D030BD2DE9FE4FC7
:100C8000804681EA0300C00F0C46009021F000412D
:100C900023F00045B8EB0200A94105D240462146A9
:100CA00090461C460B46024623F00040104347D0B6
:100CB000270DC7F30A00C3F30A510290401A0190AE
:100CC00040286BDAC3F3130040F4801B009892466F
:100CD00020B10023D2EB030A63EB0B0B01985946BA
:100CE000C0F14002504600F0E2F906460D4650467B
:100CF0005946019AFFF76AFF10EB08006141002492
:100D000087EA115284EAE7731A4340D0009A62B32B
:100D1000019A012A4FEA075215DC001B61EB020120
:100D20004FF0004202EA0752CDE90042001C41F5B3
:100D3000801132462B4600F0E8F903B0BDE8F08F91
:100D400040462146F9E7001B61EB0201001C41F51A
:100D5000801300185B412018A2F5001747EB030130
:100D600040EAD570B6196D4111E06D084FEA3606BC
:100D700045EAC0754FEA0752001B61EB0201001CF7
:100D800041F5801149084FEA3000001951413246BF
:100D90002B4603B0BDE8F04F00F0A8B9009801223F
:100DA00040000023D0EB020263EBE0730098214681
:100DB0004FEAE074B8EB000061EB0401E9E783F06F
:100DC00000435BE781F0004158E72DE9FE4F81EADF
:100DD000030404F0004421F0004100944FF0000BA4
:100DE00023F0004350EA01045ED052EA03045BD0D2
:100DF000C3F30A54C1F30A552C44A4F2F33401940A
:100E0000A0FB0254C1F3130141F48011C3F3130397
:100E100043F4801301FB024400FB034E840A970A4B
:100E200044EA815447EA8357A4FB076802958D0A78
:100E300005FB07854FEA932C04FB0C542705029D04
:100E40004FEA065847EA1637B5EB08056EEB070C74
:100E5000870E920E47EA811742EA8312A7FB02012E
:100E6000B6EB0B0164EB00042B0D43EA0C335E1868
:100E700044EB1C50DA465146E7FB0201C5F313046C
:100E80004FEA0B3343EA14534FEA0432019C43EA1E
:100E90000603A4F10C040294009CCDE900B400F018
:100EA00034F903B0BDE8F08F00200146F9E72DE9E1
:100EB000F04D81EA030404F0004B21F00045144694
:100EC0004FF0000A23F0004150EA050220D054EA16
:100ED00001021DD0C5F30A570246C5F31303C1F33F
:100EE0001300C1F30A5640F4801543F48013A7EBB6
:100EF0000608101BD64608F2FD3873EB050002D336
:100F000008F1010801E092185B41B8F1000F03DA23
:100F100000200146BDE8F08D00204FF48011064608
:100F200084460EE0171B73EB050705D3121B63EB1A
:100F3000050306434CEA010C49084FEA30009218B9
:100F40005B4150EA0107EDD152EA030012D082EA78
:100F5000040083EA0501084305D0101BAB4106D20B
:100F60000122002306E000224FF0004302E06FF070
:100F7000010253101AEB06004CEB085110EB0A006B
:100F800041EB0B01BDE8F04D00F0B0B870B5C1F316
:100F90000A5201F000450024C1F3130140F2FF336F
:100FA00041F480119A4201DA002070BD40F23343CF
:100FB0009A42A2F2334203DC524200F087F800E08A
:100FC00090402C43F1D0404270BD00F0004230F020
:100FD00000400AD0C10D01F56071C0F3160042EA6D
:100FE0000151C20840071143704700200146704775
:100FF00030B5041E71F1000404DB4FF000444042A0
:1010000064EB0101141E73F1000405DB1C464FF074
:101010000043524263EB0403994208BF904230BD43
:1010200030B50B46014600202022012409E021FAB8
:1010300002F59D4205D303FA02F5491B04FA02F5B5
:101040002844151EA2F10102F1DC30BD2DE9F05F4C
:101050000546002092469B46884606468146402427
:101060001BE0284641464746224600F02FF85346EB
:101070005A46C01A914110D311461846224600F034
:1010800016F82D1A67EB01084F4622460120002171
:1010900000F00DF817EB00094E41201EA4F10104E9
:1010A000DFDC484631462A464346BDE8F09F202A09
:1010B00004DB203A00FA02F1002070479140C2F1AF
:1010C000200320FA03F3194390407047202A04DBE1
:1010D000203A21FA02F00021704721FA02F3D040B1
:1010E000C2F12002914008431946704710B5141E02
:1010F00073F1000408DA401C41F1000192185B41D1
:101100001A4301D120F0010010BD2DE9F04D9246A7
:101110009B4611B1B1FA81F202E0B0FA80F22032BE
:101120009046FFF7C4FF04460F4640EA0A0041EA32
:101130000B0153465A46084313D0114653EA0100A7
:1011400019D0C8F140025046FFF7C0FF05460E46D1
:10115000504659464246FFF7AAFF084305D00120F2
:1011600004E020463946BDE8F08D0020054346EAFC
:10117000E0762C4337430A986305E40AA0EB0800A5
:101180000022FD0A44EA47540A3002D500200146F5
:10119000E9E7010510196941DDE9084500196941D0
:1011A000BDE8F04DA2E7C1F30A52C1F3130140F2CA
:1011B000FF3341F480119A4202DA00200146704761
:1011C00040F233439A42A2F2334202DC5242FFF72A
:1011D0007DBFFFF76CBF0000064C074D06E0E068DE
:1011E00040F0010394E8070098471034AC42F6D36E
:1011F000FFF70AF8407700006077000000F01F0258
:10120000012191404009800000F1E020C0F88012E7
:10121000704700F01F02012191404009800000F159
:10122000E020C0F80011704700F01F02012191403A
:101230004009800000F1E020C0F800127047490723
:10124000090E002806DA00F00F0000F1E02080F817
:10125000141D704700F1E02080F800147047000072
:101260002DE9F0414FF48077384603F03FFE012628
:10127000284CB50748B1384603F03FFE0120C5F8B9
:1012800008036670002001F0F5FA4FF482773846C3
:1012900003F02CFE48B1384603F02FFE0220C5F8BB
:1012A0000803A670012001F0E5FA4FF48876304675
:1012B00003F01CFE48B1304603F01FFE1020C5F8B5
:1012C00008031448143003F061FF4FF4867630466B
:1012D00003F00CFE00281BD0304603F00EFE082061
:1012E000C5F8080303F03EFF94F82000042809D055
:1012F0000020002184F82010E169002908D018B1ED
:10130000032002E00120F4E70220BDE8F041084795
:10131000BDE8F0811006002007480021C0F8401108
:10132000C0F84411C0F84811C0F84C11C0F80011C1
:10133000C0F8041104F0B2BF001001400149024896
:1013400002F016BDD80500200030004004F018BFA0
:1013500030B54FF080500022D0F830110123082919
:1013600002D1D0F8344114B1082909D00BE04FF074
:101370008041C1F80C21C1F8102161490A6005E0E3
:10138000D0F8344114B1082957D059E05D490968B3
:101390005D4C21605B49091D0968241D2160594984
:1013A00008310968241D216056490C310968241D43
:1013B0002160544910310968241D216051491431BC
:1013C0000968241D21604F49183109684E4C2034AA
:1013D00021604C491C310968241D21604949203194
:1013E0000968241D2160474924310968241D2160B2
:1013F000444928310968241D216042492C3109687B
:10140000241D21603F49303109683F4C4034216040
:101410003C4934310968241D21603A493831096852
:10142000241D216037493C310968241D216035495C
:1014300040310968241D216005E0D0F8344114B121
:10144000082904D006E0324C3049216005E0D0F88C
:10145000344114B1082904D006E02E4CFB21216050
:1014600005E0D0F8344114B1082908D00EE090F816
:1014700058422948016864F30301016002E0D0F892
:10148000340118B925494FF40070086024480168F8
:1014900041F470010160BFF34F8FBFF36F8F4FF0C6
:1014A0001021D1F80002002803DBD1F80402002843
:1014B00022DA1C4C23601C480368002BFCD012234A
:1014C000C1F800320568002DFCD0C1F80432016873
:1014D0000029FCD0226001680029FCD0BFF34F8FA7
:1014E0000F487C380168114A01F4E0611143016042
:1014F000BFF34F8F00BFFDE70E490D48086030BDB8
:10150000380500400404001020C500404881030055
:101510008C56004018F50040E40E00404096024012
:1015200088ED00E004E5014000E401400400FA0514
:101530000090D003840000200448017F0448002963
:10154000024901D005F08DB905F0FCB83406002041
:10155000002000400FB42DE9F0410446CAB0092C28
:101560003ED2DFE804F0050505050505053D05004B
:1015700053AA06A8529900F04FF8051E31DD182134
:101580006846FFF75CFB24208DF8000001208DF8F1
:1015900001008DF802400D208DF815000A208DF80D
:1015A000160000240DF118086E4617E0281B1228BB
:1015B00000DB1220C7B21221F01CFFF740FB08EB42
:1015C00004013A46F01CFFF713FB684604F0D0FB19
:1015D000024606A1032004F09FFB1234AC42E5DB77
:1015E00000204AB0BDE8F0015DF814FB3A494E46D0
:1015F0004F3A2573000000000FB4054B10B503A946
:10160000044A029800F068FB10BC5DF814FB00006F
:10161000BF3000003800002037B514460846064B9E
:101620006A46214600F058FB04466946002000F057
:10163000EAFE20463EBD00000724000041000802EB
:1016400018BF04200A0E18BF40F001004FF07F427F
:1016500032EA010108BF40F00200012808BF05205E
:101660007047000010EE101A08B5444A6846B2EB05
:10167000410F28D94FF0E640B0EB410F94BF002056
:101680004FF0FF3000900098002861DB60EE000A08
:1016900010F0010F45D010F0020FDFED391A9FED69
:1016A000391A00EEE11ADFED381A40EE811A21EE08
:1016B000A01AF0EE400A40EE010A08BFF1EE600AFF
:1016C000B0EE600A08BD314B21F0004293423CD994
:1016D00011F0004FDFED2E0A20EE201ADFED2D0A6B
:1016E00019BF31EE601A71EE200A31EE201A71EE48
:1016F000600ABDEEE01A11EE100A9FED271A00F005
:10170000030000EEC10A9FED251A009000EEC10A09
:101710009FED231A00EEC10A9FED221A00EEC10AC6
:10172000B1E79FED211A9FED210A10F0020F00EEA4
:10173000810A9FED1F1A00EE801AB7EE000A00EE34
:10174000810A18BFB1EE400A08BD00F02BF99AE7F4
:1017500010EE100A4000B0F17F4F3CBFB7EE000A18
:1017600008BD07D14FF0010000F0EEF9BDE80840D8
:1017700000F008B9BDE8084000F001B9B61F927E3C
:10178000336D4C39DA82083CA0AA2ABE490E49467C
:1017900083F9223F0000004B0000C93F00A0FD3943
:1017A0000020A2331A61342CB93AB2BACA9F2A3D3A
:1017B000DDFFFFBE00B510EE101A2DED028B81B0DB
:1017C000524A6846B2EB410F2ED94FF0E640B0EBDB
:1017D000410F94BF00204FF0FF3000900098B0EE12
:1017E000408A00286ADB10F0010F4BD068EE080A2F
:1017F0009FED471A9FED470A00EE810A9FED461ABA
:1018000010F0020F00EE801AB7EE000A00EE810A17
:1018100002BF01B0BDEC028B00BD00BF01B0B1EE54
:10182000400ABDEC028B00BD3C4B21F000429342CC
:1018300041D911F0004FDFED3A0A20EE201ADFED1A
:10184000390A19BF31EE601A71EE200A31EE201A02
:1018500071EE600ABDEEE01A11EE100A9FED321A29
:1018600000F0030000EEC10A9FED301A009000EE78
:10187000C10A9FED2F1A00EEC10A9FED2E1A00EE4D
:10188000C10AABE728EE080A9FED2B1ADFED2B0A01
:1018900010F0020F40EE410A9FED291A00EE201AC7
:1018A00061EE000AB0EE480A08EE200AB6D101B097
:1018B000BDEC028B00BD00F075F88FE718EE100A42
:1018C0004000B0F17F4F0DD218EE100AFFF7B6FEC0
:1018D000042808BF00F05EF8B0EE480A01B0BDEC85
:1018E000028B00BD09D1012000F02EF901B0BDEC42
:1018F000028B5DF804EB00F045B801B0B0EE480A89
:10190000BDEC028B5DF804EB00F039B8B61F927E97
:10191000B93AB2BACA9F2A3DDDFFFFBE490E494619
:1019200083F9223F0000004B0000C93F00A0FD39B1
:101930000020A2331A61342C336D4C39DA82083C12
:10194000A0AA2ABE10B52DED028BB1EEC08A18EE0A
:10195000100A20F00040C0F1FF40C00F0AD010EE86
:10196000100A20F00040C0F1FF40C00F04BF01206A
:1019700000F0EAF8B0EE480ABDEC028B10BD30EE84
:10198000000A7047DFED020A80EEA00A70470000EF
:10199000000000009FED020A20EE000A70470000E0
:1019A000000000102DE9F0014FF07F42B2EB410F33
:1019B0009FBF4FF0FF310160BDE8F00170474FF06D
:1019C000004242EA0123C1F3C752783A551112F09E
:1019D0001F0C434CCCF120067C44C1F3C752A2F14A
:1019E00078024FEA621204EB820254F8254008BFE5
:1019F000D2E9015612D0556804FA0CF425FA06F71C
:101A00003C43976805FA0CF527FA06F8D26807FAFE
:101A10000CFCF24045EA08054CEA0206A4FB034C24
:101A2000A5FB0352A6FB03631D449D4234BF012660
:101A300000261319334416B1934202D903E09342AE
:101A400001D2012200E00022624402F1200C920641
:101A5000DC0C42EA443200EE102A5B03DFED210A7F
:101A6000F8EEC01A00EE103A4FEA9C1C11F0004F3D
:101A7000B8EE400AC0F800C020EE201A00EE105A5E
:101A8000DFED190AB8EE400A20EE200A71EE810A55
:101A900070EE800A10EE902A02F500626FF30B02DE
:101AA00000EE902A70EEE11A31EEC11ADFED101A45
:101AB00030EE411A9FED0D0A20EE800A01EE210A58
:101AC0009FED0C1A00EE810A04BFBDE8F0017047DB
:101AD000CCF180510160BDE8F001B1EE400A7047E1
:101AE000E85C0000000000360000802C22AAFD29DE
:101AF000DB0FC92F0000C92F0EB50092CDE90130D0
:101B00000B4603A200210620FFF724FD0EBD0000B6
:101B100025737C25737C25642072657475726E69EB
:101B20006E672025640A000002E008C8121F08C181
:101B3000002AFAD170477047002001E001C1121F4E
:101B4000002AFBD17047000001490860704700007F
:101B5000900000202DE9FF5F82B00021DDE9043014
:101B6000020DDDF840B0034318D044F61050A2F245
:101B7000FF3242431514119801281FD0A5EB0B002A
:101B8000401C5FEA000A4FF000064E4FDFF8389124
:101B9000B046504615D5CAF1000413E0119801244F
:101BA0004AA3012801D16FEA0B010298119AC0E9FA
:101BB0000031C0E9024206B0BDE8F09FCBF1000061
:101BC000DFE704460021404A491842EB0450CDE9C2
:101BD000001012E0E00707D032463B464046494637
:101BE000FFF7F3F88046894632463B4610461946D1
:101BF000FFF7EBF806460F466410002CEAD1DDE94A
:101C00000401DDE90023BAF1000F06DAFFF7DDF881
:101C100042464B46FFF7D9F805E0FFF748F9424640
:101C20004B46FFF744F904460E460022284BFFF7C7
:101C3000DFF903D84FF0FF30014607E00022254BC3
:101C400020463146FFF71AF8FFF7ADFA102409E0F5
:101C5000002C0ADB0A220023FFF7F8F9039B30323D
:101C60001A55641E50EA0102F2D1641C039AC4F1B1
:101C700011031444119A012A03D0012208430DD103
:101C80000AE0084304D000204FF0110B119072E7D6
:101C9000A3EB0B056D1E0DE05B4504DD4FF000026C
:101CA00005F1010504E003DA4FF00002A5F101059A
:101CB000002AECD002981199C0E90231C0E9004530
:101CC00079E70000000014400000F03F3000000001
:101CD0000000F0430000E03F2DE9FF4F95B09B4628
:101CE0008946064600250FE2252877D1002427469D
:101CF000F84A0121059400E0044316F8013F203B17
:101D000001FA03F01042F7D130782A2811D06FF091
:101D10002F033078A0F13002092A16D8059A44F032
:101D2000020402EB820203EB42021044761C05908F
:101D3000EFE759F8042B0592002A03DA504244F4E5
:101D40000054059044F00204761C30782E2816D1F9
:101D500016F8010F44F004042A280DD06FF02F026A
:101D60003078A0F13003092B09D807EB870302EB89
:101D70004303C718761CF3E759F8047B761C3078C8
:101D80006C280FD006DC4C2817D068280DD06A28A4
:101D900014D104E0742810D07A280FD10DE044F457
:101DA00000140AE044F4801401E044F44014727812
:101DB000824202D104F58014761C761C30786628A5
:101DC0000BD013DC582877D009DC002875D04528C3
:101DD000F6D04628F4D047281AD19DE118E06328B0
:101DE00035D0642879D0652812D195E1702873D058
:101DF00008DC6728F1D069286FD06E280DD06F28D5
:101E000006D1B5E073282CD0752875D0782874D009
:101E10005A46179990476D1C75E1C4F30250022889
:101E200009D003280DD0D9F8001004280DD00D607A
:101E300009F1040967E1D9F80010EA17C1E9005275
:101E4000F6E7D9F800100D80F2E70D70F0E719F809
:101E5000041B8DF8001000208DF80100EA460120D7
:101E600003E059F804AB4FF0FF3061074FF0000179
:101E700002D40DE008F101018846B9420FDA80452D
:101E8000F8DB1AF808100029F4D108E008F1010184
:101E900088468142FADB1AF808100029F6D1059825
:101EA0005B46A0EB080721463846179A00F094FAE3
:101EB000284400EB080507E04DE029E10DE01AF8A1
:101EC000010B5A4617999047B8F10108F7D25B46C3
:101ED00021463846179A13E142E00A220092C4F3E1
:101EE00002524FF0000A022A08D059F804CB032A04
:101EF0004FEAEC710AD00DE029E02AE009F1070170
:101F000021F00702F2E802C1914609E00FFA8CFCC9
:101F10004FEAEC71042A03D14FFA8CFC4FEAEC71C2
:101F2000002907DA0A460021DCF1000C61EB02010E
:101F30002D2202E0220504D52B228DF80420012257
:101F400003E0E20701D02022F7E7904659E00A219A
:101F500002E010220DE010214FF0000A00910BE08A
:101F600010224FF0000A44F004040827009203E016
:101F700008224FF0000A0092C4F30252022A05D050
:101F800059F804CB0021032A08D009E009F1070120
:101F900021F00702F2E802C1914605E01FFA8CFC2D
:101FA000042A01D10CF0FF0C4FF00008220728D5BD
:101FB000702806D0009B83F0100353EA0A0305D073
:101FC0000EE040228DF80420012208E05CEA0102C4
:101FD00006D030228DF804208DF8050002229046AC
:101FE000009B83F0080353EA0A030AD15CEA01026A
:101FF00001D1620705D530228DF804204FF0010889
:102000007F1E582804D034A003900EA802900DE043
:1020100036A0F9E753466046009AFFF717F8844662
:102020000398825C0298401E029002705CEA0100F4
:10203000F0D1029806A9081A00F1200A600702D51B
:1020400024F4803400E00127574502DDA7EB0A00A5
:1020500000E0002000EB0A01009005984144401A7E
:102060000590E00306D45B462146179A059800F0D8
:10207000B3F90544002706E001A85A46C05D179948
:1020800090476D1C7F1C4745F6DBE0030CD55B4693
:102090002146179A059800F09FF9054404E0302086
:1020A0005A46179990476D1C0099481E00900029C8
:1020B000F5DC08E0029802995A460078491C029122
:1020C000179990476D1CBAF10001AAF1010AF1DCE1
:1020D00065E10000092801003031323334353637EC
:1020E0003839616263646566000000003031323364
:1020F0003435363738394142434445460000000004
:1021000000F058F90544761C307800287FF4ECADD7
:1021100019B02846BDE8F08F620700D4062709F100
:10212000070222F0070CFCE80223E14603F0004816
:102130005FEA080C02D00FF2702C0DE05FEA045C3D
:1021400002D50FF2682C07E05FEAC47C02D00FF2E0
:10215000602C01E0AFF2700C4FF0FF3823F0004329
:10216000CDF850C065280CD006DC452809D046289B
:102170001DD047283DD13DE0662818D067287ED184
:1021800038E00021112F01DB112000E0781CCDE99F
:10219000000106A90EA8FFF7DDFCDDE90F010E9A8C
:1021A00003910021009207F1010A04914DE04FF0E4
:1021B00000400097CDE9011006A90EA8FFF7CAFC60
:1021C000DDE90F0203920E9B11990022DDF80CA0AD
:1021D0000093049211B9791C00EB010AB7EB0A00D5
:1021E00004D4C0F1FF3007F1010A0490AAEB070004
:1021F000019044E0012F00DA01270021112F01DDB9
:10220000112000E03846CDE9000106A90EA8FFF72D
:10221000A1FCDDE90F010E9A0391002104910092C7
:10222000BA4621070CD40399514500DA8A46BAF11F
:10223000010F05DD009AAAF10101515C302908D097
:10224000B84202DA10F1040F06DA0121CDE90110DB
:1022500015E0AAF10101E9E7002805DC0499014431
:102260000491AAEB000102E0411C514500DD8A46C1
:102270000499401A401C01904FF000400290200742
:1022800004D40198504501DBCDF8048000208DF87E
:102290004F0002980DF14F07B0F1004F25D02B20D1
:1022A0000E9002984FF0020800280CDA404202908B
:1022B0002D200E9007E00A210298FEF7B1FE303182
:1022C000029007F8011DB8F10001A8F10108F2DC45
:1022D00002980028EFD1791E0E980870307800F02F
:1022E000200040F0450007F8020D12A8C01B00F1C5
:1022F00007081498007800B1012000EB0A0101984A
:1023000001EBE07105984144401A401E0590E0033E
:1023100006D45B462146179A059800F05DF80544FF
:102320001498007818B15A46179990476D1CE0032D
:1023300024D55B462146179A059800F04DF80544D0
:102340001CE00498002807DBDDE90301884203DD77
:102350000098405C179901E0179930205A46904741
:10236000049805F10105401C04900198401E01905D
:1023700004D12E205A46179990476D1CBAF10001DE
:10238000AAF1010ADDDC05E017F8010B5A4617999E
:1023900090476D1CB8F10001A8F10108F4DC5B4620
:1023A0002146179A0598ABE62D0000002B0000008F
:1023B000200000002DE9F041044600251E46174686
:1023C000880404D405E039462020B0476D1C641E03
:1023D000F9D52846BDE8F0812DE9F04104460025F5
:1023E0001E469046C80301D5302700E02027880408
:1023F00004D505E041463846B0476D1C641EF9D54A
:102400002846BDE8F0810A68531C0B6010707047C5
:10241000704700000DA1012003F058FC03F0BAFB47
:1024200003F0BCFB0028FBD10CA1032003F04EFC01
:10243000BFF34F8F10480168104A01F4E061114367
:102440000160BFF34F8F00BFFDE700003A455252D5
:102450004F523A466174616C0D0A00003A494E468B
:102460004F3A486974207765616B2068616E646CCF
:1024700065720D0A000000000CED00E00400FA0592
:102480000EB500210091CDE901106A4644F2010029
:10249000FFF7C0FF0EBD10B58268C368934203D03A
:1024A00000F0FAFD002010BD052010BD29B112B1C9
:1024B000531E134203D0092070470E20704701605D
:1024C000838000218160C1600846704710B5826832
:1024D000C3689A1A83889A4203D800F0E7FD002067
:1024E00010BD042010BD00000148006870470000C6
:1024F00004150140074B9B7823B12AB120B1006835
:10250000037C1BB10820704707207047417442616B
:10251000002070475406002070B503F0BDFC104841
:1025200000240421047044700E4D817014206C60EE
:102530002C706C70FEF762FE00211420FEF77FFE07
:102540001420FEF766FE0848046000211120FEF703
:1025500076FE0548001F0068A860002070BD0000DE
:102560005406002010000020081501402DE9F84312
:10257000DFF8709099F802305BB350B3052902D2AE
:102580000720BDE8F88343691BB3437C012B22D0AD
:1025900000270446002588461646284600F09EF887
:1025A000684604F0D7F9C0B1012101700E494460BA
:1025B0000968C0E90218C0E904769DF8000089F8AE
:1025C0000100002000F08CF81420FEF72DFE2846B4
:1025D000D7E70820D5E70F46DBE70425002000F009
:1025E0007FF8F4E75406002004150140F0B5284EAA
:1025F00089B01F460D00044672603BD0A888296848
:1026000082B22448FFF752FF002834D1A889A96874
:1026100082B220481030FFF749FF00282BD120223A
:102620001D496846FEF7E4FA60690690207C00B117
:1026300001208DF814008DF81C70607C00B10E2014
:102640008DF81500E0680290A06803902068019062
:10265000606800900E48114A6946083002F0ACFFED
:10266000002808D1B0702068401C04D09DF81D00DF
:1026700018B106E0072009B0F0BD0548083003F0A6
:1026800027F803490122491CC81D02F0C9FFF2E7DF
:1026900024000020B8060020D069000095660000E4
:1026A00010B501460B48FFF711FF040010D10A488E
:1026B00003F058F960B9084906480839FFF7EBFEFE
:1026C00030B9054901220839034803F0C5F804462A
:1026D000204610BDC80600202C00002000F002B8E3
:1026E00000F008B872B602480168491C01607047E2
:1026F0003400002003490868401E086000D162B61B
:10270000704700003400002070B5054608680C468C
:10271000411C04D003F0E8F9206803F09DF96068DB
:10272000411C02D0002103F08EF928791F4901EBEA
:1027300040102968007F0028A069C1F8240523D033
:10274000607D227D29681043C1F86C05D4E9001230
:102750002868C0F80C15C0F8142522E0A068411CB8
:1027600002D0002103F06FF9E068411C04D003F0AF
:10277000BBF9E06803F070F9D4E902122868C0F8E8
:102780000825C0F8101570BD607D217D2A680843BA
:10279000C2F86C05D4E900122868C0F81425C0F806
:1027A0000C15207D0128D9D070BD00003406002012
:1027B0000249085C012103F0A1B90000C8690000CA
:1027C0007CB50024084E25460122305D009500238B
:1027D0001146019503F0FCF8641C042CF4D3BDE809
:1027E0007C4000F003B80000C869000010B5002468
:1027F0002046FFF7DDFF641C042CF9D310BD000058
:1028000070B5461C0D4601240020FFF767FF114AF2
:1028100010682860D2E900109568081A2B1A701CFD
:102820005B1C98420FD963B10B480C4B29400068E0
:102830001B6802EB810163F39F20C8601068401C95
:102840001060002401E0881910600020FFF748FFA5
:10285000204670BDD8060020106A00004800002005
:10286000034803C8814201D101207047002070470E
:10287000D806002070B5084C050009D01034216836
:10288000002907D008682060496828468847F6E78D
:102890000834F4E770BD0000100600202DE9F05F59
:1028A00026484168F1B3DFF898B00E688146DBF83E
:1028B000004087688078E11B21F07F45ED1CB0B9AE
:1028C000DFF880804FF48030C8F84403C8F8040370
:1028D0001120FEF793FC1120FEF79BFC4FF0010A3C
:1028E000C8F800A02F2002F0B1FB89F802A0B54281
:1028F00000D23546124BE8193C3320F07F40186077
:10290000DBF800105A46091B21F07F41001B20F024
:102910007F40C91C81420FD9106818602F2002F037
:1029200095FB00E004E0BDE8F05F1120FEF77CBC01
:10293000BDE8F05F03F0B0BABDE8F09F10000020E2
:1029400004150140001001402DE9F0410025441C10
:1029500017460E462846FFF7C1FE17480168396042
:102960008368016801EA03029A1A521C944208D84B
:102970004A1C1A4021440160002100EB82053160AD
:102980000AE047681F40A74207D90B19511E194496
:10299000521E0160084D32600C35D0E9001280688B
:1029A000891A401A401C00D100250020FFF798FE2C
:1029B0002846BDE8F0810000D806002008B560B1C7
:1029C00020208DF8000028208DF8010030208DF89F
:1029D000020038208DF8030004E0A3220421684699
:1029E000FEF726F96A46042140F69E2002F048FAD6
:1029F00001F08CFE08BD00003EB5044602208DF8B3
:102A00000000CA208DF80100E3208DF802000920A3
:102A10008DF803006A460421682002F031FAA320F1
:102A20008DF80000610609D5C0218DF80110C8217C
:102A30008DF80210C2218DF8031005E08DF8010019
:102A40008DF802008DF8030014F4C07F09D0C42172
:102A50008DF80410CC218DF80510C6218DF80610D4
:102A600005E08DF804008DF805008DF806008DF85E
:102A700008008DF807008DF809006A460A2140F623
:102A8000A72002F0FDF9A0074FF0D80503D02020C1
:102A90008DF8000001E08DF800506A46012140F6F3
:102AA000B62002F0EDF9A00601D5012000E00020DB
:102AB00000F08EF814F4C07F1ED0E0050AD5B220D5
:102AC0008DF800008B208DF80100B6208DF80200F3
:102AD0009B2009E0B0208DF8000080208DF80100D7
:102AE000B4208DF8020090208DF803006A4604217E
:102AF00040F6A22002F0C4F9E1074FF40B6022D0A7
:102B0000F8218DF800106A46012102F0B9F9FA2186
:102B1000072000F0D1F9072000F09CF9012000F017
:102B2000B9F9642000F078FA4FF4FA7000F084FAF2
:102B3000C821254800F056F9282000F06BF90A203A
:102B400000F078F905E08DF800506A46012102F0A6
:102B500097F9A00703D5D9208DF8000001E08DF882
:102B600000506A46012140F23D7002F089F9600789
:102B700001D5012000E0002000F048F8E00601D572
:102B8000012000E00020FFF719FF104D44F008007D
:102B9000688101F0BBFD0020A873600601D5062006
:102BA000A87314F4C07F02D0A87B801DA87314F012
:102BB000140F02D0A87B1030A873A00702D0A87B06
:102BC000001DA87300203EBD09E3CA023C1000208E
:102BD0000EB54FF4976310B106A107C901E008A232
:102BE00007CA8DE807006A460921184602F048F92D
:102BF0000EBD0000B8AAB38DB4980D355D0000007D
:102C0000B8AAAAAAB088C3C5C700000008B560B1B9
:102C1000C0208DF80000C2208DF80100C4208DF87E
:102C20000200C6208DF8030004E08B2204216846D0
:102C3000FDF7FEFF6A46042140F6982002F020F9D5
:102C400001F064FD08BD0000C8234FF48062024912
:102C500040F6F63001F02EBC636A0000014948607E
:102C6000002070473C100020014908600020704798
:102C70003C10002030B5044613A285B007CA8DE889
:102C800007004FF0FF35C82C16D8C820B0FBF4F170
:102C9000491E080A8DF80C008DF80D1003AA0221B8
:102CA00040F2162002F0ECF830B96A460C2140F6EA
:102CB000C12002F0E5F810B1284605B030BD054846
:102CC00084810020F9E70000FEF2ABC4AAF1DFDF47
:102CD000BBAFDFDF3C1000202DE9FF4104463CA0E4
:102CE00004F00303006802903AA0006803903AA041
:102CF00006683AA0056802A8C15C8DF80010C4F30C
:102D0000C101425C8DF80120C4F38112805C8DF812
:102D1000020003A8C35C8DF80430415C8DF80510F7
:102D2000805C8DF806006A46032140F2264002F0DE
:102D3000A7F84FF0FF37E0BB01AA032140F22A4079
:102D400002F09EF8A8BBCDE9006560070BD59DF8A1
:102D5000000040F001008DF800009DF8040040F0F4
:102D600001008DF80400A0060BD59DF8010040F08D
:102D700001008DF801009DF8050040F001008DF87C
:102D80000500E0050BD59DF8020040F001008DF82C
:102D900002009DF8060040F001008DF806006A462A
:102DA00003214FF4886002F06BF810B901AA0321E7
:102DB00000E004E040F2314002F062F818B1384619
:102DC00004B0BDE8F081064804810020F8E7000067
:102DD0004CCD6C000CC92C00365676002646660099
:102DE0003C1000204FF47A7290FBF2F008B5484393
:102DF000010E8DF80010010C8DF80110010A8DF8FC
:102E000002108DF803006A4604214FF4AE7002F000
:102E100037F808BD0521B0FBF1F008B5010A8DF8BF
:102E200000108DF801006A4602214FF4AD7002F0E7
:102E300027F808BD0521B0FBF1F008B5010A8DF8AF
:102E400000108DF801006A4602214FF4AC7002F0C8
:102E500017F808BD08B500218DF80010C10702D091
:102E600030218DF80010810705D59DF8001041F044
:102E70000C018DF80010400705D59DF8000040F0CA
:102E800003008DF800006A4601214FF4A47001F0A0
:102E9000F7FF08BD08B560B1042800D90420401E22
:102EA0008DF800006A46012140F24F1001F0E8FF62
:102EB00008BD0120F3E7000070B504462DED028B3C
:102EC00082B040074FF0FF357ED0B1F5C86F7BD898
:102ED00000EE101AB8EE400ADFED460A01A880EEB7
:102EE000208A01F047FA9DF80400022806D0042841
:102EF00010D0082835D0102874D13EE09FED3E0A4E
:102F000028EE000ABCEEC00A10EE100A9FED3B0A44
:102F100082B20AE09FED3A0A28EE000ABCEEC00A2F
:102F200010EE100A9FED370A82B228EE000A6E46B4
:102F3000BCEEC00A10EE100A81B2100A8DF8000033
:102F40008DF80120080A8DF802008DF80310E007C3
:102F500026D0324602214FF4EA7001F091FF98BB6F
:102F600017E09FED290A28EE000ABCEEC00A10EE19
:102F7000100A9FED260A82B2D7E79FED250A28EEB8
:102F8000000ABCEEC00A10EE100A9FED220A82B2BF
:102F9000CBE7B21C02214FF4927001F071FF98B997
:102FA000A0070DD56A4602214FF4EC7001F068FFCE
:102FB00050B9B21C02214FF4947001F061FF18B9AE
:102FC000600714D56A4600E00CE002214FF4EE7071
:102FD00001F056FF30B9B21C02214FF4967001F097
:102FE0004FFF20B1284602B0BDEC028B70BD00201F
:102FF000F9E700000000484300008046000040461A
:10300000000000460000C04500008045000040452B
:10301000000000450000C0440521B0FBF1F008B5F8
:10302000010A8DF800108DF801006A4602214FF464
:10303000EF7001F025FF08BD0521B0FBF1F008B5E8
:10304000010A8DF800108DF801006A4602214FF444
:10305000ED7001F015FF08BD0E4910B50A784C78E7
:103060000023A24212D0521CD2B20A70022A00D10E
:103070000B70084A0B780C3252F8232002608868E3
:10308000104420F07F408860012010BD03600020C4
:1030900010BD000010000020826883881A40036879
:1030A0009A5C0A708168491C81607047C268838895
:1030B0001A4003689954C168491CC160704710B533
:1030C0000446C0B2FFF7ECFA204610BD10B5002848
:1030D00021D0114B0022001F196803E0814203D860
:1030E0000A4649680029F9D152B11368841A9C42F2
:1030F00004D1006818441060104602E0506000E0FF
:10310000186039B102680B1A934203D10B681A4454
:1031100002604968416010BD88000020054910B573
:1031200001200860012001F0F1FE0028FAD10249D7
:10313000487010BD04000040100600202DE9F8433F
:103140008046994614460F4642F21076501C01F014
:103150009DF8054600F8017B22464946FDF748FDEB
:103160000027641CE3B22A4641460E48009702F04D
:10317000FFF9040003D00CA0FEF73EFA04E00F486C
:10318000017839B146B107702846FFF79FFF204606
:10319000BDE8F883761EF3D12846FFF797FF0D2090
:1031A000F6E70000B0690000777269746520636F0C
:1031B0006D706C6574656421000000000D000020D6
:1031C00070B50E460446007918494FF4A27501EB1C
:1031D0004010017F2068A1B14FF4887102F019FE00
:1031E0004FF49071206802F014FE4FF49271206841
:1031F00002F00FFE2946206802F00BFE0C49206801
:1032000009E04FF48E7102F0F3FD2946206802F0C8
:10321000EFFD08492068C0F80413206802F05FF849
:103220003146BDE8704002F03EB800003406002090
:10323000100302008000020070B5044600F0030095
:103240000E4652F8200061074FF0FF3501D52946A0
:1032500000E001214843314600F07FFA1860C4F3D2
:10326000C100A10652F8200001D5294600E0012145
:103270004843314600F071FA5860C4F38110E1050B
:1032800052F8200000D401256843314600F065FA69
:10329000986070BD10B5014648220C48FDF7A8FCA7
:1032A0000A49F43901F5A070D1F830214263D1F810
:1032B00034218267D1F83811C0F8BC10032902D13B
:1032C000012000F0AFFC002010BD0000E40B002046
:1032D00010B548220249FDF78BFC002010BD00000C
:1032E000E40B002010B528210348FDF7A8FCBDE839
:1032F0001040024800F038BC4C100020493C00004F
:1033000010B500F0E5F9002804D1BDE810400248EE
:1033100000F02ABC10BD0000A53C000070B50025DF
:103320002C46084E08E000BF06EB8400406880474A
:1033300008B105B90546641C3068A042F4DC284693
:1033400070BD0000500E00202DE9F041264A0446D1
:10335000A2F114014FF47A75A1F1100000F02CF9DC
:103360002149206B2439C7054861636F8B61D4F80C
:10337000B820CA6101D5E56A0026DF0504D5276FAC
:10338000AF4201DA3D460126D70505D5D4F8B47021
:10339000AF4201DA3D460226D4F820715FEAC75CED
:1033A00003D5D4F82CC1AC4518DB012E08D0022E71
:1033B0000ED0032E12D0C0F380100862A06B03E081
:1033C000C3F380100862E06F48620020BDE8F0811E
:1033D000C2F380100862D4F8C000F5E7C7F380108C
:1033E0000862D4F82401EFE7701000200249C1F808
:1033F0008000002070470000C80D00200148806F49
:1034000070470000300C00200248B0F87400C0F390
:1034100000207047300C002030B518B1074D38CD72
:1034200080E8380005485C380AB1C36F1360002992
:1034300002D090F87800087030BD00008C0C00209D
:103440000248B0F8B800C0F300207047300C0020EC
:1034500070B5134C0546E168606800F078F90646DF
:103460002168A06800F073F9301A2860D4E90201DD
:1034700000F06DF90646D4E9001000F068F9304418
:103480006860E068014600F062F90646206801467F
:1034900000F05DF93044A0F18040A860002070BDCC
:1034A000C80D00200148406B70470000300C002020
:1034B00010B518B1054C1CCC80E81C00002903D0C5
:1034C0000348D0F80C01086010BD0000F00B00208C
:1034D000F00A00200248008EC0F300207047000070
:1034E000300C002010490020B1F87420D20500D51E
:1034F000C86F0A8ED20503D58A6B824200D9104666
:10350000B1F8B820D20504D5D1F8C020824200D944
:103510001046B1F8FC20D20504D5D1F8041181423F
:1035200000D9084670470000300C00203EB504006A
:1035300017D000221146FFF76FFF6846FFF788FF9C
:1035400020680099A0EBA130206060680199A0EB91
:10355000A1306060A0680299A0EBA130A0600020BB
:103560003EBD05203EBD00000448D0F83C0108B136
:10357000002070470248D0F8BC007047F00A0020D5
:10358000300C002070B50B4C054694F87C00800789
:103590000AD0224602F1100101F1300000F039F9A1
:1035A000E06F20F00300E06794E80F0085E80F006B
:1035B000002070BDC80D002070B515460C46FFF701
:1035C000E1FFFFF78FFF2860FFF73AFF10B1FFF729
:1035D000CBFF04E0FFF77EFF18B1FFF763FF206029
:1035E00070BDFFF711FF0028F9D0FFF707FFF6E7DE
:1035F000F0B5054B93E8F00080E8F000187C087007
:10360000586A1060186AF0BD4C10002010B54FF4D5
:10361000A0710948FDF713FB4FF4CC710748FDF783
:103620000EFB00F0B1FABDE810404DF293034822C2
:103630000349044800F062BAF00A0020300C002070
:10364000D13200009532000010B500F063F800F0B0
:1036500057F850B100F054F82223134A13A1FEF793
:103660004BFABDE8104000F04BB8FFF7CFFF50B168
:10367000FFF7CCFF25230C4A0CA1FEF73DFABDE86D
:103680001040FFF7C3BFFFF73BFE00280AD0FFF74B
:1036900037FE2723044A05A1FEF72EFABDE81040A5
:1036A000FFF72EBE10BD0000486A00002E2E5C2ED3
:1036B0002E5C2E2E5C654D442D362E305C636F7271
:1036C000655C6D6C6C6974655C6D706C2E6300007C
:1036D00010B588210848FDF7B2FA07484FF080413D
:1036E0009FED060A41638163C1630164016101606A
:1036F00080ED210A002010BDC80D0020DB0F4940DD
:1037000010B554210248FDF79AFA002010BD0000C0
:10371000500E002010B54FF4CC710348FDF78FFA1E
:1037200001490C20486010BDA40E002070B504466D
:1037300000F054FA0546E01C00F050FA45EAC005D6
:10374000A01D00F04BFA45EA801080B270BD80FBEE
:103750000101400F40EAC100704780FB0101800F6A
:1037600040EA8100704710B503680C682344136079
:1037700043684C682344536083688C682344936097
:10378000C068C9680844D06010BD90ED000AD1ED52
:10379000000A30EE200A82ED000A90ED010AD1ED18
:1037A000010A30EE200A82ED010A90ED020AD1ED05
:1037B000020A30EE200A82ED020A90ED030AD1EDF2
:1037C000030A30EE200A82ED030A704702680A609D
:1037D000426852424A60826852428A60C0684042EF
:1037E000C860704790ED000A81ED000A90ED010A73
:1037F000B1EE400A81ED010A90ED020AB1EE400AF5
:1038000081ED020A90ED030AB1EE400A81ED030A50
:10381000704730B50B46044609680068FFF79DFF06
:10382000054659686068FFF798FF2D1A9968A068E7
:10383000FFF793FF2D1AD968E068FFF78EFF281A6B
:10384000106059682068FFF788FF054619686068AE
:10385000FFF783FF0544D968A068FFF77EFF0544A2
:103860009968E068FFF779FF281A50609968206826
:10387000FFF773FF0546D9686068FFF76EFF2D1AE2
:103880001968A068FFF769FF05445968E068FFF709
:1038900064FF28449060D9682068FFF75EFF054602
:1038A00099686068FFF759FF05445968A068FFF7F9
:1038B00054FF2D1A1968E068FFF74FFF2844D060C5
:1038C00030BD90ED000AD1ED000A91ED011A20EE15
:1038D000200AD0ED010A00EEC10AD0ED020A91EDF6
:1038E000021A00EEC10AD0ED030A91ED031A00EEB0
:1038F000C10A82ED000A90ED000AD1ED010A91EDB6
:10390000001A20EE200AD0ED010A00EE810AD0ED67
:10391000020A91ED031A00EE810AD0ED030A91ED3F
:10392000021A00EEC10A82ED010A90ED000AD1ED03
:10393000020A91ED031A20EE200AD0ED010A00EEF2
:10394000C10AD0ED020A91ED001A00EE810AD0ED15
:10395000030A91ED011A00EE810A82ED020A90ED50
:10396000000AD1ED030A91ED021A20EE200AD0EDF3
:10397000010A00EE810AD0ED020A91ED011A00EE73
:10398000C10AD0ED030A91ED001A00EE810A82ED22
:10399000030A704710B590ED000AD0ED010A044605
:1039A00020EE000A00EEA00AD0ED020A00EEA00A06
:1039B000D0ED030A00EEA00AFDF7C4FFB5EEC00A81
:1039C000F1EE10FA18D0D4ED000A80EE801A84EDE2
:1039D000001AD4ED010A80EE801A84ED011AD4EDAC
:1039E000020A80EE801A84ED021AD4ED030A80EEFA
:1039F000801A84ED031A10BDB7EE000A84ED000AA8
:103A00009FED040A84ED010A84ED020A84ED030AA5
:103A100010BD00000000000030B590B00546002049
:103A20001446009007C901AB83E8070008AA69465D
:103A30002846FFF7EEFE0CA92846FFF7C7FE04AAAA
:103A40000CA908A8FFF7E5FE05AB93E8070084E89A
:103A5000070010B030BD00002DE9F047244B0546AB
:103A60009146002002461C680EE000BF02EB4206B1
:103A700003EB86067768AF4202D0B6688E4202D169
:103A80000520BDE8F087521C9442EFDC132C27DCA4
:103A900000220CB918E0521C944206DD02EB4206EB
:103AA00003EB8606B6688E42F5DB94420AD10BE042
:103AB00004EB440603EB8606083E641EB6E880115C
:103AC00086E880119442F3DC02EB420203EB8202AF
:103AD000C2F80C90C2E901511968491C1960D0E77D
:103AE000044A05A10620FDF735FD0620C9E70000C0
:103AF000F00A0020FC7600004D504C00F0B5194C47
:103B00000025266809E000BF05EB450704EB8707A1
:103B1000D7F8B0709F4204D06D1CAE42F4DC142E76
:103B200001DB0520F0BD06EB460504EB8505C5F875
:103B3000B030236803EB430304EB8303C3F8A820EE
:103B400023680C3204EB83039860206804EB800048
:103B500081656068104460602068401C206000201F
:103B6000F0BD0000A40E002006490A68142A01DBFB
:103B70000520704701EB820250600868401C086015
:103B800000207047500E002010B59FED110A114C17
:103B9000002000BF04EB8001401C81ED5B0A092876
:103BA000F8DB24210C48FDF74AF80020B7EE000AA4
:103BB0004FF0804204EB0011401C81ED5B0AC1F81C
:103BC00048210328F6DB0020C4F8900110BD000056
:103BD00000000000300C0020780D002090F900104B
:103BE000002902DD4FF00000704702DA4FF00400B8
:103BF000704790F90110002902DD4FF00100704775
:103C000002DA4FF00500704790F90200002802DD4B
:103C10004FF00200704702DA4FF0060070474FF095
:103C2000070070470149086770470000C80D002071
:103C300004494FF47A72C1F8280190FBF2F0C1F800
:103C40002C017047300C002007224FF461710148AD
:103C5000FFF702BF4933000010B5FFF75FFB0028F4
:103C60000AD0FFF75BFB4223044A05A1FDF744FF9E
:103C7000BDE81040FFF752BB10BD0000556A0000C0
:103C80002E2E5C2E2E5C2E2E5C654D442D362E3055
:103C90005C636F72655C6D6C6C6974655C6D706C97
:103CA0002E63000010B507224FF448710248FFF759
:103CB000D3FE002010BD0000ED33000030B5064AF1
:103CC00052F87C3F43F0020342F8583939C842F8B1
:103CD000141982E8390030BDC80D002030B51149F3
:103CE00000220B681AE000BF02EB420401EB8404DF
:103CF0006468844211D10868521C90420ADD02EBCC
:103D0000420001EB8000001D90E838000C3880E88C
:103D10003800F0E7401E086002E0521C9342E3DCEA
:103D2000002030BDF00A002010B5104C00212268A0
:103D300018E000BF04EB81035B68834211D1501E81
:103D4000884209D0501A820004EB810000F108017A
:103D5000001D121FFCF74CFF2068401E2060002051
:103D600010BD491C8A42E5DC052010BD500E002024
:103D70002DE9FF470D464FF492770446394602F08D
:103D800027F84FF002094FF001084FF4827640B156
:103D90003946204602F021F83146204602F018F854
:103DA000B0B3B2463146204602F012F84FF0FF366B
:103DB000002770B35146204602F00FF805F10C00C1
:103DC00001AB07C883E8070095F8230078B1287B8A
:103DD00001282DD0D4F84C05C0B28DF80600287B00
:103DE000022828D0D4F84C05C0B28DF807004FF453
:103DF000B071204601F0F1FF4FF4AE71204601F0A2
:103E0000ECFF95F8250080B395F8230068BB3CE0F3
:103E100000E013E0A868C4F80803C5F80890A86893
:103E2000C4F80403C4F82080C4F81480BDE8FF87F8
:103E3000D4F83C05D0E7D4F83C05D5E74FF4A4719D
:103E4000204601F0CAFF287B80B14FF40070C4F80F
:103E50000002801CA860C4F80863A868C4F80403C2
:103E6000C4F80880C4F82080E0E708E005F10C0001
:103E700001AB07C883E8070095F8250028B90020A2
:103E8000C4F80002AF60C4F80863D4F8C404C4F8EE
:103E9000C404810702D58DF8008006E0400702D5F2
:103EA0008DF8009001E08DF8007095F8250008B9B4
:103EB00085F82470D5E9002168469047B6E7026886
:103EC000134602E08A4204D01268002AFAD10B603D
:103ED000016070472DE9F047394E002780463D4686
:103EE000DFF8E090D6F804A057E003D00446D0F8FD
:103EF0001C8035E099F8002002EB4201521CD2B23E
:103F000089F8002009EBC10199F80230091D9A4295
:103F100001D189F8005048680A780446012A12D075
:103F2000022A02D0032A3BD108E002F087F900B14F
:103F30000127257434E00574C06900E0706800282A
:103F4000F9D170602CE0207C50BB88686060C86844
:103F5000A0600869E0604869A061F07800B1656020
:103F60006268B168184B501A20F07F40984202D224
:103F7000A168084406E0881AA16820F07F408142C9
:103F800002D9081A206000E0256065600120A56064
:103F900020742046E56102F033F9B8F10000A4D1A5
:103FA00099F8001099F801008142A3D117B97168FE
:103FB000514502D00120BDE8F0870020FBE700005A
:103FC0001000002054060020FFFF7F0008B59DF878
:103FD000000020F00F0040F01000801D8DF8000060
:103FE000684600F051FB002801D0FEF749FA08BDF1
:103FF00086B002F01DFB00F0CBFEFFF7E7FF01F0FB
:10400000F1F808B1FEF73CFA002001F011F9FEF7D3
:1040100083FA08B1FEF734FA4A4A01214A48FEF70A
:1040200069FA08B1FEF72CFA474800224FF4340130
:104030000068FEF79BFA08B1FEF722FA01A800F02B
:10404000C9F910B141A0FDF7D7FAFFF7FDFA10B991
:1040500046A0FDF7D1FAFCF797FDFFF743F910B141
:1040600046A0FDF7C9FAFFF7F7FD4C4D322807D0FF
:1040700068B14BA0FDF7C0FA284600F05BFF09E0ED
:104080004EA0FDF7B9FA284600F054FFF8E750A01B
:10409000FDF7B2FA792000F0E1FDFEF7D5FD010051
:1040A00003D04FA0FDF7A8FA02E058A0FDF7A4FA4C
:1040B0005B48FFF73BFBFEF70FFE5A48FEF7D4FDC7
:1040C0005948FEF7CBFD594D40F27310A883FEF717
:1040D00093FC1420FEF7CEFD4CF25030FFF7A8FD04
:1040E000012000F08BFC0120A870FCF73CFD10B90A
:1040F0004FA0FDF781FADFF850814FF0A0454FF453
:104100000056684600F0F8F804AA03A92046FFF715
:104110006FFA07464DA00099FDF76EFA3A4651A096
:104120002168FDF769FAD5F8040526EA0001C5F80B
:10413000081500F40050C5F80C05404600F0FAFEE2
:10414000DFE700007F61000084690000436F756C49
:1041500064206E6F7420696E697469616C697A6538
:1041600020746865206D70752E0A00004D504C203B
:10417000696E697469617465640A0000656E6162E4
:104180006C655F654D504C5F6F757470757473200E
:104190006661696C656421202F6E000000CA9A3B3D
:1041A000436F756C64206E6F742073746172742039
:1041B000746865204D504C2E0A0000004E6F74202C
:1041C000617574686F72697A65642E0A0000000078
:1041D0004D504C20737461727473212E0A000000DC
:1041E000436F756C64206E6F7420646F776E6C6FB4
:1041F000616420444D50212121204572726F72204C
:10420000436F64653A202564200A0000444D502025
:10421000646F776E6C6F6164656421200A00000032
:10422000040000207D61000011240000B400002083
:104230007175617465726E696F6E207374617274EA
:1042400073212E0A00000000A086010054696D65EC
:104250007374616D703A20543A20256C64203B20C1
:10426000200A2000526177207175617420646174A6
:10427000613A20256C64203B20557064617465644C
:104280003F3A202564203B200A200000F0B50B3087
:10429000154D20F007010024144A0FE003688B42FB
:1042A0000BD38B4205D95E1A43184768C3E90067F0
:1042B00000E04368136002C004E0021D106800289B
:1042C000ECD12046002802D1286808B10020F0BDBA
:1042D000064A07481060074A121A22F00702C0E98E
:1042E000002401202860D7E78C00002088000020EF
:1042F000E4100020E030002010B50446FEF7F4F88A
:1043000000EB4001C1EBC0104FF4804101EBC00055
:10431000C00B206010BD01460422192001F076B8C0
:104320002DE9F041124C20F00101002594F8240001
:1043300010B10020BDE8F081A07A4FF0FF3668B1DF
:104340000840277C2074884200D0354641B10120C6
:1043500001F0F6FD00F0DAF938B127743046E9E7EC
:10436000207D00B1012001F0EBFD2846E2E70000CE
:104370004C0000200D494A7A42B1012A08D0022A95
:104380000FD0032A0FD04FF0FF307047022200E019
:1043900004220270C97C11B11106C90D0170002000
:1043A00070470822F5E71022F3E700004C000020D8
:1043B00010B500F0A7FF00280BD10721682001F0FD
:1043C0004FF8002805D10121BDE810406B2001F015
:1043D00047B810BD7CB5344C80208DF800002068B3
:1043E0006B460122417D60680078FEF7A7FE4FF022
:1043F000FF36002851D1642000F096FD00258DF88D
:10440000005020686B460122417D60680078FEF70D
:1044100095FEE8BBE57440208DF8000020686B46EF
:104420000122017A60680078FEF788FE80BBFF20D9
:1044300004F80A0F310C04F8020C04F8010C607047
:10444000A180A0712072E1830120A07020766576A2
:10445000E572A572E56025616561A576E576A583BF
:104460004FF4FA6000F006FB90B9022000F0FEF96C
:1044700070B92A2000F066FB50B9322000F0A6FB8C
:1044800030B90020FFF74CFF10B901F085FD00E0C6
:1044900003E00A2000F08CFA08B130467CBD002011
:1044A00000F0DCFB00207CBD4C00002001783720B0
:1044B00000F0D6BF2DE9F04FDFF8B480064685B096
:1044C00098F825009B4615460F4620B14FF0FF3067
:1044D00005B0BDE8F08F0FB100242BE06FF00100B4
:1044E000F6E7301B102800DD102080B282463A1912
:1044F00001469146204600F0C3FC010005D01DA0F6
:10450000FDF77AF86FF00200E2E76A46514620466E
:1045100000F0D2F810B16FF00300D9E748465246D8
:104520006946FCF79EFB10B16FF00400D0E704EB86
:104530000A0084B2B442D4D3280A8DF810008DF852
:104540001150D8F80000444604AB417FD8F804006D
:1045500002220078FEF7F2FD10B16FF00500B7E718
:10456000012084F82500A4F826B00020B0E7000060
:104570004C0000206D70755F77726974655F6D65C2
:104580006D2072657475726E206572726F72206331
:104590006F64653A202564200A0000002DE9F84385
:1045A00005464FF0FF3828285FD80727354C0026EE
:1045B00055B1012000F094FA012D17D0022D17D02B
:1045C000052D17D804201CE0002000F089FA8DF892
:1045D00000608DF8017020686B460222417D6068A2
:1045E0000078FEF7ABFDE0BB267549E0022008E04D
:1045F000032006E00A2D01D8052002E0142D03D87F
:1046000006208DF8000001E08DF8007020686B46F0
:104610000122417A60680078FEF790FD08BB2068AF
:104620006B460122017A6068007800F0F3FBC0B9A4
:104630009DF800006B4640F008008DF800002068EF
:104640000122017A60680078FEF778FD48B92020E1
:104650008DF8000020686B460122417D606800787B
:1046600000E002E0FEF76AFD10B14046BDE8F883C5
:104670000820A0722673012020750020FFF750FE4D
:104680000020F3E74C00002038B5044601226946BB
:10469000372000F051FE9DF8000040F002008DF838
:1046A00000006846FFF702FF002803D121780A20A6
:1046B00000F08CFE38BD0000F8B515000E464FF036
:1046C000FF371FD0104CA17AE1B1010A8DF800101C
:1046D000C0B28DF80100811960684289914211D8F9
:1046E000216800786B46C97E0222FEF727FD48B993
:1046F00020682B463246017E6068007800F08AFB15
:10470000002800D03846F8BD4C000020F8B5564CC3
:104710004FF0FF36A07A00287DD000258DF800509C
:1047200020686B460122417C60680078FEF706FD38
:10473000002870D120686B460122417960680078BA
:10474000FEF7FCFC002866D120686B460122017947
:1047500060680078FEF7F2FC00285CD194F8240031
:10476000E0B30C208DF8000020686B46012201792F
:1047700060680078FEF7E2FC002872D1322000F079
:10478000D3FBC0208DF80000A07AC00702D0E02043
:104790008DF8000020686B4601220179606800787E
:1047A000FEF7CCFC00285CD1607C18B102208DF8AB
:1047B000000001E08DF8005020686B460122417C2A
:1047C00060680078FEF7BAFC28BB8DF800502068BE
:1047D0006B4601224179606800783EE0FFE70420E3
:1047E0008DF8000020686B4601220179606800782E
:1047F000FEF7A4FC78B9A07C90B9A07AC0070FD0CE
:104800005FF060008DF8000020686B46012201799E
:104810006068007800E024E0FEF790FC08BB01E04F
:104820004020EFE7322000F07FFB607C18B10120D0
:104830008DF8000001E08DF8005020686B460122E1
:10484000417C60680078FEF779FC50B92068064B1F
:1048500001224179606810330078FEF76FFC002870
:1048600000D03046F8BD00004C00002038B5184C90
:104870004FF0FF35A17A19B3022806D0042806D0DC
:1048800008280ED010281BD10DE0002000E00820E1
:104890008DF80000607A9DF80010B0EBD10F04D0C5
:1048A00005E01020F4E71820F2E7002038BD20686A
:1048B0006B460122C17960680078FEF73FFC08B1C1
:1048C000284638BD9DF80000C0086072EDE7000082
:1048D0004C000020F8B5354C0546A07CA84201D11B
:1048E0000020F8BD31484FF0FF366B46D0E900108C
:1048F0004FF001020979007835B300F08BFA70BBF4
:104900009DF800006B4620F020008DF80000206824
:104910000122017960680078FEF710FCF8B90320E5
:1049200000F002FB02208DF8000094F8220078B31A
:1049300082202BE020686B460122C17D60680078F0
:10494000FEF7FCFB58B92EE000F064FA38B9A07A03
:10495000C0079DF8000003D040F0200002E00CE00A
:1049600020F020008DF8000020686B4601220179BC
:1049700060680078FEF7E2FB08B13046F8BD03201E
:1049800000F0D2FA94F8220000B180208DF80000E7
:1049900094F823000028CDD09DF8000040F03000AE
:1049A0008DF80000C6E7A5749AE700004C000020CF
:1049B00038B54FF0FF35A0B10F4CE189814210D3DB
:1049C00064280ED8B1FBF0F0401E8DF8000020687E
:1049D0006B46012290F8241060680078FEF7AEFB69
:1049E00008B1284638BD9DF80000E189401CB1FBA4
:1049F000F0F02085002038BD4C00002038B51C4C5C
:104A000094F8241081421DD0002500B394F82500AD
:104A1000D0B1002001F094FA0020FFF75BFFE08C9A
:104A200000F0D4F88DF8005060686B4601220078E1
:104A30002321FEF783FB012084F8240001F080FA93
:104A4000FFF764FE002038BD4FF0FF3038BD002076
:104A500001F076FA207C8DF8000060686B46012238
:104A600000782321FEF76AFB84F82450E8E7000071
:104A70004C00002038B5194C4FF0FF35A17A31B306
:104A8000FA2809D0B0F5FA7F08D0B0F57A7F0FD0B8
:104A9000B0F5FA6F1BD10DE0002000E008208DF882
:104AA0000000207A9DF80010B0EBD10F04D005E093
:104AB0001020F4E71820F2E7002038BD20686B468C
:104AC0000122817960680078FEF738FB08B128463A
:104AD00038BD9DF80000C0082072EDE74C000020B2
:104AE00038B5174C054694F82300A84201D10020A0
:104AF00038BD0DB1302000E000208DF80000A07C12
:104B000028B19DF8000040F002008DF8000094F8F4
:104B1000220028B19DF8000040F080008DF80000D0
:104B200020686B460122C17D60680078FEF706FBB5
:104B300010B14FF0FF3038BD84F82350D7E70000A4
:104B40004C00002038B5204C4FF0FF35A17AA9B3B6
:104B5000BC2801D3012010E0622801D302200CE020
:104B60002A2801D3032008E0142801D3042004E0FC
:104B70000A2801D3052000E006208DF80000E07A25
:104B80009DF80010884201D1002038BD20686B4696
:104B90000122817860680078FEF7D0FA70B99DF83C
:104BA00000006B4640F040008DF8000020680122B4
:104BB000017A60680078FEF7C1FA08B1284638BD6E
:104BC0009DF80000E072DFE74C000020F8B5224DB0
:104BD00004464FF0FF37A87A48B395F8240030BB5D
:104BE000287D4FF47A7648B164B1282C03D820464A
:104BF000FFF7D4FC2DE00020FFF7D0FC042C05D2F9
:104C0000042406E00020FFF7C9FCF9E7B44200D90C
:104C10003446B6FBF4F0401E8DF8000028686B4661
:104C20000122417868680078FEF788FA08B13846B2
:104C3000F8BD9DF80000401CB6FBF0F0E881288D1F
:104C4000642800D36420FFF7B3FEE8894008FFF72B
:104C500079FF0020F8BD00004C0000202DE9FC4148
:104C6000044610F0700F4FF0000601D0012004E060
:104C700014B18DF8006002E040208DF80000434D33
:104C80006B4601222868417D68680078FEF756FA75
:104C90004FF0FF3708B1AE726EE09DF8000020F0D3
:104CA000400028738DF80060600602D404208DF85F
:104CB0000000A00605D49DF8000040F002008DF829
:104CC0000000E00605D49DF8000040F001008DF8DA
:104CD0000000200705D49DF8000040F038008DF852
:104CE000000028686B460122817D68680078FEF725
:104CF00025FA0028CFD11CB1082C01D0FFF7F0FE17
:104D0000286801AB012201796868007800F082F818
:104D100090BBE00707D011208DF800009DF804003B
:104D200040F0200006E010208DF800009DF80400FF
:104D300020F020008DF8040095F8240000289DF84C
:104D4000040002D040F0800001E020F080008DF8E7
:104D5000040028686B46012290F8261068680078E5
:104D6000FEF7ECF940B9286801AB012201796868C7
:104D70000078FEF7E3F910B13846BDE8FC81AC726B
:104D80002E75322000F0D0F80020F6E74C0000200D
:104D900038B513A0FCF730FCFFF70AFB044616A059
:104DA000FCF72AFC200001D0FDF76AFB1848406898
:104DB000009013208DF800009DF8030020F01800EB
:104DC0008DF803009DF8020040F018008DF80200F5
:104DD0006846FFF7A0FA002801D0FDF751FB38BD67
:104DE0000D0A4D505520736574757020737461728F
:104DF000742E2E2E200D0A000D0A4D505520696E7E
:104E0000697420636F6D706C65746521200D0A00F4
:104E1000846900002DE9FF4782B099461746824613
:104E200042F210744FF0000801462646012303AAFF
:104E30001148CDF8008000F09BFB002812D10F4DE7
:104E4000287890B1B6B185F80080FBB24A46514649
:104E5000094800F07BFB002804D1697841B14CB1CE
:104E600085F8018006B0BDE8F087761EE8D101E044
:104E7000641EF2D10D20F5E7B06900000D0000209E
:104E8000F8B516000D4610D0174CA17A81B1010A71
:104E90008DF80010C0B28DF8010041196068428998
:104EA000914208D96FF00200F8BD4FF0FF30F8BD15
:104EB0006FF00100F8BD216800786B46C97E0222C0
:104EC000FEF73CF910B16FF00300F8BD2068EAB2BC
:104ED0003346017E60680078FEF730F90028F4D090
:104EE0006FF00400F8BD00004C00002000F180408D
:104EF0000068002800D00120704708B500F180400C
:104F0000002101600068009008BD000005490968A3
:104F100040F4803001F00111814201D1012070473D
:104F2000002070470C0400404FF47A71484300F0B1
:104F3000D3B8000000283ED01F49204A096800BFAE
:104F400000BF00BF00BF00BF00BF00BF00BF914255
:104F50002FD000BF00BF00BF00BF00BF00BF00BF19
:104F600000BF00BF00BF00BF00BF00BF00BF00BF49
:104F700000BF00BF00BF00BF00BF00BF00BF00BF39
:104F800000BF00BF00BF00BF00BF00BF00BF00BF29
:104F900000BF00BF00BF00BF00BF00BF00BF00BF19
:104FA00000BF00BF00BF00BF00BF00BF00BF00BF09
:104FB00000BF401EC3D17047840000200024F400CD
:104FC00000283ED01F49204A096800BF00BF00BF2B
:104FD00000BF00BF00BF00BF00BF91422FD000BF85
:104FE00000BF00BF00BF00BF00BF00BF00BF00BFC9
:104FF00000BF00BF00BF00BF00BF00BF00BF00BFB9
:1050000000BF00BF00BF00BF00BF00BF00BF00BFA8
:1050100000BF00BF00BF00BF00BF00BF00BF00BF98
:1050200000BF00BF00BF00BF00BF00BF00BF00BF88
:1050300000BF00BF00BF00BF00BF00BF00BF401ED9
:10504000C3D17047840000200024F40000283ED023
:105050001F49204A096800BF00BF00BF00BF00BF52
:1050600000BF00BF00BF91422FD000BF00BF00BFF4
:1050700000BF00BF00BF00BF00BF00BF00BF00BF38
:1050800000BF00BF00BF00BF00BF00BF00BF00BF28
:1050900000BF00BF00BF00BF00BF00BF00BF00BF18
:1050A00000BF00BF00BF00BF00BF00BF00BF00BF08
:1050B00000BF00BF00BF00BF00BF00BF00BF00BFF8
:1050C00000BF00BF00BF00BF00BF401EC3D170477C
:1050D000840000200024F40000283ED01F49204A0C
:1050E000096800BF00BF00BF00BF00BF00BF00BF16
:1050F00000BF91422FD000BF00BF00BF00BF00BF64
:1051000000BF00BF00BF00BF00BF00BF00BF00BFA7
:1051100000BF00BF00BF00BF00BF00BF00BF00BF97
:1051200000BF00BF00BF00BF00BF00BF00BF00BF87
:1051300000BF00BF00BF00BF00BF00BF00BF00BF77
:1051400000BF00BF00BF00BF00BF00BF00BF00BF67
:1051500000BF00BF00BF401EC3D1704784000020C5
:105160000024F40010B50020FDF7B8FA06484168A5
:10517000491E4160406808B9FDF7D0FFBDE8104006
:105180000020FDF7ADBA00001006002070B5144DE8
:105190000446687838B114B161680020884700205F
:1051A000FDF79CFA13E00020FDF798FA24B10C48B3
:1051B00021460830FEF783FE686840B94FF48070DE
:1051C000FFF79BFE01208107C1F8040308606868AF
:1051D000401C6860BDE870400020FDF781BA000007
:1051E000100600202DE9F0410F4D0026287808B167
:1051F000852615E00024AC606C602C61EC604FF0FB
:10520000E020D0F80001012710F0010F03D10021A8
:10521000084600F048F80548046085F820402F70E3
:105220003046BDE8F081000010060020180500405F
:1052300070B5154D0446A87838B114B161680120E5
:1052400088470020FDF74AFA15E00020FDF746FAEE
:1052500024B10D4821461030FEF731FEE86850B900
:105260004FF48270FFF749FE02204107C1F80403A2
:10527000064901200860E868401CE860BDE870400D
:105280000020FDF72DBA00001006002008000040A5
:1052900000F01F02012191404009800000F1E02050
:1052A000C0F8801170474907090E002806DA00F09F
:1052B0000F0202F1E02282F8141D03E000F1E02267
:1052C00082F8001400F01F02012191404009800083
:1052D00000F1E020C0F88012C0F800117047000B08
:1052E00040B270470121B1EB507F01D101207047DE
:1052F000002070470121B1EB507F01D101207047A0
:10530000002070471FB50A4B0FCB8DE80F000848EF
:105310000023084A6946083800F0D2F8002804D172
:105320000348083800F0BCF8002004B010BD0000AD
:10533000B8690000A55300002DE9F74382B0174675
:10534000894642F210744FF000082646012302AA53
:1053500068211248CDF8008000F00AF9002812D127
:105360000F4D287890B1B6B185F80080FBB24A465F
:1053700068210A4800F0EAF8002804D1697841B1B0
:105380004CB185F8018005B0BDE8F083761EE8D108
:1053900001E0641EF2D10D20F5E70000B0690000C5
:1053A0000D000020017800290AD102790649012068
:1053B0002AB1012A05D0022A03D0032A00D108709D
:1053C00070474870704700000D0000207CB5002534
:1053D0008DF804008DF8051042F21074022301AA22
:1053E0000C210848009500F0C3F8002804D10649B4
:1053F0000A7812B11CB10D707CBD641EF8D10D206D
:105400007CBD0000B06900000D000020FEB5034621
:105410001048144642F2107500F8013BFBF7E8FB18
:1054200068208DF8010000260A488DF80060641C91
:1054300001908DF8024032466946074800F0AAF80C
:1054400006490A7812B11DB10E70FEBD6D1EF8D16D
:105450000D20FEBD00060020B06900000D000020F8
:105460007CB500258DF804008DF8051042F210740B
:10547000022301AA68210848009500F079F8002865
:1054800004D106490A7812B11CB10D707CBD641EAE
:10549000F8D10D207CBD0000B06900000D00002097
:1054A0000179064A01EB8101006802EBC101062285
:1054B000C0F80025022081F822007047D80500209E
:1054C00070B506460D4600791F4900EB800001EBE0
:1054D000C00494F8220008B1082070BD0020C4E97F
:1054E0000023A06084F8250084F82400A87B84F8B9
:1054F0002700687B10B1284600F00AFF296840F2B7
:105500000C60890001F1A041C1F8000769688900B9
:1055100001F1A041C1F80007D5E900123068C0F8D8
:105520000815C0F80C25A968C0F82415206828B112
:105530003068297B000B40B2FFF7B5FE012084F8EC
:105540002200002070BD0000D80500203EB5074DA8
:105550002C68AD6800948DF80110019202958DF8C9
:1055600002300022694600F015F83EBDA469000033
:105570003EB500250095069C8DF8011002958DF82A
:10558000023001920CB1202200E00022694600F0B6
:1055900001F83EBD30B40379064C03EB830304EB02
:1055A000C304006813460A460146204630BC00F09A
:1055B00001BF0000D80500202DE9F0410546007923
:1055C000164F904607EB40140E46E07E10B10820BF
:1055D000BDE8F081707F20772846FDF795F85FEAF7
:1055E000080060603169216003D0317F2846FDF7F3
:1055F000E7FD287907EB4010007F0028286801D0DC
:10560000082100E00421C0F800150020E075207694
:10561000A0750121E176A076DAE7000034060020CB
:105620002DE9F04105460079284E904606EB4014DE
:105630000F46207F18B10846FFF75CFE80B1626814
:1056400000234FF404704FF4017172B12A7906EB14
:105650004212127F002A2A6805D0C2F8080304E02B
:105660001020BDE8F081C2F80813E27DB2B1227EBD
:105670007AB162685AB12A7906EB4212127F1AB1E6
:105680002968C1F8040302E02868C0F80413112057
:10569000E7E72761012384F8188005E084F8178084
:1056A0000020E760607620762879424606EB4010BD
:1056B0003946007F0028284603D0BDE8F04100F0BD
:1056C00073B8BDE8F04100F01BB8000034060020BC
:1056D00070B504460079094D05EB4010017F0029A3
:1056E0000AD1807E002807D1204600F018FC2179DD
:1056F000012005EB4111887670BD000034060020C2
:105700002DE9F05F04460079264901EB4015A87E9B
:10571000184302D1204600F002FC68680028206887
:1057200006D04FF40171C0F804130020BDE8F09FCB
:105730004FF4A276314600F05BFBB1464FF4927A0B
:105740004FF4847B5146206800F04DFB06465946D5
:10575000206800F048FB80464946206800F043FB83
:10576000074648EA07003043ECD056EA070007D165
:105770002946206800F0AEFBE87D697E8842E1D8CA
:105780000020E8750EB10320D0E70FB10F20CDE760
:10579000A97E01200029216801D00860C5E7486082
:1057A000C3E70000340600202DE9F05F8946044677
:1057B0004FF488759A46904600260068294600F006
:1057C00028FB4FF4A2773946206800F022FB2068BE
:1057D000C0F83495C0F838852068BAF1000F14D0AD
:1057E000D0F8001241F02001C0F800122179DFF852
:1057F000648008EB4110406850B120684FF4047198
:10580000C0F804133046BDE8F09F01210160EDE7C8
:10581000AA46B9464FF4927B5146206800F0F4FA4C
:1058200007464946206800F0EFFA054659462068C9
:1058300000F0EAFA014647EA05000843ECD0237974
:10584000002208EB4310C27501B10326002DD9D008
:105850000F26D7E7340600202DE9F04705460079EA
:105860003F4E904606EB40140F46207F18B1084685
:10587000FFF740FD30B1284600F074F820B1112048
:10588000BDE8F0871020FBE784F81680A7600027AA
:10589000A78228794FF0010806EB40143E46207F8E
:1058A0000028286825D04FF49079494600F0B1FAD5
:1058B0004FF4AC7A5146286800F0ABFA2868A17D15
:1058C000A268C0F84425C0F848152868C0F80880C8
:1058D0006068F0B94946286800F096FA804651465B
:1058E000286800F091FA58EA0001F3D058BBA77578
:1058F0000FE04FF48E7A514600F07AFA2868C0F82B
:1059000008802146286800F075FE61684FF48070B9
:1059100089B13046B4E75146286800F064FA10B9FE
:10592000A08A4845F7D1A08A484505D02146286875
:1059300000F060FE00E08146A08AA17D8842EAD3A3
:10594000A08A484501D10F26D1E75146286800F0CA
:105950004AFA0028F9D02868C0F80C80C7E7000090
:10596000340600200079044901EB4010807D0028B6
:1059700000D00120704700003406002070B50446B6
:1059800000791149002601EB401520682A7FC0F8F4
:105990000065686888B1207901EB4010007F00281D
:1059A000206801D0094901E008498C39C0F8081382
:1059B0002068FFF794FCFFF76BFC204600F030FAFC
:1059C000EE766E6070BD0000340600201003020009
:1059D0002DE9FF411C46DDE90A7815460E4668466A
:1059E00000F05CF846EA450141EA840141EA0722F9
:1059F00042EA0841009A00EB8200C0F80017BDE8B7
:105A0000FF812DE9FF411C46DDE90A7815460E4667
:105A1000684600F051F846EA450141EA840141EA4E
:105A2000072242EA0841009A00EB8200C0F8001702
:105A3000BDE8FF811CB5002100910B4601220191B8
:105A4000FFF7DFFF1CBD1CB500220B46009211467C
:105A50000192FFF7D6FF1CBD1CB5002100910B463B
:105A6000012201911146FFF7CCFF1CBD01B568462C
:105A700000F006F8009A01219140C0F80C1508BD0D
:105A80000168202902D24FF0A040704701F01F01A9
:105A900001600148704700000003005001682029A0
:105AA00002D24FF0A040704701F01F010160014891
:105AB00070470000000300500168202902D24FF017
:105AC000A040704701F01F010160014870470000CD
:105AD0000003005001B56846FFF7D2FF009A01218C
