:020000040000FA
:1000000098250020150200001D0200001F020000BC
:100010002102000023020000250200000000000071
:1000200000000000000000000000000027020000A7
:1000300029020000000000002B0200002D02000039
:100040002F0200002F020000A5040000AD020000F6
:100050002F0200002F0200002F0200002F020000DC
:100060002F0200002F0200002F0200002F020000CC
:100070002F0200002F0200002F0200002F020000BC
:100080002F0200002F0200002F0200002F020000AC
:100090002F0200002F0200002F0200002F0200009C
:1000A0002F0200002F0200002F0200002F0200008C
:1000B0002F0200002F0200000000000000000000DE
:1000C0002F0200002F0200002F0200002F0200006C
:1000D0002F0200002F0200002F0200002F0200005C
:1000E0002F0200002F0200002F0200002F0200004C
:1000F000000000002F0200000000000000000000CF
:1001000000000000000000000000000000000000EF
:1001100000000000000000000000000000000000DF
:1001200000000000000000000000000000000000CF
:1001300000000000000000000000000000000000BF
:1001400000000000000000000000000000000000AF
:10015000000000000000000000000000000000009F
:10016000000000000000000000000000000000008F
:10017000000000000000000000000000000000007F
:10018000000000000000000000000000000000006F
:10019000000000000000000000000000000000005F
:1001A000000000000000000000000000000000004F
:1001B000000000000000000000000000000000003F
:1001C000000000000000000000000000000000002F
:1001D000000000000000000000000000000000001F
:1001E000000000000000000000000000000000000F
:1001F00000000000000000000000000000000000FF
:10020000DFF80CD000F040F800480047AD0D0000CA
:10021000982500200648804706480047FEE7FEE78D
:10022000FEE7FEE7FEE7FEE7FEE7FEE7FEE7FEE7A6
:10023000BD0200000102000040EA01039B0703D059
:1002400009E008C9121F08C0042AFAD203E011F815
:10025000013B00F8013B521EF9D2704730B50B4606
:10026000014600202022012409E021FA02F59D42E6
:1002700005D303FA02F5491B04FA02F52844151EBA
:10028000A2F10102F1DC30BD064C074D06E0E0684A
:1002900040F0010394E8070098471034AC42F6D3CD
:1002A000FFF7B2FF7C2100009C21000001490248B9
:1002B00000F058BC1C0500200030004030B54FF065
:1002C00080500022D0F830110123082902D1D0F843
:1002D000344114B1082909D00BE04FF08041C1F836
:1002E0000C21C1F8102161490A6005E0D0F83441C1
:1002F00014B1082957D059E05D4909685D4C216067
:100300005B49091D0968241D2160594908310968A4
:10031000241D216056490C310968241D216054496F
:1003200010310968241D2160514914310968241DC8
:1003300021604F49183109684E4C203421604C49E6
:100340001C310968241D2160494920310968241D98
:100350002160474924310968241D2160444928311E
:100360000968241D216042492C310968241D21603F
:100370003F49303109683F4C403421603C493431B9
:100380000968241D21603A4938310968241D21601B
:1003900037493C310968241D2160354940310968DD
:1003A000241D216005E0D0F8344114B1082904D09F
:1003B00006E0324C3049216005E0D0F8344114B1F8
:1003C000082904D006E02E4CFB21216005E0D0F87E
:1003D000344114B1082908D00EE090F85842294859
:1003E000016864F30301016002E0D0F8340118B938
:1003F00025494FF4007008602448016841F47001F9
:100400000160BFF34F8FBFF36F8F4FF01021D1F812
:100410000002002803DBD1F80402002822DA1C4C79
:1004200023601C480368002BFCD01223C1F8003263
:100430000568002DFCD0C1F8043201680029FCD009
:10044000226001680029FCD0BFF34F8F0F487C3831
:100450000168114A01F4E06111430160BFF34F8F5D
:1004600000BFFDE70E490D48086030BD380500406B
:100470000404001020C50040488103008C56004051
:1004800018F50040E40E00404096024088ED00E080
:1004900004E5014000E401400400FA050090D003A7
:1004A000180000200448017F04480029024901D0B7
:1004B00001F0B7BD01F026BD54050020002000402A
:1004C0000FB4054B10B503A9044A029800F018F8C0
:1004D00010BC5DF814FB0000DD0A000014000020D1
:1004E00002E008C8121F08C1002AFAD170477047FD
:1004F000002001E001C1121F002AFBD1704700005B
:100500002DE9FF4F8BB088460546002606E02528DA
:100510000BD0DDE90D1290476D1C761C2878002861
:10052000F5D10FB03046BDE8F08F0024A146A246B9
:100530000122AE4900E0044315F8013F203B02FAD6
:1005400003F00842F7D128782A2810D06FF02F0244
:100550002878A0F13001092915D809EB890102EBAF
:10056000410144F0020400EB01096D1CF0E758F86A
:10057000041B5FEA010903D544F40054C9F10009E2
:1005800044F002046D1C28782E2817D115F8010FAD
:1005900044F004042A280ED06FF02F022878A0F12E
:1005A000300109290AD80AEB8A0102EB410100EB6C
:1005B000010A6D1CF2E758F804AB6D1C28786C2812
:1005C0000FD006DC4C2817D068280DD06A2814D12B
:1005D00004E0742810D07A280FD10DE044F4001400
:1005E0000AE044F4801401E044F440146978814244
:1005F00002D104F580146D1C6D1C2878692865D023
:1006000006DC00288DD0632827D0642806D15DE061
:100610006E2808D073282AD0752877D0DDE90D120E
:100620009047761CE0E0C4F30250022809D003286A
:100630000DD0D8F8001004280DD00E6008F1040881
:10064000D2E0D8F80010F217C1E90062F6E7D8F856
:1006500000100E80F2E70E70F0E718F8041B8DF81A
:10066000001000208DF80100EB46012003E058F84F
:1006700004BB4FF0FF3061074FF0000701D40AE0E0
:100680007F1C57450DDA8742FADB1BF8071000295B
:10069000F6D106E07F1C8742FCDB1BF8071000291F
:1006A000F8D1DDE90D23A9EB07008146214600F0D2
:1006B000B1F83044C61904E0DDE90D121BF8010B56
:1006C00090477F1EF8D22146484688E058F8040B30
:1006D000C4F302514FF00A0B032900D100B20429E0
:1006E00000D140B2002802DA40422D2102E021056B
:1006F00005D52B218DF82410012104E006E0E10747
:1007000010D02021F6E708AF089113E058F8040B49
:10071000C4F302514FF00A0B032900D180B204291F
:1007200000D1C0B20021EEE75946FFF797FD303106
:1007300007F8011D0028F7D1ADEB070000F1200BF1
:10074000600702D524F4803401E04FF0010ADA4555
:1007500002DDAAEB0B0000E00020824600EB0B015B
:1007600008980144A9EB01000A90E00306D4DDE9F2
:100770000D2321460A9800F04DF806444FF0000979
:1007800008E009A911F80900DDE90D12904709F107
:100790000109761C08998945F3DBE0030CD5DDE9F6
:1007A0000D2321460A9800F035F8064404E0DDE9FF
:1007B0000D1230209047761CBAF10001AAF1010A0F
:1007C000F5DC05E0DDE90D1217F8010B9047761C0A
:1007D000BBF10001ABF1010BF4DC0A982146DDE925
:1007E0000D2300F005F806446D1C97E6092801006A
:1007F0002DE9F041044600251E461746880404D41E
:1008000005E039462020B0476D1C641EF9D5284606
:10081000BDE8F0812DE9F041044600251E469046D2
:10082000C80301D5302700E02027880404D505E05F
:1008300041463846B0476D1C641EF9D52846BDE8D0
:10084000F0810000BFF34F8F05480168054A01F4AD
:10085000E06111430160BFF34F8F00BFFDE700006F
:100860000CED00E00400FA050EB500210091CDE981
:1008700001106A4644F20100FFF7E4FF0EBD10B517
:100880008268C368934203D000F015F9002010BDC0
:10089000052010BD29B112B1531E134203D0092007
:1008A00070470E2070470160838000218160C16025
:1008B0000846704710B58268C3689A1A83889A42BE
:1008C00003D800F002F9002010BD042010BD000084
:1008D000F0B5284E89B01F460D00044672603BD02B
:1008E000A888296882B22448FFF7D4FF002834D1B1
:1008F000A889A96882B220481030FFF7CBFF0028F2
:100900002BD120221D496846FFF796FC60690690AE
:10091000207C00B101208DF814008DF81C70607CE3
:1009200000B10E208DF81500E0680290A0680390D9
:1009300020680190606800900E48114A69460830AE
:1009400000F0EEFD002808D1B0702068401C04D0F3
:100950009DF81D0018B106E0072009B0F0BD05485C
:10096000083000F069FE03490122491CC81D00F04F
:100970000BFEF2E704000020740500205C2100005B
:10098000651E000010B501460B48FFF793FF0400F9
:1009900010D10A4800F09AFF60B9084906480839A2
:1009A000FFF76DFF30B9054901220839034800F00F
:1009B00007FF0446204610BD840500200C000020DF
:1009C00070B5054608680C46411C04D001F00EF8CD
:1009D000206800F0C2FF6068411C02D0002100F0D6
:1009E000B3FF28791F4901EB40102968007F0028D8
:1009F000A069C1F8240523D0607D227D29681043B9
:100A0000C1F86C05D4E900122868C0F80C15C0F8CC
:100A1000142522E0A068411C02D0002100F094FFC0
:100A2000E068411C04D000F0E1FFE06800F095FFB1
:100A3000D4E902122868C0F80825C0F8101570BD66
:100A4000607D217D2A680843C2F86C05D4E9001254
:100A50002868C0F81425C0F80C15207D0128D9D0CD
:100A600070BD0000540500200249085C012100F01F
:100A7000C7BF0000542100007CB50024084E254665
:100A80000122305D009500231146019500F02AFFF8
:100A9000641C042CF4D3BDE87C4000F003B80000D3
:100AA0005421000010B500242046FFF7DDFF641C30
:100AB000042CF9D310BD826883881A4003689A5CBD
:100AC0000A708168491C81607047C26883881A4037
:100AD00003689954C168491CC160704710B5044649
:100AE000C0B2FFF74FFF204610BD000070B50E46A4
:100AF0000446007918494FF4A27501EB4010017FBC
:100B00002068A1B14FF4887100F0AEFF4FF49071EE
:100B1000206800F0A9FF4FF49271206800F0A4FF54
:100B20002946206800F0A0FF0C49206809E04FF436
:100B30008E7100F088FF2946206800F084FF084984
:100B40002068C0F80413206800F046FB3146BDE879
:100B5000704000F025BB0000540500201003020087
:100B6000800002002DE9FF470D464FF492770446BE
:100B7000394600F058FF4FF002094FF001084FF4DA
:100B8000827640B13946204600F052FF3146204679
:100B900000F049FFB0B3B2463146204600F043FFB3
:100BA0004FF0FF36002770B35146204600F040FF5B
:100BB00005F10C0001AB07C883E8070095F8230096
:100BC00078B1287B01282DD0D4F84C05C0B28DF81F
:100BD0000600287B022828D0D4F84C05C0B28DF836
:100BE00007004FF4B071204600F022FF4FF4AE71C1
:100BF000204600F01DFF95F8250080B395F82300EE
:100C000068BB3CE000E013E0A868C4F80803C5F83E
:100C10000890A868C4F80403C4F82080C4F81480BD
:100C2000BDE8FF87D4F83C05D0E7D4F83C05D5E70C
:100C30004FF4A471204600F0FBFE287B80B14FF4F6
:100C40000070C4F80002801CA860C4F80863A8689B
:100C5000C4F80403C4F80880C4F82080E0E708E082
:100C600005F10C0001AB07C883E8070095F82500E3
:100C700028B90020C4F80002AF60C4F80863D4F8B3
:100C8000C404C4F8C404810702D58DF8008006E0CE
:100C9000400702D58DF8009001E08DF8007095F8BE
:100CA000250008B985F82470D5E9002168469047E9
:100CB000B6E700000EB59DF8040040F002008DF884
:100CC000040001A800F03BF908B1FFF7CDFD9DF845
:100CD000080020F00F0040F01000801D8DF8080083
:100CE00002A800F030F908B1FFF7BEFD06210A2086
:100CF00000F020FB08B1FFF7B7FD0822694600208D
:100D000000F098FA08B1FFF7AFFD9DF800100FA0B2
:100D1000FFF7D6FB082269460A2000F08BFA08B1DB
:100D2000FFF7A2FD9DF800100CA0FFF7C9FB0822F9
:100D30006946032000F07EFA08B1FFF795FD9DF8A3
:100D4000001010A0FFF7BCFB0EBD000044657669E3
:100D500063652049443A202564200A005661756C79
:100D60006520726561642066726F6D20636F6E74BA
:100D7000726F6C2072656769737465723A202564BE
:100D8000200A00005661756C6520726561642066FA
:100D9000726F6D2048584C20307830332072656770
:100DA00069737465723A202564200A0000B587B023
:100DB00001F026F825A0FFF783FB00F021F92CA015
:100DC000FFF77EFBFFF776FF684600F0D3F808B127
:100DD000FFF74AFD02A800F0E5F808B1FFF744FD6F
:100DE000002104A800F0F5F808B1FFF73DFDBDF9BA
:100DF0000030BDF90220BDF9041024A0FFF760FB0C
:100E0000BDF90830BDF90A20BDF90C102AA0FFF782
:100E100057FBBDF91430BDF91220BDF9101031A0F7
:100E2000FFF74EFB4FF0A040D0F804154FF40052EE
:100E30008A43C0F8082501F40051C0F80C154CF2A3
:100E4000503000F021F907B0002000BD0D0A5465B4
:100E50007374313A204D50552074776920636F6D5B
:100E60006D756E69636174696F6E200D0A00000014
:100E70000D0A4D505520736574757020636F6D7049
:100E80006C65746521200D0A0000000041636365F4
:100E90006C20446174613A20583A20253036642031
:100EA0003B20593A2025303664203B205A3A2025F1
:100EB000303664203B200A004779726F2044617409
:100EC000613A20583A2025303664203B20593A2098
:100ED00025303664203B205A3A2025303664203BAA
:100EE000200A00004D61676E20446174613A205809
:100EF0003A2025303664203B20593A20253036648C
:100F0000203B205A3A2025303664203B200A00003E
:100F100001460422192000F02DBA10B500F070F936
:100F200000280BD10721682000F04EFA002805D1D7
:100F30000121BDE810406B2000F046BA10BD0178D9
:100F4000372000F041BA38B50446012269463720FF
:100F500000F0A6F99DF8000040F002008DF80000B6
:100F60006846FFF7ECFF002803D121780A2000F043
:100F7000E1F938BD1CB50446062269463B2000F065
:100F80008FF900280CD100214FEA0D00C1F10502B4
:100F9000491C825CC9B204F8012B0629F6D3002053
:100FA0001CBD00001CB5044606226946432000F023
:100FB00077F900280CD100214FEA0D00C1F105029C
:100FC000491C825CC9B204F8012B0629F6D3002023
:100FD0001CBD38B50C4601460622032000F02AF954
:100FE00000280CD14FF001022CB12146BDE8384059
:100FF000092000F01FB96946092000F01BF938BD2F
:1010000038B514A0FFF75CFAFFF787FF044617A076
:10101000FFF756FA200001D0FFF726FC19480068B8
:10102000009013208DF800009DF8030040F0180098
:101030008DF803009DF8020020F0180010308DF8A4
:1010400002006846FFF764FF002801D0FFF70CFCA0
:1010500038BD00000D0A4D50552073657475702021
:1010600073746172742E2E2E200D0A000D0A4D50DD
:101070005520696E697420636F6D706C65746521AD
:10108000200D0A001421000000283ED01F49204AEC
:10109000096800BF00BF00BF00BF00BF00BF00BFA6
:1010A00000BF91422FD000BF00BF00BF00BF00BFF4
:1010B00000BF00BF00BF00BF00BF00BF00BF00BF38
:1010C00000BF00BF00BF00BF00BF00BF00BF00BF28
:1010D00000BF00BF00BF00BF00BF00BF00BF00BF18
:1010E00000BF00BF00BF00BF00BF00BF00BF00BF08
:1010F00000BF00BF00BF00BF00BF00BF00BF00BFF8
:1011000000BF00BF00BF401EC3D1704718000020C1
:101110000024F40000283ED01F49204A096800BF7F
:1011200000BF00BF00BF00BF00BF00BF00BF9142B3
:101130002FD000BF00BF00BF00BF00BF00BF00BF77
:1011400000BF00BF00BF00BF00BF00BF00BF00BFA7
:1011500000BF00BF00BF00BF00BF00BF00BF00BF97
:1011600000BF00BF00BF00BF00BF00BF00BF00BF87
:1011700000BF00BF00BF00BF00BF00BF00BF00BF77
:1011800000BF00BF00BF00BF00BF00BF00BF00BF67
:1011900000BF401EC3D17047180000200024F40097
:1011A0004907090E002806DA00F00F0202F1E022DA
:1011B00082F8141D03E000F1E02282F8001400F030
:1011C0001F02012191404009800000F1E020C0F899
:1011D0008012C0F800117047000B40B27047012127
:1011E000B1EB507F01D101207047002070470121F1
:1011F000B1EB507F01D10120704700207047000003
:101200001FB50A4B0FCB8DE80F0008480023084A92
:101210006946083800F008F9002804D10348083866
:1012200000F0F2F8002004B010BD000044210000DE
:101230000D1300002DE9F74382B01746894642F2AC
:1012400010744FF000082646012302AA0C21124810
:10125000CDF8008000F040F9002812D10F4D287819
:1012600090B1B6B185F80080FBB24A460C210A481D
:1012700000F020F9002804D1697841B14CB185F81B
:10128000018005B0BDE8F083761EE8D101E0641E60
:10129000F2D10D20F5E700003C2100000000002005
:1012A0002DE9F74382B01746894642F210744FF099
:1012B00000082646012302AA68211248CDF80080C2
:1012C00000F00AF9002812D10F4D287890B1B6B17C
:1012D00085F80080FBB24A4668210A4800F0EAF827
:1012E000002804D1697841B14CB185F8018005B07E
:1012F000BDE8F083761EE8D101E0641EF2D10D2036
:10130000F5E700003C2100000000002001780029E2
:101310000AD10279064901202AB1012A05D0022A00
:1013200003D0032A00D1087070474870704700004E
:10133000000000207CB500258DF804008DF8051014
:1013400042F21074022301AA0C210848009500F013
:10135000C3F8002804D106490A7812B11CB10D70F7
:101360007CBD641EF8D10D207CBD00003C21000036
:1013700000000020FEB503461048144642F21075E6
:1013800000F8013BFEF758FF68208DF801000026A9
:101390000A488DF80060641C01908DF802403246C6
:1013A0006946074800F0AAF806490A7812B11DB14B
:1013B0000E70FEBD6D1EF8D10D20FEBD440500204F
:1013C0003C210000000000207CB500258DF80400C1
:1013D0008DF8051042F21074022301AA6821084812
:1013E000009500F079F8002804D106490A7812B176
:1013F0001CB10D707CBD641EF8D10D207CBD0000B9
:101400003C210000000000200179064A01EB810127
:10141000006802EBC1010622C0F80025022081F815
:10142000220070471C05002070B506460D46007965
:101430001F4900EB800001EBC00494F8220008B1C2
:10144000082070BD0020C4E90023A06084F82500B6
:1014500084F82400A87B84F82700687B10B1284614
:1014600000F03DFB296840F20C60890001F1A041C9
:10147000C1F800076968890001F1A041C1F80007BF
:10148000D5E900123068C0F80815C0F80C25A96825
:10149000C0F82415206828B13068297B000B40B2C1
:1014A000FFF77EFE012084F82200002070BD0000BE
:1014B0001C0500203EB5074D2C68AD6800948DF8E2
:1014C0000110019202958DF802300022694600F069
:1014D00015F83EBD302100003EB500250095069C64
:1014E0008DF8011002958DF8023001920CB1202286
:1014F00000E00022694600F001F83EBD30B40379F7
:10150000064C03EB830304EBC304006813460A464E
:101510000146204630BC00F035BB00001C05002011
:101520002DE9F04105460079164F904607EB40142F
:101530000E46E07E10B10820BDE8F081707F207774
:101540002846FFF73DFA5FEA0800606031692160D4
:1015500003D0317F2846FFF7C9FA287907EB4010FE
:10156000007F0028286801D0082100E00421C0F88D
:1015700000150020E0752076A0750121E176A076A7
:10158000DAE70000540500202DE9F0410546007916
:10159000284E904606EB40140F46207F18B10846AF
:1015A000FFF725FE80B1626800234FF404704FF40A
:1015B000017172B12A7906EB4212127F002A2A6861
:1015C00005D0C2F8080304E01020BDE8F081C2F89D
:1015D0000813E27DB2B1227E7AB162685AB12A79EB
:1015E00006EB4212127F1AB12968C1F8040302E027
:1015F0002868C0F804131120E7E72761012384F865
:10160000188005E084F817800020E7606076207677
:101610002879424606EB40103946007F00282846CC
:1016200003D0BDE8F04100F073B8BDE8F04100F030
:101630001BB800005405002070B504460079094D20
:1016400005EB4010017F00290AD1807E002807D1D8
:10165000204600F034FA2179012005EB411188760B
:1016600070BD0000540500202DE9F05F04460079AC
:10167000264901EB4015A87E184302D1204600F010
:101680001EFA68680028206806D04FF40171C0F87F
:1016900004130020BDE8F09F4FF4A276314600F01D
:1016A000D2F9B1464FF4927A4FF4847B51462068C8
:1016B00000F0C4F906465946206800F0BFF980469C
:1016C0004946206800F0BAF9074648EA0700304367
:1016D000ECD056EA070007D12946206800F0CAF985
:1016E000E87D697E8842E1D80020E8750EB10320CC
:1016F000D0E70FB10F20CDE7A97E01200029216896
:1017000001D00860C5E74860C3E700005405002029
:101710002DE9F05F894604464FF488759A46904655
:1017200000260068294600F09FF94FF4A277394659
:10173000206800F099F92068C0F83495C0F8388521
:101740002068BAF1000F14D0D0F8001241F0200147
:10175000C0F800122179DFF8648008EB411040687E
:1017600050B120684FF40471C0F804133046BDE84E
:10177000F09F01210160EDE7AA46B9464FF4927B44
:101780005146206800F06BF907464946206800F092
:1017900066F905465946206800F061F9014647EAB6
:1017A00005000843ECD02379002208EB4310C275F2
:1017B00001B10326002DD9D00F26D7E7540500200C
:1017C0002DE9F047054600793F4E904606EB401460
:1017D0000F46207F18B10846FFF709FD30B12846B3
:1017E00000F074F820B11120BDE8F0871020FBE76D
:1017F00084F81680A7600027A78228794FF0010897
:1018000006EB40143E46207F0028286825D04FF480
:101810009079494600F028F94FF4AC7A514628688F
:1018200000F022F92868A17DA268C0F84425C0F81C
:1018300048152868C0F808806068F0B949462868EB
:1018400000F00DF980465146286800F008F958EA82
:101850000001F3D058BBA7750FE04FF48E7A5146C4
:1018600000F0F1F82868C0F808802146286800F0E8
:10187000A9FA61684FF4807089B13046B4E75146E7
:10188000286800F0DBF810B9A08A4845F7D1A08A93
:10189000484505D02146286800F094FA00E08146CA
:1018A000A08AA17D8842EAD3A08A484501D10F26AB
:1018B000D1E75146286800F0C1F80028F9D028681F
:1018C000C0F80C80C7E700005405002000790449E7
:1018D00001EB4010807D002800D0012070470000FF
:1018E000540500202DE9FF411C46DDE90A78154624
:1018F0000E46684600F054F846EA450141EA840184
:1019000041EA072242EA0841009A00EB8200C0F84F
:101910000017BDE8FF812DE9FF411C46DDE90A788B
:1019200015460E46684600F049F846EA450141EA88
:10193000840141EA072242EA0841009A00EB820052
:10194000C0F80017BDE8FF811CB500220B460092CD
:1019500011460192FFF7DFFF1CBD1CB5002100916D
:101960000B46012201911146FFF7D5FF1CBD01B5C1
:10197000684600F007F8009A01219140C0F80C1564
:1019800008BD00000168202902D24FF0A040704736
:1019900001F01F0101600148704700000003005082
:1019A0000168202902D24FF0A040704701F01F01CA
:1019B00001600148704700000003005001682029C1
:1019C00002D24FF0A040704701F01F0101600148B2
:1019D000704700000003005001B56846FFF7D2FFD2
:1019E000009A01219140C0F8081508BD01B568466C
:1019F000FFF7E4FF009A01219140C0F8081508BDE7
:101A000038B501240090684631B1FFF7C9FF00994D
:101A10008C40C0F8084538BDFFF7C2FF00998C40E4
:101A2000C0F80C4538BD4058002800D00120704750
:101A300008B5002242504058009008BD4058002888
:101A400000D00120704708B5002242504058009055
:101A500008BDD0F80403084000D00120704740586A
:101A6000002800D00120704708B50022425040589D
:101A7000009008BD70B50546C87D0C4600284FF49F
:101A8000847128460AD0FFF7DEFFD5F81805627E7C
:101A9000E1688854607E401C607670BDFFF7D3FF1C
:101AA000D5F8180570BD1FB501238DF800308DF8ED
:101AB00008100192D0E90012684690471FBD10B58A
:101AC000044600684FF49271FFF7BDFF4FF4847134
:101AD0002068FFF7B8FF20680121016010BD38B50C
:101AE000044640F20C602168890001F1A041C1F870
:101AF00000076168890001F1A041C1F80007206872
:101B0000FFF76AFF6068FFF767FF216840F20D602A
:101B1000890001F1A041C1F800076168890001F165
:101B2000A041C1F800070420FFF7F4FA002560681F
:101B300000906846FFF726FFD0F810050099C840CE
:101B400010F0010F02D0002D1AD00EE02068FFF730
:101B50000EFF0420FFF7DEFA2068FFF73DFF0420A8
:101B6000FFF7D8FA6D1C092DE1DB6068FFF7FFFE77
:101B70000420FFF7CFFA6068BDE83840FFF72CBFBC
:101B800038BD00002DE9F05F06461F4615460C469D
:101B90004FF0000A4FF0080B4FF482795068FFF7BE
:101BA0001EFB00287ED04FF0FF30C4F8080396F8E3
:101BB000240028B1B068C4F804031120BDE8F09FE8
:101BC000780703D4F80601D4012000E0002086F84D
:101BD000240095E8070006F10C0383E80700C7F32B
:101BE000001086F825006878C4F888054FF48271E3
:101BF0002046FFF71DFF4FF492712046FFF718FFB4
:101C0000F8074FF0010800D04046C4F85005B80767
:101C100001D5404600E00020C4F84005287800289F
:101C20006CD001287DD002284ED0032814D04FF06C
:101C3000070A380704D42878032801D044F80B8019
:101C4000306800286ED0780702D54FF40070B0607D
:101C5000B068C4F80403B0E0A868FFF7C0FA08B39E
:101C60004FF48070C4F80002A9786868C4F844058D
:101C7000C4F848154FF4A8712046FFF7D9FE4FF479
:101C8000B0712046FFF7D4FE4FF4A4712046FFF751
:101C9000CFFEC4F82080C4F8088000BF4FF4A871BC
:101CA000204600E028E0FFF7BEFE0028F6D04FF403
:101CB000A8712046FFF7BCFEE878A968C4F844156F
:101CC000C4F848053E4815E0A8786968C4F844158A
:101CD000C4F84805A868FFF782FA68B1E878A968EF
:101CE000C4F83415C4F838054FF48450C4F8000221
:101CF00040F20220B0609CE710205FE7A878696896
:101D0000C4F84415C4F84805B8060FD54FF48070E0
:101D1000C4F800022A48B0604FF4A479494620462E
:101D200001E00CE01BE0FFF783FE05E04FF40070DC
:101D3000C4F80002801CB060C4F8208079E7A8785D
:101D40006968C4F83415C4F838054FF48050C4F8F5
:101D5000000240F20220B0604FF0000BECE7454675
:101D60004FF482774FF492780BE041462046FFF71C
:101D70005AFE30B141462046FFF75AFE25626561A2
:101D8000B94649462046FFF74EFE0028EDD0D4F86C
:101D9000C404C4F8C404002186F8241068B10321E7
:101DA000C20701D04FF40241820701D548F2012158
:101DB000400701D548F202218A465046FEE600005F
:101DC0000002040070B50C4605464FF48E71FFF713
:101DD0003AFEA18AA068415CA08A401CA082C5F896
:101DE0001C1570BD1FB500228DF800208DF808105D
:101DF000816801918275D0E90012684690471FBD45
:101E000000B58BB0FEF738FE18220D496846FEF784
:101E100013FA0C4806904FF4807007900A48089017
:101E20004FF4806009900723084A06A96846FEF728
:101E30004FFD002801D0FEF717FD0BB000BD0000DC
:101E4000182100001C0000201C010020511E000071
:101E50000178022901D0012902D14068FEF704BDB2
:101E6000704700007CB50178244D81B301290BD067
:101E700002292BD18DF80010C068691C0190012245
:101E8000C81DFFF781FB2EE0406801781C48FEF773
:101E900011FD1B4C012618B18DF80060019006E081
:101EA000A068E168814205D000208DF800006968D3
:101EB00068468847A068E168081AA188884207D860
:101EC0000E490122491CC81DFFF75EFB7CBD01E0E5
:101ED000AE70FBE70A4809491030FEF7D0FC30B17C
:101EE00003208DF80000696868468847EEE70349DB
:101EF000012201F10800FFF763FCE7E7040000207E
:101F0000740500202DE9FF470C4605464FF400718B
:101F1000FFF79FFD01274FF40178002618B34FF417
:101F2000927949462846FFF789FDE0B1494628469F
:101F3000FFF789FDC5F80883A07E00B96F60022015
:101F40008DF80000D5F88004C5F880040390E07D8A
:101F50008DF80800E0680190E6752676D4E9001255
:101F60006846904727E004212846FFF772FD10B32A
:101F70004FF484712846FFF761FDE0B12146284601
:101F8000FFF778FDE07D617E884214D1207E38B174
:101F9000617EE268E0752069E0602676667607E09B
:101FA000A07E00B96F60C5F80883E675617EE268BF
:101FB0002046FFF778FD4FF48E7841462846FFF71C
:101FC0003DFD88B1A08AA17D884204D221462846E1
:101FD000FFF7F8FE08E041462846FFF734FDA17DF3
:101FE00011B12046FFF7FEFE4FF4A2784146284685
:101FF000FFF724FD002812D041462846FFF723FDB5
:10200000A07E00B12F60E07D002808D0E675617EDB
:10201000E26804B02046BDE8F047FFF744BDBDE8E4
:10202000FF872DE9FF410C464FF49277054639466C
:10203000FFF715FD0026C0B139462846FFF714FD0D
:1020400002208DF80000D5F88004C5F880040390C4
:10205000D5F83C058DF80800E0680190E675267615
:10206000D4E900126846904724E04FF48877394657
:102070002846FFF7F4FCE8B139462846FFF7F4FCA0
:10208000D5F83C05C1B2E07D884213D1207E60B115
:10209000E268D5F8000220F02000C5F80002207E9A
:1020A000E0752069E060267601E0E675E26820468A
:1020B000FFF7F9FC4FF4A27739462846FFF7CFFC2B
:1020C00068B139462846FFF7CFFCE07D38B1E675A8
:1020D000D5F83C05E268C1B22046FFF7E4FC4FF4B6
:1020E000907631462846FFF7BAFC00280FD03146DB
:1020F0002846FFF7B9FCA07D002808D0D5F84C058C
:1021000004B0C1B22046BDE8F041FFF76BBEBDE8A8
:10211000FF810000070118180800000006000000F9
:1021200005000000070000000100000000E0D701EA
:10213000010000000000000000000000003000402E
:10214000000100001B0000001A00000000006806EB
:10215000000000000D0E0F100B0C1819FFFFFFFF01
:10216000FFFFFFFFFFFFFFFFFFFFFFFF000000007B
:10217000000000000000D601070100009C210000C3
:10218000000000201C000000E0040000B821000056
:102190001C0000207C250000F0040000000000006E
:1021A00000000000000000000020004000000000CF
:0821B000000000000090D003C4
:0400000500000201F4
:00000001FF
