:020000040002F8
:1020000058870020152202001D2202001F22020014
:1020100021220200232202002522020000000000EB
:102020000000000000000000000000002722020065
:1020300029220200000000002B2202002D220200B3
:10204000A57E02002F220200B1810200917F0200D2
:102050002F2202002F2202005D7C02002F220200AC
:102060002F2202002F2202002F2202002F22020024
:102070002F2202002F2202002F2202002F22020014
:102080002F220200FD7E02002F2202002F220200DA
:10209000A17F02002F220200A57F02002F22020052
:1020A0002F2202002F2202002F2202002F220200E4
:1020B0002F2202002F22020000000000000000007A
:1020C0002F2202002F2202002F2202002F220200C4
:1020D0002F2202002F2202002F2202002F220200B4
:1020E0002F2202002F2202002F2202002F220200A4
:1020F000000000002F22020000000000000000008D
:1021000000000000000000000000000000000000CF
:1021100000000000000000000000000000000000BF
:1021200000000000000000000000000000000000AF
:10213000000000000000000000000000000000009F
:10214000000000000000000000000000000000008F
:10215000000000000000000000000000000000007F
:10216000000000000000000000000000000000006F
:10217000000000000000000000000000000000005F
:10218000000000000000000000000000000000004F
:10219000000000000000000000000000000000003F
:1021A000000000000000000000000000000000002F
:1021B000000000000000000000000000000000001F
:1021C000000000000000000000000000000000000F
:1021D00000000000000000000000000000000000FF
:1021E00000000000000000000000000000000000EF
:1021F00000000000000000000000000000000000DF
:10220000DFF80CD005F00AFD0048004711E9020094
:10221000588700200648804706480047FEE7FEE74B
:10222000FEE7FEE7FEE7FEE7FEE7FEE7FEE7FEE786
:10223000C97F020001220200FE4880ED3A0A704781
:102240002DE9F047DFF8EC9300262DED0A8B0446CC
:10225000B0EE408AF0EE608A884635463746D9F8B7
:10226000AC0005F006FB53EC182B05F067FB6FD3B1
:10227000D9F8B00005F0FDFA53EC182B05F076FB09
:10228000F5D3B4F90000B4F90610401A05F0F1FADC
:1022900053EC182B05F052FB00D20126B4F90E00C6
:1022A000B4F91410401A05F0E4FA53EC182B05F0B9
:1022B00045FB00D2761CB4F91C00B4F92210401A78
:1022C00005F0D7FA53EC182B05F038FB00D2761C3A
:1022D0009FEDD90B012E3BDC53EC102B51EC180B6E
:1022E00005F0D0F98946064649EC180BB4F9000010
:1022F000B4F90610401A05F0BCFA53EC182B05F09F
:1023000035FB00D20125B4F90E00B4F9141049ECE4
:10231000186B401A05F0ADFA53EC182B05F026FBAC
:1023200000D26D1CB4F91C00B4F9221049EC186BF2
:10233000401A05F09EFA53EC182B05F017FB00D25B
:102340006D1C002D05DD0220BDEC0A8BBDE8F08779
:1023500065E000269FEDBACB06EB460904EB890544
:10236000B5F90A0005F085FA98ED048B53EC182BAB
:1023700005F082F941EC190BB5F9040005F079FA82
:1023800053EC182B05F078F953EC192B05F07AF97A
:1023900041EC190BB5F9080005F06BFA98ED028BCA
:1023A00053EC182B05F068F941EC1A0BB5F9020053
:1023B00005F05FFA53EC182B05F05EF953EC1A2B7D
:1023C00005F060F941EC1A0BB5F9060005F051FA79
:1023D00098ED008B53EC182B05F04EF941EC1B0BDC
:1023E00034F9290005F045FA53EC182B05F044F9AF
:1023F00053EC1B2B05F046F953EC1A2B05F09BF818
:1024000053EC192B05F097F853EC1C2B05F096FABA
:1024100000D27F1C761C032E9EDB022F01DA0120E6
:1024200092E7002090E788490A684B68D00180EA6B
:10243000D20080EA031048608B68520380EAC3032D
:1024400082EA5312520282EAD0208B600860704701
:1024500010B52DED048BF0EE408AFFF7E4FF00EE9F
:10246000100AB8EE400ADFED790A20EE200A9FED4F
:10247000789A20EE090A06F007FAB0EE408AFFF7D4
:10248000D2FF00EE100AB8EE400A20EE090AB5EEBF
:10249000C00AF1EE10FA01D1B7EE000A10EE100AF0
:1024A00005F038FA41EC100B06F0A2FA9FED691B1B
:1024B00051EC100B53EC112B05F0E4F805F06EFA1B
:1024C00000EE100A06F07BFD20EE280A20EE080A36
:1024D000BDEC048B10BD2DE9F04105462DED048BBC
:1024E000B0EE608AF0EE408A0F4618EE100A05F052
:1024F00011FA97ED301B53EC112B05F0C3F841ECAA
:10250000190B18EE900A05F005FA95ED301B53EC07
:10251000112B05F0B7F853EC192B05F00CF800243B
:10252000C5E9300118EE100A05F0F4F907EBC4080C
:1025300098ED001B53EC112B05F0A4F841EC190B9E
:1025400018EE900A05F0E6F905EBC40696ED001BBF
:1025500053EC112B05F096F853EC192B04F0EBFF1C
:10256000C6E9000118EE100A05F0D4F998ED241B15
:1025700053EC112B05F086F841EC190B18EE900A7C
:1025800005F0C8F996ED241B53EC112B05F07AF8F1
:1025900053EC192B04F0CFFF641CC6E92401062C70
:1025A000C0DB002418EE100A05F0B4F941EC100B62
:1025B00007EBC40090ED121B51EC100B53EC112BE8
:1025C00005F060F841EC190B18EE900A05F0A2F93D
:1025D00005EBC40696ED121B53EC112B05F052F8D7
:1025E00053EC192B04F0A7FF641CC6E91201092C57
:1025F000D8DB002418EE100A05F08CF941EC100B22
:1026000007EBC40090ED0C1B51EC100B53EC112B9D
:1026100005F038F841EC190B18EE900A05F07AF93C
:1026200005EBC40696ED0C1B53EC112B05F02AF8B4
:1026300014E00000F83B002000000000000004400F
:10264000000000000000000078220020DB0FC940DD
:102650000000802F00000000000000C053EC192B88
:1026600004F069FF641CC6E90C01032CC2DBBDEC5D
:10267000048BBDE8F0812DE9F04F04462DED068B6B
:1026800083B00D46086805F0F4F841EC1A0B686851
:1026900005F0EFF841EC190BA86805F0EAF841ECF9
:1026A000180B94ED300B9FEDFE1B51EC100B53EC0F
:1026B000112B04F040FFC4E9300194ED0C0B53ECF6
:1026C0001A2B51EC100B04F036FFC4E90C0194ED09
:1026D0000E0B53EC192B51EC100B04F02CFFC4E93A
:1026E0000E0194ED100B53EC182B51EC100B04F071
:1026F00022FFC4E9100153EC1A2B51EC1A0B04F021
:10270000C1FF029194ED001B064653EC112B04F01F
:1027100012FFC4E9000153EC192B51EC1A0B04F021
:10272000B1FF894649EC100B94ED021B054653ECB2
:10273000112B51EC100B04F0FEFEC4E9020153EC26
:10274000182B51EC1A0B04F09DFF8B464BEC100B31
:1027500094ED041B804653EC112B51EC100B04F04C
:10276000EAFEC4E9040153EC192B51EC190B04F0F7
:1027700089FF019194ED061B074653EC112B04F0E1
:10278000DAFEC4E9060153EC182B51EC190B04F0E6
:1027900079FF009194ED081B824653EC112B04F055
:1027A000CAFEC4E9080153EC182B51EC180B04F0D5
:1027B00069FF94ED0A1B53EC112B04F0BCFEC4E935
:1027C0000A01029953EC1A2B41EC106B51EC100BDF
:1027D00004F058FF94ED121B53EC112B04F0ABFEE8
:1027E00049EC105BC4E9120153EC192B51EC100BAE
:1027F00004F048FF94ED141B53EC112B04F09BFEE6
:102800004BEC108BC4E9140153EC182B51EC100B5A
:1028100004F038FF94ED161B53EC112B04F08BFEE3
:1028200049EC105BC4E9160153EC1A2B51EC100B68
:1028300004F028FF94ED181B53EC112B04F07BFEE1
:10284000C4E91801019953EC192B41EC107B51ECB0
:10285000100B04F017FF94ED1A1B53EC112B04F02E
:102860006AFEC4E91A010099554641EC10AB0E46C8
:1028700053EC182B51EC100B04F004FF94ED1C1BCF
:1028800053EC112B04F057FEC4E91C0153EC1A2B36
:1028900051EC180B04F0F6FE53EC1A2B04F0F2FE88
:1028A00094ED1E1B53EC112B04F045FE46EC105B1F
:1028B000C4E91E0153EC192B51EC100B04F0E2FE9D
:1028C00094ED201B53EC112B04F035FEC4E92001DC
:1028D00053EC182B51EC180B04F0D4FE894649EC4C
:1028E000100B074653EC182B51EC100B04F0CAFEEA
:1028F00094ED221B53EC112B04F01DFEC4E92201C0
:1029000053EC1A2B51EC1A0B04F0BCFE884648EC31
:10291000100B054653EC1A2B51EC100B04F0B2FED1
:1029200053EC1A2B04F0AEFE94ED241B53EC112B48
:1029300004F001FEC4E9240153EC192B51EC190BEE
:1029400004F0A0FE8A464AEC100B064653EC192B05
:1029500051EC100B04F096FE53EC192B04F092FE90
:1029600094ED261B53EC112B04F0E5FD49EC107B94
:10297000C4E9260153EC182B51EC100B04F082FE35
:1029800053EC182B04F07EFE94ED281B53EC112B16
:1029900004F0D1FD48EC105BC4E9280153EC192B7D
:1029A00051EC100B04F06EFE53EC192B04F06AFE90
:1029B00094ED2A1B53EC112B04F0BDFD48EC105B89
:1029C000C4E92A0153EC182B51EC100B04F05AFE09
:1029D00053EC182B04F056FE94ED2C1B53EC112BEA
:1029E00004F0A9FD4AEC106BC4E92C0153EC182B40
:1029F00051EC100B04F046FE53EC182B04F042FE91
:102A000094ED2E1B53EC112B04F095FDC4E92E011F
:102A100003B0BDEC068BBDE8F08F2DE9F04F934677
:102A20002DED108B0D46044693B090ED0CEB53EC5E
:102A30001E2B51EC1E0B04F025FE94ED000B41EC17
:102A4000190B8DED080B94ED308B53EC102B51ECE2
:102A5000180B04F017FE53EC192B04F00DFE94ED47
:102A60000EDB41EC1F0B53EC1D2B51EC1D0B04F046
:102A700009FE94ED060B41EC190B8DED060B53ECA2
:102A8000102B51EC180B04F0FDFD53EC192B04F046
:102A9000F3FD41EC100B8DED040B94ED10CB03E036
:102AA000000000000000F03F53EC1C2B51EC1C0B0D
:102AB00004F0E8FD94ED0A0B41EC190B8DED020BCF
:102AC00053EC102B51EC180B04F0DCFD53EC192BDC
:102AD00004F0D2FD41EC110B53EC1D2B8DED001BCE
:102AE00051EC1E0B04F0CEFD94ED020B41EC190BE2
:102AF00053EC102B51EC180B04F0C4FD53EC192BC4
:102B000004F0BAFD41EC1B0B53EC1C2B51EC1E0BDB
:102B100004F0B8FD94ED040B41EC190B53EC102BB1
:102B200051EC180B04F0AEFD53EC192B04F0A4FD8E
:102B300041EC1A0B53EC1C2B51EC1D0B04F0A2FDC5
:102B400094ED080B41EC190B53EC102B51EC180BC6
:102B500004F098FD53EC192B04F08EFD9DED020B53
:102B600041EC190B53EC102B51EC1E0B04F08AFDB9
:102B700041EC110B51EC180B8DED101B94ED160B65
:102B800053EC102B04F07EFD41EC110B51EC1E0BAD
:102B90008DED0E1B9DED060B53EC102B04F072FD1A
:102BA00041EC110B51EC180B8DED0C1B94ED140B3B
:102BB00053EC102B04F066FD41EC110B51EC1E0B95
:102BC0008DED0A1B9DED080B53EC102B04F05AFD04
:102BD00094ED120B41EC1E0B53EC102B51EC180B27
:102BE00004F050FD53EC1E2B04F046FD9DED0A1B36
:102BF00053EC112B04F09FFC9DED0C1B53EC112B9F
:102C000004F03AFD9DED0E1B53EC112B04F093FCE8
:102C10009DED101B53EC112B04F02EFD9FEDFE1BC0
:102C200053EC112B04F02EFD9DED020B41EC1E0B1D
:102C300053EC102B51EC1D0B04F024FD41EC110B57
:102C400051EC180B8DED101B94ED1C0B53EC102B5D
:102C500004F018FD41EC110B51EC1D0B8DED0E1B1A
:102C60009DED060B53EC102B04F00CFD41EC110B09
:102C700051EC180B8DED0C1B94ED1A0B53EC102B33
:102C800004F000FD41EC110B51EC1D0B8DED0A1B06
:102C90009DED080B53EC102B04F0F4FC94ED180B95
:102CA00041EC1D0B53EC102B51EC180B04F0EAFC1B
:102CB00053EC1D2B04F0E0FC9DED0A1B53EC112B93
:102CC00004F039FC9DED0C1B53EC112B04F0D4FCEB
:102CD0009DED0E1B53EC112B04F02DFC9DED101BF4
:102CE00053EC112B04F0C8FC9FEDCB1B53EC112BC4
:102CF00004F0C8FC9DED020B41EC1D0B53EC102BB6
:102D000051EC1C0B04F0BEFC41EC110B51EC180B08
:102D10008DED021B94ED220B53EC102B04F0B2FC52
:102D200041EC110B51EC1C0B8DED0A1B9DED060BBC
:102D300053EC102B04F0A6FC41EC110B51EC180BDA
:102D40008DED0C1B94ED200B53EC102B04F09AFC32
:102D500041EC110B51EC1C0B8DED061B9DED080B8E
:102D600053EC102B04F08EFC94ED1E0B41EC1C0B6D
:102D700053EC102B51EC180B04F084FC53EC1C2B7F
:102D800004F07AFC9DED061B53EC112B04F0D3FBF1
:102D90009DED0C1B53EC112B04F06EFC9DED0A1BFA
:102DA00053EC112B04F0C7FB9DED021B53EC112BD0
:102DB00004F062FC9FED981B53EC112B04F062FCB5
:102DC0009DED040B41EC180B53EC102B51EC1F0B39
:102DD00004F058FC10919DED001B824653EC112B22
:102DE00004F050FC41EC110B53EC192B8DED0A1B38
:102DF00051EC1F0B04F046FC53EC192B04F042FC81
:102E000041EC110B53EC1A2B8DED081B9DED040BBF
:102E100051EC100B04F036FC814653EC1A2B119147
:102E200004F030FC41EC110B8DED061B9FED7C0B8B
:102E300051EC1B0B53EC102B04F024FC53EC1A2B1D
:102E400004F020FC53EC192B04F01CFC9DED001B3E
:102E500041EC1C0B53EC1B2B51EC110B04F012FC3E
:102E6000074653EC1B2B029104F00CFC53EC1C2B7B
:102E700004F002FC9DED061B53EC112B04F05BFBF0
:102E80009DED081B53EC112B04F055FB9DED0A1B27
:102E900053EC112B04F0F0FB41EC1C0B9FED620B8B
:102EA00053EC102B04F04AFD7DD053EC192B51EC60
:102EB0001B0B04F0E7FB53EC182B04F0E3FB41EC95
:102EC000110B53EC1D2B8DED0E1B029941EC107B69
:102ED00051EC100B04F0D6FB41EC110B8DED0C1BEB
:102EE0009DED000B53EC102B9DED040B51EC100BE2
:102EF00004F0C8FB53EC1E2B04F0C4FB41EC110B97
:102F000053EC192B8DED081B51EC190B04F0BAFB97
:102F100053EC1E2B04F0B6FB41EC110B53EC1D2BB4
:102F20008DED0A1B51EC190B04F0ACFB41EC110BBD
:102F300053EC182B8DED061B9DED040B51EC100B83
:102F400004F0A0FB9DED061B53EC112B04F094FB49
:102F500053EC1A2B04F096FB9DED0A1B53EC112B3E
:102F600004F0E9FA9DED081B53EC112B04F084FBEF
:102F70009DED0C1B53EC112B04F0DDFA9DED0E1BA7
:102F800053EC112B04F078FB41EC100B53EC1A2B93
:102F90008DED060B51EC1B0B04F074FB88460646C6
:102FA00048EC100B00E065E153EC182B51EC100BD2
:102FB00004F068FB41EC110B53EC1E2B8DED041B50
:102FC000029941EC107B51EC100B04F05BFB41ECDF
:102FD000110B51EC1F0B8DED021B9DED000B53EC03
:102FE000102B04F04FFB53EC1D2B04F04BFB41EC7A
:102FF000110B53EC1A2B8DED081B51EC1A0B04F03E
:1030000041FB53EC1D2B04F03DFB41EC110B53EC49
:103010001E2B8DED001B0BE0000000000000E03FC8
:103020000000000000000040000000000000000060
:1030300051EC1A0B04F026FB41EC1A0B53EC182B45
:1030400051EC1F0B04F01EFB53EC1A2B04F014FB85
:1030500053EC192B04F016FB9DED001B53EC112BC8
:1030600004F069FA9DED081B53EC112B04F004FBEE
:103070009DED021B53EC112B04F05DFA9DED041B3A
:1030800053EC112B04F0F8FA41EC100B53EC1D2B10
:103090008DED040B48EC106B51EC100B04F0F2FAC0
:1030A00041EC110B53EC1E2B8DED001B119941ECE3
:1030B000109B51EC100B04F0E5FA41EC110B53ECB2
:1030C000182B8DED021B109941EC10AB51EC100B3D
:1030D00004F0D8FA41EC1A0B53EC1B2B51EC1B0BF0
:1030E00004F0D0FA53EC182B04F0CCFA41EC180B96
:1030F00053EC1E2B51EC1B0B04F0C4FA41EC1B0BE0
:1031000053EC1D2B51EC1F0B04F0BCFA53EC1B2BA2
:1031100004F0B2FA53EC192B04F0B4FA53EC182B68
:1031200004F009FA53EC1A2B04F0A6FA9DED021BE9
:1031300053EC112B04F0FFF99DED001B53EC112B08
:1031400004F09AFA9DED060B41EC190B53EC1C2B85
:1031500051EC100B04F008FB41EC180B53EC1C2B4A
:1031600085ED008B9DED040B51EC100B04F0FCFA87
:1031700041EC1A0B53EC1C2B85ED02AB51EC190BF7
:1031800004F0F2FA41EC190B85ED049B94ED100B61
:1031900053EC102B04F076FA94ED0E0B41EC1B0B64
:1031A00053EC102B51EC1A0B04F06CFA94ED0C0B51
:1031B00041EC1C0B53EC102B51EC180B04F062FA91
:1031C00053EC1C2B04F0B7F953EC1B2B04F0B3F9B0
:1031D0001FED6D1B53EC112B04F054FA94ED061BFC
:1031E00094ED000B41EC1B0B53EC112B51EC100B2D
:1031F00004F0A1F994ED0A1B53EC112B04F09BF998
:1032000053EC1B2B04F038FA94ED301B53EC112BCC
:1032100004F0AAFA41EC1B0B53EC192B51EC190BDF
:1032200004F030FA41EC190B53EC1A2B51EC1A0B49
:1032300004F028FA41EC1A0B53EC182B51EC180B44
:1032400004F020FA53EC1A2B04F075F953EC192B07
:1032500004F071F953EC1B2B04F06DF941EC100BE9
:1032600005F070FE8BED000B012013B0BDEC108B50
:10327000BDE8F08F0020F8E72DE9F04F0D462DED69
:10328000108B04468BB091ED00AB53EC1A2B51EC34
:103290001A0B04F0F7F994ED0CCB53EC1C2B04F053
:1032A000F1F953EC1C2B04F0EDF994ED30FB41ECFB
:1032B000180B53EC1A2B51EC1F0B04F0E3F98B465F
:1032C0004BEC100B074653EC1A2B51EC100B04F08F
:1032D000D9F994ED00EB53EC1E2B04F0D3F953EC29
:1032E000182B04F0C9F941EC190B53EC1E2B51ECCF
:1032F0001A0B04F0C7F953EC1C2B04F0C3F94BEC88
:10330000107B94ED121B41EC180B53EC112B51EC7C
:10331000100B04F0B7F953EC192B04F0B0F953EC8F
:10332000182B04F008F941EC1B0B1FEDC30B51ECFB
:103330001A0B53EC102B04F0A5F9894649EC100B3D
:1033400095ED029B064653EC192B51EC100B04F043
:1033500099F953EC1C2B04F095F994ED0EDB53EC2A
:103360001D2B04F08FF941EC180B1FEDD30B51EC22
:103370001F0B53EC102B04F085F9824653EC1A2BEB
:10338000069104F07FF953EC192B04F07BF994EDCE
:10339000021B53EC112B04F075F953EC1B2B04F0BA
:1033A000CAF853EC182B04F067F941EC180B53ECF6
:1033B0001C2B51EC1A0B04F065F9049194ED06BB3B
:1033C000804653EC1B2B04F05DF941EC110B4BECE8
:1033D000107B8DED001B94ED141B51EC100B53EC86
:1033E000112B04F04FF953EC182B04F048F99DED24
:1033F000001B53EC112B04F09EF841EC110B49EC2F
:10340000106B8DED001B95ED048B51EC100B53EC04
:10341000182B04F037F953EC1C2B04F033F994ED1E
:1034200010CB53EC1C2B04F02DF941EC110B53EC99
:103430001A2B8DED021B069941EC10AB51EC100BD1
:1034400004F020F953EC182B04F01CF994ED041B44
:1034500053EC112B04F016F99DED001B53EC112BCE
:1034600004F069F89DED021B53EC112B04F004F9F4
:1034700041EC100B8DED000B049994ED0AAB41EC7F
:10348000108B53EC1A2B51EC100B04F0FBF841ECB1
:10349000110B4BEC107B8DED021B94ED161B51ECC8
:1034A000100B53EC112B04F0EDF89DED001B53ECC9
:1034B000112B04F0E4F89DED021B53EC112B04F0EA
:1034C0003AF841EC110B8DED001B9FEDFE0B51EC1A
:1034D0001E0B53EC102B04F0D5F853EC1E2B04F00C
:1034E000D1F841EC110B8DED021B9FEDF60B51EC69
:1034F0001F0B53EC102B04F0C5F8059194ED241B21
:10350000814653EC112B04F0BDF89DED001B53ECEC
:10351000112B04F010F89DED021B53EC112B04F05D
:10352000ABF841EC110B53EC1E2B8DED001B51EC55
:10353000190B04F0A7F853EC1D2B04F0A3F841EC91
:10354000110B53EC192B8DED081B51EC1F0B04F0E4
:1035500099F8039194ED181B064653EC112B04F0D7
:1035600091F89DED001B53EC112B04F088F89DEDB4
:10357000081B53EC112B03F0DEFF41EC110B8DED1A
:10358000001B9FEDD20B51EC1E0B53EC102B04F0E3
:1035900079F88B464BEC100B054653EC1B2B51EC8A
:1035A000100B04F06FF841EC110B8DED081B9FED33
:1035B000C70B51EC1F0B53EC102B04F063F8049174
:1035C00094ED2A1B804653EC112B04F05BF89DED23
:1035D000001B53EC112B03F0AEFF9DED081B53ECC9
:1035E000112B04F049F841EC110B53EC1E2B8DED1F
:1035F000001B51EC180B04F045F853EC1C2B04F0A5
:1036000041F841EC1E0B53EC182B51EC1F0B04F04E
:1036100039F8029194ED1E1B074653EC112B04F070
:1036200031F89DED001B53EC112B04F028F853ECFE
:103630001E2B03F080FF4BEC105B41EC1F0B53EC97
:103640001A2B51EC100B04F01DF841EC1E0B0499E1
:1036500094ED2C1B41EC108B53EC112B51EC100B07
:1036600004F010F853EC1F2B03F065FF53EC1E2BF6
:1036700004F002F841EC1F0B53EC192B51EC190B21
:1036800004F000F853EC1D2B03F0FCFF53EC1D2B52
:1036900003F0F8FF41EC1E0B039953EC192B41EC9E
:1036A000106B51EC100B03F0EDFF53EC1B2B03F0F0
:1036B000E9FF53EC1F2B03F03EFF53EC1E2B03F0EE
:1036C000DBFF41EC1F0B53EC1B2B51EC190B03F0F0
:1036D000D9FF53EC1D2B03F0D5FF41EC1E0B0399D2
:1036E00094ED1A1B41EC106B53EC112B51EC100BA9
:1036F00003F0C8FF53EC1F2B03F0C1FF53EC1E2B4C
:1037000003F019FF41EC1F0B9FED720B51EC190BED
:1037100053EC102B03F0B6FF53EC182B03F0B2FF61
:1037200053EC1D2B03F0AEFF53EC1C2B03F0AAFF50
:1037300041EC1E0B069953EC192B41EC10AB51ECEC
:10374000100B03F09FFF53EC182B03F09BFF94ED3D
:10375000081B53EC112B03F095FF53EC1F2B03F0C8
:10376000EAFE53EC1E2B03F087FF41EC1E0B53ECDB
:103770001D2B51EC190B03F085FF53EC1A2B03F0B2
:1037800081FF41EC190B039994ED1C1B41EC106B6C
:1037900053EC112B51EC100B03F074FF53EC1E2B68
:1037A00003F06DFF53EC192B03F0C5FE41EC1D0B2C
:1037B0009FED44EB51EC1B0B53EC1E2B03F062FF0F
:1037C00053EC1B2B03F05EFF41EC190B059994EDB4
:1037D000261B41EC109B53EC112B51EC100B03F00A
:1037E00051FF53EC1D2B03F0A6FE53EC192B03F0F5
:1037F00043FF41EC1D0B53EC1B2B51EC180B03F05A
:1038000041FF53EC1C2B03F03DFF41EC190B0299D7
:1038100094ED201B41EC107B53EC112B51EC100B61
:1038200003F030FF53EC1D2B03F029FF53EC192B51
:1038300003F081FE9FED250B41EC190B53EC102B8F
:1038400051EC1B0B03F01EFF53EC1A2B03F01AFF75
:1038500041EC1B0B049994ED2E1B41EC108B53ECA7
:10386000112B51EC100B03F00DFF53EC192B03F04F
:1038700062FE53EC1B2B03F0FFFE41EC1B0B53ECE1
:10388000182B51EC180B03F0FDFE53EC1C2B03F02E
:10389000F9FE53EC1C2B03F0F5FE41EC190B0299D9
:1038A00053EC182B41EC107B51EC100B03F0EAFEAB
:1038B00053EC1A2B03F0E6FE53EC1B2B03F03BFEFC
:1038C0000CE00000000000000000D03F00000000FD
:1038D0000000E03F000000000000004053EC192B06
:1038E00003F0CAFE41EC190B53EC1A2B51EC180BE8
:1038F00003F0C8FE53EC1C2B03F0C4FE41EC180B84
:10390000029994ED221B41EC107B53EC112B51ECEE
:10391000100B03F0B7FE53EC192B03F0B0FE53EC81
:10392000182B03F008FE41EC180B53EC1E2B51EC46
:103930001A0B03F0A7FE53EC1A2B03F0A3FE41EC85
:10394000190B059994ED281B41EC109B53EC112B9E
:1039500051EC100B03F096FE53EC182B03F0EBFD2B
:1039600053EC192B03F088FE41EC100B0BB07DE4F7
:1039700030B50446B0F88C0089B000040690B4F865
:103980008E000D4600040790B4F8900088340004BF
:10399000089002A809F00EFE029906982B46401ADC
:1039A00006900399079806AA401A07900499089868
:1039B000401A08902088616A80B209F0A7FC09B01B
:1039C00030BDF0B50D462DED048B87B06946FFF78D
:1039D000CFFF9FEDFE8B00246F469FEDFE9A03AE56
:1039E00057F8240000EE100A06EB8400B8EEC00A77
:1039F00020EE090A80ED000A20EE000A10EE100AFF
:103A000003F088FF53EC182B03F095FD41EC180BE5
:103A1000641C032CE4DBB0EE480AF0EE680A05F003
:103A200091FAB0EE408AF0EE608A002456F8240045
:103A300003F070FF53EC182B03F096FE03F0AEFF7B
:103A400000EE100A05EB8400641CD0ED000A032C84
:103A500030EE200A80ED000AE8DB686D401C6865E6
:103A600009F058FFE86707B0BDEC048BF0BD2DE905
:103A7000F041044609F022FE40BB09F0B9FD0428DC
:103A800024D0D54920460E46FFF79BFFD34DD5E9FC
:103A90005C01814205DB304603F083F90020C5F864
:103AA0007401208E4FF00406C00515D504F11800EE
:103AB00009F0F6FD8009B0F5C87F0AD2D5F8B80044
:103AC000002850DD401EC5F8B8004AE00120BDE8DE
:103AD000F081C5F8B86044E0D4F8A010D5F814011E
:103AE000081A01D4034600E04342BB4A4FF4A02C1D
:103AF000583A634505DDD4E929035365C2E913103B
:103B00002FE00312D4F8A470D5F818015B43381ADB
:103B100001D4864601E0C0F1000EE64505DDD4F88B
:103B2000A800D164C2E914701BE0001200FB00334E
:103B3000D4F8A800D5F81C11401A01D4014600E0C1
:103B4000414261450DDC001200FB0030B0F5403F02
:103B5000B4DBA034C5F8B86094E80B004C3282E8BE
:103B60000B000020B3E70220B1E72DE9F04F9B4C9A
:103B70002DED028B93B0D4F8A81090ED000B04EB60
:103B8000C10181ED000BD4F8A810491CC4F8A8109D
:103B900090ED020B04EBC10181ED000BD4F8A810ED
:103BA000491CC4F8A81090ED040B04EBC10080ED93
:103BB000000BD4F8A800401CC4F8A800152802DBAC
:103BC0000020C4F8A800182284490CA803F064FC63
:103BD0001822824904A803F05FFC01260DF1300A87
:103BE0000DF1100BA146002406EB460808EB04017A
:103BF00009EBC1050AEBC40795ED001B97ED000B1F
:103C000053EC112B51EC100B03F0B0FE03D295EDE9
:103C1000000B87ED000B0BEBC40795ED001B97ED38
:103C2000000B53EC112B51EC100B03F087FE03D269
:103C300095ED000B87ED000B641C032CD6DB761C86
:103C4000072ED0DB9DED0C1B9DED040B53EC112BCF
:103C500051EC100B03F010FD9DED0E1B9DED060BBE
:103C600041EC180B53EC112B51EC100B03F004FD3D
:103C700053EC182B03F062FE0BD39DED0E1B9DED54
:103C8000060B53EC112B51EC100B03F0F5FC41EC3F
:103C9000180B9DED101B9DED080B53EC112B51ECF7
:103CA000100B03F0E9FC53EC182B03F047FE0BD389
:103CB0009DED101B9DED080B53EC112B51EC100BDF
:103CC00003F0DAFC41EC180B13B0B0EE480AF0EE4A
:103CD000680ABDEC028BBDE8F08F10B504462DEDEF
:103CE000068B9CB0002155200E91CDE90F1011904C
:103CF0009FED3B8B0AA809F02BFC12A90AA809F03A
:103D0000EFFE16AA0EA912A809F00DFF6A460AA92D
:103D100016A809F008FF0198B2EE059A00F5967012
:103D200001900298B0EE490A00F59670029003984F
:103D300000F596700390FEF78BFBBDEEC00A01996B
:103D400010EE100AB0EE490A08440190FEF780FB1D
:103D5000BDEEC00A029810EE101AB0EE490A0844EF
:103D60000290FEF775FBBDEEC00A039910EE100A33
:103D700008440390204601A9FEF77DFC94ED300B2A
:103D80009FED191B51EC100B53EC112B03F0EEFDC2
:103D90005DD21AAA04A92046FEF73FFE60B39DED4E
:103DA000080B9FED138B51EC100B53EC182B03F009
:103DB00063FC41EC100B53EC102B03F063FC41EC63
:103DC000190B9DED060B53EC182B16E000000000BC
:103DD0000000000000008037183D0020F83B002064
:103DE0000000000000408F40000000000000344050
:103DF0000000000000C0724029E051EC100B03F0FD
:103E00003BFC41EC100B53EC102B03F03BFC9DED05
:103E1000040B41EC1A0B53EC182B51EC100B03F074
:103E20002BFC41EC100B53EC102B03F02BFC53EC50
:103E30001A2B03F080FB53EC192B03F07CFB41ECB5
:103E4000100B05F07FF8B0EE408AF0EE608A9FED2F
:103E5000FD0B51EC180B53EC102B03F085FC1CB040
:103E600041EC100BBDEC068B10BD10B5E821F748F6
:103E700003F039FBF648F74920F8BC1F4A0CC28012
:103E8000C181828281834284F048E821E83003F0D6
:103E90002AFBEF490020C1F8B40010BD2DE9F04322
:103EA000EB4D04462DED108BC3B0006BC5F8A0019F
:103EB0002046FFF7DCFD00287ED1D5F8941105F1EE
:103EC000BC08012911D1B4F98C003D90B4F98E00E1
:103ED0003E90B4F990003F903DA9DC48FEF7CBFB43
:103EE00004F18C01404600F0A4FB1FED48DB9FED80
:103EF000DABB9FEDDBCB9FEDDCAB9FEDDDEBD34E73
:103F0000D5F80801E83E002802DD401EC5F808018A
:103F100096ED300B53EC1D2B51EC100B03F026FDEE
:103F20007DD2CA49E822E839684603F0B5FAC748A5
:103F30003DA9E838FEF79FFBC44940AA20390F4647
:103F4000A1F1C800FEF769FD00287BD0BF483946C3
:103F5000E838FFF791F9B0EE408AF0EE608A95ED0F
:103F6000400B51EC180B53EC102B03F085FB96ED36
:103F7000300B41EC190B53EC1B2B51EC100B03F0E5
:103F80007BFB41EC100B51EC190B53EC102B03F0A5
:103F9000EBFB41EC100B04F0D5FF96ED30FBB0EEDF
:103FA000409AF0EE609A53EC1B2B51EC1F0B03F080
:103FB00063FB53EC1F2B00E0E9E003F063FB41ECF3
:103FC0001F0B53EC1C2B51EC180B03F05BFB53EC59
:103FD0001F2B03F0C9FB41EC100B04F0B3FFD5F825
:103FE000E80003F097FC95ED381B53EC112B03F020
:103FF00049FB53EC192B03F0A1FC03D3D5F80801BE
:10400000002826DD9148E8226946E83803F044FAA2
:10401000D5F8E80003F07EFC95ED381B01E010E0D8
:1040200010E053EC112B03F02DFB53EC192B03F094
:1040300085FC5CD24FF4FA7001F0DAFB0A20C5F877
:10404000080154E08148E8226946E83803F024FA80
:104050004DE0D5F89801012849D1D5F8B400401CAD
:10406000C5F8B40000200AF00DF996ED320B53ECC0
:104070001A2B51EC100B03F005FB03F02CFC3A90CB
:1040800096ED340B53EC1A2B51EC100B03F0FAFAAB
:1040900003F021FC3B9096ED360B53EC1A2B51ECC0
:1040A000100B03F0EFFA03F016FC3C9003213AA842
:1040B0000AF082F896ED300B53EC1E2B51EC100BEE
:1040C00003F054FC11D29FED6C0A6049E839F0EE20
:1040D000400A0846FEF7FFF95C483946E838FFF722
:1040E000CBF8B0EE408AF0EE608A85ED408B208EF2
:1040F000564FC0050CD5B4F87400C00508D507F1BB
:10410000E800FFF7EAFDB0EE408AF0EE608A01E0D9
:104110009FED4C8B97ED300B1FEDCD1B51EC100B31
:1041200053EC112B03F00AFC31D3484940AAC831A3
:1041300089464648FEF771FC00287CD0D4F8AC00D4
:1041400003F097FB41EC100B53EC102B9FED4B0B46
:1041500051EC100B03F008FB41EC1F0B4846FFF736
:1041600004FDB0EE409AF0EE609A53EC1F2B51EC38
:10417000190B03F0FBFB0BD29FED420B51EC180B1C
:1041800053EC102B03F0DAFB02D2FFF76EFEDBE1FB
:1041900053EC1F2B51EC190B03F0D0FB51D251EC17
:1041A000180B9FED3A9B53EC192B03F0C7FBF5D28C
:1041B00097ED300B9FED371B51EC100B53EC112B8F
:1041C00003F0D4FBEAD296ED300B53EC1D2B51ECEF
:1041D000100B03F0B3FB7CD149461C48FFF74CF8A9
:1041E000B0EE408AF0EE608A85ED408B97ED309B13
:1041F00053EC1B2B51EC190B03F03EFA53EC192B2B
:1042000003F040FA41EC190B53EC1C2B51EC180B4A
:1042100003F038FA53EC192B03F0A6FA41EC100B1B
:1042200004F090FEB0EE408AF0EE608AD5F8E80027
:1042300003F070FB00E088E195ED381B53EC112B87
:104240002CE078E10000000000000840283A00203F
:10425000F83B00200080FFFF000000000000F03F5E
:104260000000000000000040000000000000F040DE
:104270000000000000409F406666E63E9A999999CA
:104280009999A941000000000000F83F00000000DB
:10429000000010400000000000003E4003F0F2F972
:1042A00053EC182B03F04AFBFFF46FAF9DED400B6E
:1042B00049464046FDF7C4FF02283FF466AF002898
:1042C0007ED1D5F898010128FAD1002009F0DAFF53
:1042D00000E02FE097ED320B53EC1A2B51EC100B52
:1042E00003F0D0F903F0F7FA3A9097ED340B53EC62
:1042F0001A2B51EC100B03F0C5F903F0ECFA3B90CC
:1043000097ED360B53EC1A2B51EC100B03F0BAF966
:1043100003F0E1FA3C9003213AA809F04DFF012097
:1043200009F076FF1920009001900290684609F08C
:1043300067FFF6E0D5F8B40003F09BFA97ED301B69
:1043400053EC112B03F010FA9FEDE71B53EC112BEC
:1043500003F00CFBA8D34946E548FEF78DFF97ED27
:1043600030DBB0EE408AF0EE608A53EC1B2B51EC50
:104370001D0B03F081F953EC1D2B03F083F941EC85
:104380001B0B53EC1C2B51EC180B03F07BF953EC7B
:104390001B2B03F0E9F941EC100B04F0D3FDB0EE58
:1043A00040BAF0EE60BAD5F8E80003F0B3FA95ED44
:1043B000381B53EC112B03F065F953EC1B2B00E079
:1043C00087E003F0BBFAC5D39DED400B494640465C
:1043D000FDF736FF00287CD196ED361B97ED360BA6
:1043E00053EC112B51EC100B03F046F941EC100B80
:1043F00053EC102B03F046F996ED341B97ED340B7C
:1044000041EC1B0B53EC112B51EC100B03F034F966
:1044100041EC100B53EC102B03F034F996ED321BEA
:1044200097ED320B41EC1C0B53EC112B51EC100BA4
:1044300003F022F941EC100B53EC102B03F022F99E
:1044400053EC1C2B03F077F853EC1B2B03F073F8A1
:1044500041EC100B04F076FDB0EE40BAF0EE60BA1D
:10446000D4F8AC0003F005FA53EC1B2B03F00AF967
:104470009FEDA01B53EC112B03F004F941EC1B0B37
:1044800053EC192B03F072FA1AD39FED9C0B51ECED
:104490001B0B53EC102B03F069FABFF476AED5F882
:1044A000B40003F0E6F997ED301B53EC112B03F049
:1044B0005BF99FED941B53EC112B03F03FFAECD208
:1044C000D5F8980101287FF460AE002009F0DAFEEB
:1044D00000E039E085ED408B97ED320B53EC1A2B61
:1044E00051EC100B03F0CEF803F0F5F93A9097ED8C
:1044F000340B53EC1A2B51EC100B03F0C3F803F000
:10450000EAF93B9097ED360B53EC1A2B51EC100B5C
:1045100003F0B8F803F0DFF93C9003213AA809F062
:104520004BFEF7EE000A9FED790A7149A1F1E80010
:10453000FDF7D1FF29E697ED300B53EC1E2B51EC24
:10454000100B03F013FAF5D3002043B0BDEC108B31
:10455000BDE8F08370B56E4C0546D4F80C0110B977
:10456000284600F091F8D5F8B01044F6206081425A
:104570000ADAD4F8102111448142C4F810114FF026
:10458000000005DBC4F810012846BDE8704085E452
:1045900070BD04224FF4C871AFF2470009F0AABC05
:1045A000AFF24F0009F076BF514810B5E821E83866
:1045B00002F099FFFFF759FC4FF4D471544802F010
:1045C00092FF534CB7EE000A04F5907084ED3A0A5E
:1045D00002F033FB0A20C4F87001B2EE000A84ED49
:1045E000570A1E209FED4B0AC4F87C0184ED620A35
:1045F0009FED490A84ED610A9FED480A002084ED91
:10460000630A10BD10B5FFF7CFFF002805D1AFF248
:104610007D00BDE8104009F0F5BC10BD10B5AFF24B
:10462000CB0009F037FFAFF29500BDE8104009F06C
:1046300057BF30B50022C2EBC20331F9124030F946
:104640001350AC420ADD02EB42040D8820F82450DE
:1046500000EB84044D8865808D88A58000EB4303C2
:1046600031F91240B3F906309C4209DA02EB4203F9
:1046700000EB83030C88DC804C881C818C885C8177
:10468000521C032AD7DB30BD70B5214DD0F8AC20C9
:104690000446EAB1D3170020192102F0A6FE45F81E
:1046A000AC0F54F8AC2F0020D317052102F09DFE6B
:1046B000686022680020D317962102F096FE03F06E
:1046C000D8F8C5E90D01AC3D0120C5F80C0170BD5D
:1046D0006FF00040C5F8AC009FED110BC5F8B000BD
:1046E00085ED380BF0E700000AD7A3703D0AE73FDD
:1046F000283A0020000000000000103E00000000EA
:1047000000000440333333333333C33F0000000031
:10471000F83B0020CDCCCC3E3333333F9A99193F40
:104720000000C0FFFFFFDF4110B5FF49C4074FF095
:1047300040434FF0804205D08B66CB66C1E91C3206
:104740008A67CA67840709D5C1F80031C1F8043106
:10475000C1E94232C1F81021C1F81421400709D53E
:10476000C1F89831C1F89C31C1E96832C1F8A8217B
:10477000C1F8AC2110BD2DE9F14F002082B0824676
:1047800081460298806F00287ED000220020401CC5
:104790000428FCDB029800EBC203D3E90010A1FB64
:1047A0000167D3E9065400FB017701FB0077AB46B4
:1047B000AD1BCDE900670326A5FB06C8A64664EB42
:1047C000070404FB0684002705FB0745DDE90067B5
:1047D0001CEB06047D41A4FB016705FB017504FB8E
:1047E0000055D3E90C47341B65EB0705CDE90045BF
:1047F0005D46A5FB05670324A6FB04580EFB0B775B
:104800000BFB0E7707FB04844FF0000C06FB0C44F7
:10481000D3E91263761B63EB04034C18A4FB017C01
:1048200040EB000505FB01C504FB0055A7FB014C4F
:1048300005FB01C507FB0055A4FB017C05FB01C579
:1048400004FB0054F6196341DDE90045AD0045EA7B
:104850009475A400A4FB017C05FB01C104FB0014BA
:10486000F01B73EB040103D50023404263EB01010D
:10487000BAEB000479EB010301DA82468946521C47
:10488000032A83DB504600E016E0494602F0DBFFD6
:1048900000EE900AA54890ED0E1A80EE810A10EE07
:1048A000100A02F0F7FFA04AD2F80C2203B09200DF
:1048B000BDE8F04F02F0D9BD002003B00146BDE8CD
:1048C000F08F2DE9F14F0020009A0146926FE2B37C
:1048D00000240022521C042AFCDB009A02EBC405CF
:1048E000AA46D5E90029A2FB023CD5E906769E46F8
:1048F000FB1A0325A3FB057809FB02CC02FB09CBBD
:1049000066EB0B0606FB05854FF0000C03FB0C560F
:1049100017EB0E03A3FB027C46EB0B0606FB02C261
:1049200003FB0923DAE90C25BA1AAB4103D50025AC
:10493000524265EB0303851A71EB030501DA104659
:104940001946641C032CC4DB00E015E002F07BFF79
:1049500000EE900A754890ED0E1A80EE810A10EE76
:10496000100A02F097FF704AD2F80C22BDE8F84F07
:1049700002EB420202F079BD00200146BDE8F88F4B
:104980002DE9FE43684D80460024D5F810626F463D
:1049900005EBC4013246D1E9020102F057FD05EBF7
:1049A0008401B1F884100904401847F8240004F188
:1049B0000104032CECDB5C489821083002F093FDE5
:1049C0000120FFF7B1FE95F8E8010199042807D10D
:1049D000D5F81802B0F5201F02DD052085F8E801A2
:1049E000524C0098636AC11A01D40E4600E01E1AA8
:1049F0000198A26A801A01D4074601E0019FD71BE3
:104A0000BE4206DD002901D4084606E00098181AC7
:104A100003E0002801D50198101A029AE16A521A9F
:104A200001D4134601E0029BCB1A834205DB002A26
:104A300001D4104601E00298081AD8F8241009F0B1
:104A400016F8D5F81812814206DD0321684609F0F0
:104A50005FFC022009F0AEFC009860620198A06241
:104A60000298E062BDE8FE83304AC2E90201704765
:104A70002E4AC2E9060170472C4AC2E90401704778
:104A8000294AD2F8E0310360D2E97402C1E9000298
:104A90007047254AD2F8E0310360D2E97602C1E9D5
:104AA000000270472DE9FE4781460020EA468A6FE2
:104AB00022B901EB800339F91020DA6701EB80029B
:104AC00039F91030D46F1D1B4AF82050136E9D42E7
:104AD00000DD1566D36E9D4200DAD5660123002401
:104AE00022464FEAE578A3FB056704FB057403FB48
:104AF0000844334602EB420601EBC60606EBC00C47
:104B0000DCE90076FF186641CCE90076521C042AE5
:104B1000E9DB401C0328CADB886F401C8867012042
:104B2000C1F89000BDE8FE87A03D002000400020B5
:104B300030B5002302EB830550F823405B1CEC6684
:104B4000032BF7DBC2F88810916F79B1002102EBDB
:104B5000810450F82130E56F5B1B00D55B42256E68
:104B60009D4200DA2366491C0329F0DB906F401C4C
:104B700090670120C2F8900030BD10B500210B46AF
:104B800000EB8102491CD46ED46713660329F7DB5E
:104B9000D0F8881040F8783FC0E9051310BDD0E97F
:104BA0002210081A70470146D1E91802824200DB40
:104BB0001046896E814200DB084670472DE9F047B8
:104BC0008046501E012686408946C2F12007404695
:104BD00002F04BFC04460D46404649463A4602F078
:104BE00035FC3A4602F041FCB04203DD641C45F15D
:104BF000000505E07142884202DA641E45F1FF3586
:104C000020462946BDE8F087F7490020086248623F
:104C10008862C862086448648864C864086348633A
:104C20008863C863086548658865C865704730B59E
:104C3000EE4AD2F8483223B1D2E990542D1A8C4171
:104C400001DAC2E990015B1CC2F8483230BD30B5D0
:104C5000E64AD2F8583223B1D2E994542D1A8C4145
:104C600001DAC2E994015B1CC2F8583230BD30B59C
:104C7000DE4AD2F828322BB1D2E98845041B71EB09
:104C8000050401DAC2E988015B1CC2F8283230BD94
:104C900030B5D64AD2F838322BB1D2E98C45041B54
:104CA00071EB050401DAC2E98C015B1CC2F83832F1
:104CB00030BD2DE9F0470246CC480125083080463A
:104CC000C36E016E046FC91A436E1B1B8B4200DB5F
:104CD0001946836ED8F87400181A884200DB014622
:104CE000C14F6037F86B884204DA002400F010FAF4
:104CF000204687E7108E0124BC4EC0054FF000010E
:104D00000ED5D6F880303068834209DBB2F87420C3
:104D1000D20506D5D6F8B021824201DB052400E099
:104D20000C4674B3600719D5AF48C8388146FFF701
:104D300022FD000D40EA01300915C6E97601D7E9E8
:104D400004321B1A8A4102DA0025FFF7A1FF9821DD
:104D5000484602F0C8FB0420FFF7E6FCE0070ED04F
:104D60004046FFF708FDC6E97C01D7E90634024654
:104D7000181A8C4103DA00251046FFF778FF284601
:104D800040E7FFE702203DE71EB5044690F83000FB
:104D9000C0F38110032804D19449201D0831FFF786
:104DA00081FE94F87400C0F38110032805D18E4968
:104DB00004F14800C839FFF775FED4F8B8008B4AF3
:104DC000C0F38113A0326946032B0FD0C0F341100A
:104DD00003281AD1002004EB8003D3F8A0309B13E2
:104DE00041F82030401C0328F5DB09E0002004EBEB
:104DF0004003B3F98C3041F82030401C0328F6DB27
:104E00006846D4F8C010FFF793FE1EBD2DE9F047A9
:104E100005460020296BCA056AD501F050014029DA
:104E200000D1012095F8741001F05001402900D103
:104E3000012095F8B8106D4C01F05001402900D0C8
:104E400030B100F065F90020C4F8E00184F8E80111
:104E5000654ED4F80812E86A6036814228D0C4F85A
:104E600008020A28306B0CDA40002060716B00EEFB
:104E7000100A491CC4F80C12B8EEC00A04F09FF8DE
:104E800005E02060706BC4F80C0296ED0E0A84ED0C
:104E9000850AD4F80C02C0F11000C4F810024FF4D7
:104EA0008040C4F8180296F8341019208840F06346
:104EB0002846FFF769FF94F8E811DFF830910527DD
:104EC0004FF0020809F1A009072911D2DFE801F02B
:104ED000041127305E7E8500D4F8E001411CC4F83F
:104EE000E0110A2804DB00F013F9012084F8E8013E
:104EF00086E0D4F89800012810D12846FFF7D9FEA3
:104F000010B1012803D004E084F8E87101E084F8CE
:104F1000E8814846FFF731FEFFF776FE70E0032098
:104F200084F8E8012846FFF72BFD00F0F1F867E070
:104F30002846FFF7BEFEE8B3012861D1B5F8B800F6
:104F40004FF00403C00515D54846FFF72CFE014677
:104F5000C017C4E97410D6E902C2BCEB010182415A
:104F600002DA84F8E87108E04846FFF718FE316A73
:104F7000884202D384F8E83124E0F4E97601FFF7AF
:104F800066FED4E90601FFF752FE39E0B5F8B80035
:104F9000C0050BD54846FFF706FE0146C017C4E919
:104FA0007410D6E90232591A824108DB2846FFF70D
:104FB00080FE00E003E010B1012803D020E084F877
:104FC000E8711DE02846FFF7DBFCD6E7062084F8F1
:104FD000E801012009F0EEF90DE02846FFF769FE2F
:104FE000012805D038B10BE0A03F0020A03D0020F3
:104FF00084F8E88104E000F08BF84846FFF7BDFD37
:105000000020FFE510B500214010002802D001F17A
:105010000101F9DC4FF0010001F1010100FA01F09A
:10502000434C00EE100AC4E90C01B8EEC00A03F0CC
:10503000C6FF84ED0E0A94F8341019208840E0630E
:1050400010BD10B54FF418713A4802F04CFA4021E7
:10505000374802F048FA0720FFF766FB344840F271
:10506000DC510022C0E906121421C0E902124FF4FB
:105070001671C0E9041230492E4C01620120C4F8B7
:10508000E4011920FFF7BEFF0020C4F8080210BD9C
:1050900010B54FF41871274802F025FA0720FFF7E2
:1050A00043FB244801210022C0F8E41180F8E811F4
:1050B0000321012009F074F907226421AFF2B32023
:1050C000BDE8104008F016BF10B5012009F072F9D4
:1050D000AFF2C720BDE8104009F0DCB910B5FFF70A
:1050E000B0FF002805D1AFF25700BDE8104008F02E
:1050F00089BF10BD10B5FFF7E7FFAFF26B00BDE849
:10510000104009F0EDB90B49D1E97C0170477047B7
:10511000084810B59821083002F0E5F998210748B1
:1051200002F0E1F9BDE810400520FFF7FDBA0000EC
:1051300000400020A03D00200008AF2FD83E0020F6
:10514000F0B516462DED028B85B01F460C46054680
:105150003C22FE49A1F10C0002F09EF9FB495022CD
:105160004C31A1F1100002F097F9F84996E80D00D2
:105170000C3901F13C0C8CE80D005CCC01F198007D
:1051800080E85C009FEDF28AD1F82401401CC1F850
:105190002401062802DD0620C1F82401C0F106061C
:1051A0000C46A0351AE004EB06116A463846483131
:1051B00008F0B9FC06EB460004EB80016A4628467D
:1051C00008F04EF8F0EEC00AB0EEC81AF4EEC10ACC
:1051D000F1EE10FA01D2B0EE408A761C062EE2DB28
:1051E00005B0B0EE480ABDEC028BF0BD70B51446B8
:1051F0002DED048B0E46B0EE408A00259FEDD59A2A
:10520000416BF0EE498A002904DBD0F8BC0003288A
:1052100000D10125CD492422B431081F02F03CF908
:10522000CA480C38002380ED388A00EB83015B1CF0
:1052300091ED2F0A0A2B70EE288AF6DBB2EE040AF3
:10524000C822C8EE800AC0ED390A9FEDC31A322E7B
:105250001DDB9FEDC20AC0F81C21B6F57A7FC8EEAF
:10526000001A00EE104AB8EEC00A61EE801A81EE14
:10527000810A2FDB9FEDBA0AC8EE001A00EE104A31
:10528000B8EEC00A61EE801A81EE810A22E041F296
:10529000883194FBF1F14942D0F81C3101EB8101D6
:1052A000C918C0F81C1102D50021C0F81C119FEDCF
:1052B000AD0AC8EE001A00EE104AB8EEC00A61EE60
:1052C000801A81EE810A29B9D0F82811012901D16B
:1052D000B0EE490AD0F8201109B1B0EE480AA2494F
:1052E0008C4201D1B0EE480AB5EEC00AF1EE10FAD8
:1052F00001D0C0ED3A0A90ED3A1A9C4B71EE600A6B
:10530000F0EEE00A10EE901A994227DDD0ED2E0A59
:10531000F5EEC00AF1EE10FA20D1002D1ED0C0F833
:105320001C21204602F0A5FA41EC190B18EE100AD8
:1053300002F0F0FA9FED8E1B53EC112B02F014FAE1
:1053400053EC192B02F09EF99FED8B1B53EC112BA4
:1053500002F00AFA02F022FB00EE100ABDEC048B08
:1053600070BD2DE9F04F04462DED048BA9B09FEDE3
:10537000799A4FF0000A754ECDF810A00C3ECDF88A
:1053800014A0CDF818A0D6F82011022003297DD052
:1053900000209FED7B8A20AD06EB800191ED2A0A6B
:1053A00005EB8001401CB8EEC00A042820EE080A74
:1053B00081ED000AF0DB0FA808F0CAF824A808F075
:1053C0001DF9624B24AA9C330FA920462793FFF7AF
:1053D000B7FEF0EE408A04F1180008F061F9810987
:1053E0006148D6F83021824200DB0246B0EE680AFE
:1053F0002046FFF7FBFED6ED3B0AB3460BA820EE96
:10540000200A86ED2E0A08F0A3F813A90BA808F0CD
:1054100004FD4E480FAAF0300BA9064608F083FBA6
:1054200031460BA808F05CFB00210DF13C080DF1A2
:105430004C090DF1100E00221346104601EB410CF1
:105440000CEB000759F8276008EB8007401C7F68C9
:105450000328C6FB0723F3DB900F40EA83004EF8D6
:105460002100491C0329E6DBDBF820015E46002809
:105470006AD05046CDF818A0404200EE100AB8EEAF
:10548000C00A20EE080A03F0FFF900E0A2E08DED6B
:10549000000A8DED019A8DED029A0698404200EEC9
:1054A000100AB8EEC00A20EE080A03F083FC8DED66
:1054B000030A9DED060ADFED330AD6F83001B8EE97
:1054C000C00A41F2883190FBF1F080EE201A00EE24
:1054D000100AF8EEC01A81EE210AB0EE001AC0EEF2
:1054E000011ABDEEE10A10EE101A490000EE101A82
:1054F0000691B8EEC00A60EE200A00EE100AB8EE7F
:10550000C00A20EE800ABDEEC00A8DED060AB8EE94
:10551000C00A20EE080A03F0B7F98DED070A8DEDF9
:10552000089A8DED099A9DED060AB8EEC00A20EEA4
:10553000080A03F03FFC8DED0A0A1CAA694620A860
:1055400008F049FB6A461FE04BE000004C40002099
:10555000002474490000000000409C4500004843BE
:10556000000048420000C84340420F000E2DB23DEB
:105570000000000000007940000000000088B340F7
:1055800000008030E102374707A91CA808F023FB80
:105590006F46DFED958AD4F8BC00002813DD0020AB
:1055A00007EB800191ED000A05EB800181ED000A17
:1055B00020EE280A06EB8001401C0428BDEEC00A3C
:1055C00081ED2A0AECDBD4F8BC00F6EE009A032841
:1055D0000CD108E0C6F8200129B0BDEC048BBDE871
:1055E000F08F069848E700F0DBFBE0B396ED2A0A5F
:1055F000B8EEC00A20EE080A8DED1C0A96ED2B0AC3
:10560000B8EEC00A20EE080A8DED1D0A96ED2C0AB0
:10561000B8EEC00A20EE080A8DED1E0A96ED2D0A9E
:10562000B8EEC00A20EE080A8DED1F0AD6F8200158
:105630000028D1D096ED2E0A20EE290A03F024F995
:1056400020EE280ABDEEC00A86ED2A0AC6F8ACA0F4
:10565000C6F8B0A096ED2E0A20EE290A03F0AAFBA8
:1056600020EE280A00E004E0BDEEC00A86ED2D0A17
:105670002BE096ED2E0A20EE290A03F005F98DEDB8
:10568000070A8DED089A8DED099A96ED2E0A20EE07
:10569000290A03F08FFB8DED0A0A6A4607A920A8A4
:1056A00008F099FA684608F041FB002007EB8001FA
:1056B00091ED000A06EB8001401C20EE280A042828
:1056C000BDEEC00A81ED2A0AF0DBD4F8C01027989D
:1056D00008F0A4FDD6F820010028AAD0401E79E7E2
:1056E00070B590F8B810414ACC064FF000034FF067
:1056F000030101D4C2E94813B0F82041E40509D4FC
:10570000048EE40503D5B0F87440E40502D4C2E980
:1057100048131AE0D2F8341139B1D0E93013C91A5C
:105720004FF47A73B1FBF3F105E0D0F8B01044F612
:105730002064A14202DBC2F830110AE0D2F82C51F9
:105740002944C2F82C11A14201DA002070BDC2E93F
:105750004B31FFF706FEF8E710B54FF49C71234874
:1057600001F0C1FE214C4FF080400021C4F8FC0044
:1057700044F8A80F1D48A83008F050FD4FF47A7087
:10578000B7EE000A606784ED110A10BD174880ED7E
:105790003B0A002070471549C1F8280100207047D6
:1057A0001249C1F834010020704704224FF41671E9
:1057B000AFF2D30008F09EBBAFF2DB0008F06ABE88
:1057C00010B5FFF7C9FF09490020C1F82801C1F849
:1057D0003401AFF22900BDE8104008F013BCAFF26D
:1057E000350008F07DBE00000000804E40400020E3
:1057F000002803DDFE490122C1E920020020704794
:1058000010B5B821FA4801F06EFE9FEDFA0AF8488B
:1058100080ED030A9FEDF80A80ED020A9FEDF70A7A
:105820004FF0804180ED000AB3EE0E0A80ED010AD0
:1058300041664FF4FA619FEDF20AC16780ED270AD5
:10584000002010BD70B5EA4C002594ED001AB4EEAE
:10585000C01AF1EE10FA17D394ED011AB4EEC01A83
:10586000F1EE10FA10DC2069012817D194ED030A3B
:10587000B4EEE00AF1EE10FA06D394ED020AB4EEAB
:10588000E00AF1EE10FA09DD606F20B9D848A16D89
:10589000183008F0C3FC0120C4E91D05D4E91E013D
:1058A000884204DB606F012800D1E565656770BD43
:1058B00010B504462DED028BB0EE408A07F052FE83
:1058C000CB49002220B918EE100ACE4B984202DDD7
:1058D0000A614A6102E00869002808D14869204449
:1058E0004861B0F5FA7F02DD0120C1E90402BDEC98
:1058F000028B10BDF0B58DB00D46144606466946C4
:1059000008F08BFA09AA3146284608F00CF9294616
:10591000304608F0E5F80021EC460DF1240E002396
:105920001A46184601EB41073D180EEB80065CF85D
:1059300025507668401CC5FB06320328F4DB980F1F
:1059400040EA820044F82100491C0329E7DB0DB03E
:10595000F0BDA7490020C1F88C00704710B590ED4C
:10596000000AD0ED010AB8EEC00AB8EEE01AF8EE6F
:10597000E00A20EE000A01EE200AD0ED020AB8EE9D
:10598000E01AF8EEE00A01EE200A03F018FBDFED62
:105990009E0A20EE200A10BD00229549012330B155
:1059A000012810D0C1F8983041F88C2F31E081EDFA
:1059B000280A81ED290A9FED950A81ED2A0AE1E97D
:1059C00024328A607047D1ED280A91ED271A70EED3
:1059D000600AF0EEE00AF4EEC10AF1EE10FA16D217
:1059E000D1F89400401CC1F89400D1ED290A312867
:1059F00030EE800A81ED290AE4DD0220DFED840A21
:105A0000C1F8900080EE201A81ED2A1A704741F803
:105A1000902F4A6070472DE9F04798462DED088B8E
:105A20008AB017468A4604469FED788A0025704E54
:105A3000039504950595D6F8880000287DD007F0D9
:105A400027FE10B103A807F003FED6F880004FF040
:105A50000109002817DDC6F8849007F019FE48B147
:105A600003A807F01DFE8009B0F5C87F02D2D6F862
:105A7000800004E0D6F88000001BC6F880000028F3
:105A800001DCC6F8845007F045FF002855D00020FF
:105A90009FED5D9A57F8201000EE101A58F820106C
:105AA000401CB8EEC00A032860EE090A00EE101A86
:105AB000B8EEC00A20EE800A00EE098AEADB38461A
:105AC000FFF74CFFF0EE408A4FF07E5788EE280A31
:105AD000F7EE00AA10EE100AB84201DDB0EE6A0A35
:105AE00010EE100ADFF82C81BFEE00BA404501D954
:105AF000B0EE4B0A02F0AEFCD6F88C00B0EE40AA35
:105B000098B196ED000AB4EEE80AF1EE10FA0CDD59
:105B100096ED010AB4EEE80AF1EE10FA05D2B0EE05
:105B20004A0AD6F89000FFF737FF684607F030FEC4
:105B30002F490C22AC31684600E0E2E001F0E5FCC0
:105B400018B9D6F8980001286BD129489DE80E00B5
:105B5000AC3080E80E00009818B9019808B9029896
:105B6000F0B36846FFF7FAFEB0EE408AB5EEC08AA1
:105B7000F1EE10FA55D0F2EE049A38EE690A20EEF2
:105B8000000A03F01CFA86ED010A38EE290A20EE1D
:105B9000000A03F014FA86ED000A9DED020AB8EE41
:105BA000C00A60EE090AB0EE480A80EE808A18EE5C
:105BB000100AB84201DDB0EE6A8A18EE100A4045BC
:105BC00001D9B0EE4B8AB0EE480A02F043FCD6EDA4
:105BD000270A30EE600A86ED020AB0EE480A00E0BD
:105BE00024E002F037FCD6ED270A30EE200A14E05C
:105BF000784100200000B4420000B4C200007042AE
:105C00007B142E3E00401C46000080370000000040
:105C100000004842000080BF03E086ED030AC6F89A
:105C20008C50DFF88481F16D21B32FE01FED0D0A58
:105C300086ED000AB3EE0E0A86ED010AD6F898004A
:105C4000012808D01FED140A86ED020A1FED170A7D
:105C500086ED030AE5E796ED2A0A96ED271A70EE1F
:105C6000410A30EE010AC6ED020A86ED030AC6F8C3
:105C70009850D6E70027C6F85C9006EB071041461F
:105C8000183007F0A1FC7F1C042FF6DB464906AA5A
:105C90000C310F465046FFF72DFE3946504607F0AF
:105CA0001FFF03A807F0FCFC00EE100ADFED3F0A1F
:105CB0002046B8EE400A20EE200AFFF7F9FDF0EE8C
:105CC0004A0AB0EE680AFFF7BDFDD6E91E01884218
:105CD00001DA2044B067706F90B9306E20443066AE
:105CE000B0F57A7F0CDD304930223039A1F1100057
:105CF000356601F0D1FB2C484146103807F064FCB2
:105D0000706F0AB0BDEC088BBDE8F08770B588B045
:105D1000044604A807F072FCD4E93001451A68462D
:105D200007F016FC064604AB04F1A00269462846BB
:105D3000FFF771FE08F082FA08B0304670BD042209
:105D40004FF49671AFF23B0008F0D4B8AFF24300C5
:105D500008F0A0BB10B5FFF753FD00280DD1124885
:105D600000215838C0F88C100121C0F88810AFF21B
:105D70003100BDE8104008F045B910BD10B5AFF2D4
:105D8000730008F087FBAFF27B00BDE8104008F01D
:105D900081BB054901205839C1F88C0000207047AB
:105DA00001485838406F7047D04100200000803CC7
:105DB000F0B51D462DED028B99B090ED000AD0EDA7
:105DC000010A1746B8EEC00AB8EEE01AF8EEE00A8B
:105DD0000E4620EE000A044601EE200AD0ED020A2B
:105DE000B8EEE01AF8EEE00A01EE200A03F0E7F858
:105DF000F0EEC00A10EE900AB0F18D4F7EDDD6EDC8
:105E0000000AB8EEE01ADFEDFE0A21EE201A8DED51
:105E1000041A96ED011AB8EEC11A21EE201A8DED82
:105E2000051A96ED021AB8EEC11A21EE201A8DED70
:105E3000061A96ED031AB8EEC11A61EE200ACDEDEE
:105E4000070A9FEDF08A10AA8DED0C8AD4ED000AA6
:105E50000CA904A8F8EEE00A80EE801A8DED0D1A68
:105E6000D4ED010AF8EEE00A80EE801A8DED0E1AEC
:105E7000D4ED020AF8EEE00A80EE801A8DED0F1ADA
:105E800007F0A9FE14A904A807F036FE6A4614A973
:105E900010A807F0A0FE9DED021ADDED010ADA4917
:105EA00021EE010A00EEA00A10EE100A884202DA82
:105EB0009FEDD60A11E010EE100AD549884202DAA9
:105EC0009FEDD40A09E010EE100AD349884202DAA5
:105ED000B5EE000A01E09FEDD10A01EE907AB8EE2E
:105EE000E12ADFEDCF2A8DED088AC2EE221A21EEDB
:105EF000800A21EE001A8DED091A00E038E020EE4C
:105F0000C00A6A4604A98DED0A0A8DED0B8A08A81D
:105F100007F061FE6A4604A9104607F0C0FD684616
:105F200007F0C2FEDDED000A9FEDBE0A60EE800ABA
:105F3000FDEEE00AC5ED000ADDED010A60EE800A23
:105F4000FDEEE00AC5ED010ADDED020A60EE800A11
:105F5000FDEEE00AC5ED020ADDED030A20EE800A3F
:105F6000BDEEC00A85ED030A19B0BDEC028BF0BD91
:105F700096E80F0085E80F00F6E72DE9F0410C46A2
:105F80002DED068B054690ED000AD0ED010AB8EE26
:105F9000C00AB8EEE01AF8EEE00A20EE000A01EEC0
:105FA000200AD0ED020AB8EEE01AF8EEE00A01EE9F
:105FB000200A03F004F810EE100A4FF07E58002675
:105FC0004FF0804740453FDDD5ED020AB7EE009A1D
:105FD000F8EEE00AC0EE808A39EE680A9FED89AAE1
:105FE000B5EEC00AF1EE10FA01DCB0EE4A0AF6EEA8
:105FF000009A20EE290A02F0E2FFB0EE408A38EE65
:10600000890AB5EEC00AF1EE10FA01DCB0EE4A0AD8
:1060100020EE290A02F0D3FFF0EE408A95ED000A47
:10602000B8EEC00A60EE000A95ED010AB8EEC01A9B
:10603000B8EEC00A41EE000AB0EE600A02F0BFFFFF
:1060400010EE100A404503DCC4E90076A66025E0A6
:10605000DFED740A28EEA01ABDEEC11A84ED001A15
:1060600095ED011AF8EEC11A81EE801A21EE081A98
:1060700061EE200AFDEEE00AC4ED010AD5ED000A4A
:10608000F8EEE00A80EE801A21EE080ADFED660ADB
:1060900020EE200ABDEEC00A84ED020AE660BDECE7
:1060A000068BBDE8F08170B590ED000AD0ED010AD5
:1060B0000546B8EEC00AB8EEE01AF8EEE00A0C4663
:1060C00020EE000A01EE200AD0ED020AB8EEE01A36
:1060D000F8EEE00A01EE200AD0ED030AB8EEE01A6D
:1060E000F8EEE00A01EE200AB5EEC00AF1EE10FA71
:1060F00007D84FF08040206000206060A060C8603A
:1061000070BD02F05CFFB7EE001AC1EE000A9FED11
:10611000450A20EE800AD5ED000AF8EEE00A60EEAE
:10612000800AFDEEE00AC4ED000AD5ED010AF8EEA2
:10613000E00A60EE800AFDEEE00AC4ED010AD5ED4A
:10614000020AF8EEE00A60EE800AFDEEE00AC4ED15
:10615000020AD5ED030AF8EEE00A20EE800ABDEE51
:10616000C00A84ED030A70BD70B5044690F8300093
:1061700088B040067ED5A069002801DB014600E01A
:1061800041424FF480320026284D91420BDAE169FA
:10619000002900DA4942914205DA216A002900DA31
:1061A0004942914267DB002800DA40424FF4C801BF
:1061B00088420BDCE069002800DA4042884205DCB6
:1061C000206A002800DA4042884201DD032000E016
:1061D0000220A863696BA06A814242D0686394ED93
:1061E0000A0A9FED131AF8EEC00A80EE810ADFED6D
:1061F000110A20EE200A10EE100A01F08BFB1BE0C2
:10620000000080300000000017B75139A69BC43B46
:106210000AD7233C8FC2753DCDCC4C3ECDCCCC3E75
:106220000014CD470000804E000080CE3042002098
:10623000002474490000004E9FEDFA1B53EC112B13
:1062400001F020FA9FEDF91B53EC112B01F01AFA23
:106250009FEDF81B53EC112B01F086FA01F03BFB8C
:1062600028630496296BA06907F001FC0590296B4F
:10627000E06901E022E023E007F0F9FB0690296BDA
:10628000206A07F0F4FB07906A4604A9EB4807F080
:106290004AFC0098E94A8001009001986946800113
:1062A00001900298800102900398800103901046AB
:1062B00007F0E3FBE1490846FFF7F5FE08B070BDC3
:1062C000AE63FBE770B504462DED048B8EB0D0F8BD
:1062D0002001410676D5D94DD4F81011D84B2A6843
:1062E000891AD4F82C215A438A4201DA032100E0AA
:1062F0000221A963800504F5887602D5CF4930468E
:10630000B5E0002107A807F0B1F9CC490C223C31D7
:1063100007A801F0FAF820B9D4F82801A96D88423D
:106320007ED020886B4680B207AA616A06F0EEFF35
:106330009DED000ADDED010AB8EEC00AB8EEE01AE4
:10634000F8EEE00A20EE000A01EE200ADDED020A76
:10635000B8EEE01AF8EEE00A01EE200A02F02FFE95
:10636000B0EE408A9FEDB70A68EE000A9FEDB61ABC
:1063700080EE810ADFEDB50A20EE200AD4ED4A0A4C
:10638000F8EEE00A60EE800A1FED571A80EE810AEF
:10639000F6EE000A20EE209AB0EE490A02F074FAF6
:1063A000F0EE408AB0EE490A02F004FD18EE100A41
:1063B0004FF08041884206DA0020C5E912102865B6
:1063C000686532E055E05FED690A68EEA00AFDEE0F
:1063D000E00AC5ED120A5FED6C0A20EE200ADDED41
:1063E000000AF8EEE00A60EE200A80EE881AFDEE60
:1063F000C10AC5ED130ADDED010AF8EEE00A60EE10
:10640000200A80EE881AFDEEC10AC5ED140ADDED02
:10641000020AF8EEE00A20EE200AC0EE080A00E0C8
:106420000DE0BDEEE00A85ED150A07AB93E8070025
:1064300005F13C0383E80700D4F82801A8657F49EB
:1064400003AA4831304607F06EFB7C480AAA5C304C
:1064500003A9044607F067FB2146304607F040FBDE
:1064600003AA0AA9754807F05EFB744903A8FFF761
:106470001AFE0EB0BDEC048B70BD1FB50446694614
:106480006E4807F02DFB6D4A69462032204607F022
:106490004AFB6A491DCC103181E81D001FBD2DE962
:1064A000F0470446654E90F8740006F15C0A06F168
:1064B0002008012500F05001103692B004F58879CB
:1064C00004F15C07402906D094F8200100F0500048
:1064D00040280DD01DE031463846FFF74EFDB4F898
:1064E0002001C0050CD55146484607F0F9FA07E0EF
:1064F0005146484607F0F4FAB4F87400C00508D5D0
:1065000069464E4807F0ECFA42466946304607F0C5
:106510000AFBB4F82001C005204602D5FFF7D2FEE1
:1065200001E0FFF721FE32464449404607F0FBFAFE
:1065300094F8740040066FD5208EB4F820110843FB
:10654000C0056DD50FAA3946304607F047FCD4E99F
:10655000172080FB0001C2FB0201626E374FC2FBB5
:1065600002014FF08042801A71F1020014DB04A88E
:1065700007F0CEF8DDE9042080FB0001C2FB020138
:10658000069AC2FB02014FF08042801A71F10200AC
:1065900002DB0420B8630BE0B86B042808D041F29A
:1065A0008832022806D0032804D0012852D009E0FE
:1065B000002507E0E16E91FBF2F5012D00DA0125DF
:1065C000032800D0AD0022480024454310980794CA
:1065D0008002294607F04BFA08900F98294640425E
:1065E000800207F044FACDE909040BAA314607A856
:1065F00007F099FA32460BA9104607F03EFA3146E9
:106600000846FFF750FD69460C4807F069FA424614
:106610006946304607F087FA12B00020BDE8F087DF
:1066200020E00000112D4454FB210940000000002F
:1066300000007040000000000080664030420020F2
:1066400071981C00DB0F4940000034430000803784
:10665000A69BC400E06E90FBF2F0012800DA012056
:106660004500AFE7334619463846E26EFFF7A0FB18
:10667000C9E770B50446008EC105D4F8200107D4DF
:10668000B4F87410C90503D4C10501D4002070BD4D
:10669000C0F30120032807D02046FFF700FF23485E
:1066A000A16B07F0E7FEF1E704F588711F482EC9DA
:1066B00080E82E00F3E71E4807F0ECBE1B4810B53B
:1066C0006C21103800F00FFF18484FF0804110384F
:1066D000016101600162C163C165002010BD1848FD
:1066E00010B5082213A1006800F00FFF08B1322096
:1066F00010BD1322BDE81040C8210D4807F0FABBB9
:1067000010B5FFF7DBFF002805D1AFF22D00BDE883
:10671000104007F077BC10BD10B5054807F0BAFE71
:10672000AFF24500BDE8104007F0DABE404200205D
:1067300073660200654D504C20352E31000000007C
:10674000B421002000209FEDFE0AFE4ADFEDFE0A84
:1067500002EB8001401C81ED080AC0B2C1ED0B0ABA
:106760000328F5D37047F74A002002EB8001D1EDF2
:10677000080A91ED2D0AF4EEC00AF1EE10FA01D2EA
:1067800081ED080AD1ED0B0AF4EEC00AF1EE10FA21
:1067900001DD81ED0B0A401CC0B20328E5D3704730
:1067A0003EB50B46B0F8481009040091B0F84A1005
:1067B000009A09040191B0F84C1009040291E149D2
:1067C0004C6E121B0092019A8C6E121B0192029A5F
:1067D000C96E511A0291816EB0F844006A4680B2C7
:1067E00006F094FD3EBDF0B5D64F00242546D7F8FF
:1067F00094208DB02E46012A01D1C7F8946009A9D2
:10680000FFF7CEFF05A806F0F9FE0599099860226A
:10681000A0EBA130099006990A98A0EBA1300A904C
:1068200007990B98A0EBA130C8490B90081F00F006
:1068300033FE0DF1240CC5489CE80E00143080E8AE
:106840000E00684606F064FFC04960226C31081FE4
:1068500000F022FEBD489DE80E00803080E80E006A
:1068600000210922D7F82C04401CC7F82C0401EBA6
:10687000410007EB8000DDF800C0D0F84C33491C24
:1068800093FBF2F31C44D0F85033092993FBF2F345
:106890001D44D0F8543393FBF2F31E44D0F8B833C0
:1068A00093FBF2F363440093D0F8BC33DDF804C0EB
:1068B00093FBF2F363440193D0F8C003029B90FB77
:1068C000F2F018440290CDDB002C00DA6442002D77
:1068D00000DA6D42002E00DA76420098002800DAD5
:1068E000404200900198002800DA4042019002984E
:1068F000002800DA40420290009900208C4200DA21
:10690000012001998D4200DA401C02998E4200DA82
:10691000401CD7F82C14092900DB401C04280DD199
:1069200097F8240402280BD901468648D7F8282472
:10693000643007F0FDFB012007F0F4FB0DB0F0BD63
:1069400007F0BEFBFAE72DE9F0417E4D00272DED63
:10695000048B06463C4685F824749FED7D9B9FED95
:106960007E8BC5F8287405EB8400D5ED0F0A90EDF9
:10697000330AB4EEE00AF1EE10FA1EDB95ED140BCB
:1069800053EC182B51EC100B00F076FE41EC100B81
:1069900002F022F853EC192B51EC100B00F0CEFF53
:1069A0000BD295F824040121401C85F82404D5F865
:1069B0002804A1400843C5F82804641CE4B2032C51
:1069C000D1D395F82404B8B3002406EBC40090EDAD
:1069D000000B51EC100B00F07EFF05EB8401641CF2
:1069E000E4B24866032CF0D3C5F82C74A8680428D8
:1069F00002DA95F82404A86095F8240403281BD132
:106A00005749E868884217DC95ED140B53EC182BB6
:106A100051EC100B00F030FE41EC100B01F0DCFFEC
:106A200053EC192B51EC100B00F088FF04D2A8682E
:106A3000032801D10420A8604A49286988421DDA48
:106A40004949E868884219DC95ED140B53EC182B82
:106A500051EC100B00F010FE41EC100B01F0BCFFEC
:106A60009FED421B51EC100B53EC112B00F066FF15
:106A700004D2A868042801D10520A860BDEC048BCD
:106A8000BDE8F0812DE9F0412E4C0746D4F8A4046E
:106A9000012802D000252846F2E73649F7EE000A21
:106AA000A1F1E800B7EE000A0646FBF714FD254AFF
:106AB0003046503202F5AC71FBF7AFFF0500EAD06B
:106AC0006068401C606094ED140B51EC100B00F0FA
:106AD00002FFB96E06F0CBFF00EE100ADFED260ACA
:106AE000B8EEC00A20EE200A10EE100A00F012FFE5
:106AF000C4E9140194ED6A0B51EC100B00F0EBFEAD
:106B0000A06594ED6C0B51EC100B00F0E4FEE06519
:106B100094ED6E0B51EC100B00F0DDFE206694ED51
:106B2000680B9FED161B51EC100B53EC112B00F072
:106B30001DFFB0D231469FED130AF0EE400A23E06C
:106B400000401CC6A042002000401C46F04500202A
:106B50009A9999999999B93F000000000000F03F77
:106B6000AE47E13D00007A43BC74933C9CC420B026
:106B70007268913F684400200000803700000000E8
:106B80000070A740CDCCCC3E0846FBF7A4FC82E7C2
:106B9000D0ED030A90ED040A00210122F4EEC00AB0
:106BA0000223F1EE10FA12DD90ED051AF4EEC10A9F
:106BB000F1EE10FA0BDDB4EEC10A0164F1EE10FA49
:106BC00002DBC0E911237047C0E911327047B4EE0F
:106BD000E00AF1EE10FA12DD90ED051AB4EEC10AEA
:106BE000F1EE10FA0BDDF4EEC10A0264F1EE10FAD8
:106BF00002DBC0E911137047C0E911317047F4EEB0
:106C0000C00A0364F1EE10FA02DBC0E9111270470A
:106C1000C0E911217047002319469FEDFE0AC364A5
:106C200000EB8102491C82ED000A82ED090A03296A
:106C3000F6DB0121C0E91D13704730B5044614206E
:106C4000A0650A202066002584F870502046FFF7D2
:106C5000E2FF656530BD70B52DED048B86B06946E9
:106C6000FFF79EFD9FEDEC8B1FED3D9A00246E46D5
:106C700003AD56F8240000EE100A05EB8400B8EED0
:106C8000C00A20EE090A80ED000A20EE000A10EE8C
:106C9000100A00F03FFE53EC182B00F04CFC41ECC6
:106CA000180B641C032CE4DBB0EE480AF0EE680A13
:106CB00002F048F9DA4EB0EE408AF0EE608A002425
:106CC00055F8240000F026FE53EC182B00F04CFD84
:106CD00000F064FE00EE100A06EB840000F5806010
:106CE000641CD0ED0C0A032C30EE200A80ED0C0A57
:106CF000E6DBD6F88404401CC6F884040120C6F8FC
:106D0000AC0406B0BDEC048B70BD70B505462DED2E
:106D1000028B86B004AA03A9684606F085FD9FEDA4
:106D2000BE8B00246E4606EB840090ED000A20EE38
:106D3000000A10EE100A00F0EDFD53EC182B00F0E5
:106D4000FAFB41EC180B641C032CECDBB0EE480A98
:106D5000F0EE680A02F0F6F8B0EE408AF0EE608AD3
:106D6000002456F8240000F0D5FD53EC182B00F059
:106D7000FBFC00F013FE00EE100A05EB8400641C1F
:106D8000D0ED000A032C30EE200A80ED000AE8DB8B
:106D9000686D401C68650120E86706B0BDEC028B99
:106DA00070BDF0B504460021F7EE001A9FED992A58
:106DB00094ED140A04EB8100B8EEC01AD0ED000A7D
:106DC00080EE810AB5EEC00AF1EE10FA02DBB0EEF9
:106DD000401A01E0B1EE401AD0ED060AF5EEC00A05
:106DE000F1EE10FA01DAF1EE600A71EE600AC0ED20
:106DF0000C0A80ED060A94ED0F1AD0ED092A71EE07
:106E0000610A00EEA20AC0EE010AC0ED090AF5EE21
:106E1000C00AF1EE10FA01DAF1EE600AC0ED030AE1
:106E2000491C80ED002A0329C2DB2046FFF7B0FE93
:106E3000E06CB0F57A7F01DA401CE06494F8707081
:106E400000210526042303250122206C062F09D2E8
:106E5000DFE807F00309102B52376267A267E1648D
:106E600084F87020F0BDE06F0128FBD1022084F887
:106E700070000DE004EB8000D4ED190A90ED030AD8
:106E8000B4EEE00AF1EE10FA04DB84F8703031E081
:106E9000A167F0BDD4ED1A0AB4EEE00AF1EE10FAE3
:106EA00022D934E06267A267F0BD04EB8000D4ED24
:106EB000190A90ED030AB4EEE00AF1EE10FAE4DAF2
:106EC000F0BD04EB8000D4ED1A0A90ED030AB4EE95
:106ED000E00AF1EE10FA07D9006B524EB04206D923
:106EE000216EE06C8842EBDB84F87050DAE784F8BE
:106EF0007030E1646167CBE704EB8000D4ED1B0ADE
:106F000090ED030AB4EEE00AF1EE10FAD8D884F856
:106F10007060E164C6E710B5044600EE104AB8EEB2
:106F2000C00ADFED410A20EE200A9FED401AC0EEB4
:106F3000010AB6EE000A20EE800A10EE100A00F0F8
:106F4000E9FC41EC100B01F03BFC9FED391B51ECCF
:106F5000100B53EC112B00F095FB00F0BCFC01462C
:106F60002F48C0E9204110BD2DE9F04F00242DED40
:106F7000028B91B00546049405940694C06E44F6C5
:106F80002061274E884206DBD6F88010884210D058
:106F9000FFF7C1FF0DE0D6F848231044C6F84803B8
:106FA00088427DDBE96E814201D0FFF7B4FFC6F86D
:106FB0004843286BC6F8B0042846FFF74CFE06F598
:106FC000906003C8814204DB1B48FFF7EAFEC6F865
:106FD0008444D6F8A804012802D12846FFF703FC10
:106FE000D6F8A40401285BD104A806F0AFFB9DED00
:106FF000040ADDED050A20EE000A00EEA00ADDED30
:10700000060A00EEA00A01F0DAFF86ED030ADFEDC2
:107010000B0A15E000000000000000000000000066
:10702000A0420020CDCC4CBD368D274000247449B1
:10703000000000000000D041D04600200000804643
:1070400020EE200AC149A146ADF82040BDEEC00A9D
:10705000099110EE100AADF81C00ADF81E4007A80B
:10706000FDF720FD684606F0A9FB316F009806F099
:10707000FEFC0446716F019806F0F9FC0444B16F00
:10708000029806F0F4FC0444F16F039806F0EFFC5C
:1070900004EB00089DE80F0000240DF1340A00E025
:1070A000A2E006F170079FEDAA8A87E80F000DF1B4
:1070B000280B05EB4407A96E37F8480F000406F0CB
:1070C000D6FC00EE100A4AF8240006EB8400B8EE65
:1070D000C00A20EE080A80ED050A388801044BF842
:1070E0002410641CE4B2032CE3D398480AA9E838BE
:1070F0000446FBF7C0FA3168D6F82803884273DBF0
:1071000095ED390AD6ED360AB8EEC00AF5EEC00A9A
:1071100020EE080AF1EE10FA05D070EE600AF0EEEB
:10712000E00AC6ED370A86ED360AB068062818D29E
:10713000DFE800F0030303030D249FED860AC82057
:1071400086ED0E0AB7EE000A86ED0F0A08E09FED05
:10715000820A86ED0E0A9FED810A642086ED0F0AF1
:107160003064288EC005099812D4FDF7AAFB00F000
:107170006AFB00EE100A5FED530A11E09FED780AFA
:1071800086ED0E0A9FED770A322086ED0F0AE7E7BB
:10719000FDF7F1FA00F057FB00EE100ADFED720A7E
:1071A000982180EE201A86ED041A099800F09BF9C8
:1071B000D6F88410414543DA96ED040AB5EEC00ACC
:1071C000F1EE10FA3CDDD6ED0E0AB4EEE00AF1EE77
:1071D00010FA35D2316C7068884206DA2846FFF71B
:1071E00051FC002859D00CE056E06049D6F8B000B8
:1071F000884206DB2846FFF745FC00284DD0C6F83C
:107200000490002006EB8001401C91ED050AC0B2FD
:1072100081ED2D0A0328F5D3FFF7A5FA002006EB30
:107220008001401C91ED080AD1ED0B0AC0B2032881
:1072300030EE600A81ED330AF1D34D48FFF783FB4E
:10724000002006EB8001401C91ED260AD1ED050AD5
:10725000C0B2032830EE600AB0EEC00A81ED290A00
:10726000EFD396ED290AD6ED2A0A002030EE200A47
:10727000D6ED2B0A30EE200A86ED2C0A06EB8001B3
:10728000401C91ED050AC0B281ED260A0328F5D312
:10729000E821204600F027F9002011B0BDEC028B58
:1072A000BDE8F08F10B54FF49761324800F01BF93C
:1072B000304C0A20206040072067FFF743FA04F5AE
:1072C0008660FFF7BAFC2068C4F880049FED2A0AA4
:1072D00004F580601E2180ED1B0A9FED280AC4F88A
:1072E0008C1480ED260A9FED260A80ED250A9FED7D
:1072F000250A80ED270A1920FDF784FE002010BD25
:10730000012240F25231AFF29F3006F0F3BDAFF2EE
:10731000A73007F0BFB810B5FFF7C4FF002805D1AC
:10732000AFF22300BDE8104006F06CBE10BD10B5F2
:10733000AFF2CB3007F0AEF8AFF23B00BDE8104043
:1073400007F0CEB80B488068704700005045002019
:10735000000080370080BB44000096439A99993F13
:10736000000070423333B33F0050C347CDCC4C3D97
:1073700048440020A042002000000042CDCCCC3E7A
:10738000CDCC4C3F3333333F2DE9F05F0546002031
:1073900092469B4688460646814640241BE0284686
:1073A00041464746224600F02BFB53465A46C01A38
:1073B000914110D311461846224600F047F82D1A85
:1073C00067EB01084F4622460120002100F03EF8FD
:1073D00017EB00094E41201EA4F10104DFDC4846F2
:1073E00031462A464346BDE8F09F2DE9F04100248E
:1073F000061B254671F1000605DA01240027D0EBB3
:10740000070067EB0101161E73F1000605DA00277D
:10741000D2EB0702012567EB0303FFF7B5FF8646B2
:107420000E4617469C46AC4204D00025D0EB050E14
:1074300065EB010624B10020D2EB000760EB030CE2
:10744000704631463A466346BDE8F081202A04DBA7
:10745000203A00FA02F1002070479140C2F1200367
:1074600020FA03F3194390407047202A06DBCB171C
:10747000203A41FA02F043EAE07306E041FA02F3EF
:10748000D040C2F1200291400843194670470000E5
:10749000004870473C38030010B5431A934209D2A4
:1074A0008318881803E010F8011D03F8011D521E0F
:1074B000F9D210BD40EA01039B0703D009E008C9D7
:1074C000121F08C0042AFAD203E011F8013B00F8A9
:1074D000013B521EF9D210BDD2B201E000F8012BDF
:1074E000491EFBD270470022F6E710B513460A4644
:1074F00004461946FFF7F0FF204610BD421C10F865
:10750000011B0029FBD1801A704730B504460020CA
:10751000034600E05B1C934203D2E05CCD5C401B61
:10752000F8D030BD034611F8012B00F8012B002ADA
:10753000F9D1184670472DE9FE4F804681EA0300D5
:10754000C00F0C46009021F0004123F00045B8EB3D
:107550000200A94105D24046214690461C460B46F2
:10756000024623F00040104347D0270DC7F30A001E
:10757000C3F30A510290401A019040286BDAC3F31A
:10758000130040F4801B0098924620B10023D2EBF8
:10759000030A63EB0B0B01985946C0F140025046B9
:1075A000FFF754FF06460D4650465946019AFFF72D
:1075B0005CFF10EB08006141002487EA115284EA65
:1075C000E7731A4340D0009A62B3019A012A4FEA46
:1075D000075215DC001B61EB02014FF0004202EA8A
:1075E0000752CDE90042001C41F5801132462B467E
:1075F00000F05CFA03B0BDE8F08F40462146F9E7A1
:10760000001B61EB0201001C41F5801300185B4177
:107610002018A2F5001747EB030140EAD570B61910
:107620006D4111E06D084FEA360645EAC0754FEA34
:107630000752001B61EB0201001C41F58011490853
:107640004FEA30000019514132462B4603B0BDE8E5
:10765000F04F00F01CBA0098012240000023D0EB4C
:10766000020263EBE073009821464FEAE074B8EB46
:10767000000061EB0401E9E783F000435BE781F080
:10768000004158E72DE9FE4F81EA030404F000446D
:1076900021F0004100944FF0000B23F0004350EA2A
:1076A00001045ED052EA03045BD0C3F30A54C1F371
:1076B0000A552C44A4F2F3340194A0FB0254C1F304
:1076C000130141F48011C3F3130343F4801301FB4E
:1076D000024400FB034E840A970A44EA815447EAB5
:1076E0008357A4FB076802958D0A05FB07854FEABF
:1076F000932C04FB0C542705029D4FEA065847EAD9
:107700001637B5EB08056EEB070C870E920E47EAAD
:10771000811742EA8312A7FB0201B6EB0B0164EB6F
:1077200000042B0D43EA0C335E1844EB1C50DA4680
:107730005146E7FB0201C5F313044FEA0B3343EA5A
:1077400014534FEA0432019C43EA0603A4F10C04EB
:107750000294009CCDE900B400F0A8F903B0BDE8A4
:10776000F08F00200146F9E72DE9F04D81EA03048E
:1077700004F0004B21F0004514464FF0000A23F0BE
:10778000004150EA050220D054EA01021DD0C5F3A1
:107790000A570246C5F31303C1F31300C1F30A5697
:1077A00040F4801543F48013A7EB0608101BD6465F
:1077B00008F2FD3873EB050002D308F1010801E07F
:1077C00092185B41B8F1000F03DA00200146BDE8D2
:1077D000F08D00204FF48011064684460EE0171B02
:1077E00073EB050705D3121B63EB050306434CEA55
:1077F000010C49084FEA300092185B4150EA01073A
:10780000EDD152EA030012D082EA040083EA0501B6
:10781000084305D0101BAB4106D20122002306E02D
:1078200000224FF0004302E06FF0010253101AEB08
:1078300006004CEB085110EB0A0041EB0B01BDE8D0
:10784000F04D00F024B9F0B4CA17CB0F50405140AE
:10785000C61841F100054FEAC372314628004FF0C7
:10786000960303D0B623F0BC00F0E3B83046002105
:10787000F9E70EB5C10F80EAE0700844CA0700219D
:1078800040F233438DE80E000A460B4600F00EF935
:1078900003B000BD10B500F0004420F00040C20D60
:1078A000C0F3160040F400007F2A02DA00200146EF
:1078B00010BD0021962A03DCC2F19602D04002E0FE
:1078C000963AFFF7C3FD002CF2D00023D0EB030063
:1078D00063EB010110BD70B5C1F30A5201F0004520
:1078E0000024C1F3130140F2FF3341F480119A42A6
:1078F00001DA002070BD40F233439A42A2F23342D3
:1079000003DC524200F07CF800E090402C43F1D0C0
:10791000404270BD00F0004230F000400AD0C10D7E
:1079200001F56071C0F3160042EA0151C208400738
:1079300011437047002001467047000030B5041E17
:1079400071F1000404DB4FF00044404264EB01019C
:10795000141E73F1000405DB1C464FF00043524235
:1079600063EB04038B4208BF824230BD30B5041E76
:1079700071F1000404DB4FF00044404264EB01016C
:10798000141E73F1000405DB1C464FF00043524205
:1079900063EB0403994208BF904230BD01F00043FD
:1079A00030B421F0004150EA010206D00A0DA2F5E0
:1079B0006072C1F31301002A02DC30BC0020704762
:1079C000440F44EAC104C100E01830BC00EBC250CF
:1079D00000F026B830B50B460146002020220124D5
:1079E00009E021FA02F59D4205D303FA02F5491B8D
:1079F00004FA02F52844151EA2F10102F1DC30BDA3
:107A0000202A04DB203A21FA02F00021704721FAF3
:107A100002F3D040C2F1200291400843194670475A
:107A20000029A8BF7047401C490008BF20F0010092
:107A3000704710B4B0FA80FC00FA0CF050EA010470
:107A400004BF10BC704749B1CCF1200421FA04F402
:107A500011FA0CF118BF012121430843A3EB0C01DB
:107A6000CB1D4FEA00614FEA102042BF002010BC3E
:107A7000704700EBC35010440029A4BF10BC7047EE
:107A8000401C490008BF20F0010010BC704710B531
:107A9000141E73F1000408DA401C41F10001921831
:107AA0005B411A4301D120F0010010BD2DE9F04DDA
:107AB00092469B4611B1B1FA81F202E0B0FA80F22F
:107AC00020329046FFF7C2FC04460F4640EA0A0007
:107AD00041EA0B0153465A46084313D0114653EA74
