:020000040002F8
:1020000018860020D5D90200DDD90200DFD90200F0
:10201000E1D90200E3D90200E5D902000000000086
:10202000000000000000000000000000E7D90200EE
:10203000E9D9020000000000EBD90200EDD902004E
:10204000954E0200EFD902000755020061470200D9
:10205000EFD90200EFD90200E15F0200EFD90200E0
:10206000EFD90200EFD90200EFD90200EFD9020048
:10207000EFD90200EFD90200EFD90200EFD9020038
:10208000EFD90200C9690200EFD90200EFD90200BE
:10209000E9690200EFD902004F780200EFD902008F
:1020A000EFD90200EFD90200EFD90200EFD9020008
:1020B000EFD90200EFD9020000000000000000008C
:1020C000EFD90200EFD90200EFD90200EFD90200E8
:1020D000EFD90200EFD90200EFD90200EFD90200D8
:1020E000EFD90200EFD90200EFD90200EFD90200C8
:1020F00000000000EFD90200000000000000000016
:1021000000000000000000000000000000000000CF
:1021100000000000000000000000000000000000BF
:1021200000000000000000000000000000000000AF
:10213000000000000000000000000000000000009F
:10214000000000000000000000000000000000008F
:10215000000000000000000000000000000000007F
:10216000000000000000000000000000000000006F
:10217000000000000000000000000000000000005F
:10218000000000000000000000000000000000004F
:10219000000000000000000000000000000000003F
:1021A000000000000000000000000000000000002F
:1021B000000000000000000000000000000000001F
:1021C000000000000000000000000000000000000F
:1021D00000000000000000000000000000000000FF
:1021E00000000000000000000000000000000000EF
:1021F00000000000000000000000000000000000DF
:10220000DFF80CD011F0D8F900480047FD25020096
:102210001886002070470178022901D0012902D1D7
:10222000406804F0BFB970470A460146FE4804F012
:10223000ADB90146FD4801F08BBE70B50546087882
:102240000C4601280AD0022820D0032824D1F8A166
:1022500005F032F9BDE8704000F06FBCFBA103202F
:1022600005F02AF9618804F10E02284601F04FFFBB
:1022700008B104F097F9284601F002FF08B104F014
:1022800091F9BDE87040F9A011F0B6B9217BA068C2
:10229000BDE8704000F062BC70BD1FB50446011D72
:1022A00000881D281BD010DC10283AD013285ED0DF
:1022B0001B2835D10879022851D0032830D104B029
:1022C000F6A1BDE8104005F0F7B81F2855D03B280F
:1022D00057D0562824D1A088132176DF38E0091D75
:1022E0000C46F94800F031FD002819D0F64A0123C8
:1022F000103202F1080120468CDF002810D101F0D5
:1023000060F808B104F04EF9E078A3796279217998
:102310008DE80F00A3786278ECA1032005F000F9A6
:102320001FBDF9A1032005F0C7F8A1880022BF480E
:1023300001F0EDFE08B104F035F9072001F041F895
:1023400008B104F02FF9B948A1882C3001F0D8FB6E
:102350000028E5D004B0BDE8104004F023B9F2A194
:10236000032005F0A9F8BDE81F4000F0E6BB0023FC
:10237000A0881A4685217FDFEAE731F8040B75DF74
:10238000E6E7A088132176DFE2E710B50446FFF701
:1023900084FF204601F0F8F8A4482146103001F0EF
:1023A000BAFCA24821462C3001F0D5FB2146BDE8FD
:1023B00010409E4801F02FBE30B5C34885B09B4900
:1023C000806804900023D822D83904A805F0F9F9D0
:1023D00008B104F0E7F800256846009505F083FA97
:1023E00008B104F0DFF8019501248DF804508DF850
:1023F0000540029503958DF8064001A94020009AFA
:1024000069DF08B104F0CEF801958DF804409E20F4
:10241000ADF806000295039501A92320009A69DF13
:1024200008B104F0BFF8019502954FF4A0708DF843
:102430000440ADF8080003958DF8064001A920205E
:10244000009A69DF08B104F0ADF8F8200190029518
:10245000039501A9A120009A69DF08B104F0A2F850
:10246000684605F047FA08B104F09CF8B54805F055
:10247000E0F9002801D004F095F805B030BD10B5A2
:1024800008880C46A0F5206177390FD1AEA1032052
:1024900005F012F8A088B7A1C01E82B2B448134656
:1024A0000280BDE81040032005F011B810BD10B542
:1024B000AFF235015D48103001F0C0FB08B104F007
:1024C00071F85A489E21103001F0DAFB002803D041
:1024D000BDE8104004F066B810BD10B504280ED059
:1024E0000A2818D1002000F06CFF08B104F05AF857
:1024F00001F03BF808B104F055F832DF05E04B4835
:102500001321408876DF082805D0002803D0BDE8D5
:10251000104004F047B810BDA3490120087170476E
:10252000704770472DE9F04F00202DED048BA7B0C8
:102530002021189019901A900CA810F0ACFC25AA34
:1025400024A91BA80BF097F8002852D025AA24A98B
:1025500018A805F0B3FF00284BD01B9810F058FEC8
:102560009FED928B53EC182B10F05BFD41EC190B97
:102570008DED0C9B1C9810F04BFE53EC182B10F0BB
:1025800050FDCDE90E0106460F461D9810F040FEA5
:1025900053EC182B10F045FDCDE91001804689461B
:1025A0001E9810F035FE53EC182B10F03AFDCDE9D3
:1025B0001201CDE914011A9810F07BFE04460D4675
:1025C000199810F076FE82468B46189810F071FE2E
:1025D0000A4606A981E8050CCDE90A45DDE91401A2
:1025E000CDE904018DE8C00353EC192B71A011F063
:1025F00003F827B0BDEC048BBDE8F08F98B002F073
:102600006CFB08B103F0CEFF002002F097FB04F052
:10261000EDF908B103F0C6FF2B48724A0121001DF5
:1026200004F007FAE0E00000EFBEADDEC8280020AD
:102630004150503A494E464F3A446973636F6E6E4B
:1026400065637465642E0D0A000000004150503A25
:10265000494E464F3A446973636F766572792063D9
:102660006F6D706C6574652E0D0A0000436F6E6EA1
:10267000656374656420746F2064657669636520A2
:1026800077697468204E6F726469632055415254B3
:1026900020536572766963652E0D0A004150503AE9
:1026A000494E464F3A436F6E6E656374696F6E2094
:1026B000526571756573742074696D6564206F75FA
:1026C000742E0D0A00000000485B03004150503A90
:1026D000494E464F3A436F6E6E656374696E67206C
:1026E000746F2074617267657420253032782530EC
:1026F00032782530327825303278253032782530DE
:1027000032780D0A000000004150503A494E464FC1
:102710003A436F6E6E656374656420746F207461F4
:10272000726765740D0A00004150503A494E464F99
:102730003A5363616E2074696D6564206F75742E01
:102740000D0A00008B2302004150503A494E464F7B
:102750003A415454204D54552065786368616E6742
:102760006520636F6D706C657465642E0D0A0000E2
:10277000982100204150503A494E464F3A426C65EC
:10278000204E5553206D61782064617461206C6522
:102790006E6774682073657420746F2030782558D4
:1027A000282564290D0A0000CC220020000000002A
:1027B0000000103E25372E35662C25372E35662C29
:1027C00025372E35662C25372E35662C25372E35A8
:1027D000662C25372E35662C25372E3566200D0ABA
:1027E000000000001522020008B103F0DBFEF24CED
:1027F00000224FF43401606804F02BF908B103F0B3
:10280000D1FEED491822203104A810F01DFBEB4841
:1028100000904FF480700190E94802904FF480607E
:1028200003900723E74A694604A804F02DFB08B18A
:1028300003F0B8FE002004F02AFE08B103F0B2FE57
:1028400000F0F3FA03F025F908B103F0ABFEE068FD
:10285000019003208DF80500DB4A01A9282003F030
:10286000B1FA08B103F09EFE0121282003F057FBC6
:1028700003F055FD08B103F095FED4A1132004F038
:102880001BFE16A808F07BFD08B1D5A100E0DCA175
:10289000132004F011FE06F077FF18B1DCA113201D
:1028A00004F00AFE0FF004FC0EF062FC0EF0EEF8ED
:1028B0000DF080FB0EF026FF0BF061F818B1DBA1E4
:1028C000132004F0F9FD06F093FFE04CE04E3228AF
:1028D00008D078B1DFA1132004F0EEFD204600F00F
:1028E000EAF80BE0E2A1132004F0E6FD204600F038
:1028F000E2F8F7E7E3A1132004F0DEFD792008F009
:10290000E4F8782008F0B1FB142008F08BFC0A20D2
:1029100008F073F913A808F0F3FF0CA808F0A3FF60
:102920000DA808F0B8FF0EA80AF011FDBDF84C0084
:10293000B6FBF0F005F0ECF8BDF84C00B6FBF0F09B
:1029400005F0F6F8D34805F005F9D34806F0D3FDB5
:10295000BDF83010C90305F0D6F8CF4806F0CBFD1E
:102960009DF83410C90305F066F9CB48093006F02C
:10297000C2FDBDF83810C90305F062F98F4C07207D
:10298000243C00256070A570A56184F82150E560A5
:1029900065610AA8256102F03BF906E0BFA113209A
:1029A00004F08EFD304600F086F807F04FFA020082
:1029B000F4D1C9A1132004F07FFDB74806F09BFDB8
:1029C00007F04CFAC94807F066FFC94807F067FFEF
:1029D00040F27310A08307F0ABFD142007F086FBD4
:1029E00001200AF091F90120A070642007F07EFB1D
:1029F00042F21076304605F0CFF8304605F088F800
:102A0000304605F095F862B600F034FA00260AA8C0
:102A100002F0FEF860780028F8D020790028F5D080
:102A2000207910B120780028F0D120790028EDD04D
:102A3000A0780028EAD00BA905A8CDE9000104ABD5
:102A40000FAA02A914A807F07EFE0028DED19DF887
:102A50002C0000B92571BDF8140010F0700F04D0DF
:102A600014A8049905F078FA0126BDF914000107AD
:102A700012D5BDF908000690BDF90A000790BDF90E
:102A80000C000890002106A8049A05F035FABDF85C
:102A90001400C00502D409E0C00505D500210FA827
:102AA000049A05F0E9FA01E0002EAFD005F0C4FB6E
:102AB000FFF738FDAAE700283ED08E498E4A096804
:102AC00000BF00BF00BF00BF00BF00BF00BF00BF0E
:102AD00091422FD000BF00BF00BF00BF00BF00BFAA
:102AE00000BF00BF00BF00BF00BF00BF00BF00BFEE
:102AF00000BF00BF00BF00BF00BF00BF00BF00BFDE
:102B000000BF00BF00BF00BF00BF00BF00BF00BFCD
:102B100000BF00BF00BF00BF00BF00BF00BF00BFBD
:102B200000BF00BF00BF00BF00BF00BF00BF00BFAD
:102B300000BF00BF401EC3D170471F4810B51830FA
:102B40008ADF08B103F02EFD012000F03AFC0028D6
:102B500003D0BDE8104003F025BD10BD2DE9F041C4
:102B60000E46054600240FE0285D04F001FA070038
:102B700009D0112FF8D0224660A1012004F0A0FC5A
:102B8000384603F00FFD641CB442EDD3A81910F8C9
:102B9000010C0D2804D10A2004F0EAF91128FAD01A
:102BA00032462946624801F08CFA040003D0112C09
:102BB000F6D00246BEE0C6E0485B0300F0220020EB
:102BC000F023002017220200192502000D0A545795
:102BD000492073746172747321200D0A0000000093
:102BE000436F756C64206E6F7420696E69746961DF
:102BF0006C697A6520746865206D70752E0D0A0009
:102C00004D50552073746172747321200D0A0000B9
:102C1000436F756C64206E6F7420696E69746961AE
:102C20006C697A65204D504C2E0D0A00656E61620C
:102C30006C655F654D504C5F6F7574707574732073
:102C40006661696C656421200D0A000000CA9A3B28
:102C500040420F00436F756C64206E6F7420737474
:102C600061727420746865204D504C2E0D0A00006E
:102C70004E6F7420617574686F72697A65642E0D89
:102C80000A0000004D504C2073746172747321204F
:102C90000D0A0000A08601009A210020436F756C88
:102CA00064206E6F74206C6F616420444D50204925
:102CB0006D6167652C204572726F7220436F646589
:102CC0003A2025642C20726574727920696E203157
:102CD00020736563200D0A00444D5020646F776EA9
:102CE0006C6F6164656421200D0A000021250200DB
:102CF000232502008C2200200024F4004150503A89
:102D00004552524F523A6170705F756172745F70D4
:102D10007574206661696C656420666F7220696EE7
:102D2000646578203078253034782E0D0A00000054
:102D3000C82800207EA1012004F0C2FB2046BDE887
:102D4000F04103F02FBCBDE8F0812DE9F8430E46B9
:102D50008146002501F1100461E06119675D487842
:102D600002280AD0032808D0042823D0052821D01F
:102D700006283DD007283BD04EE04FF0000815E074
:102D800005EB4800011902206A46891C63DF58B927
:102D9000BDF80010B9F80000814205D19DF802107D
:102DA00099F80200814234D008F10108B8EB570FBE
:102DB000E6D331E04FF0000816E000BF05EB8800D5
:102DC000011904206A46891C63DF58B9BDF8001058
:102DD000B9F80000814205D19DF8021099F802006F
:102DE000814216D008F10108B8EB970FE6D313E043
:102DF00010206A46891C63DF70B9BDF80010B9F86D
:102E00000000814208D19DF8021099F80200814229
:102E100002D10120BDE8F883E819401C85B2F07B9F
:102E2000B5EBD00F99D30020F4E708B5AFF65511F4
:102E3000012000F0F0FA08B103F0B4FB694600206D
:102E400000F0D7FB08B103F0ADFB474800F028FEC7
:102E500008B103F0A7FBFFF7AFFAFFF728FB4348E1
:102E600000906946424801F0B3F8002801D003F011
:102E700099FB08BD10B588B0002202A905A809F089
:102E80007CFF0446072802D0E0073FD042E039A18A
:102E9000132004F011FB01A808F05DFDBDF804004B
:102EA000029941430291039941430391049941439B
:102EB0000491032102A804F069FF684608F030FD80
:102EC0009DED050A032105A8F8EEC00A9DED000A54
:102ED00060EE800AFDEEE00ACDED050ADDED060AA2
:102EE000F8EEE00A60EE800AFDEEE00ACDED060A9B
:102EF000DDED070AF8EEE00A20EE800ABDEEC00A1A
:102F00008DED070A04F0A5FF08B010BD1EA1132027
:102F100004F0D2FAA00703D41FA1132004F0CCFAC6
:102F20006007F1D420A1132004F0C6FAECE70000FA
:102F30004150503A4552524F523A4661696C65646D
:102F40002073656E64696E67204E5553206D6573FE
:102F5000736167652E204572726F72203078257814
:102F60002E200D0A00000000332202003B22020046
:102F7000C828002053656C66205465737420506126
:102F800073736564210D0A004779726F2066616969
:102F90006C65642E0D0A0000416363656C206661F8
:102FA000696C65642E0D0A00436F6D706173732048
:102FB0006661696C65642E0D0A00000038B5012455
:102FC0000090684631B100F0A8F800998C40C0F834
:102FD000084538BD00F0A1F800998C40C0F80C45B8
:102FE00038BD604908B5085C0090684600F095F867
:102FF000D0F804050099C84010F0010000D001206D
:1030000080F0010008BD5749085C0021D6E755490A
:10301000085C0121D2E710B500242046FFF7F7FF36
:10302000641C042CF9D310BD10B500242046FFF712
:10303000EAFF641C042CF9D310BD4A4908B5085CAA
:103040000090684600F069F8D0F80425009B012143
:10305000994021EA0203C0F808351140C0F80C1568
:1030600008BD7CB500243F4E25460122305D009509
:1030700000231146019500F05BF8641C042CF4D386
:10308000BDE87C40C7E73749085C704710B5024689
:10309000344B4FF0FF3000215C5C944201D1084674
:1030A00010BD491C0429F7D310BD2E4908B5091DD0
:1030B000085C0090684600F030F8D0F810050099E0
:1030C000C84010F0010000D0012080F0010008BDD0
:1030D0007CB50024234E2546361D0022305D032397
:1030E00000951146019500F023F8641C042CF4D3DC
:1030F0007CBD1C4B10B5024600214FF0FF301B1D5C
:103100005C5C944201D1084610BD491C0429F7D3E8
:1031100010BD1449091D085C70470168202902D2BE
:103120004FF0A040704701F01F0101600E4870474A
:103130002DE9FF411C46DDE90A7815460E46684632
:10314000FFF7EBFF46EA450141EA840141EA072225
:1031500042EA0841009A00EB8200C0F80017BDE87F
:10316000FF810000805B030000030050FFF79DBF5C
:103170002DE9F0470D468146FFF7BBFF04460428C2
:1031800036D2DFF89883E448E54EA8F10C0725B362
:10319000012D0ED0022D2BD104EB44003044457894
:1031A000002D25D0B968002922D02846BDE8F04777
:1031B000084704EB4401755C0E44717849B1D74A65
:1031C0004FF40041093A806803F043FC08B987F8DE
:1031D0000390B17808F80410E2E7806803F07BFC04
:1031E00004EB4401314418F804008D78A842D7D08C
:1031F000BDE8F08700780221BAE72DE9F05FC74CFF
:1032000000260C3C05466078B34618B184F801B03E
:1032100000F06CF9C04F4FF47A694FF4C87A4FF060
:103220000108182D62D2DFE805F0AC0C0C31404DDE
:1032300062676B746B74BE7D7D7D7D7DACAFB2B516
:10324000BEBE0020FFF7CDFE00284FF0000008D0E2
:10325000FFF7DDFE022D02D14FF4E16008E04846A1
:1032600006E0FFF7D0FE022D01D1C82000E0504655
:10327000410CC0034FF4FA72801841F1000125702F
:10328000520000230FF058FD01462AE00020FFF70E
:10329000A8FE00284FF0000004D0FFF7B8FE4FF45E
:1032A0004870E5E7FFF7AFFEDFE70020FFF799FE84
:1032B00000284FF0000002D0FFF7A9FECFE7FFF78C
:1032C000A2FED4E70020FFF78CFE00284FF000009C
:1032D00002D0FFF79CFE01E0FFF795FE257041F656
:1032E0009A110022386803F0B4FB064646E000203D
:1032F000FFF7A3FE257008E0002051E025703DE0B7
:1033000084F801800120FFF798FE002240F6CD41AD
:10331000E8E784F801800120FFF78FFE00224FF4D8
:103320008041DFE7786803F0D6FB0646D5F111004F
:1033300000D02EB10220FFF76AFE84F802B01DE033
:10334000012816D980B2C8214843C117C90341EAF0
:103350005041C0034FF4FA72801841F1000152004D
:1033600000230FF0E9FC01460022786803F071FBAE
:1033700006460220FFF747FE84F802803046BDE88B
:10338000F09F00F0B3F8B9E700F0B0F8B4E700F050
:10339000ADF804E000F0AAF80020FFF734FE0120A9
:1033A000FFF731FEAAE7FFF73FFEA7E75B480C38BF
:1033B0000179C90701D000781FE770470220FFF7A5
:1033C0003CBE564A01460C3A00201279D20701D081
:1033D000084612E7704770B50023042810D2504DFC
:1033E00000EB4004012A02D101290CD000224C4EEE
:1033F00000EB4000304461B1012906D0022906D01B
:103400000723184670BD0E30C2B22A55F9E7427044
:10341000F7E78270F5E770B50646404800240C389F
:10342000C0E90161B00721D50025012211462846D7
:10343000FFF7D1FF6D1C0446042D02D2002CF4D0FE
:1034400014E09CB9344840F2666204210C3003F069
:1034500031F804000AD103F05DF8040006D12E48CB
:10346000304A0021083003F0E4FA0446F00701D0A6
:10347000FFF7F7FD6CB92C4A0021274803F0D9FA71
:10348000040006D12448294A0121001D03F0D1FA85
:103490000446204670BD03F03DB803F04BB810B5AC
:1034A000FFF737FE032100F00AF8002010BD10B529
:1034B000FFF72FFE002100F002F8002010BD2028A9
:1034C00002D24FF0A04202E0194A00F01F0002EBC6
:1034D0008000D0F8002722F44032C0F80027D0F84E
:1034E000002742EA0141C0F8001770470B4810B5A9
:1034F0000C38807860B1002401E0022C06D0204610
:10350000FFF785FD641C042CF7D310BD0324F6E7F8
:10351000BDE81040FFF77FBD885B0300BC210020A1
:10352000942B0020F5310200AD330200BD330200C0
:103530000003005010B5012202210020FFF74BFFCD
:1035400008B1072810D1072202210120FFF743FF0D
:1035500008B1072808D100210A220846FFF73BFFDF
:1035600008B1072800D1002010BD10B50020FFF7DA
:1035700096FF08B1062806D10120FFF790FF08B199
:10358000062800D1002010BD10B5274C01886068C6
:1035900010290ED011292BD1401E606028D1FFF7D1
:1035A000C9FF002824D02168002921D0BDE810409F
:1035B0000847D0B9002101220846FFF70CFF08B1E7
:1035C00007280FD1072202210120FFF704FF08B1CD
:1035D000072807D1042202210020FFF7FCFE20B1BA
:1035E000072802D0216801B188476068401C6060EC
:1035F00010BD70B50C4E0C004FF0000530600BD0C4
:103600000120FFF7B3FD08B1022004E00020FFF71E
:10361000ADFD00B10B202070706810B9FFF78AFF74
:103620000546284670BD0000C021002070B5F94B4A
:103630000021F74ADC680DE002EB81058678AD7861
:10364000B54206D132F821500688B54201D15868FA
:1036500070BD491CA142EFD3002070BD2DE9F04799
:10366000894690F85A12904601EBC10202EB011113
:1036700000EB81073846FFF7D9FF060043D0E54C41
:10368000A06806283FD2E24D00EBC00000EB4000EE
:10369000183505EB80006422A0F802803946001D31
:1036A0000FF0D2FB0027B9F1000F07D0A06800EBA4
:1036B000C00000EB400005F8207007E0A168022080
:1036C00001EBC10101EB410105F82100A06800EB0D
:1036D000C00101EB410105EB8101401C8E66A06039
:1036E000E16888420FD1002609E000BF06EBC60062
:1036F00000EB400005EB8000816E8847761CE06897
:103700008642F3D3A760BDE8F0872DE9F041044677
:1037100090F85C020E46401CBE49C0B284F85C02C0
:10372000BB4DC968032718354FF0000E884223D2DD
:1037300084F859E294F85A02401CC0B200EBC00170
:1037400001EB001104EB8102B14984F85A0201EB4C
:10375000800001210068106082F804E0304694DFA8
:10376000010007D084F85BE23246204600F014FAEC
:103770002F706E80BDE8F08184F85BE2F8E710B549
:1037800009892AB1D088491C814218D1002010BD76
:1037900090F85A2202EBC20404EB021200EB820200
:1037A00012899142F2D0491C198090F85A1201EB0B
:1037B000C10202EB011100EB8100008902E01980D7
:1037C000D088401E5880012010BD08B5024690F8F0
:1037D0005A020B4600EBC00101EB001002EB800027
:1037E00092F8592242B1521ED2B202EBC20100EB52
:1037F0004102518A491C00E0C188ADF800100089DF
:10380000ADF802006946184696DF08BD2DE9F84379
:10381000054690F85A020F4600EBC00101EB00107C
:1038200005EB800695F85942914604EBC40006EB7F
:1038300040013279601C0A31904226D16B46002249
:103840002846FFF79CFF18B310E0401EA04201D1AC
:10385000002004E004EBC40006EB40001C3080466E
:1038600002466B462846FFF78AFF30B100203870C9
:103870006946484697DFBDE8F88395F85902414606
:10388000401C641C85F85902E4B23079A042DCD8AF
:10389000012038700020EEE72DE9F84F05460C4670
:1038A0000888B5F85E1288425BD195F85A02DFF8B5
:1038B00060A100EBC00101EB001005EB8001608806
:1038C0004FF003090AF1180A4FF00008F0BBE68830
:1038D0000879A21DF3B250FA86F6052E01D80344EA
:1038E00000E005230B7100261CE000BF00EBC003C5
:1038F00006EB860702EB470701EB4303D7F802C04C
:10390000C3F80AC0D7F806C0C3F80EC07F895F822B
:10391000A3F81480A3F81680A3F81880401CA3F81D
:103920001A80761C0B798342E0D895F85A2200EB76
:10393000C00002EBC20303EB021205EB820231F876
:103940001000128990420ED2087900E00BE00528A1
:1039500009D085F8590221882846FFF736FF010073
:103960000AD1BDE8F88F85F8598222886946284631
:10397000FFF74CFF01000BD085F85B8222882846B8
:1039800000F00AF98AF800902188AAF80210E8E706
:103990009DF800000028E4D0228801212846FFF786
:1039A0005DFE21882846FFF7B0FEDAE7F8B5054648
:1039B0000C460888B5F85E12884262D195F85A0222
:1039C000A61D00EBC00101EB001005EB800395F88C
:1039D0005902618800EBC00003EB40000A3061B37C
:1039E0002EE000BF01EB410206EB42029788B7F5DB
:1039F000245F11D06FF4245C17EB0C070FD0012F5C
:103A000002D0072F10D10DE0528842810CE0000057
:103A1000C02B0020C82100205288828104E05288F7
:103A2000C28101E05288028242892AB182891AB198
:103A3000C2890AB1028A1AB9491C32888A42D1D88D
:103A400000268DF8006095F859021979401C8842CB
:103A500003D101208DF8000018E085F85902228872
:103A600069462846FFF7D2FE01000BD085F85B625D
:103A70002288284600F090F86E48032101702188C2
:103A80004180F8BD9DF800000028FAD0228801216D
:103A90002846FFF7E3FD21882846FFF736FEF8BDEC
:103AA00040B1654900220123CA600B70C1E90102DF
:103AB000104670470E2070475F480021C1600170BA
:103AC00081600846704770B540B15B4D297839B1C7
:103AD0000446FFF7ABFD28B1002070BD0E2070BD7D
:103AE000082070BDE868062808D2524922681839B3
:103AF00001EB8001401C0A60E860EDE7042070BD26
:103B000010B50B46040009D04B4A107840B1D0687C
:103B100030B194F85B0228B1112010BD0E2010BD09
:103B2000082010BDA4F85E320020906084F85C028A
:103B300084F85A0284F859023E4822461838012176
:103B400000682060184694DF0028EAD1012084F83C
:103B50005B02002010BD00281DD000291BD0364A72
:103B60001278002A17D00A88112A0CD0302A05D0E2
:103B7000322A06D0332A0ED1091D17E7091D00F09D
:103B800025B8091D88E68988B0F85E22914202D1E5
:103B9000002180F85B12704730B50D4690F85A123C
:103BA000144601EBC10202EB01119BB000EB810056
:103BB000FFF73CFD030007D0ADF8024001208DF86F
:103BC00000006846019598471BB030BD70B50546AA
:103BD0000C4690F85A02228800EBC00101EB00105D
:103BE00005EB8001B5F85E02824221D1608840B1C8
:103BF00000212846FFF732FD21882846BDE87040A5
:103C000083E5A2680A60E068C1F8060021882846BA
:103C1000FFF7DBFD01000BD0002085F85B02228856
:103C20002846FFF7B9FF034803210170218841802E
:103C300070BD0000D82B0020C821002070B5040002
:103C400010D09E20A16120806080A22020710025DC
:103C500004EBC500801D00F0F8F86D1C022DF7D3B1
:103C6000002070BD0E2070BD28B1A1F11702882A76
:103C700003D3072070470E20704701800020704753
:103C800028B1A1F11702882A03D3072070470E201C
:103C9000704741800020704708B1022901D30020FD
:103CA000704700EBC100008970471CB50B4600212E
:103CB0000091019168B1A3F57F41FF3903D0022B38
:103CC00009D307201CBDA22A00D3A2220271002022
:103CD0001CBD0E201CBD00EBC30069460273ADF88D
:103CE0000020ADF802200022184690DF1CBD50B124
:103CF0004AB1A1F57F43FF3B03D0022905D307203A
:103D00007047007904E00E20704700EBC100407B53
:103D10001070002070472DE9F0418D8890B0044666
:103D2000022D7DD20888DFF81482002623283CD09B
:103D300006DC102809D011280BD022286AD150E0C7
:103D40003A280CD0552865D12BE0204600F089F8A0
:103D500060E004EBC500801D00F077F85AE02A46C9
:103D600004EBC207488937F8061F814200D808468D
:103D70007880172800D217207880A06970B17879F0
:103D800060B1D8E90010CDE90010ADF802207888C4
:103D9000ADF80400A2692046694690477E713E71E5
:103DA00038E0204600F09AF834E034226846091DD5
:103DB0000FF04AF8BDF80000BDF8042004EBC00184
:103DC0004A73A26932B3D8E90432CDE90D32ADF8B5
:103DD0003600487B8DF83800A26920460DA990472F
:103DE00018E00096019631F8040F04EBC0000A7940
:103DF000007B904200D31046ADF80000ADF8020001
:103E000008880022694690DF020003D04C49012057
:103E100003F056FB04EBC504A07A002812D000E0A2
:103E200010E0E18828469EDF020008D0112A09D060
:103E300010B04449BDE8F041012003F041BBA67237
:103E40000120E07210B0BDE8F0819E2101801721B1
:103E50004180002101714171A22181711B21C17139
:103E600070477CB58E88027900EBC605AC1D2A73BD
:103E7000C97B012902D0022904D101E0008800E0B9
:103E8000408820802188608881420AD930469EDFA0
:103E900002004FF001001DD0112A1DD0294903F066
:103EA0000FFBA079E179884213D90020009001909E
:103EB000287BADF80000287BADF80200002269469F
:103EC000304690DF030004D032461F49012003F042
:103ED000FEFA7CBD6071E4E72071E2E77CB506463E
:103EE0008D88C88806EBC504A41D172800D21720AA
:103EF0002188814200D808466080002020712188F6
:103F00002846ADDF020003D01049012003F0D8FAA3
:103F10006079002810D1B06900280DD00749D1E997
:103F20000201CDE90001ADF802506088ADF804004F
:103F3000B2696946304690477CBD0000B45B03001F
:103F400058730300A4720300B873030000730300E6
:103F500030B585B00C460546142168460EF09BFF2F
:103F6000207804F10E01002830D1A08801282DD13D
:103F7000A0792A78904229D1002217E002EBC200F2
:103F800031F81030022B02D0032B0ED105E001EBEB
:103F900040000089ADF8120007E001EB4000038902
:103FA000ADF80E304089ADF81000521C207A9042D6
:103FB000E4D8E868002809D06088ADF80200012044
:103FC0008DF80000EA6869462846904705B030BD84
:103FD00030B5554B0D4604000FCB85B08DE80F0072
:103FE00017D0B5B12146684662DF0028EED12078AF
:103FF0008DF812000120ADF810004FF6FF706080C0
:104000002868E0600020A080208104A8FFF75BFD05
:10401000DCE70E20DAE710B586B000282ED00029A4
:104020002CD042884FF6FF739A4202D08C88A2426D
:1040300024D10C88112C14D0392C1FD18288002A4D
:104040001CD04B89934219D1C268002A16D0022293
:104050008DF8002001F110020292897B8DF80C107E
:1040600009E08988914209D1C168002906D003215D
:104070008DF800104380C2686946904706B010BDB5
:104080001FB5010019D04888A0F57F42FF3A16D02D
:10409000C988A1B101228DF80C20234B00228DF894
:1040A0000D20D3E90423CDE90023ADF8021003A9C4
:1040B000029169469CDF04B010BD0E20FBE708208A
:1040C000F9E73EB538B19B2A07D918A1022003F0C1
:1040D000F3F907203EBD0E203EBD4388A3F57F4483
:1040E000FF3C0ED0104D1C3538CD8DE838000389CB
:1040F0000291ADF80230ADF80620408869469CDF99
:104100003EBD13A1022003F0D7F908203EBD48B1FF
:1041100041802AB15188C1801188818091880181B4
:10412000002070470E207047CC5B0300424C455F77
:104130004E55533A5741524E494E473A436F6E746B
:10414000656E7420746F6F206C6F6E672E0D0A00A1
:10415000424C455F4E55533A5741524E494E473AAD
:10416000436F6E6E656374696F6E2068616E646C18
:104170006520696E76616C69642E0D0A000000008E
:1041800000283ED0FD49FE4A096800BF00BF00BFBD
:1041900000BF00BF00BF00BF00BF91422FD000BFD3
:1041A00000BF00BF00BF00BF00BF00BF00BF00BF17
:1041B00000BF00BF00BF00BF00BF00BF00BF00BF07
:1041C00000BF00BF00BF00BF00BF00BF00BF00BFF7
:1041D00000BF00BF00BF00BF00BF00BF00BF00BFE7
:1041E00000BF00BF00BF00BF00BF00BF00BF00BFD7
:1041F00000BF00BF00BF00BF00BF00BF00BF401E28
:10420000C3D1704770B506460D460079DD4900EB15
:10421000800001EBC00494F8220008B1082070BDB2
:104220000020C4E90023A06084F8250084F824005D
:10423000A87B84F82700687B10B1284600F0A6FA16
:10424000296840F20C60890001F1A041C1F8000723
:104250006968890001F1A041C1F80007D5E90012A1
:104260003068C0F80815C0F80C25A968C0F82415F6
:10427000206828B13068297B000B40B200F0BEFEF8
:10428000012084F82200002070BD0179BD4A01EBB5
:10429000810102EBC101006800228A60531EC0F850
:1042A0000833D0F80032C0F80022C0F80025012001
:1042B00081F82200704730B504460079B14900EB1F
:1042C000800001EBC005286860B12068000B41B296
:1042D00001F01F02012090404909890001F1E0210D
:1042E000C1F880012046FFF7D0FF95F8270088B974
:1042F000216840F20230D1F80815890001F1A0418F
:10430000C1F800072168D1F80C15890001F1A0411E
:10431000C1F80007002085F8220030BD0179994AD4
:1043200001EB8101006802EBC1010622C0F8002503
:10433000022081F8220070470079924900EB80004A
:1043400001EBC00090F8240070472DE9F05F0646AD
:104350001F4615460C464FF0000A4FF0080B4FF46D
:104360008279506800F00AFA00287DD04FF0FF30C3
:10437000C4F8080396F8240028B1B068C4F8040310
:104380001120BDE8F09F780703D4F80601D401207E
:1043900000E0002086F8240095E8070006F10C03F1
:1043A00083E80700C7F3001086F825006878C4F892
:1043B00088054FF48271204600F0D5F94FF49271D0
:1043C000204600F0D0F9F8074FF0010800D0404631
:1043D000C4F85005B80701D5404600E00020C4F8F5
:1043E0004005287800286BD001287CD002284DD0C9
:1043F000032814D04FF0070A380704D4287803287C
:1044000001D044F80B80306800286DD0780702D5C1
:104410004FF40070B060B068C4F80403B9E0A86855
:1044200000F0ACF900B34FF48070C4F80002A97832
:104430006868C4F84405C4F848154FF4A8712046CC
:1044400000F091F94FF4B071204600F08CF94FF470
:10445000A471204600F087F9C4F82080C4F80880D1
:104460004FF4A871204600E028E000F082F900280F
:10447000F6D04FF4A871204600F075F9E878A968E5
:10448000C4F84415C4F848053F4815E0A8786968A1
:10449000C4F84415C4F84805A86800F06FF968B17D
:1044A000E878A968C4F83415C4F838054FF4845086
:1044B000C4F8000240F20220B0609DE7102060E7DF
:1044C000A8786968C4F84415C4F84805B8060FD53B
:1044D0004FF48070C4F800022B48B0604FF4A47908
:1044E0004946204601E00CE01BE000F03CF905E005
:1044F0004FF40070C4F80002801CB060C4F8208043
:104500007AE7A8786968C4F83415C4F838054FF418
:104510008050C4F8000240F20220B0604FF0000B5F
:10452000ECE745464FF482774FF492780BE0414632
:10453000204600F01EF930B14146204600F013F944
:1045400025626561B9464946204600F012F9002807
:10455000EDD0D4F8C404C4F8C404002186F82410B3
:10456000B8B10321C20701D04FF40241820701D53F
:1045700048F2012140070BD508E000008C22002002
:104580000024F400602E00200002040048F2022102
:104590008A465046F5E630B40379B54C03EB830305
:1045A00004EBC304006813460A460146204630BCAB
:1045B000CBE63EB500250095069C8DF801100295CE
:1045C0008DF8023001920CB1202200E000226946F1
:1045D000FFF7E1FF3EBD3EB5A64D2C68AD680094E7
:1045E0008DF80110019202958DF802300022694683
:1045F000FFF7D1FF3EBD002070470068012901D0C0
:10460000082100E0002108447047006800F582702E
:1046100070472DE9FF470D464FF49277044639461F
:1046200000F0A7F84FF002094FF001084FF482762E
:1046300040B13946204600F096F83146204600F059
:1046400098F8B0B3B2463146204600F092F84FF0E9
:10465000FF36002770B35146204600F084F805F17C
:104660000C0001AB07C883E8070095F8230078B178
:10467000287B01282DD0D4F84C05C0B28DF8060057
:10468000287B022828D0D4F84C05C0B28DF807004A
:104690004FF4B071204600F066F84FF4AE7120463A
:1046A00000F061F895F8250080B395F8230068BB09
:1046B0003CE000E013E0A868C4F80803C5F80890DF
:1046C000A868C4F80403C4F82080C4F81480BDE8C6
:1046D000FF87D4F83C05D0E7D4F83C05D5E74FF484
:1046E000A471204600F03FF8287B80B14FF40070A1
:1046F000C4F80002801CA860C4F80863A868C4F865
:104700000403C4F80880C4F82080E0E708E005F15D
:104710000C0001AB07C883E8070095F8250028B90D
:104720000020C4F80002AF60C4F80863D4F8C404E1
:10473000C4F8C404810702D58DF8008006E0400764
:1047400002D58DF8009001E08DF8007095F82500F5
:1047500008B985F82470D5E9002168469047B6E786
:104760004349454855E708B500224250405800905B
:1047700008BD4058002800D0012070470121B1EB4E
:10478000507F01D1012070470020704738B50446A2
:1047900040F20C602168890001F1A041C1F80007D6
:1047A0006168890001F1A041C1F80007206800F0AC
:1047B0004AF8606800F047F8216840F20D6089000F
:1047C00001F1A041C1F800076168890001F1A04131
:1047D000C1F800070420FFF7D3FC002560680090B3
:1047E000684600F025F8D0F810050099C84010F090
:1047F000010F02D0002D1AD00EE0206800F02DF835
:104800000420FFF7BDFC206800F01DF80420FFF72E
:10481000B7FC6D1C092DE1DB606800F01EF8042078
:10482000FFF7AEFC6068BDE8384000F00CB838BD5A
:104830000168202902D24FF0A040704701F01F010B
:1048400001600E48704701B56846FFF7F1FF009A16
:1048500001219140C0F8081508BD01B56846FFF771
:10486000E7FF009A01219140C0F80C1508BD000037
:10487000602E0020F45B0300003000400003005075
:10488000017800290AD10279CA4901202AB1012AF6
:1048900005D0022A03D0032A00D10870704748705F
:1048A00070471FB5C44B0FCB8DE80F00C2480023E3
:1048B000C24A69460838FFF7A5FC002804D1BE4863
:1048C0000838FFF72BFD002004B010BDFEB50346ED
:1048D000BC481446BA4D00F8013B0EF0B5FA68200A
:1048E0008DF80100B74800260190B3488DF80060AC
:1048F000641C8DF80240324669460838FFF74BFECB
:10490000AC490A7812B11DB10E70FEBD6D1EF8D112
:104910000D20FEBD7CB500258DF80400A6488DF85D
:104920000510A74C022301AA682108380095FFF75B
:1049300040FE002804D19F490A7812B11CB10D70C5
:104940007CBD641EF8D10D207CBD2DE9F74382B0FB
:104950009B4C9948174689464FF00008264601238C
:1049600002AA68210838CDF80080FFF722FE00284F
:1049700013D1904D287898B1BEB185F800808E484B
:10498000FBB24A4668210838FFF725FE002804D10B
:10499000697841B14CB185F8018005B0BDE8F0837C
:1049A000761EE7D101E0641EF2D10D20F5E72DE976
:1049B000F74382B0824C8048174689464FF0000882
:1049C0002646012302AA0C210838CDF80080FFF703
:1049D000F0FD0028E1D1774D287888B1AEB185F897
:1049E00000807548FBB24A460C210838FFF7F3FDFA
:1049F0000028D2D1697831B13CB185F80180CCE78B
:104A0000761EE9D101E0641EF4D10D20C5E77CB526
:104A100000258DF8040068488DF80510684C0223C5
:104A200001AA0C2108380095FFF7C3FD002804D126
:104A300060490A7812B11CB10D707CBD641EF8D1BA
:104A40000D207CBD2DE9FF478246014682B05C4CBB
:104A500059489946904600272646012303AA08385C
:104A60000097FFF7A6FD050007D057A1132002F01D
:104A700023FD284606B0BDE8F0874E4D287880B16A
:104A8000D6B12F704C4808F0FF034A46514608380B
:104A9000FFF7A1FD060007D052A1132002F00CFD84
:104AA00006E0761EEAD107E0687818B124B16F708D
:104AB0003046DFE7641EF7D10D20DBE77CB500252B
:104AC0008DF8041019788DF8051001463A483C4CD1
:104AD000022301AA08380095FFF76BFD002804D1D6
:104AE00034490A7812B11CB10D707CBD641EF8D136
:104AF0000D207CBDA6E72DE9F84380469946144673
:104B00000F462F4E501C10F093FF054600F8017B16
:104B1000224649460EF098F927480027641CE3B264
:104B20002A46414608380097FFF743FD040003D0AA
:104B300033A00EF061FD04E01E48017839B146B1A2
:104B40000770284610F04CFF2046BDE8F883761E1B
:104B5000F3D1284610F044FF0D20F6E72DE9FC5F65
:104B60000024994617468A468346154D2646DFF8A7
:104B7000448017E00AEB04008DF8040019F80400E3
:104B80008DF805000C48022301AA59460838009602
:104B9000FFF70FFD002807D141460A7832B13DB139
:104BA0000E70641CBC42E5D3BDE8FC9F6D1EF4D1C1
:104BB0000D20F9E7D8210020085C0300814802009D
:104BC00040420F00882E00206572726F722072655D
:104BD0007475726E2066726F6D20747769207478B8
:104BE000200D0A006572726F722072657475726EA4
:104BF0002066726F6D20747769207278200A000039
:104C00007477695F7478206572726F7200000000BB
:104C100010B5044601F073FF00EB4001C1EBC0107A
:104C20004FF4804101EBC000C00B206010BD0FB4F9
:104C30002DE9F0410446CAB0092C3ED2DFE804F069
:104C4000050505050505053D050053AA06A8529969
:104C50000EF0FAFC051E31DD182168460EF01BF936
:104C600024208DF8000001208DF801008DF802400D
:104C70000D208DF815000A208DF8160000240DF186
:104C800018086E4617E0281B122800DB1220C7B256
:104C90001221F01C0EF0FFF808EB04013A46F01C5C
:104CA0000EF0D2F8684602F006FC024606A1032088
:104CB00002F006FC1234AC42E5DB00204AB0BDE84D
:104CC000F0015DF814FB00003A494E464F3A257357
:104CD00000000000C2480078704770B5C04C002545
:104CE000207808B1852516E00021A160616021616E
:104CF000E1604FF0E020D0F80001012610F0010F34
:104D000003D10721002000F079F902F057FD08B91E
:104D1000B44806602670284670BD10B500F068F9EA
:104D20004FF080414FF0FF30C1F8080300F01BF94D
:104D300000F027F9AA490020087010BDF8B5A84D69
:104D40000446A878002648B114B16168012088475C
:104D50008DF80060684602F044F917E08DF80060B5
:104D6000684602F03EF924B19D482146103000F01B
:104D70001AF9E86850B94FF4827000F0D8F80220B0
:104D80004107C1F80403984901200860E868401C05
:104D9000E8609DF8000002F044F9F8BD08B5002075
:104DA0008DF80000684602F01CF98D48C168491E64
:104DB000C160C06808B900F0D6F89DF8000002F0A4
:104DC00030F908BD10B502F0F9FC08B1012010BDA2
:104DD00086480068C0F3004010BDF8B5804D044619
:104DE0006878002648B114B16168002088478DF8C2
:104DF0000060684602F0F5F81AE08DF80060684639
:104E000002F0EFF824B176482146083000F0CBF8E4
:104E1000686868B902F0D2FC08B13FDF08E04FF4DF
:104E2000807000F084F801208107C1F80403086055
:104E30006868401C68609DF8000002F0F2F8F8BD58
:104E400008B500208DF80000684602F0CAF86448F2
:104E50004168491E4160406808B900F092F89DF829
:104E6000000002F0DEF808BD08B502F0A7FC30B182
:104E7000684641DF0098002800D0012008BDBDE849
:104E80000840012000F062B80F2070470F207047E3
:104E90000F2070472DE9F0414FF48077384600F03D
:104EA0004EF801244E4EA50748B1384600F03FF8B1
:104EB0000120C5F808037470002000F07FF84FF45B
:104EC0008277384600F03BF800280BD0384600F0D7
:104ED0002EF80220C5F80803B470BDE8F0410120A7
:104EE00000F06CB8BDE8F081002801D100F066B890
:104EF000704738B500208DF80000684602F071F860
:104F0000374C207808B9FFF7E8FEE068401CE06005
:104F10000120A0709DF8000002F083F838BD10B5A4
:104F20000721002000F06AF8BDE8104036E708B518
:104F300000F18040002101600068009008BD00F190
:104F400080400068002800D00120704727490C39B4
:104F5000096840F4803001F00111814201D1012043
:104F600070470020704720490120091D08601F4834
:104F70000168C1F300410029FAD119490020887065
:104F8000704710B502F01AFC08B140DF10BD164999
:104F90000120091F08600120FFF7D8FF0028FAD17F
:104FA0000F49487010BD0268134602E08A4204D0DF
:104FB0001268002AFAD10B600160704770B5084C86
:104FC000050009D010342168002907D00868206046
:104FD000496828468847F6E70834F4E770BD0000C2
:104FE000982E0020180500400800004018040040DA
:104FF0004FF0E0210120C1F8800170474907090EF8
:10500000002806DA00F00F0202F1E02282F8141DF7
:1050100003E000F1E02282F8001400F01F020121F9
:1050200091404009800000F1E020C0F88012C0F8F3
:10503000001170472DE9F04105460079FF4F904679
:1050400007EB40140E46E07E10B10820BDE8F08169
:10505000707F2077284600F091FA5FEA08006060D0
:105060003169216003D0317F284600F0D8FA2879D1
:1050700007EB4010007F0028286801D0082100E0DD
:105080000421C0F800150020E0752076A0750121EC
:10509000E176A076DAE770B504460079E7490026A4
:1050A00001EB401520682A7FC0F80065686888B168
:1050B000207901EB4010007F0028206801D0E049F2
:1050C00001E0DF498C39C0F80813206800F04BFA82
:1050D00000F03EFA204600F0D7FAEE766E6070BD22
:1050E0000079D64901EB4010807D002800D00120D6
:1050F00070472DE9F04705460079D04E904606EB03
:1051000040140F46207F18B1084600F02FFA30B146
:105110002846FFF7E5FF20B11120BDE8F0871020F9
:10512000FBE784F81680A7600027A78228794FF054
:10513000010806EB40143E46207F0028286825D051
:105140004FF49079494600F0F8F94FF4AC7A5146A3
:10515000286800F0F2F92868A17DA268C0F844250B
:10516000C0F848152868C0F808806068F0B949465A
:10517000286800F0E8F980465146286800F0E3F915
:1051800058EA0001F3D058BBA7750FE04FF48E7AB0
:10519000514600F0C1F92868C0F808802146286807
:1051A00000F0ABFA61684FF4807089B13046B4E723
:1051B0005146286800F0B6F910B9A08A4845F7D1E1
:1051C000A08A484505D02146286800F096FA00E0FC
:1051D0008146A08AA17D8842EAD3A08A484501D1B0
:1051E0000F26D1E75146286800F09CF90028F9D035
:1051F0002868C0F80C80C7E770B50546C87D0C4626
:1052000000284FF4847128460AD000F085F9D5F8BB
:105210001805627EE1688854607E401C607670BD2F
:1052200000F07AF9D5F8180570BD2DE9F041054672
:105230000079824E904606EB40140F46207F18B14D
:10524000084600F093F980B1626800234FF40470BF
:105250004FF401716AB12A7906EB4212127F002ADB
:105260002A6804D0C2F8080303E01020EEE6C2F872
:105270000813E27DB2B1227E7AB162685AB12A790E
:1052800006EB4212127F1AB12968C1F8040302E04A
:105290002868C0F804131120D8E62761012384F898
:1052A000188005E084F817800020E760607620769B
:1052B0002879424606EB40103946007F00282846F0
:1052C00003D0BDE8F04100F089BABDE8F04100F03C
:1052D00034BA0179594A006802EB4111097F11B1D2
:1052E000D0F8100101E0D0F80801002800D001201A
:1052F000704770B504460079504D05EB4010017FB2
:1053000000290AD1807E002807D1204600F005FA46
:105310002179012005EB4111887670BD027947495A
:1053200001EB4212127F002A07D102680123536069
:105330000079002201EB40108276704710B50446D8
:1053400000793E4901EB40104FF49271027F2068D2
:1053500012B100F0F2F801E000F0DEF82168D1F8B7
:105360008004C1F8800410BD2DE9F04105460179A3
:105370003248012600EB41142868217F79B14FF4AF
:10538000AC77394600F0D9F82868C660606803E059
:105390003946286800F0D7F80028F9D056E6C660EC
:1053A000606830B1A08AC1B22046BDE8F04100F08B
:1053B00076BA4FF48070A08248E601791F4A02EB6A
:1053C000411101220B7F01680BB14A6070474FF415
:1053D0000173C1F808330068426070472DE9FF4748
:1053E0000C4605464FF4007100F0A1F801274FF478
:1053F0000178002630B34FF492794946284600F0F0
:1054000091F8F8B14946284600F086F8C5F80883B7
:10541000A07E00B96F6002208DF80000D5F88004EE
:10542000C5F880040390E07D8DF80800E0680190E5
:10543000E6752676D4E90012684604E0AC2E00201A
:105440001003020001E0904727E00421284600F005
:105450006EF810B34FF48471284600F063F8E0B1A1
:1054600021462846FFF7C8FEE07D617E884214D1C0
:10547000207E38B1617EE268E0752069E0602676C2
:10548000667607E0A07E00B96F60C5F80883E67510
:10549000617EE268204600F0F6F94FF48E784146CE
:1054A000284600F03FF888B1A08AA17D884204D246
:1054B0002146284600F021F908E04146284600F040
:1054C0002BF8A17D11B1204600F0E9F94FF4A27844
:1054D0004146284600F026F8002812D041462846CA
:1054E00000F01AF8A07E00B12F60E07D002808D0FF
:1054F000E675617EE26804B02046BDE8F04700F042
:10550000C2B9BDE8FF87FE48017FFE480029FC497B
:1055100001D000F0D2B961E708B5002242504058EE
:10552000009008BD4058002800D001207047D0F8F6
:105530000403084000D00120704708B50022425003
:105540004058009008BD4058002800D00120704706
:1055500000F01F02012191404009800000F1E0208D
:10556000C0F880117047000B40B270470121B1EBC9
:10557000507F01D1012070470020704770B505466B
:1055800008680C46411C04D000F033FA206800F093
:1055900014FA6068411C02D0002100F018FA287942
:1055A000D74901EB40102968007F0028A069C1F8A5
:1055B000240523D0607D227D29681043C1F86C0545
:1055C000D4E900122868C0F80C15C0F8142522E0B0
:1055D000A068411C02D0002100F0F9F9E068411CEC
:1055E00004D000F006FAE06800F0E7F9D4E902120E
:1055F0002868C0F80825C0F8101570BD607D217DB1
:105600002A680843C2F86C05D4E900122868C0F87B
:105610001425C0F80C15207D0128D9D070BD70B5B7
:105620000E4604460079B6494FF4A27501EB4010CE
:10563000017F2068A1B14FF48871FFF77EFF4FF41E
:1056400090712068FFF779FF4FF492712068FFF79F
:1056500074FF29462068FFF770FFAB49206809E016
:105660004FF48E71FFF758FF29462068FFF754FF6B
:10567000A6492068C0F804132068FFF774FF31467C
:10568000BDE87040FFF7BABC70B5034600799C498D
:1056900001EB40101968027F4FF0FF30002AD1F86B
:1056A0000C25D1F81465D1F80855D1F8104504D06F
:1056B000C1F80C05C1F8140503E0C1F81405C1F8E0
:1056C0000C051968C1F80805C1F81005501C02D076
:1056D000104600F085F9701C02D0304600F080F9C9
:1056E000601C02D0204600F07BF9681C04D02846DC
:1056F000BDE8704000F074B970BD70B50C46054649
:105700004FF48E71FFF708FFA18AA068415CA08A60
:10571000401CA082C5F81C1570BD10B50446006879
:105720004FF49271FFF7F8FE4FF484712068FFF791
:10573000F3FE20680121016010BD2DE9F05F0446F1
:1057400000796F4901EB4015A87E184302D120462D
:10575000FFF7E3FF68680028206806D04FF4017166
:10576000C0F804130020BDE8F09F4FF4A276314644
:10577000FFF7D2FEB1464FF4927A4FF4847B514644
:105780002068FFF7CFFE064659462068FFF7CAFE9D
:10579000804649462068FFF7C5FE074648EA0700ED
:1057A0003043ECD056EA070007D129462068FFF7BE
:1057B00023FDE87D697E8842E1D80020E8750EB1BE
:1057C0000320D0E70FB10F20CDE7A97E01200029EB
:1057D000216801D00860C5E74860C3E72DE9F05FA4
:1057E000894604464FF488759A469046002600681C
:1057F0002946FFF7A2FE4FF4A27739462068FFF74B
:105800009CFE2068C0F83495C0F838852068BAF14D
:10581000000F13D0D0F8001241F02001C0F80012A0
:105820002179DFF8DC8008EB4110406848B120683E
:105830004FF40471C0F80413304694E7012101606D
:10584000EEE7AA46B9464FF4927B51462068FFF72F
:105850007AFE074649462068FFF775FE0546594619
:105860002068FFF770FE014647EA05000843ECD0C8
:105870002379002208EB4310C27501B10326002DE5
:10588000DAD00F26D8E71FB501238DF800308DF848
:1058900008100192D0E90012684690471FBD1FB55D
:1058A00000228DF800208DF8081081680191827522
:1058B000D0E90012684690471FBD2DE9FF410C4614
:1058C0004FF4927705463946FFF73DFE002608B3B0
:1058D00039462846FFF731FE02208DF80000D5F842
:1058E0008004C5F880040390D5F83C058DF80800C5
:1058F000E0680190E6752676D4E90012684607E074
:10590000AC2E0020002000401003020080000200A6
:10591000904724E04FF4887739462846FFF713FE76
:10592000E8B139462846FFF708FED5F83C05C1B274
:10593000E07D884213D1207E60B1E268D5F8000294
:1059400020F02000C5F80002207EE0752069E060AC
:10595000267601E0E675E2682046FFF794FF4FF4F3
:10596000A27739462846FFF7EEFD68B1394628464A
:10597000FFF7E3FDE07D38B1E675D5F83C05E26858
:10598000C1B22046FFF77FFF4FF49076314628469C
:10599000FFF7D9FD00280ED031462846FFF7CDFD90
:1059A000A07D002807D0D5F84C0504B0C1B2204630
:1059B000BDE8F04173E7BDE8FF811CB5002100910F
:1059C0000B4601220191114600F028F81CBD1CB5C0
:1059D00000220B4600921146019200F01FF81CBDF8
:1059E0001CB5002100910B460122019100F016F830
:1059F0001CBD01B5684600F006F8009A01219140EF
:105A0000C0F8081508BD0168202902D24FF0A04057
:105A1000704701F01F0101600C4870472DE9FF41FC
:105A20001C46DDE90A7815460E466846FFF7EBFF8F
:105A300046EA450141EA840141EA072242EA084177
:105A4000009A00EB8200C0F80017B4E70003005092
:105A5000F0B54FF0FF3512B10023082601E008230E
:105A60000926FE4C05E000BF54F823707F1C04D0CB
:105A70005B1CB342F8D32846F0BD26185DB286F809
:105A8000245044F82310002AF5D1E11881F84C0085
:105A9000F1E770B5F14D95F8550040B10824204666
:105AA00001F01CFB0346EE4AEEA1022028E0002094
:105AB000411E2A18401CC0B282F824103028F8D3A6
:105AC0000024204600F00AFC641CE4B2092CF8D340
:105AD00007210620FFF792FA4FF4BE7000F05DFB3D
:105AE000EC494FF00040C1F80403012085F855004F
:105AF0000024204601F0F2FA0346D94AE6A1032029
:105B000001F0E5FC204670BDD44890F8550000280F
:105B100000D00120704710B5044600F0D0FB28B13A
:105B20002046BDE81040002100F06CBB204600F08C
:105B3000BCFB00280FD0204600F0CBFBD54A02EB7F
:105B40008001D1F8103523F00103C1F8103501218F
:105B50008140C2F8081310BD10B50446FFF7DBFF03
:105B6000204600F0A2FB40B1204600F0B2FBC94A3B
:105B7000002102EB8000C0F81015204600F039FB30
:105B8000204600F0A6FBC0B200F0A8FBB349FF20FE
:105B9000214481F8240010BD10B5044600F085FBB7
:105BA00070B1204600F095FBC0B200F097FB204694
:105BB00000F08FFBB74A002102EB8000C0F81015FF
:105BC000A649FF20214481F824002046BDE810406A
:105BD00000F00FBB70B50024A04D2646281990F99F
:105BE0002400811C10D0C017401C02D02046FFF7B3
:105BF000B3FF641C302CF1D385F85560BDE87040CC
:105C0000B0A1032001F058BC2046FFF7C5FFF0E724
:105C10002DE9FC41044691480D462044002690F9A8
:105C20002410491C01D008263EE0A978002751B372
:105C3000012200212046FFF70BFF411C21D08300E9
:105C400094482A7818446978D0F81035DFF894C25F
:105C500003EA0C03C0F81035D0F810354FF47C5C23
:105C60000CEA042C43EA0C034FF4403C0CEA0242D9
:105C70004FF4801C0CEA01510A431343C0F810355D
:105C800004E0042610E0FE2180F824106878012842
:105C9000204616D000F0D8FA0122204600970023B3
:105CA0001146019700F08CFA304601F017FA6C4A61
:105CB0000346143278A1032001F009FC3046BDE808
:105CC000FC8100F0B7FAE7E700F0B4BA00F0BCBA24
:105CD00008B50090684600F068FAD0F80425009BEB
:105CE0000121994021EA0203C0F808351140C0F8AB
:105CF0000C1508BD5949084490F9240081006548F5
:105D00000844D0F8101541F00301C0F81015704791
:105D10005249084490F9240081005E480844D0F8B4
:105D2000101521F00301C0F81015704710B500F0F0
:105D3000D0FA5849800601EB106010BD10B500F094
:105D4000C8FA302101EB80005249C0B2084410BDAE
:105D500010B500F0BEFA602101EB80004D49C0B2E1
:105D6000084410BD01B101213C4A104490F92400BF
:105D7000820048481044D0F8102561F31452C0F84E
:105D80001025704710B500F0A4FA424A800602EBD5
:105D900010600121016010BD10B500F09AFA3021A9
:105DA00001EB80003B4AC0B20121815010BD10B50B
:105DB00000F08FFA602101EB8000364AC0B2012169
:105DC000815010BD2DE9FC41DFF89080044608EBBE
:105DD0000400002790F924001346C0170E46401C0B
:105DE00001D008278FE0F27819462046FFF730FEF1
:105DF0000546401C31D0B07868B16846009400F088
:105E0000D4F9009900EB8101D1F8000720F00200DD
:105E1000C1F8000707E000217378204600910A4688
:105E2000019100F0CDF9F078B0B11A48317800EB6B
:105E30008500D0F810252C4B1A40C0F810254FF4DF
:105E40007C524FF4403302EA042203EA01410A4340
:105E5000D0F810150A4349E04BE053E0CC2E002067
:105E6000205C03004750494F54453A5741524E4930
:105E70004E473A46756E6374696F6E3A2025732CEF
:105E8000206572726F7220636F64653A2025732EED
:105E90000D0A0000006000404750494F54453A4900
:105EA0004E464F3A46756E6374696F6E3A2025739D
:105EB0002C206572726F7220636F64653A202573BF
:105EC0002E0D0A004750494F54453A494E464F3A25
:105ED000556E696E697469616C697A65642E0D0A24
:105EE00000000000FFC0ECFFFFC0FCFFC0F8102561
:105EF00009E008EB0500327810F84C1F41EA8211E6
:105F0000017000E00427384601F0E8F8F94A03463A
:105F1000AFF27C01032001F0DAFA3846CFE62DE932
:105F2000F0410E46804600F0CAF9F34D0028404685
:105F300016D000F0CEF9284490F84C0080090328D0
:105F400002D001280AD003E0404600F087F928B1CA
:105F500003214046BDE8F04100F054B90221F8E7C2
:105F600000F0A3F9002820D0404600F0B2F9044622
:105F7000E24F4FF4807007EB840100EB8400D1F80E
:105F8000102580B242F00102C1F8102500F005F999
:105F9000002E0AD0404600F09CF955F82000002859
:105FA00003D00120A040C7F80403BDE8F08110B57C
:105FB00000F054F9002800D0012010BD70B505464E
:105FC0004FF4BE7400F071F938B1284600F081F941
:105FD0004FF4807101EB800084B2C848204470BD4A
:105FE0002DE9F04F00258DB0DFF81083A946059507
:105FF0004FF4807601242F460695304600F0C7F80E
:1060000038B1D8F80403204203D0304600F0C5F878
:106010002543361D64007F1CB6B2082FEDD34FF424
:10602000BE74204600F0B3F848B1204600F0B5F841
:1060300045F0004505AA0221002000F01AF9AE4EF5
:1060400015F0FF0F15D0012700242F420DD008EBCB
:106050008401D1F81005D1F81015C0F3052056F8C9
:106060002420C1F3014102B190477F00641C082C39
:10607000EBD3002D4DDA0020CDF82490411E4FF0D7
:10608000010A0DF1140B07ADCDF8289045F820104A
:10609000401C0228FAD300BF96F854704FF0000855
:1060A00078B227F0C004401C33D007A9204600F086
:1060B000F4F800282DD04FEA9719204600F009F98E
:1060C00056F820701FB1B9F1030F03D00CE0B9F1FD
:1060D000030F1ED109A8E10804F00702435C0AFA85
:1060E00002FC43EA0C03435402A8029400F05DF85A
:1060F000029900EB8100D0F8000705A9C0F3014028
:106100000290204600F0C9F80028029804D0022826
:1061100004D00DB0BDE8F08F0328FAD1B9F1030F18
:1061200008D1029802282CD00221204600F06AF8FB
:106130004FF0010817B149462046B847B8F1000FA3
:10614000E7D001AA0221002000F093F800205A466F
:106150000DF1040152F8204051F82030A34212D032
:10616000002009AB51F8204042F8204053F820406D
:1061700045F82040401C0228F4D3B8F1000F8BD121
:10618000C7E70321D1E7401C0228E3D3C1E75B49FD
:106190004058012800D000207047584908B50844ED
:1061A000002101600068009008BD0168202902D22A
:1061B0004FF0A040704701F01F0101605048704748
:1061C0002DE9FF411C46DDE90A7815460E46684672
:1061D000FFF7EBFF46EA450141EA840141EA072265
:1061E00042EA0841009A00EB8200C0F80017BDE8BF
:1061F000FF811CB5002100910B4601220191FFF7A0
:10620000DFFF1CBD13B50C466846FFF7CEFF0099B3
:1062100000EB8101D1F8002722F44032C1F80027B9
:10622000009900EB8100D0F8001741EA0441C0F862
:1062300000171CBD01B56846FFF7B7FF009A0121A2
:106240009140C0F8081508BD01B56846FFF7ADFFDD
:10625000009A01219140C0F80C1508BD01B56846AF
:10626000FFF7A3FFD0F810050099C84000F0010027
:1062700008BD1CB51F4C0144343CD4E90034CDE9C1
:1062800000346C4606E000BF54F82030D3F81035D7
:10629000401C08C28142F7D81CBDC20800F00703A9
:1062A0000120895C9840084070471349084490F9E0
:1062B0002400082801D201207047002070470E49B1
:1062C000084490F92400082801DB012070470020D1
:1062D00070470949084490F92400704706494FF077
:1062E000FF32082841F8202002D3084480F84C20CF
:1062F000704700004C5C0300CC2E00200060004082
:1063000000030050014604221920FEF7DFBA01788D
:106310003720FEF7FFBA01783820FEF7FBBAFEF708
:10632000C0BA1CB50446062269463B20FEF70DFBA9
:1063300000280BD100216846C1F10502491C825C8E
:10634000C9B204F8012B0629F6D300201CBD1CB5E8
:106350000446062269464320FEF7F7FA00280BD1CF
:1063600000216846C1F10502491C825CC9B204F8EB
:10637000012B0629F6D300201CBD38B504460222A5
:1063800069464120FEF7E1FA002808D19DF8001087
:106390009DF80100090200FA81F02080002038BD3C
:1063A000012201463A20FEF7D0BA38B50446012250
:1063B00069463720FEF7C9FA9DF8000040F0020058
:1063C0008DF800006846FFF7A2FF002803D121786E
:1063D0000A20FEF71CFB38BD38B50C4601460622E4
:1063E0000320FEF7E4FA00280CD14FF001022CB193
:1063F0002146BDE838400920FEF7D9BA6946092090
:10640000FEF7D5FA38BDFEF7D2BA00002DE9F0410B
:1064100000260125594C22E06068226900EBC6077E
:10642000387805FA00F1114217D08A432261FFF74C
:10643000BEFD02463878E36805FA00F1194002FA19
:1064400000F3994209D17978012901D0012100E0B6
:10645000002151407A6802B19047761CF6B220784C
:106460008642D9D3BDE8F0812DE9F041444E07467C
:106470000125BD40306800F02EFB0028F2D13F4CD2
:106480002069284207D13846FFF791FD0028E068CF
:1064900004D0284303E0A8432061E3E7A843E06079
:1064A000206928432061A1683068BDE8F0410022DE
:1064B00000F0CFBAF8B515460C460646052A01D2BB
:1064C0000720F8BDFFF720FB18B9FFF7E2FA002814
:1064D000F7D12A4900204E600C70C1E90250284DC6
:1064E00008610DE006EBC4006968009181788DF8C1
:1064F00001100078234A6946FFF764FC0028E0D1C8
:10650000641EE4B2EED2BDE8F8401F4A00211C48E8
:1065100000F08FBA70B50024184D06E068680121BC
:1065200010F83400FFF7FBFC641C28788442F5D394
:10653000002070BD70B50024104D05E0686810F8AB
:106540003400FFF7E8FA641C28788442F6D30C483C
:106550000068BDE8704000F0BEBA084910B549684F
:1065600001EBC0042078FFF722FD6178012901D0FA
:10657000012100E00021484010BD0000DC21002086
:10658000645C0300696402000D6402000EB5ADF89E
:106590000010CDE901206A46002144F2010000F01C
:1065A0003DF80EBD0EB500210091CDE901106A46FF
:1065B00044F2010000F032F80EBD08B501238DF859
:1065C00000309DF80030144B186059609A606FF4E9
:1065D0008041401807D001280FD1DA60D8680088C0
:1065E0009861D86807E01A6118698068586118696D
:1065F0000088986118694068D86118685868986878
:10660000D868186958699869D86972B69DF8000009
:106610000028FBD162B608BD442F00200AA101204A
:1066200000F04AFF0CA1032000F046FFBFF34F8F9C
:1066300010480168104A01F4E06111430160BFF3A2
:106640004F8F00BFFDE700003A4552524F523A4685
:106650006174616C0D0A00003A494E464F3A486930
:1066600074207765616B2068616E646C65720D0AD9
:10667000000000000CED00E00400FA0529B112B1A1
:10668000531E134203D0092070470E20704701604B
:10669000838000218160C1600846704710B5826820
:1066A000C3689A1A83889A4203D800F072F80020CF
:1066B00010BD042010BD10B58268C368934203D09A
:1066C00000F070F8002010BD052010BD10B58368E3
:1066D000C468E31A8B4208D9836819448388006828
:1066E0001940405C1070002010BD052010BDC1682D
:1066F0008160002070472DE9F0411646884607006A
:106700000ED06EB1B868F9683468081A0025844262
:1067100000D30446306030B15FEA080001D00BE0DE
:106720000E20BDE8F0810520FBE700BF08EB050166
:1067300038466D1C00F036F8A542F7D300203460CF
:10674000EFE72DE9F04116468846070011D086B1E3
:10675000B868F9683468081AB9880025081A401C16
:10676000844200D30446306028B15FEA0800D8D0E4
:106770000AE00E20D5E70420D3E700BF18F8051083
:1067800038466D1C00F005F8A542F7D300203460B0
:10679000C7E7C26883881A4003689954C168491CD6
:1067A000C1607047826883881A4003689A5C0A70E7
:1067B0008168491C8160704700283ED0F749F84A3B
:1067C000096800BF00BF00BF00BF00BF00BF00BF1F
:1067D00000BF91422FD000BF00BF00BF00BF00BF6D
:1067E00000BF00BF00BF00BF00BF00BF00BF00BFB1
:1067F00000BF00BF00BF00BF00BF00BF00BF00BFA1
:1068000000BF00BF00BF00BF00BF00BF00BF00BF90
:1068100000BF00BF00BF00BF00BF00BF00BF00BF80
:1068200000BF00BF00BF00BF00BF00BF00BF00BF70
:1068300000BF00BF00BF401EC3D1704770B5012626
:1068400070044FF0E0210025C1F88001D54C4010C4
:10685000C4F84803C4F8080366602F20FFF7ACFFB4
:10686000A660D14C2F20A560FFF7A6FFA57070BDD4
:106870002DE9F047CC4E002780463D46DFF82C93AB
:10688000D6F804A057E003D00446D0F81C8035E0C9
:1068900099F8002002EB4201521CD2B289F8002084
:1068A00009EBC10199F80230091D9A4201D189F81A
:1068B000005048680A780446012A12D0022A02D001
:1068C000032A3BD108E000F086F900B101272574C6
:1068D00034E00574C06900E070680028F9D1706088
:1068E0002CE0207C50BB88686060C868A0600869A4
:1068F000E0604869A061F07800B165606268B168E5
:10690000AB4B501A20F07F40984202D2A168084455
:1069100006E0881AA16820F07F40814202D9081A57
:10692000206000E0256065600120A560207420469D
:10693000E56100F025F9B8F10000A4D199F8001044
:1069400099F801008142A3D117B97168514502D06D
:106950000120BDE8F0870020FBE794494A788B7856
:10696000521CD2B2934200D100220B78934201D143
:10697000002070470270487800EB400001EBC00037
:10698000001D70477CB5064600240D468DF800407A
:10699000684600F026FB01A8FFF7DFFF70B1057025
:1069A000824946609DF8040048709DF8000000F0A0
:1069B00038FB142000F0BEF820467CBD04249DF86E
:1069C000000000F02EFBF7E776480021C0F84011E8
:1069D000C0F84411C0F84811C0F84C11C0F80011BB
:1069E000C0F8041100F023B900F054B970B5FFF7F6
:1069F00025FF6E4800240B21047044706A4D81709D
:106A000014206C602C706C7000F09FF8072114202B
:106A100000F0A6F8142000F082F866480460072110
:106A2000112000F09DF86348001F0068A860002056
:106A300070BD5E4B9B7823B12AB120B10068037C06
:106A40001BB1082070470720704741744261002045
:106A500070472DE9FC47DFF8549199F802307BB379
:106A600070B3052902D20720BDE8FC8743693BB318
:106A7000437C012B27D00027044600258846164674
:106A80008DF80050684600F0ACFA01A8FFF765FFEA
:106A9000D8B10121017047494460091F0968C0E964
:106AA0000218C0E904769DF8040089F801009DF8F9
:106AB000000000F0B6FA142000F03CF82846D3E7B6
:106AC000FFE70820D0E70F46D6E704259DF8000031
:106AD00000F0A7FAF2E73549897831B128B1416968
:106AE00019B10021017402214CE7082070472F489A
:106AF000807810B10321002044E7082070472D481A
:106B0000001F00687047401A20F07F4070472549F9
:106B1000012048607047234901200860704700F059
:106B20001F02012191404009800000F1E020C0F8DF
:106B30000011704700F01F020121914040098000C0
:106B400000F1E020C0F80012704700F01F020121A0
:106B500091404009800000F1E020C0F880127047A9
:106B60004907090E002806DA00F00F0000F1E020C6
:106B700080F8141D704700F1E02080F80014704781
:106B8000094B10B5596831B102680C68A24213D89C
:106B9000A21A0A60C161586010BD00008C2200205A
:106BA0000024F40000100140F0210020642F002098
:106BB000FFFF7F00081501400B4603E00B46C96943
:106BC000121B21B10C689442F8D3A41A0C60026025
:106BD000C161D861E0E72DE9F041824E77683D461A
:106BE0002C4603E0844204D02546E469002CF9D108
:106BF0001BE0D4B1A5420BD1F869706040B97A4965
:106C0000012088600021B160F0702F20FFF7D4FDD3
:106C10002168E069E86110B10268114401607068A0
:106C2000874202D00120BDE8F0810020FBE72DE97A
:106C3000F0416C4D6C68002CF5D06C480027006862
:106C4000A968B846401A20F07F462068B0420CD8A8
:106C50002146361A0744E469087C20B181F8108087
:106C6000886949698847002CEFD129786878814282
:106C700006D1401CC0B26870022801D185F801809D
:106C8000584869780C3040F82170BDE8F041142074
:106C900050E7C8E72DE9F84F524C00256846D4E983
:106CA00001A600F034F8002738B30023009A616889
:106CB0001CE0D1F800C00846944503D9ACEB0202B1
:106CC0000A6015E0A2EB0C0263440760D0F80CC028
:106CD000C1698146BCF1000F08D006EB030828F01B
:106CE0007F48C0E9018CC9F81C5005460029E0D155
:106CF00028466160FFF7BCFD03E02846FFF7B8FDBA
:106D000010B1504600F020F8E770BDE8F88F354923
:106D100010B50A784C780023A24212D0521CD2B28D
:106D20000A70022A00D10B702E4A0B780C3252F8EE
:106D3000232002608868104420F07F408860012092
:106D40002AE70360002027E72DE9F05F2548416826
:106D5000F1B3DFF898B00E688146DBF80040876831
:106D60008078E11B21F07F45ED1CB0B9DFF8788019
:106D70004FF48030C8F84403C8F804031120FFF72B
:106D8000E4FE1120FFF7CBFE4FF0010AC8F800A087
:106D90002F20FFF711FD89F802A0B54200D2354639
:106DA000124BE8193C3320F07F401860DBF80010EC
:106DB0005A46091B21F07F41001B20F07F40C91C6F
:106DC00081420DD9106818602F20FFF7F5FC00E014
:106DD00003E0BDE8F05F1120ACE6BDE8F05F2DE513
:106DE000BDE8F09FF0210020001001400415014093
:106DF0007CB50178704D81B301290BD002292BD1CC
:106E00008DF80010C068691C01900122C81DFEF7B2
:106E10000CFA2EE0406801786848FFF73FFC674CA9
:106E2000012618B18DF80060019006E0A068E168C5
:106E3000814205D000208DF80000696868468847C7
:106E4000A068E168081AA188884207D85A49012237
:106E5000491CC81DFEF7E9F97CBD01E0AE70FBE7F7
:106E6000564855491030FFF726FC30B103208DF805
:106E70000000696868468847EEE74F49012201F142
:106E80000800FEF736F9E7E7F0B54B4E89B01F462C
:106E90000D00044672603BD0A888296882B247483A
:106EA000FFF7ECFB002834D1A889A96882B24348D7
:106EB0001030FFF7E3FB00282BD120224049684621
:106EC0000BF0C2FF60690690207C00B101208DF8B4
:106ED00014008DF81C70607C00B10E208DF8150038
:106EE000E0680290A06803902068019060680090BC
:106EF0003148344A69460830FEF79CF8002808D12A
:106F0000B0702068401C04D09DF81D0018B106E048
:106F1000072009B0F0BD28480830FEF7EAF92649F5
:106F20000122491CC81DFEF780F9F2E710B523487D
:106F3000FFF7DDFB002805D12048BDE810401030E8
:106F4000FFF7D5BB10BD70B51B4E01461B48B57889
:106F5000FFF7B1FB04464DB10020B070711C012257
:106F6000C81DFEF762F908B1FFF71CFB204670BD93
:106F70000146124810B51030FFF790FB040011D104
:106F80000D480830FEF7ACF860B90C480A491030DB
:106F9000FFF791FB30B90849012201F10800FEF723
:106FA000A8F80446204610BD034810B50830FEF787
:106FB00072F8002010BD0000042200207030002074
:106FC0006C5C0300F16D020072B634480168491C24
:106FD0000160704731490868401E086000D162B600
:106FE000704730B5EFF3108172B62D4A94680123D3
:106FF00024B10370002900D162B630BD93604FF018
:10700000E023D3F88051274C25401560C3F8804118
:10701000D3F8844154605A17C3F8842100220270C7
:10702000E8E71F498A68002A11D000280FD1EFF342
:10703000108072B60B684FF0E022C2F800314B6846
:10704000C2F8043100228A60002800D162B670477D
:10705000EFF30580C005C00D01D001207047EFF3AC
:10706000148040F30000401C7047EFF30580C0051A
:10707000C00D10D0103840B2002806DA00F00F0022
:1070800000F1E02090F8140D03E000F1E02090F80A
:107090000004400970470F207047000014220020B0
:1070A00090300020FC06FFBD104A10B502F1F0033D
:1070B0000EE0991AC91001EBD171491002EBC10120
:1070C0000C68844201D90B4602E005D201F10802A6
:1070D0009A42EED3002010BD486810BD00B5FFF7FE
:1070E000E3FF002801D10148143800BDA05C030073
:1070F00008B56846FFF727FF0528FAD09DF800007D
:1071000008BD10B50446C0B2FFF732FF204610BDDF
:107110000078012801D1D3498870704730B5D14C2F
:10712000054689B0207828B16078854202D10020D8
:1071300009B030BD2022CC4968460BF085FE002006
:107140008DF814000620009008200190052003907F
:10715000072002904FF0EB700690C248001DFDF72B
:107160009AFF0DB1002200E0C04ABE486946001DEA
:10717000FDF760FF0028DBD1012020706570D6E7A5
:1071800010B5144602004FF001000CD008461368F9
:10719000B7A24FF480710CF03FFA01462046BDE8DB
:1071A000104000F056B90021216010BD2DE9F043D8
:1071B000C7B000251C46904689464E9F459500F075
:1071C00032F900287AD1459805AE311845AA4846CB
:1071D000FFF7D6FF002835D0072F27D2DFE807F0CA
:1071E00004121B35424F5D0040460BF05FFE054622
:1071F00045982918FF2919D830442A4641460BF0F2
:1072000023FE13E045982368C0F580713044424660
:107210000CF002FA09E06068009045982368C0F518
:107220008071304442460CF0F7F90546294645A8DE
:1072300000F00FF9459978B3B1F5807F3ED805A8E5
:1072400000F0F5F847B0BDE8F083D4E90101CDE9DD
:10725000000145982368C0F58071304442460CF027
:10726000DBF9E2E7201D07C88DE807004598236891
:10727000C0F58071304442460CF0CEF9D5E7201DB0
:107280000FC88DE80F0045982368C0F58071304421
:1072900042460CF0C1F9C8E710E004F1080001AD66
:1072A0000FC885E80F006068009045982368C0F516
:1072B0008071304442460CF0AFF9B6E70020C1E7D8
:1072C0002DE9F04FC1B00D004FF0000140914D98F5
:1072D0004B991C46174601EB000B01D00A2000E039
:1072E0000020804600F09FF800287CD16E46BCB993
:1072F000409840AA31182846FFF742FF002872D074
:1073000038460BF0D3FDC22800D9C220054640986C
:107310002A46304439460BF097FD40982844409067
:107320004FF0200A409901EB080231320DEB0105C4
:107330000DEB0206002002E005F801AB401C4045C1
:10734000FAD300275C4508D305F801AB05F801AB7B
:1073500005F801AB06F801AB2DE04B98844202D250
:107360004A98005D02E0211A4C98405C2B46814609
:1073700002460121880022FA00F000F00F000928DF
:1073800001D9373000E03030C1F1010C491E03F85B
:107390000C00EFD29D1C05F801AB0BF051FD01680C
:1073A00011F8090010F03E0F01D0484600E02E20F1
:1073B00006F8010B641C7F1C102FC3D30D20307006
:1073C0000A20707085F800A0409968464144433116
:1073D000409100F02CF830B100F025F818B90020E9
:1073E00040905C459ED341B02046BDE8F08F2248D6
:1073F00070472248704738B51A4C607828B101228E
:107400006946201DFDF711FF0AE00020A070154815
:1074100001226946001DFDF708FFA0780028FCD076
:107420009DF8000038BD0F48001DFDF759BE70B52E
:107430000D460A460146012411480BF005FD094896
:10744000EAB20F49001DFDF754FE00B100242046AA
:1074500070BD002901DA0020704702681144016004
:10746000012070471C220020905D03001171020072
:107470005B253038645D0000AD710200C17202000E
:107480009C3000208C4AC2E905017047FAE770B5CC
:107490000120FFF743FE040008D1FFF7A8FF0546CF
:1074A000FFF7A7FF01462846FFF7ECFF204670BD17
:1074B0000120FFF733BE704700231A4600F0F2B8F0
:1074C00008B5012300926A4600F0ECF808BD1CB52F
:1074D000CDE9002302236A4600F0E4F81CBD3EB566
:1074E000069C8DE81C0003236A4600F0DBF83EBDD5
:1074F0007FB5DDE908458DE83C0004236A4600F0CD
:10750000D1F87FBD70B586B00DF1280C9CE87000F5
:107510008DE87C0005236A4600F0C4F806B070BD13
:10752000F0B587B00DF1300C9CE8F0008DE8FC0060
:1075300006236A4600F0B6F807B0F0BD2DE9FF4714
:107540001C4600235C4F1646884681461D46009621
:10755000CDE901450395D7F818C0424600214846B9
:10756000E0470346A042F2D3BDE8FF87524803C874
:10757000814201D101207047002070472DE9F04F72
:1075800087B0FFF7F3FF18B1002007B0BDE8F08F18
:10759000494ED6E9014704EA070006EB8000A14600
:1075A000641CC5680CE000BFC5F3891000EB955062
:1075B000044404EA070006EB8000A146C568641C89
:1075C000A807F1D005F003004FF0000B022805D00A
:1075D000AA0A01A8C5F38313002151E004EA0700B9
:1075E00006EB800004F1010A0AEA0704C268381BAE
:1075F00080004FEA9558001DC5F38913804520D9B6
:107600002D490C3138B106EB840400F0FF0CA8EBD7
:1076100000000C3404E00C46002108F0FF0C084682
:10762000C0B2CDE90210CDE9004CB469C5F3C20087
:107630005946A047404510D108F103080AEB9804C9
:1076400028E0002106EB84000C300090CDE9018198
:107650000391C5F3C200B469EBE760F38F1509EA43
:10766000070006EB8000C56015E000BF04EA070CC8
:1076700006EB8C0C491CDCF80CC040F804CB641CF5
:107680009942F3D3C5F3C2000093756901AB594623
:10769000A84700B17460FFF769FF80F0010074E74C
:1076A000FFF7A9BE38B50D460093034B00215C6976
:1076B00013462A46A04738BD9C31002001212028CE
:1076C00003DA8140A848014003E0402802DA20386C
:1076D000814009B1012070470020704710B5044671
:1076E000FFF7ECFF40B1002C09DA04F00F0000F1C5
:1076F000E02090F8140D06E042F2010010BD04F104
:10770000E02090F800044109082914D299B1012918
:1077100011D004290FD005290DD094480122816889
:1077200061B1610950F8213004F01F04A2401343F5
:1077300040F8213005E042F2020010BD204600F082
:10774000FCF8002010BDFEF769BFF8B5884C207822
:10775000002832D02069002658B100256078002822
:107760002BD1684648DF052805D030B1FEF71AFF57
:107770000AE00125F2E7012606E00098FDF7B4FBD8
:10778000A16809B1009888479DB96078002814D194
:107790006088ADF800006946E06861DF052803D025
:1077A00020B1FEF7FFFE04E0012502E0D4E9030169
:1077B0008847002ED2D0002DE6D0F8BD6C48007866
:1077C00070472DE9F041074619B188074FF00004D2
:1077D00002D00720BDE8F081654D4FF0E020012682
:1077E000E9606A806B60D0F8000110F0010F03D0EF
:1077F0003446002000F0ACF8AFF2B501384610DF97
:10780000070005D014B1002000F097F83846E1E7F2
:107810002E70FDF76EFBBDE8F04116205EE710B557
:1078200011DF040003D152490870FDF778FB2046B0
:1078300010BD18B14E490861002070470E207047F6
:1078400018B14B498860002070470E2070474848A7
:1078500010B5406830B18047002806D0BDE8104020
:10786000FEF7A0BEBDE810406FE710BD70B516244E
:107870002046FFF723FF012538B13C49886848B10D
:10788000086820F48000086007E042F20100FEF77B
:1078900089FE02E0204600F05BF83548457070BD77
:1078A000334810B54178002919D0002141701620C5
:1078B000FFF704FF30B14FF0E0214FF48000C1F832
:1078C000000203E042F20100FEF76CFE1620FFF713
:1078D00005FF002803D0BDE81040FEF763BE10BDD1
:1078E00023484078704708B5224A00920021026080
:1078F000084608BD38B5054600680090684660DF58
:1079000004462868009A90420FD01BA10220FFF77E
:10791000D7FD4FF08050D0F80C010099800200F1A3
:107920000050421A21A1022003E024B122462CA1DA
:107930000120FFF7C5FD204638BD00F01F020121E0
:1079400091404009800000F1E020C0F8001170472C
:1079500000F01F02012191404009800000F1E02069
:10796000C0F8801170470000FC06FFBD9030002079
:1079700028220020982100205344483A5741524E73
:10798000494E473A52414D207374617274207368B6
:107990006F756C642062652061646A7573746564D8
:1079A00020746F20307825782E0D0A005344483A11
:1079B0005741524E494E473A52414D2073697A65BC
:1079C0002073686F756C642062652061646A7573EA
:1079D00074656420746F20307825782E0D0A0000BD
:1079E0005344483A4552524F523A73645F626C6551
:1079F0005F656E61626C6528292072657475726EB0
:107A0000656420756E657870656374656420766161
:107A10006C75653A20307825782E0D0A000000003C
:107A200010B501464822FE480BF00EFAFC49F43925
:107A300001F5A070D1F830214263D1F8342182677A
:107A4000D1F83811C0F8BC10032902D1012002F08E
:107A50002EF8002010BD10B54822F1490BF0F4F9C2
:107A6000002010BDEE4900204C31C1F89001704754
:107A700010B500209FEDEB0AE94C4C3404EB80017B
:107A8000401C81ED5B0A0928F8DB2421E6480BF055
:107A900002FA0020B7EE000A4FF0804204EB00111A
:107AA000401C81ED5B0AC1F848210328F6DB002069
:107AB000C4F8900110BDDA4810B54FF4A071F43845
:107AC0000BF0E9F9D6484FF4CC714C300BF0E3F9E8
:107AD000FFF7CEFFBDE810404DF293034822D34993
